{
  "_format": "hh-sol-artifact-1",
  "contractName": "ERC1155OnChain",
  "sourceName": "contracts/schain/tokens/ERC1155OnChain.sol",
  "abi": [
    {
      "inputs": [
        {
          "internalType": "string",
          "name": "uri",
          "type": "string"
        }
      ],
      "stateMutability": "nonpayable",
      "type": "constructor"
    },
    {
      "anonymous": false,
      "inputs": [
        {
          "indexed": true,
          "internalType": "address",
          "name": "account",
          "type": "address"
        },
        {
          "indexed": true,
          "internalType": "address",
          "name": "operator",
          "type": "address"
        },
        {
          "indexed": false,
          "internalType": "bool",
          "name": "approved",
          "type": "bool"
        }
      ],
      "name": "ApprovalForAll",
      "type": "event"
    },
    {
      "anonymous": false,
      "inputs": [
        {
          "indexed": false,
          "internalType": "uint8",
          "name": "version",
          "type": "uint8"
        }
      ],
      "name": "Initialized",
      "type": "event"
    },
    {
      "anonymous": false,
      "inputs": [
        {
          "indexed": true,
          "internalType": "bytes32",
          "name": "role",
          "type": "bytes32"
        },
        {
          "indexed": true,
          "internalType": "bytes32",
          "name": "previousAdminRole",
          "type": "bytes32"
        },
        {
          "indexed": true,
          "internalType": "bytes32",
          "name": "newAdminRole",
          "type": "bytes32"
        }
      ],
      "name": "RoleAdminChanged",
      "type": "event"
    },
    {
      "anonymous": false,
      "inputs": [
        {
          "indexed": true,
          "internalType": "bytes32",
          "name": "role",
          "type": "bytes32"
        },
        {
          "indexed": true,
          "internalType": "address",
          "name": "account",
          "type": "address"
        },
        {
          "indexed": true,
          "internalType": "address",
          "name": "sender",
          "type": "address"
        }
      ],
      "name": "RoleGranted",
      "type": "event"
    },
    {
      "anonymous": false,
      "inputs": [
        {
          "indexed": true,
          "internalType": "bytes32",
          "name": "role",
          "type": "bytes32"
        },
        {
          "indexed": true,
          "internalType": "address",
          "name": "account",
          "type": "address"
        },
        {
          "indexed": true,
          "internalType": "address",
          "name": "sender",
          "type": "address"
        }
      ],
      "name": "RoleRevoked",
      "type": "event"
    },
    {
      "anonymous": false,
      "inputs": [
        {
          "indexed": true,
          "internalType": "address",
          "name": "operator",
          "type": "address"
        },
        {
          "indexed": true,
          "internalType": "address",
          "name": "from",
          "type": "address"
        },
        {
          "indexed": true,
          "internalType": "address",
          "name": "to",
          "type": "address"
        },
        {
          "indexed": false,
          "internalType": "uint256[]",
          "name": "ids",
          "type": "uint256[]"
        },
        {
          "indexed": false,
          "internalType": "uint256[]",
          "name": "values",
          "type": "uint256[]"
        }
      ],
      "name": "TransferBatch",
      "type": "event"
    },
    {
      "anonymous": false,
      "inputs": [
        {
          "indexed": true,
          "internalType": "address",
          "name": "operator",
          "type": "address"
        },
        {
          "indexed": true,
          "internalType": "address",
          "name": "from",
          "type": "address"
        },
        {
          "indexed": true,
          "internalType": "address",
          "name": "to",
          "type": "address"
        },
        {
          "indexed": false,
          "internalType": "uint256",
          "name": "id",
          "type": "uint256"
        },
        {
          "indexed": false,
          "internalType": "uint256",
          "name": "value",
          "type": "uint256"
        }
      ],
      "name": "TransferSingle",
      "type": "event"
    },
    {
      "anonymous": false,
      "inputs": [
        {
          "indexed": false,
          "internalType": "string",
          "name": "value",
          "type": "string"
        },
        {
          "indexed": true,
          "internalType": "uint256",
          "name": "id",
          "type": "uint256"
        }
      ],
      "name": "URI",
      "type": "event"
    },
    {
      "inputs": [],
      "name": "DEFAULT_ADMIN_ROLE",
      "outputs": [
        {
          "internalType": "bytes32",
          "name": "",
          "type": "bytes32"
        }
      ],
      "stateMutability": "view",
      "type": "function"
    },
    {
      "inputs": [],
      "name": "MINTER_ROLE",
      "outputs": [
        {
          "internalType": "bytes32",
          "name": "",
          "type": "bytes32"
        }
      ],
      "stateMutability": "view",
      "type": "function"
    },
    {
      "inputs": [
        {
          "internalType": "address",
          "name": "account",
          "type": "address"
        },
        {
          "internalType": "uint256",
          "name": "id",
          "type": "uint256"
        }
      ],
      "name": "balanceOf",
      "outputs": [
        {
          "internalType": "uint256",
          "name": "",
          "type": "uint256"
        }
      ],
      "stateMutability": "view",
      "type": "function"
    },
    {
      "inputs": [
        {
          "internalType": "address[]",
          "name": "accounts",
          "type": "address[]"
        },
        {
          "internalType": "uint256[]",
          "name": "ids",
          "type": "uint256[]"
        }
      ],
      "name": "balanceOfBatch",
      "outputs": [
        {
          "internalType": "uint256[]",
          "name": "",
          "type": "uint256[]"
        }
      ],
      "stateMutability": "view",
      "type": "function"
    },
    {
      "inputs": [
        {
          "internalType": "address",
          "name": "account",
          "type": "address"
        },
        {
          "internalType": "uint256",
          "name": "id",
          "type": "uint256"
        },
        {
          "internalType": "uint256",
          "name": "value",
          "type": "uint256"
        }
      ],
      "name": "burn",
      "outputs": [],
      "stateMutability": "nonpayable",
      "type": "function"
    },
    {
      "inputs": [
        {
          "internalType": "address",
          "name": "account",
          "type": "address"
        },
        {
          "internalType": "uint256[]",
          "name": "ids",
          "type": "uint256[]"
        },
        {
          "internalType": "uint256[]",
          "name": "values",
          "type": "uint256[]"
        }
      ],
      "name": "burnBatch",
      "outputs": [],
      "stateMutability": "nonpayable",
      "type": "function"
    },
    {
      "inputs": [
        {
          "internalType": "bytes32",
          "name": "role",
          "type": "bytes32"
        }
      ],
      "name": "getRoleAdmin",
      "outputs": [
        {
          "internalType": "bytes32",
          "name": "",
          "type": "bytes32"
        }
      ],
      "stateMutability": "view",
      "type": "function"
    },
    {
      "inputs": [
        {
          "internalType": "bytes32",
          "name": "role",
          "type": "bytes32"
        },
        {
          "internalType": "uint256",
          "name": "index",
          "type": "uint256"
        }
      ],
      "name": "getRoleMember",
      "outputs": [
        {
          "internalType": "address",
          "name": "",
          "type": "address"
        }
      ],
      "stateMutability": "view",
      "type": "function"
    },
    {
      "inputs": [
        {
          "internalType": "bytes32",
          "name": "role",
          "type": "bytes32"
        }
      ],
      "name": "getRoleMemberCount",
      "outputs": [
        {
          "internalType": "uint256",
          "name": "",
          "type": "uint256"
        }
      ],
      "stateMutability": "view",
      "type": "function"
    },
    {
      "inputs": [
        {
          "internalType": "bytes32",
          "name": "role",
          "type": "bytes32"
        },
        {
          "internalType": "address",
          "name": "account",
          "type": "address"
        }
      ],
      "name": "grantRole",
      "outputs": [],
      "stateMutability": "nonpayable",
      "type": "function"
    },
    {
      "inputs": [
        {
          "internalType": "bytes32",
          "name": "role",
          "type": "bytes32"
        },
        {
          "internalType": "address",
          "name": "account",
          "type": "address"
        }
      ],
      "name": "hasRole",
      "outputs": [
        {
          "internalType": "bool",
          "name": "",
          "type": "bool"
        }
      ],
      "stateMutability": "view",
      "type": "function"
    },
    {
      "inputs": [
        {
          "internalType": "address",
          "name": "account",
          "type": "address"
        },
        {
          "internalType": "address",
          "name": "operator",
          "type": "address"
        }
      ],
      "name": "isApprovedForAll",
      "outputs": [
        {
          "internalType": "bool",
          "name": "",
          "type": "bool"
        }
      ],
      "stateMutability": "view",
      "type": "function"
    },
    {
      "inputs": [
        {
          "internalType": "address",
          "name": "account",
          "type": "address"
        },
        {
          "internalType": "uint256",
          "name": "id",
          "type": "uint256"
        },
        {
          "internalType": "uint256",
          "name": "amount",
          "type": "uint256"
        },
        {
          "internalType": "bytes",
          "name": "data",
          "type": "bytes"
        }
      ],
      "name": "mint",
      "outputs": [],
      "stateMutability": "nonpayable",
      "type": "function"
    },
    {
      "inputs": [
        {
          "internalType": "address",
          "name": "account",
          "type": "address"
        },
        {
          "internalType": "uint256[]",
          "name": "ids",
          "type": "uint256[]"
        },
        {
          "internalType": "uint256[]",
          "name": "amounts",
          "type": "uint256[]"
        },
        {
          "internalType": "bytes",
          "name": "data",
          "type": "bytes"
        }
      ],
      "name": "mintBatch",
      "outputs": [],
      "stateMutability": "nonpayable",
      "type": "function"
    },
    {
      "inputs": [
        {
          "internalType": "bytes32",
          "name": "role",
          "type": "bytes32"
        },
        {
          "internalType": "address",
          "name": "account",
          "type": "address"
        }
      ],
      "name": "renounceRole",
      "outputs": [],
      "stateMutability": "nonpayable",
      "type": "function"
    },
    {
      "inputs": [
        {
          "internalType": "bytes32",
          "name": "role",
          "type": "bytes32"
        },
        {
          "internalType": "address",
          "name": "account",
          "type": "address"
        }
      ],
      "name": "revokeRole",
      "outputs": [],
      "stateMutability": "nonpayable",
      "type": "function"
    },
    {
      "inputs": [
        {
          "internalType": "address",
          "name": "from",
          "type": "address"
        },
        {
          "internalType": "address",
          "name": "to",
          "type": "address"
        },
        {
          "internalType": "uint256[]",
          "name": "ids",
          "type": "uint256[]"
        },
        {
          "internalType": "uint256[]",
          "name": "amounts",
          "type": "uint256[]"
        },
        {
          "internalType": "bytes",
          "name": "data",
          "type": "bytes"
        }
      ],
      "name": "safeBatchTransferFrom",
      "outputs": [],
      "stateMutability": "nonpayable",
      "type": "function"
    },
    {
      "inputs": [
        {
          "internalType": "address",
          "name": "from",
          "type": "address"
        },
        {
          "internalType": "address",
          "name": "to",
          "type": "address"
        },
        {
          "internalType": "uint256",
          "name": "id",
          "type": "uint256"
        },
        {
          "internalType": "uint256",
          "name": "amount",
          "type": "uint256"
        },
        {
          "internalType": "bytes",
          "name": "data",
          "type": "bytes"
        }
      ],
      "name": "safeTransferFrom",
      "outputs": [],
      "stateMutability": "nonpayable",
      "type": "function"
    },
    {
      "inputs": [
        {
          "internalType": "address",
          "name": "operator",
          "type": "address"
        },
        {
          "internalType": "bool",
          "name": "approved",
          "type": "bool"
        }
      ],
      "name": "setApprovalForAll",
      "outputs": [],
      "stateMutability": "nonpayable",
      "type": "function"
    },
    {
      "inputs": [
        {
          "internalType": "bytes4",
          "name": "interfaceId",
          "type": "bytes4"
        }
      ],
      "name": "supportsInterface",
      "outputs": [
        {
          "internalType": "bool",
          "name": "",
          "type": "bool"
        }
      ],
      "stateMutability": "view",
      "type": "function"
    },
    {
      "inputs": [
        {
          "internalType": "uint256",
          "name": "",
          "type": "uint256"
        }
      ],
      "name": "uri",
      "outputs": [
        {
          "internalType": "string",
          "name": "",
          "type": "string"
        }
      ],
      "stateMutability": "view",
      "type": "function"
    }
  ],
  "bytecode": "0x60806040523480156200001157600080fd5b5060405162002e4b38038062002e4b833981016040819052620000349162000584565b600054610100900460ff1615808015620000555750600054600160ff909116105b806200008557506200007230620001d760201b620009131760201c565b15801562000085575060005460ff166001145b620000ee5760405162461bcd60e51b815260206004820152602e60248201527f496e697469616c697a61626c653a20636f6e747261637420697320616c72656160448201526d191e481a5b9a5d1a585b1a5e995960921b60648201526084015b60405180910390fd5b6000805460ff19166001179055801562000112576000805461ff0019166101001790555b62000127620001e660201b620009221760201c565b6200013d826200024460201b6200094b1760201c565b62000152620001e660201b620009221760201c565b6200016d60008051602062002e2b83398151915280620002ae565b6200018860008051602062002e2b83398151915233620002f9565b8015620001cf576000805461ff0019169055604051600181527f7f26b83ff96e1f2b6a682f133852f6798a09c465da95921460cefb38474024989060200160405180910390a15b5050620006b3565b6001600160a01b03163b151590565b600054610100900460ff16620002425760405162461bcd60e51b815260206004820152602b602482015260008051602062002e0b83398151915260448201526a6e697469616c697a696e6760a81b6064820152608401620000e5565b565b600054610100900460ff16620002a05760405162461bcd60e51b815260206004820152602b602482015260008051602062002e0b83398151915260448201526a6e697469616c697a696e6760a81b6064820152608401620000e5565b620002ab8162000309565b50565b600082815260656020526040808220600101805490849055905190918391839186917fbd79b86ffe0ab8e8776151514217cd7cacd52c909f66475c3af44e129f0b00ff9190a4505050565b62000305828262000370565b5050565b600054610100900460ff16620003655760405162461bcd60e51b815260206004820152602b602482015260008051602062002e0b83398151915260448201526a6e697469616c697a696e6760a81b6064820152608401620000e5565b620002ab81620003b3565b620003878282620003c860201b6200097e1760201c565b6000828152609760209081526040909120620003ae91839062000a046200046c821b17901c565b505050565b8051620003059060cb906020840190620004de565b60008281526065602090815260408083206001600160a01b038516845290915290205460ff16620003055760008281526065602090815260408083206001600160a01b03851684529091529020805460ff19166001179055620004283390565b6001600160a01b0316816001600160a01b0316837f2f8788117e7eff1d82e926ec794901d17c78024a50270940304540a733656f0d60405160405180910390a45050565b600062000483836001600160a01b0384166200048c565b90505b92915050565b6000818152600183016020526040812054620004d55750815460018181018455600084815260208082209093018490558454848252828601909352604090209190915562000486565b50600062000486565b828054620004ec9062000660565b90600052602060002090601f0160209004810192826200051057600085556200055b565b82601f106200052b57805160ff19168380011785556200055b565b828001600101855582156200055b579182015b828111156200055b5782518255916020019190600101906200053e565b50620005699291506200056d565b5090565b5b808211156200056957600081556001016200056e565b600060208083850312156200059857600080fd5b82516001600160401b0380821115620005b057600080fd5b818501915085601f830112620005c557600080fd5b815181811115620005da57620005da6200069d565b604051601f8201601f19908116603f011681019083821181831017156200060557620006056200069d565b8160405282815288868487010111156200061e57600080fd5b600093505b8284101562000642578484018601518185018701529285019262000623565b82841115620006545760008684830101525b98975050505050505050565b600181811c908216806200067557607f821691505b602082108114156200069757634e487b7160e01b600052602260045260246000fd5b50919050565b634e487b7160e01b600052604160045260246000fd5b61274880620006c36000396000f3fe608060405234801561001057600080fd5b50600436106101365760003560e01c8063731133e9116100b8578063ca15c8731161007c578063ca15c873146102b4578063d5391393146102c7578063d547741f146102ee578063e985e9c514610301578063f242432a1461033d578063f5298aca1461035057600080fd5b8063731133e9146102485780639010d07c1461025b57806391d1485414610286578063a217fddf14610299578063a22cb465146102a157600080fd5b80632eb2c2d6116100ff5780632eb2c2d6146101dc5780632f2ff15d146101ef57806336568abe146102025780634e1273f4146102155780636b20c4541461023557600080fd5b8062fdd58e1461013b57806301ffc9a7146101615780630e89341c146101845780631f7fdffa146101a4578063248a9ca3146101b9575b600080fd5b61014e610149366004611e57565b610363565b6040519081526020015b60405180910390f35b61017461016f366004612038565b6103fe565b6040519015158152602001610158565b610197610192366004611fda565b610409565b6040516101589190612232565b6101b76101b2366004611d82565b61049d565b005b61014e6101c7366004611fda565b60009081526065602052604090206001015490565b6101b76101ea366004611bff565b61051e565b6101b76101fd366004611ff3565b61056a565b6101b7610210366004611ff3565b610594565b610228610223366004611f09565b610612565b60405161015891906121f1565b6101b7610243366004611d0e565b61073c565b6101b7610256366004611eb4565b61077f565b61026e610269366004612016565b6107fa565b6040516001600160a01b039091168152602001610158565b610174610294366004611ff3565b610819565b61014e600081565b6101b76102af366004611e1b565b610844565b61014e6102c2366004611fda565b61084f565b61014e7f9f2df0fed2c77648de5860a4cc508cd0818c85b8b8a1ab4ceeef8d981c8956a681565b6101b76102fc366004611ff3565b610866565b61017461030f366004611bcc565b6001600160a01b03918216600090815260ca6020908152604080832093909416825291909152205460ff1690565b6101b761034b366004611ca9565b61088b565b6101b761035e366004611e81565b6108d0565b60006001600160a01b0383166103d35760405162461bcd60e51b815260206004820152602a60248201527f455243313135353a2061646472657373207a65726f206973206e6f742061207660448201526930b634b21037bbb732b960b11b60648201526084015b60405180910390fd5b50600081815260c9602090815260408083206001600160a01b03861684529091529020545b92915050565b60006103f882610a19565b606060cb80546104189061257b565b80601f01602080910402602001604051908101604052809291908181526020018280546104449061257b565b80156104915780601f1061046657610100808354040283529160200191610491565b820191906000526020600020905b81548152906001019060200180831161047457829003601f168201915b50505050509050919050565b6104c77f9f2df0fed2c77648de5860a4cc508cd0818c85b8b8a1ab4ceeef8d981c8956a633610819565b61050c5760405162461bcd60e51b815260206004820152601660248201527529b2b73232b91034b9903737ba10309026b4b73a32b960511b60448201526064016103ca565b61051884848484610a59565b50505050565b6001600160a01b03851633148061053a575061053a853361030f565b6105565760405162461bcd60e51b81526004016103ca90612245565b6105638585858585610ba5565b5050505050565b60008281526065602052604090206001015461058581610d44565b61058f8383610d4e565b505050565b6001600160a01b03811633146106045760405162461bcd60e51b815260206004820152602f60248201527f416363657373436f6e74726f6c3a2063616e206f6e6c792072656e6f756e636560448201526e103937b632b9903337b91039b2b63360891b60648201526084016103ca565b61060e8282610d70565b5050565b606081518351146106775760405162461bcd60e51b815260206004820152602960248201527f455243313135353a206163636f756e747320616e6420696473206c656e677468604482015268040dad2e6dac2e8c6d60bb1b60648201526084016103ca565b6000835167ffffffffffffffff81111561069357610693612640565b6040519080825280602002602001820160405280156106bc578160200160208202803683370190505b50905060005b8451811015610734576107078582815181106106e0576106e061262a565b60200260200101518583815181106106fa576106fa61262a565b6020026020010151610363565b8282815181106107195761071961262a565b602090810291909101015261072d816125e3565b90506106c2565b509392505050565b6001600160a01b0383163314806107585750610758833361030f565b6107745760405162461bcd60e51b81526004016103ca90612245565b61058f838383610d92565b6107a97f9f2df0fed2c77648de5860a4cc508cd0818c85b8b8a1ab4ceeef8d981c8956a633610819565b6107ee5760405162461bcd60e51b815260206004820152601660248201527529b2b73232b91034b9903737ba10309026b4b73a32b960511b60448201526064016103ca565b61051884848484610f1f565b60008281526097602052604081206108129083610ffb565b9392505050565b60009182526065602090815260408084206001600160a01b0393909316845291905290205460ff1690565b61060e338383611007565b60008181526097602052604081206103f8906110e8565b60008281526065602052604090206001015461088181610d44565b61058f8383610d70565b6001600160a01b0385163314806108a757506108a7853361030f565b6108c35760405162461bcd60e51b81526004016103ca90612245565b61056385858585856110f2565b6001600160a01b0383163314806108ec57506108ec833361030f565b6109085760405162461bcd60e51b81526004016103ca90612245565b61058f838383611220565b6001600160a01b03163b151590565b600054610100900460ff166109495760405162461bcd60e51b81526004016103ca906123f2565b565b600054610100900460ff166109725760405162461bcd60e51b81526004016103ca906123f2565b61097b81611327565b50565b6109888282610819565b61060e5760008281526065602090815260408083206001600160a01b03851684529091529020805460ff191660011790556109c03390565b6001600160a01b0316816001600160a01b0316837f2f8788117e7eff1d82e926ec794901d17c78024a50270940304540a733656f0d60405160405180910390a45050565b6000610812836001600160a01b038416611357565b60006001600160e01b03198216636cdb3d1360e11b1480610a4a57506001600160e01b031982166303a24d0760e21b145b806103f857506103f8826113a6565b6001600160a01b038416610a7f5760405162461bcd60e51b81526004016103ca90612485565b8151835114610aa05760405162461bcd60e51b81526004016103ca9061243d565b3360005b8451811015610b3d57838181518110610abf57610abf61262a565b602002602001015160c96000878481518110610add57610add61262a565b602002602001015181526020019081526020016000206000886001600160a01b03166001600160a01b031681526020019081526020016000206000828254610b2591906124ea565b90915550819050610b35816125e3565b915050610aa4565b50846001600160a01b031660006001600160a01b0316826001600160a01b03167f4a39dc06d4c0dbc64b70af90fd698a233a518aa5d07e595d983b8c0526c8f7fb8787604051610b8e929190612204565b60405180910390a4610563816000878787876113cb565b8151835114610bc65760405162461bcd60e51b81526004016103ca9061243d565b6001600160a01b038416610bec5760405162461bcd60e51b81526004016103ca90612320565b3360005b8451811015610cd6576000858281518110610c0d57610c0d61262a565b602002602001015190506000858381518110610c2b57610c2b61262a565b602090810291909101810151600084815260c9835260408082206001600160a01b038e168352909352919091205490915081811015610c7c5760405162461bcd60e51b81526004016103ca906123a8565b600083815260c9602090815260408083206001600160a01b038e8116855292528083208585039055908b16825281208054849290610cbb9084906124ea565b9250508190555050505080610ccf906125e3565b9050610bf0565b50846001600160a01b0316866001600160a01b0316826001600160a01b03167f4a39dc06d4c0dbc64b70af90fd698a233a518aa5d07e595d983b8c0526c8f7fb8787604051610d26929190612204565b60405180910390a4610d3c8187878787876113cb565b505050505050565b61097b8133611536565b610d58828261097e565b600082815260976020526040902061058f9082610a04565b610d7a828261159a565b600082815260976020526040902061058f9082611601565b6001600160a01b038316610db85760405162461bcd60e51b81526004016103ca90612365565b8051825114610dd95760405162461bcd60e51b81526004016103ca9061243d565b604080516020810190915260009081905233905b8351811015610eb2576000848281518110610e0a57610e0a61262a565b602002602001015190506000848381518110610e2857610e2861262a565b602090810291909101810151600084815260c9835260408082206001600160a01b038c168352909352919091205490915081811015610e795760405162461bcd60e51b81526004016103ca906122dc565b600092835260c9602090815260408085206001600160a01b038b1686529091529092209103905580610eaa816125e3565b915050610ded565b5060006001600160a01b0316846001600160a01b0316826001600160a01b03167f4a39dc06d4c0dbc64b70af90fd698a233a518aa5d07e595d983b8c0526c8f7fb8686604051610f03929190612204565b60405180910390a4604080516020810190915260009052610518565b6001600160a01b038416610f455760405162461bcd60e51b81526004016103ca90612485565b336000610f5185611616565b90506000610f5e85611616565b9050600086815260c9602090815260408083206001600160a01b038b16845290915281208054879290610f929084906124ea565b909155505060408051878152602081018790526001600160a01b03808a1692600092918716917fc3d58168c5ae7397731d063d5bbf3d657854427343f4c083240f7aacaa2d0f62910160405180910390a4610ff283600089898989611661565b50505050505050565b6000610812838361172b565b816001600160a01b0316836001600160a01b0316141561107b5760405162461bcd60e51b815260206004820152602960248201527f455243313135353a2073657474696e6720617070726f76616c20737461747573604482015268103337b91039b2b63360b91b60648201526084016103ca565b6001600160a01b03838116600081815260ca6020908152604080832094871680845294825291829020805460ff191686151590811790915591519182527f17307eab39ab6107e8899845ad3d59bd9653f200f220920489ca2b5937696c31910160405180910390a3505050565b60006103f8825490565b6001600160a01b0384166111185760405162461bcd60e51b81526004016103ca90612320565b33600061112485611616565b9050600061113185611616565b9050600086815260c9602090815260408083206001600160a01b038c168452909152902054858110156111765760405162461bcd60e51b81526004016103ca906123a8565b600087815260c9602090815260408083206001600160a01b038d8116855292528083208985039055908a168252812080548892906111b59084906124ea565b909155505060408051888152602081018890526001600160a01b03808b16928c821692918816917fc3d58168c5ae7397731d063d5bbf3d657854427343f4c083240f7aacaa2d0f62910160405180910390a4611215848a8a8a8a8a611661565b505050505050505050565b6001600160a01b0383166112465760405162461bcd60e51b81526004016103ca90612365565b33600061125284611616565b9050600061125f84611616565b604080516020808201835260009182905288825260c981528282206001600160a01b038b16835290522054909150848110156112ad5760405162461bcd60e51b81526004016103ca906122dc565b600086815260c9602090815260408083206001600160a01b038b81168086529184528285208a8703905582518b81529384018a90529092908816917fc3d58168c5ae7397731d063d5bbf3d657854427343f4c083240f7aacaa2d0f62910160405180910390a4604080516020810190915260009052610ff2565b600054610100900460ff1661134e5760405162461bcd60e51b81526004016103ca906123f2565b61097b81611755565b600081815260018301602052604081205461139e575081546001818101845560008481526020808220909301849055845484825282860190935260409020919091556103f8565b5060006103f8565b60006001600160e01b03198216635a05180f60e01b14806103f857506103f882611768565b6001600160a01b0384163b15610d3c5760405163bc197c8160e01b81526001600160a01b0385169063bc197c819061140f908990899088908890889060040161214e565b602060405180830381600087803b15801561142957600080fd5b505af1925050508015611459575060408051601f3d908101601f1916820190925261145691810190612055565b60015b61150657611465612656565b806308c379a0141561149f575061147a612672565b8061148557506114a1565b8060405162461bcd60e51b81526004016103ca9190612232565b505b60405162461bcd60e51b815260206004820152603460248201527f455243313135353a207472616e7366657220746f206e6f6e20455243313135356044820152732932b1b2b4bb32b91034b6b83632b6b2b73a32b960611b60648201526084016103ca565b6001600160e01b0319811663bc197c8160e01b14610ff25760405162461bcd60e51b81526004016103ca90612294565b6115408282610819565b61060e57611558816001600160a01b0316601461179d565b61156383602061179d565b6040516020016115749291906120d9565b60408051601f198184030181529082905262461bcd60e51b82526103ca91600401612232565b6115a48282610819565b1561060e5760008281526065602090815260408083206001600160a01b0385168085529252808320805460ff1916905551339285917ff6391f5c32d9c69d2a47ea670b442974b53935d1edc7fd64eb21e047a839171b9190a45050565b6000610812836001600160a01b038416611939565b604080516001808252818301909252606091600091906020808301908036833701905050905082816000815181106116505761165061262a565b602090810291909101015292915050565b6001600160a01b0384163b15610d3c5760405163f23a6e6160e01b81526001600160a01b0385169063f23a6e61906116a590899089908890889088906004016121ac565b602060405180830381600087803b1580156116bf57600080fd5b505af19250505080156116ef575060408051601f3d908101601f191682019092526116ec91810190612055565b60015b6116fb57611465612656565b6001600160e01b0319811663f23a6e6160e01b14610ff25760405162461bcd60e51b81526004016103ca90612294565b60008260000182815481106117425761174261262a565b9060005260206000200154905092915050565b805161060e9060cb906020840190611a2c565b60006001600160e01b03198216637965db0b60e01b14806103f857506301ffc9a760e01b6001600160e01b03198316146103f8565b606060006117ac836002612502565b6117b79060026124ea565b67ffffffffffffffff8111156117cf576117cf612640565b6040519080825280601f01601f1916602001820160405280156117f9576020820181803683370190505b509050600360fc1b816000815181106118145761181461262a565b60200101906001600160f81b031916908160001a905350600f60fb1b816001815181106118435761184361262a565b60200101906001600160f81b031916908160001a9053506000611867846002612502565b6118729060016124ea565b90505b60018111156118ea576f181899199a1a9b1b9c1cb0b131b232b360811b85600f16601081106118a6576118a661262a565b1a60f81b8282815181106118bc576118bc61262a565b60200101906001600160f81b031916908160001a90535060049490941c936118e381612564565b9050611875565b5083156108125760405162461bcd60e51b815260206004820181905260248201527f537472696e67733a20686578206c656e67746820696e73756666696369656e7460448201526064016103ca565b60008181526001830160205260408120548015611a2257600061195d600183612521565b855490915060009061197190600190612521565b90508181146119d65760008660000182815481106119915761199161262a565b90600052602060002001549050808760000184815481106119b4576119b461262a565b6000918252602080832090910192909255918252600188019052604090208390555b85548690806119e7576119e7612614565b6001900381819060005260206000200160009055905585600101600086815260200190815260200160002060009055600193505050506103f8565b60009150506103f8565b828054611a389061257b565b90600052602060002090601f016020900481019282611a5a5760008555611aa0565b82601f10611a7357805160ff1916838001178555611aa0565b82800160010185558215611aa0579182015b82811115611aa0578251825591602001919060010190611a85565b50611aac929150611ab0565b5090565b5b80821115611aac5760008155600101611ab1565b80356001600160a01b0381168114611adc57600080fd5b919050565b600082601f830112611af257600080fd5b81356020611aff826124c6565b604051611b0c82826125b6565b8381528281019150858301600585901b87018401881015611b2c57600080fd5b60005b85811015611b4b57813584529284019290840190600101611b2f565b5090979650505050505050565b600082601f830112611b6957600080fd5b813567ffffffffffffffff811115611b8357611b83612640565b604051611b9a601f8301601f1916602001826125b6565b818152846020838601011115611baf57600080fd5b816020850160208301376000918101602001919091529392505050565b60008060408385031215611bdf57600080fd5b611be883611ac5565b9150611bf660208401611ac5565b90509250929050565b600080600080600060a08688031215611c1757600080fd5b611c2086611ac5565b9450611c2e60208701611ac5565b9350604086013567ffffffffffffffff80821115611c4b57600080fd5b611c5789838a01611ae1565b94506060880135915080821115611c6d57600080fd5b611c7989838a01611ae1565b93506080880135915080821115611c8f57600080fd5b50611c9c88828901611b58565b9150509295509295909350565b600080600080600060a08688031215611cc157600080fd5b611cca86611ac5565b9450611cd860208701611ac5565b93506040860135925060608601359150608086013567ffffffffffffffff811115611d0257600080fd5b611c9c88828901611b58565b600080600060608486031215611d2357600080fd5b611d2c84611ac5565b9250602084013567ffffffffffffffff80821115611d4957600080fd5b611d5587838801611ae1565b93506040860135915080821115611d6b57600080fd5b50611d7886828701611ae1565b9150509250925092565b60008060008060808587031215611d9857600080fd5b611da185611ac5565b9350602085013567ffffffffffffffff80821115611dbe57600080fd5b611dca88838901611ae1565b94506040870135915080821115611de057600080fd5b611dec88838901611ae1565b93506060870135915080821115611e0257600080fd5b50611e0f87828801611b58565b91505092959194509250565b60008060408385031215611e2e57600080fd5b611e3783611ac5565b915060208301358015158114611e4c57600080fd5b809150509250929050565b60008060408385031215611e6a57600080fd5b611e7383611ac5565b946020939093013593505050565b600080600060608486031215611e9657600080fd5b611e9f84611ac5565b95602085013595506040909401359392505050565b60008060008060808587031215611eca57600080fd5b611ed385611ac5565b93506020850135925060408501359150606085013567ffffffffffffffff811115611efd57600080fd5b611e0f87828801611b58565b60008060408385031215611f1c57600080fd5b823567ffffffffffffffff80821115611f3457600080fd5b818501915085601f830112611f4857600080fd5b81356020611f55826124c6565b604051611f6282826125b6565b8381528281019150858301600585901b870184018b1015611f8257600080fd5b600096505b84871015611fac57611f9881611ac5565b835260019690960195918301918301611f87565b5096505086013592505080821115611fc357600080fd5b50611fd085828601611ae1565b9150509250929050565b600060208284031215611fec57600080fd5b5035919050565b6000806040838503121561200657600080fd5b82359150611bf660208401611ac5565b6000806040838503121561202957600080fd5b50508035926020909101359150565b60006020828403121561204a57600080fd5b8135610812816126fc565b60006020828403121561206757600080fd5b8151610812816126fc565b600081518084526020808501945080840160005b838110156120a257815187529582019590820190600101612086565b509495945050505050565b600081518084526120c5816020860160208601612538565b601f01601f19169290920160200192915050565b7f416363657373436f6e74726f6c3a206163636f756e7420000000000000000000815260008351612111816017850160208801612538565b7001034b99036b4b9b9b4b733903937b6329607d1b6017918401918201528351612142816028840160208801612538565b01602801949350505050565b6001600160a01b0386811682528516602082015260a06040820181905260009061217a90830186612072565b828103606084015261218c8186612072565b905082810360808401526121a081856120ad565b98975050505050505050565b6001600160a01b03868116825285166020820152604081018490526060810183905260a0608082018190526000906121e6908301846120ad565b979650505050505050565b6020815260006108126020830184612072565b6040815260006122176040830185612072565b82810360208401526122298185612072565b95945050505050565b60208152600061081260208301846120ad565b6020808252602f908201527f455243313135353a2063616c6c6572206973206e6f7420746f6b656e206f776e60408201526e195c881b9bdc88185c1c1c9bdd9959608a1b606082015260800190565b60208082526028908201527f455243313135353a204552433131353552656365697665722072656a656374656040820152676420746f6b656e7360c01b606082015260800190565b60208082526024908201527f455243313135353a206275726e20616d6f756e7420657863656564732062616c604082015263616e636560e01b606082015260800190565b60208082526025908201527f455243313135353a207472616e7366657220746f20746865207a65726f206164604082015264647265737360d81b606082015260800190565b60208082526023908201527f455243313135353a206275726e2066726f6d20746865207a65726f206164647260408201526265737360e81b606082015260800190565b6020808252602a908201527f455243313135353a20696e73756666696369656e742062616c616e636520666f60408201526939103a3930b739b332b960b11b606082015260800190565b6020808252602b908201527f496e697469616c697a61626c653a20636f6e7472616374206973206e6f74206960408201526a6e697469616c697a696e6760a81b606082015260800190565b60208082526028908201527f455243313135353a2069647320616e6420616d6f756e7473206c656e677468206040820152670dad2e6dac2e8c6d60c31b606082015260800190565b60208082526021908201527f455243313135353a206d696e7420746f20746865207a65726f206164647265736040820152607360f81b606082015260800190565b600067ffffffffffffffff8211156124e0576124e0612640565b5060051b60200190565b600082198211156124fd576124fd6125fe565b500190565b600081600019048311821515161561251c5761251c6125fe565b500290565b600082821015612533576125336125fe565b500390565b60005b8381101561255357818101518382015260200161253b565b838111156105185750506000910152565b600081612573576125736125fe565b506000190190565b600181811c9082168061258f57607f821691505b602082108114156125b057634e487b7160e01b600052602260045260246000fd5b50919050565b601f8201601f1916810167ffffffffffffffff811182821017156125dc576125dc612640565b6040525050565b60006000198214156125f7576125f76125fe565b5060010190565b634e487b7160e01b600052601160045260246000fd5b634e487b7160e01b600052603160045260246000fd5b634e487b7160e01b600052603260045260246000fd5b634e487b7160e01b600052604160045260246000fd5b600060033d111561266f5760046000803e5060005160e01c5b90565b600060443d10156126805790565b6040516003193d81016004833e81513d67ffffffffffffffff81602484011181841117156126b057505050505090565b82850191508151818111156126c85750505050505090565b843d87010160208285010111156126e25750505050505090565b6126f1602082860101876125b6565b509095945050505050565b6001600160e01b03198116811461097b57600080fdfea26469706673582212204ee6932d7e8a0e96b8e54bd3483758ac4045b74912e695155ff8a4e9e6c7253064736f6c63430008060033496e697469616c697a61626c653a20636f6e7472616374206973206e6f7420699f2df0fed2c77648de5860a4cc508cd0818c85b8b8a1ab4ceeef8d981c8956a6",
  "linkReferences": {},
  "deployedLinkReferences": {}
}