{
  "_format": "hh-sol-artifact-1",
  "contractName": "ERC721OnChain",
  "sourceName": "contracts/schain/tokens/ERC721OnChain.sol",
  "abi": [
    {
      "inputs": [
        {
          "internalType": "string",
          "name": "contractName",
          "type": "string"
        },
        {
          "internalType": "string",
          "name": "contractSymbol",
          "type": "string"
        }
      ],
      "stateMutability": "nonpayable",
      "type": "constructor"
    },
    {
      "anonymous": false,
      "inputs": [
        {
          "indexed": true,
          "internalType": "address",
          "name": "owner",
          "type": "address"
        },
        {
          "indexed": true,
          "internalType": "address",
          "name": "approved",
          "type": "address"
        },
        {
          "indexed": true,
          "internalType": "uint256",
          "name": "tokenId",
          "type": "uint256"
        }
      ],
      "name": "Approval",
      "type": "event"
    },
    {
      "anonymous": false,
      "inputs": [
        {
          "indexed": true,
          "internalType": "address",
          "name": "owner",
          "type": "address"
        },
        {
          "indexed": true,
          "internalType": "address",
          "name": "operator",
          "type": "address"
        },
        {
          "indexed": false,
          "internalType": "bool",
          "name": "approved",
          "type": "bool"
        }
      ],
      "name": "ApprovalForAll",
      "type": "event"
    },
    {
      "anonymous": false,
      "inputs": [
        {
          "indexed": false,
          "internalType": "uint8",
          "name": "version",
          "type": "uint8"
        }
      ],
      "name": "Initialized",
      "type": "event"
    },
    {
      "anonymous": false,
      "inputs": [
        {
          "indexed": true,
          "internalType": "bytes32",
          "name": "role",
          "type": "bytes32"
        },
        {
          "indexed": true,
          "internalType": "bytes32",
          "name": "previousAdminRole",
          "type": "bytes32"
        },
        {
          "indexed": true,
          "internalType": "bytes32",
          "name": "newAdminRole",
          "type": "bytes32"
        }
      ],
      "name": "RoleAdminChanged",
      "type": "event"
    },
    {
      "anonymous": false,
      "inputs": [
        {
          "indexed": true,
          "internalType": "bytes32",
          "name": "role",
          "type": "bytes32"
        },
        {
          "indexed": true,
          "internalType": "address",
          "name": "account",
          "type": "address"
        },
        {
          "indexed": true,
          "internalType": "address",
          "name": "sender",
          "type": "address"
        }
      ],
      "name": "RoleGranted",
      "type": "event"
    },
    {
      "anonymous": false,
      "inputs": [
        {
          "indexed": true,
          "internalType": "bytes32",
          "name": "role",
          "type": "bytes32"
        },
        {
          "indexed": true,
          "internalType": "address",
          "name": "account",
          "type": "address"
        },
        {
          "indexed": true,
          "internalType": "address",
          "name": "sender",
          "type": "address"
        }
      ],
      "name": "RoleRevoked",
      "type": "event"
    },
    {
      "anonymous": false,
      "inputs": [
        {
          "indexed": true,
          "internalType": "address",
          "name": "from",
          "type": "address"
        },
        {
          "indexed": true,
          "internalType": "address",
          "name": "to",
          "type": "address"
        },
        {
          "indexed": true,
          "internalType": "uint256",
          "name": "tokenId",
          "type": "uint256"
        }
      ],
      "name": "Transfer",
      "type": "event"
    },
    {
      "inputs": [],
      "name": "DEFAULT_ADMIN_ROLE",
      "outputs": [
        {
          "internalType": "bytes32",
          "name": "",
          "type": "bytes32"
        }
      ],
      "stateMutability": "view",
      "type": "function"
    },
    {
      "inputs": [],
      "name": "MINTER_ROLE",
      "outputs": [
        {
          "internalType": "bytes32",
          "name": "",
          "type": "bytes32"
        }
      ],
      "stateMutability": "view",
      "type": "function"
    },
    {
      "inputs": [
        {
          "internalType": "address",
          "name": "to",
          "type": "address"
        },
        {
          "internalType": "uint256",
          "name": "tokenId",
          "type": "uint256"
        }
      ],
      "name": "approve",
      "outputs": [],
      "stateMutability": "nonpayable",
      "type": "function"
    },
    {
      "inputs": [
        {
          "internalType": "address",
          "name": "owner",
          "type": "address"
        }
      ],
      "name": "balanceOf",
      "outputs": [
        {
          "internalType": "uint256",
          "name": "",
          "type": "uint256"
        }
      ],
      "stateMutability": "view",
      "type": "function"
    },
    {
      "inputs": [
        {
          "internalType": "uint256",
          "name": "tokenId",
          "type": "uint256"
        }
      ],
      "name": "burn",
      "outputs": [],
      "stateMutability": "nonpayable",
      "type": "function"
    },
    {
      "inputs": [
        {
          "internalType": "uint256",
          "name": "tokenId",
          "type": "uint256"
        }
      ],
      "name": "getApproved",
      "outputs": [
        {
          "internalType": "address",
          "name": "",
          "type": "address"
        }
      ],
      "stateMutability": "view",
      "type": "function"
    },
    {
      "inputs": [
        {
          "internalType": "bytes32",
          "name": "role",
          "type": "bytes32"
        }
      ],
      "name": "getRoleAdmin",
      "outputs": [
        {
          "internalType": "bytes32",
          "name": "",
          "type": "bytes32"
        }
      ],
      "stateMutability": "view",
      "type": "function"
    },
    {
      "inputs": [
        {
          "internalType": "bytes32",
          "name": "role",
          "type": "bytes32"
        },
        {
          "internalType": "uint256",
          "name": "index",
          "type": "uint256"
        }
      ],
      "name": "getRoleMember",
      "outputs": [
        {
          "internalType": "address",
          "name": "",
          "type": "address"
        }
      ],
      "stateMutability": "view",
      "type": "function"
    },
    {
      "inputs": [
        {
          "internalType": "bytes32",
          "name": "role",
          "type": "bytes32"
        }
      ],
      "name": "getRoleMemberCount",
      "outputs": [
        {
          "internalType": "uint256",
          "name": "",
          "type": "uint256"
        }
      ],
      "stateMutability": "view",
      "type": "function"
    },
    {
      "inputs": [
        {
          "internalType": "bytes32",
          "name": "role",
          "type": "bytes32"
        },
        {
          "internalType": "address",
          "name": "account",
          "type": "address"
        }
      ],
      "name": "grantRole",
      "outputs": [],
      "stateMutability": "nonpayable",
      "type": "function"
    },
    {
      "inputs": [
        {
          "internalType": "bytes32",
          "name": "role",
          "type": "bytes32"
        },
        {
          "internalType": "address",
          "name": "account",
          "type": "address"
        }
      ],
      "name": "hasRole",
      "outputs": [
        {
          "internalType": "bool",
          "name": "",
          "type": "bool"
        }
      ],
      "stateMutability": "view",
      "type": "function"
    },
    {
      "inputs": [
        {
          "internalType": "address",
          "name": "owner",
          "type": "address"
        },
        {
          "internalType": "address",
          "name": "operator",
          "type": "address"
        }
      ],
      "name": "isApprovedForAll",
      "outputs": [
        {
          "internalType": "bool",
          "name": "",
          "type": "bool"
        }
      ],
      "stateMutability": "view",
      "type": "function"
    },
    {
      "inputs": [
        {
          "internalType": "address",
          "name": "account",
          "type": "address"
        },
        {
          "internalType": "uint256",
          "name": "tokenId",
          "type": "uint256"
        }
      ],
      "name": "mint",
      "outputs": [],
      "stateMutability": "nonpayable",
      "type": "function"
    },
    {
      "inputs": [],
      "name": "name",
      "outputs": [
        {
          "internalType": "string",
          "name": "",
          "type": "string"
        }
      ],
      "stateMutability": "view",
      "type": "function"
    },
    {
      "inputs": [
        {
          "internalType": "uint256",
          "name": "tokenId",
          "type": "uint256"
        }
      ],
      "name": "ownerOf",
      "outputs": [
        {
          "internalType": "address",
          "name": "",
          "type": "address"
        }
      ],
      "stateMutability": "view",
      "type": "function"
    },
    {
      "inputs": [
        {
          "internalType": "bytes32",
          "name": "role",
          "type": "bytes32"
        },
        {
          "internalType": "address",
          "name": "account",
          "type": "address"
        }
      ],
      "name": "renounceRole",
      "outputs": [],
      "stateMutability": "nonpayable",
      "type": "function"
    },
    {
      "inputs": [
        {
          "internalType": "bytes32",
          "name": "role",
          "type": "bytes32"
        },
        {
          "internalType": "address",
          "name": "account",
          "type": "address"
        }
      ],
      "name": "revokeRole",
      "outputs": [],
      "stateMutability": "nonpayable",
      "type": "function"
    },
    {
      "inputs": [
        {
          "internalType": "address",
          "name": "from",
          "type": "address"
        },
        {
          "internalType": "address",
          "name": "to",
          "type": "address"
        },
        {
          "internalType": "uint256",
          "name": "tokenId",
          "type": "uint256"
        }
      ],
      "name": "safeTransferFrom",
      "outputs": [],
      "stateMutability": "nonpayable",
      "type": "function"
    },
    {
      "inputs": [
        {
          "internalType": "address",
          "name": "from",
          "type": "address"
        },
        {
          "internalType": "address",
          "name": "to",
          "type": "address"
        },
        {
          "internalType": "uint256",
          "name": "tokenId",
          "type": "uint256"
        },
        {
          "internalType": "bytes",
          "name": "data",
          "type": "bytes"
        }
      ],
      "name": "safeTransferFrom",
      "outputs": [],
      "stateMutability": "nonpayable",
      "type": "function"
    },
    {
      "inputs": [
        {
          "internalType": "address",
          "name": "operator",
          "type": "address"
        },
        {
          "internalType": "bool",
          "name": "approved",
          "type": "bool"
        }
      ],
      "name": "setApprovalForAll",
      "outputs": [],
      "stateMutability": "nonpayable",
      "type": "function"
    },
    {
      "inputs": [
        {
          "internalType": "uint256",
          "name": "tokenId",
          "type": "uint256"
        },
        {
          "internalType": "string",
          "name": "tokenUri",
          "type": "string"
        }
      ],
      "name": "setTokenURI",
      "outputs": [
        {
          "internalType": "bool",
          "name": "",
          "type": "bool"
        }
      ],
      "stateMutability": "nonpayable",
      "type": "function"
    },
    {
      "inputs": [
        {
          "internalType": "bytes4",
          "name": "interfaceId",
          "type": "bytes4"
        }
      ],
      "name": "supportsInterface",
      "outputs": [
        {
          "internalType": "bool",
          "name": "",
          "type": "bool"
        }
      ],
      "stateMutability": "view",
      "type": "function"
    },
    {
      "inputs": [],
      "name": "symbol",
      "outputs": [
        {
          "internalType": "string",
          "name": "",
          "type": "string"
        }
      ],
      "stateMutability": "view",
      "type": "function"
    },
    {
      "inputs": [
        {
          "internalType": "uint256",
          "name": "tokenId",
          "type": "uint256"
        }
      ],
      "name": "tokenURI",
      "outputs": [
        {
          "internalType": "string",
          "name": "",
          "type": "string"
        }
      ],
      "stateMutability": "view",
      "type": "function"
    },
    {
      "inputs": [
        {
          "internalType": "address",
          "name": "from",
          "type": "address"
        },
        {
          "internalType": "address",
          "name": "to",
          "type": "address"
        },
        {
          "internalType": "uint256",
          "name": "tokenId",
          "type": "uint256"
        }
      ],
      "name": "transferFrom",
      "outputs": [],
      "stateMutability": "nonpayable",
      "type": "function"
    }
  ],
  "bytecode": "0x60806040523480156200001157600080fd5b506040516200299c3803806200299c833981016040819052620000349162000646565b600054610100900460ff1615808015620000555750600054600160ff909116105b806200008557506200007230620001d960201b62000a3d1760201c565b15801562000085575060005460ff166001145b620000ee5760405162461bcd60e51b815260206004820152602e60248201527f496e697469616c697a61626c653a20636f6e747261637420697320616c72656160448201526d191e481a5b9a5d1a585b1a5e995960921b60648201526084015b60405180910390fd5b6000805460ff19166001179055801562000112576000805461ff0019166101001790555b62000127620001e860201b62000a4c1760201c565b6200013e83836200024660201b62000a751760201c565b62000153620001e860201b62000a4c1760201c565b6200016e6000805160206200297c83398151915280620002b2565b620001896000805160206200297c83398151915233620002fd565b8015620001d0576000805461ff0019169055604051600181527f7f26b83ff96e1f2b6a682f133852f6798a09c465da95921460cefb38474024989060200160405180910390a15b50505062000703565b6001600160a01b03163b151590565b600054610100900460ff16620002445760405162461bcd60e51b815260206004820152602b60248201526000805160206200295c83398151915260448201526a6e697469616c697a696e6760a81b6064820152608401620000e5565b565b600054610100900460ff16620002a25760405162461bcd60e51b815260206004820152602b60248201526000805160206200295c83398151915260448201526a6e697469616c697a696e6760a81b6064820152608401620000e5565b620002ae828262000309565b5050565b600082815260656020526040808220600101805490849055905190918391839186917fbd79b86ffe0ab8e8776151514217cd7cacd52c909f66475c3af44e129f0b00ff9190a4505050565b620002ae828262000395565b600054610100900460ff16620003655760405162461bcd60e51b815260206004820152602b60248201526000805160206200295c83398151915260448201526a6e697469616c697a696e6760a81b6064820152608401620000e5565b81516200037a9060c9906020850190620004e9565b508051620003909060ca906020840190620004e9565b505050565b620003ac8282620003d360201b62000aa61760201c565b60008281526097602090815260409091206200039091839062000b2c62000477821b17901c565b60008281526065602090815260408083206001600160a01b038516845290915290205460ff16620002ae5760008281526065602090815260408083206001600160a01b03851684529091529020805460ff19166001179055620004333390565b6001600160a01b0316816001600160a01b0316837f2f8788117e7eff1d82e926ec794901d17c78024a50270940304540a733656f0d60405160405180910390a45050565b60006200048e836001600160a01b03841662000497565b90505b92915050565b6000818152600183016020526040812054620004e05750815460018181018455600084815260208082209093018490558454848252828601909352604090209190915562000491565b50600062000491565b828054620004f790620006b0565b90600052602060002090601f0160209004810192826200051b576000855562000566565b82601f106200053657805160ff191683800117855562000566565b8280016001018555821562000566579182015b828111156200056657825182559160200191906001019062000549565b506200057492915062000578565b5090565b5b8082111562000574576000815560010162000579565b600082601f830112620005a157600080fd5b81516001600160401b0380821115620005be57620005be620006ed565b604051601f8301601f19908116603f01168101908282118183101715620005e957620005e9620006ed565b816040528381526020925086838588010111156200060657600080fd5b600091505b838210156200062a57858201830151818301840152908201906200060b565b838211156200063c5760008385830101525b9695505050505050565b600080604083850312156200065a57600080fd5b82516001600160401b03808211156200067257600080fd5b62000680868387016200058f565b935060208501519150808211156200069757600080fd5b50620006a6858286016200058f565b9150509250929050565b600181811c90821680620006c557607f821691505b60208210811415620006e757634e487b7160e01b600052602260045260246000fd5b50919050565b634e487b7160e01b600052604160045260246000fd5b61224980620007136000396000f3fe608060405234801561001057600080fd5b50600436106101735760003560e01c80636352211e116100de578063a22cb46511610097578063ca15c87311610071578063ca15c87314610340578063d539139314610353578063d547741f1461037a578063e985e9c51461038d57600080fd5b8063a22cb46514610307578063b88d4fde1461031a578063c87b56dd1461032d57600080fd5b80636352211e146102ab57806370a08231146102be5780639010d07c146102d157806391d14854146102e457806395d89b41146102f7578063a217fddf146102ff57600080fd5b8063248a9ca311610130578063248a9ca31461021b5780632f2ff15d1461024c57806336568abe1461025f57806340c10f191461027257806342842e0e1461028557806342966c681461029857600080fd5b806301ffc9a71461017857806306fdde03146101a0578063081812fc146101b5578063095ea7b3146101e0578063162094c4146101f557806323b872dd14610208575b600080fd5b61018b610186366004611dbf565b6103c9565b60405190151581526020015b60405180910390f35b6101a86103da565b6040516101979190611f82565b6101c86101c3366004611d61565b61046c565b6040516001600160a01b039091168152602001610197565b6101f36101ee366004611d37565b610493565b005b61018b610203366004611df9565b6105ae565b6101f3610216366004611be3565b6106da565b61023e610229366004611d61565b60009081526065602052604090206001015490565b604051908152602001610197565b6101f361025a366004611d7a565b61070c565b6101f361026d366004611d7a565b610731565b6101f3610280366004611d37565b6107af565b6101f3610293366004611be3565b610828565b6101f36102a6366004611d61565b610843565b6101c86102b9366004611d61565b610874565b61023e6102cc366004611b95565b6108d4565b6101c86102df366004611d9d565b61095a565b61018b6102f2366004611d7a565b610979565b6101a86109a4565b61023e600081565b6101f3610315366004611cfb565b6109b3565b6101f3610328366004611c1f565b6109be565b6101a861033b366004611d61565b6109f6565b61023e61034e366004611d61565b610a01565b61023e7f9f2df0fed2c77648de5860a4cc508cd0818c85b8b8a1ab4ceeef8d981c8956a681565b6101f3610388366004611d7a565b610a18565b61018b61039b366004611bb0565b6001600160a01b03918216600090815260ce6020908152604080832093909416825291909152205460ff1690565b60006103d482610b41565b92915050565b606060c980546103e990612125565b80601f016020809104026020016040519081016040528092919081815260200182805461041590612125565b80156104625780601f1061043757610100808354040283529160200191610462565b820191906000526020600020905b81548152906001019060200180831161044557829003601f168201915b5050505050905090565b600061047782610b81565b50600090815260cd60205260409020546001600160a01b031690565b600061049e82610874565b9050806001600160a01b0316836001600160a01b031614156105115760405162461bcd60e51b815260206004820152602160248201527f4552433732313a20617070726f76616c20746f2063757272656e74206f776e656044820152603960f91b60648201526084015b60405180910390fd5b336001600160a01b038216148061052d575061052d813361039b565b61059f5760405162461bcd60e51b815260206004820152603e60248201527f4552433732313a20617070726f76652063616c6c6572206973206e6f7420746f60448201527f6b656e206f776e6572206e6f7220617070726f76656420666f7220616c6c00006064820152608401610508565b6105a98383610be0565b505050565b600083815260cb60205260408120546001600160a01b031661060a5760405162461bcd60e51b8152602060048201526015602482015274546f6b656e20646f6573206e6f742065786973747360581b6044820152606401610508565b6106143385610c4e565b8061064457506106447f9f2df0fed2c77648de5860a4cc508cd0818c85b8b8a1ab4ceeef8d981c8956a633610979565b6106905760405162461bcd60e51b815260206004820152601c60248201527f53656e6465722063616e206e6f742073657420746f6b656e20555249000000006044820152606401610508565b6106d08484848080601f016020809104026020016040519081016040528093929190818152602001838380828437600092019190915250610ccd92505050565b5060019392505050565b6106e5335b82610c4e565b6107015760405162461bcd60e51b815260040161050890612032565b6105a9838383610d68565b60008281526065602052604090206001015461072781610f04565b6105a98383610f0e565b6001600160a01b03811633146107a15760405162461bcd60e51b815260206004820152602f60248201527f416363657373436f6e74726f6c3a2063616e206f6e6c792072656e6f756e636560448201526e103937b632b9903337b91039b2b63360891b6064820152608401610508565b6107ab8282610f30565b5050565b6107d97f9f2df0fed2c77648de5860a4cc508cd0818c85b8b8a1ab4ceeef8d981c8956a633610979565b61081e5760405162461bcd60e51b815260206004820152601660248201527529b2b73232b91034b9903737ba10309026b4b73a32b960511b6044820152606401610508565b6107ab8282610f52565b6105a9838383604051806020016040528060008152506109be565b61084c336106df565b6108685760405162461bcd60e51b815260040161050890612032565b61087181611094565b50565b600081815260cb60205260408120546001600160a01b0316806103d45760405162461bcd60e51b8152602060048201526018602482015277115490cdcc8c4e881a5b9d985b1a59081d1bdad95b88125160421b6044820152606401610508565b60006001600160a01b03821661093e5760405162461bcd60e51b815260206004820152602960248201527f4552433732313a2061646472657373207a65726f206973206e6f7420612076616044820152683634b21037bbb732b960b91b6064820152608401610508565b506001600160a01b0316600090815260cc602052604090205490565b6000828152609760205260408120610972908361109d565b9392505050565b60009182526065602090815260408084206001600160a01b0393909316845291905290205460ff1690565b606060ca80546103e990612125565b6107ab3383836110a9565b6109c83383610c4e565b6109e45760405162461bcd60e51b815260040161050890612032565b6109f084848484611178565b50505050565b60606103d4826111ab565b60008181526097602052604081206103d4906112b5565b600082815260656020526040902060010154610a3381610f04565b6105a98383610f30565b6001600160a01b03163b151590565b600054610100900460ff16610a735760405162461bcd60e51b815260040161050890611fe7565b565b600054610100900460ff16610a9c5760405162461bcd60e51b815260040161050890611fe7565b6107ab82826112bf565b610ab08282610979565b6107ab5760008281526065602090815260408083206001600160a01b03851684529091529020805460ff19166001179055610ae83390565b6001600160a01b0316816001600160a01b0316837f2f8788117e7eff1d82e926ec794901d17c78024a50270940304540a733656f0d60405160405180910390a45050565b6000610972836001600160a01b03841661130d565b60006001600160e01b031982166380ac58cd60e01b1480610b7257506001600160e01b03198216635b5e139f60e01b145b806103d457506103d48261135c565b600081815260cb60205260409020546001600160a01b03166108715760405162461bcd60e51b8152602060048201526018602482015277115490cdcc8c4e881a5b9d985b1a59081d1bdad95b88125160421b6044820152606401610508565b600081815260cd6020526040902080546001600160a01b0319166001600160a01b0384169081179091558190610c1582610874565b6001600160a01b03167f8c5be1e5ebec7d5bd14f71427d1e84f3dd0314c0f7b2291e5b200ac8c7c3b92560405160405180910390a45050565b600080610c5a83610874565b9050806001600160a01b0316846001600160a01b03161480610ca157506001600160a01b03808216600090815260ce602090815260408083209388168352929052205460ff165b80610cc55750836001600160a01b0316610cba8461046c565b6001600160a01b0316145b949350505050565b600082815260cb60205260409020546001600160a01b0316610d485760405162461bcd60e51b815260206004820152602e60248201527f45524337323155524953746f726167653a2055524920736574206f66206e6f6e60448201526d32bc34b9ba32b73a103a37b5b2b760911b6064820152608401610508565b600082815261012d6020908152604090912082516105a992840190611aaa565b826001600160a01b0316610d7b82610874565b6001600160a01b031614610ddf5760405162461bcd60e51b815260206004820152602560248201527f4552433732313a207472616e736665722066726f6d20696e636f72726563742060448201526437bbb732b960d91b6064820152608401610508565b6001600160a01b038216610e415760405162461bcd60e51b8152602060048201526024808201527f4552433732313a207472616e7366657220746f20746865207a65726f206164646044820152637265737360e01b6064820152608401610508565b610e4c600082610be0565b6001600160a01b038316600090815260cc60205260408120805460019290610e759084906120cb565b90915550506001600160a01b038216600090815260cc60205260408120805460019290610ea3908490612080565b9091555050600081815260cb602052604080822080546001600160a01b0319166001600160a01b0386811691821790925591518493918716917fddf252ad1be2c89b69c2b068fc378daa952ba7f163c4a11628f55a4df523b3ef91a4505050565b6108718133611381565b610f188282610aa6565b60008281526097602052604090206105a99082610b2c565b610f3a82826113e5565b60008281526097602052604090206105a9908261144c565b6001600160a01b038216610fa85760405162461bcd60e51b815260206004820181905260248201527f4552433732313a206d696e7420746f20746865207a65726f20616464726573736044820152606401610508565b600081815260cb60205260409020546001600160a01b03161561100d5760405162461bcd60e51b815260206004820152601c60248201527f4552433732313a20746f6b656e20616c7265616479206d696e746564000000006044820152606401610508565b6001600160a01b038216600090815260cc60205260408120805460019290611036908490612080565b9091555050600081815260cb602052604080822080546001600160a01b0319166001600160a01b03861690811790915590518392907fddf252ad1be2c89b69c2b068fc378daa952ba7f163c4a11628f55a4df523b3ef908290a45050565b61087181611461565b600061097283836114a3565b816001600160a01b0316836001600160a01b0316141561110b5760405162461bcd60e51b815260206004820152601960248201527f4552433732313a20617070726f766520746f2063616c6c6572000000000000006044820152606401610508565b6001600160a01b03838116600081815260ce6020908152604080832094871680845294825291829020805460ff191686151590811790915591519182527f17307eab39ab6107e8899845ad3d59bd9653f200f220920489ca2b5937696c31910160405180910390a3505050565b611183848484610d68565b61118f848484846114cd565b6109f05760405162461bcd60e51b815260040161050890611f95565b60606111b682610b81565b600082815261012d6020526040812080546111d090612125565b80601f01602080910402602001604051908101604052809291908181526020018280546111fc90612125565b80156112495780601f1061121e57610100808354040283529160200191611249565b820191906000526020600020905b81548152906001019060200180831161122c57829003601f168201915b50505050509050600061126760408051602081019091526000815290565b905080516000141561127a575092915050565b8151156112ac578082604051602001611294929190611ea1565b60405160208183030381529060405292505050919050565b610cc5846115da565b60006103d4825490565b600054610100900460ff166112e65760405162461bcd60e51b815260040161050890611fe7565b81516112f99060c9906020850190611aaa565b5080516105a99060ca906020840190611aaa565b6000818152600183016020526040812054611354575081546001818101845560008481526020808220909301849055845484825282860190935260409020919091556103d4565b5060006103d4565b60006001600160e01b03198216635a05180f60e01b14806103d457506103d48261164d565b61138b8282610979565b6107ab576113a3816001600160a01b03166014611682565b6113ae836020611682565b6040516020016113bf929190611ed0565b60408051601f198184030181529082905262461bcd60e51b825261050891600401611f82565b6113ef8282610979565b156107ab5760008281526065602090815260408083206001600160a01b0385168085529252808320805460ff1916905551339285917ff6391f5c32d9c69d2a47ea670b442974b53935d1edc7fd64eb21e047a839171b9190a45050565b6000610972836001600160a01b03841661181e565b61146a81611911565b600081815261012d60205260409020805461148490612125565b15905061087157600081815261012d6020526040812061087191611b2e565b60008260000182815481106114ba576114ba6121d1565b9060005260206000200154905092915050565b60006001600160a01b0384163b156115cf57604051630a85bd0160e11b81526001600160a01b0385169063150b7a0290611511903390899088908890600401611f45565b602060405180830381600087803b15801561152b57600080fd5b505af192505050801561155b575060408051601f3d908101601f1916820190925261155891810190611ddc565b60015b6115b5573d808015611589576040519150601f19603f3d011682016040523d82523d6000602084013e61158e565b606091505b5080516115ad5760405162461bcd60e51b815260040161050890611f95565b805181602001fd5b6001600160e01b031916630a85bd0160e11b149050610cc5565b506001949350505050565b60606115e582610b81565b60006115fc60408051602081019091526000815290565b9050600081511161161c5760405180602001604052806000815250610972565b80611626846119ac565b604051602001611637929190611ea1565b6040516020818303038152906040529392505050565b60006001600160e01b03198216637965db0b60e01b14806103d457506301ffc9a760e01b6001600160e01b03198316146103d4565b606060006116918360026120ac565b61169c906002612080565b67ffffffffffffffff8111156116b4576116b46121e7565b6040519080825280601f01601f1916602001820160405280156116de576020820181803683370190505b509050600360fc1b816000815181106116f9576116f96121d1565b60200101906001600160f81b031916908160001a905350600f60fb1b81600181518110611728576117286121d1565b60200101906001600160f81b031916908160001a905350600061174c8460026120ac565b611757906001612080565b90505b60018111156117cf576f181899199a1a9b1b9c1cb0b131b232b360811b85600f166010811061178b5761178b6121d1565b1a60f81b8282815181106117a1576117a16121d1565b60200101906001600160f81b031916908160001a90535060049490941c936117c88161210e565b905061175a565b5083156109725760405162461bcd60e51b815260206004820181905260248201527f537472696e67733a20686578206c656e67746820696e73756666696369656e746044820152606401610508565b600081815260018301602052604081205480156119075760006118426001836120cb565b8554909150600090611856906001906120cb565b90508181146118bb576000866000018281548110611876576118766121d1565b9060005260206000200154905080876000018481548110611899576118996121d1565b6000918252602080832090910192909255918252600188019052604090208390555b85548690806118cc576118cc6121bb565b6001900381819060005260206000200160009055905585600101600086815260200190815260200160002060009055600193505050506103d4565b60009150506103d4565b600061191c82610874565b9050611929600083610be0565b6001600160a01b038116600090815260cc602052604081208054600192906119529084906120cb565b9091555050600082815260cb602052604080822080546001600160a01b0319169055518391906001600160a01b038416907fddf252ad1be2c89b69c2b068fc378daa952ba7f163c4a11628f55a4df523b3ef908390a45050565b6060816119d05750506040805180820190915260018152600360fc1b602082015290565b8160005b81156119fa57806119e481612160565b91506119f39050600a83612098565b91506119d4565b60008167ffffffffffffffff811115611a1557611a156121e7565b6040519080825280601f01601f191660200182016040528015611a3f576020820181803683370190505b5090505b8415610cc557611a546001836120cb565b9150611a61600a8661217b565b611a6c906030612080565b60f81b818381518110611a8157611a816121d1565b60200101906001600160f81b031916908160001a905350611aa3600a86612098565b9450611a43565b828054611ab690612125565b90600052602060002090601f016020900481019282611ad85760008555611b1e565b82601f10611af157805160ff1916838001178555611b1e565b82800160010185558215611b1e579182015b82811115611b1e578251825591602001919060010190611b03565b50611b2a929150611b64565b5090565b508054611b3a90612125565b6000825580601f10611b4a575050565b601f01602090049060005260206000209081019061087191905b5b80821115611b2a5760008155600101611b65565b80356001600160a01b0381168114611b9057600080fd5b919050565b600060208284031215611ba757600080fd5b61097282611b79565b60008060408385031215611bc357600080fd5b611bcc83611b79565b9150611bda60208401611b79565b90509250929050565b600080600060608486031215611bf857600080fd5b611c0184611b79565b9250611c0f60208501611b79565b9150604084013590509250925092565b60008060008060808587031215611c3557600080fd5b611c3e85611b79565b9350611c4c60208601611b79565b925060408501359150606085013567ffffffffffffffff80821115611c7057600080fd5b818701915087601f830112611c8457600080fd5b813581811115611c9657611c966121e7565b604051601f8201601f19908116603f01168101908382118183101715611cbe57611cbe6121e7565b816040528281528a6020848701011115611cd757600080fd5b82602086016020830137600060208483010152809550505050505092959194509250565b60008060408385031215611d0e57600080fd5b611d1783611b79565b915060208301358015158114611d2c57600080fd5b809150509250929050565b60008060408385031215611d4a57600080fd5b611d5383611b79565b946020939093013593505050565b600060208284031215611d7357600080fd5b5035919050565b60008060408385031215611d8d57600080fd5b82359150611bda60208401611b79565b60008060408385031215611db057600080fd5b50508035926020909101359150565b600060208284031215611dd157600080fd5b8135610972816121fd565b600060208284031215611dee57600080fd5b8151610972816121fd565b600080600060408486031215611e0e57600080fd5b83359250602084013567ffffffffffffffff80821115611e2d57600080fd5b818601915086601f830112611e4157600080fd5b813581811115611e5057600080fd5b876020828501011115611e6257600080fd5b6020830194508093505050509250925092565b60008151808452611e8d8160208601602086016120e2565b601f01601f19169290920160200192915050565b60008351611eb38184602088016120e2565b835190830190611ec78183602088016120e2565b01949350505050565b7f416363657373436f6e74726f6c3a206163636f756e7420000000000000000000815260008351611f088160178501602088016120e2565b7001034b99036b4b9b9b4b733903937b6329607d1b6017918401918201528351611f398160288401602088016120e2565b01602801949350505050565b6001600160a01b0385811682528416602082015260408101839052608060608201819052600090611f7890830184611e75565b9695505050505050565b6020815260006109726020830184611e75565b60208082526032908201527f4552433732313a207472616e7366657220746f206e6f6e20455243373231526560408201527131b2b4bb32b91034b6b83632b6b2b73a32b960711b606082015260800190565b6020808252602b908201527f496e697469616c697a61626c653a20636f6e7472616374206973206e6f74206960408201526a6e697469616c697a696e6760a81b606082015260800190565b6020808252602e908201527f4552433732313a2063616c6c6572206973206e6f7420746f6b656e206f776e6560408201526d1c881b9bdc88185c1c1c9bdd995960921b606082015260800190565b600082198211156120935761209361218f565b500190565b6000826120a7576120a76121a5565b500490565b60008160001904831182151516156120c6576120c661218f565b500290565b6000828210156120dd576120dd61218f565b500390565b60005b838110156120fd5781810151838201526020016120e5565b838111156109f05750506000910152565b60008161211d5761211d61218f565b506000190190565b600181811c9082168061213957607f821691505b6020821081141561215a57634e487b7160e01b600052602260045260246000fd5b50919050565b60006000198214156121745761217461218f565b5060010190565b60008261218a5761218a6121a5565b500690565b634e487b7160e01b600052601160045260246000fd5b634e487b7160e01b600052601260045260246000fd5b634e487b7160e01b600052603160045260246000fd5b634e487b7160e01b600052603260045260246000fd5b634e487b7160e01b600052604160045260246000fd5b6001600160e01b03198116811461087157600080fdfea26469706673582212202d61094d3c5e9c5015969777f51519f77e9d11bcee85b4ef067fd239b16a26bf64736f6c63430008060033496e697469616c697a61626c653a20636f6e7472616374206973206e6f7420699f2df0fed2c77648de5860a4cc508cd0818c85b8b8a1ab4ceeef8d981c8956a6",
  "linkReferences": {},
  "deployedLinkReferences": {}
}