{
  "_format": "hh-sol-artifact-1",
  "contractName": "TokenManagerERC20",
  "sourceName": "contracts/schain/TokenManagers/TokenManagerERC20.sol",
  "abi": [
    {
      "anonymous": false,
      "inputs": [
        {
          "indexed": false,
          "internalType": "address",
          "name": "oldValue",
          "type": "address"
        },
        {
          "indexed": false,
          "internalType": "address",
          "name": "newValue",
          "type": "address"
        }
      ],
      "name": "DepositBoxWasChanged",
      "type": "event"
    },
    {
      "anonymous": false,
      "inputs": [
        {
          "indexed": true,
          "internalType": "bytes32",
          "name": "chainHash",
          "type": "bytes32"
        },
        {
          "indexed": true,
          "internalType": "address",
          "name": "erc20OnMainChain",
          "type": "address"
        },
        {
          "indexed": true,
          "internalType": "address",
          "name": "erc20OnSchain",
          "type": "address"
        }
      ],
      "name": "ERC20TokenAdded",
      "type": "event"
    },
    {
      "anonymous": false,
      "inputs": [
        {
          "indexed": true,
          "internalType": "bytes32",
          "name": "chainHash",
          "type": "bytes32"
        },
        {
          "indexed": true,
          "internalType": "address",
          "name": "erc20OnMainChain",
          "type": "address"
        },
        {
          "indexed": true,
          "internalType": "address",
          "name": "erc20OnSchain",
          "type": "address"
        }
      ],
      "name": "ERC20TokenCreated",
      "type": "event"
    },
    {
      "anonymous": false,
      "inputs": [
        {
          "indexed": true,
          "internalType": "bytes32",
          "name": "chainHash",
          "type": "bytes32"
        },
        {
          "indexed": true,
          "internalType": "address",
          "name": "contractOnMainnet",
          "type": "address"
        },
        {
          "indexed": false,
          "internalType": "uint256",
          "name": "amount",
          "type": "uint256"
        }
      ],
      "name": "ERC20TokenReady",
      "type": "event"
    },
    {
      "anonymous": false,
      "inputs": [
        {
          "indexed": true,
          "internalType": "bytes32",
          "name": "chainHash",
          "type": "bytes32"
        },
        {
          "indexed": true,
          "internalType": "address",
          "name": "erc20OnMainChain",
          "type": "address"
        },
        {
          "indexed": true,
          "internalType": "address",
          "name": "erc20OnSchain",
          "type": "address"
        },
        {
          "indexed": false,
          "internalType": "uint256",
          "name": "amount",
          "type": "uint256"
        }
      ],
      "name": "ERC20TokenReceived",
      "type": "event"
    },
    {
      "anonymous": false,
      "inputs": [
        {
          "indexed": false,
          "internalType": "uint8",
          "name": "version",
          "type": "uint8"
        }
      ],
      "name": "Initialized",
      "type": "event"
    },
    {
      "anonymous": false,
      "inputs": [
        {
          "indexed": true,
          "internalType": "bytes32",
          "name": "role",
          "type": "bytes32"
        },
        {
          "indexed": true,
          "internalType": "bytes32",
          "name": "previousAdminRole",
          "type": "bytes32"
        },
        {
          "indexed": true,
          "internalType": "bytes32",
          "name": "newAdminRole",
          "type": "bytes32"
        }
      ],
      "name": "RoleAdminChanged",
      "type": "event"
    },
    {
      "anonymous": false,
      "inputs": [
        {
          "indexed": true,
          "internalType": "bytes32",
          "name": "role",
          "type": "bytes32"
        },
        {
          "indexed": true,
          "internalType": "address",
          "name": "account",
          "type": "address"
        },
        {
          "indexed": true,
          "internalType": "address",
          "name": "sender",
          "type": "address"
        }
      ],
      "name": "RoleGranted",
      "type": "event"
    },
    {
      "anonymous": false,
      "inputs": [
        {
          "indexed": true,
          "internalType": "bytes32",
          "name": "role",
          "type": "bytes32"
        },
        {
          "indexed": true,
          "internalType": "address",
          "name": "account",
          "type": "address"
        },
        {
          "indexed": true,
          "internalType": "address",
          "name": "sender",
          "type": "address"
        }
      ],
      "name": "RoleRevoked",
      "type": "event"
    },
    {
      "inputs": [],
      "name": "AUTOMATIC_DEPLOY_ROLE",
      "outputs": [
        {
          "internalType": "bytes32",
          "name": "",
          "type": "bytes32"
        }
      ],
      "stateMutability": "view",
      "type": "function"
    },
    {
      "inputs": [],
      "name": "DEFAULT_ADMIN_ROLE",
      "outputs": [
        {
          "internalType": "bytes32",
          "name": "",
          "type": "bytes32"
        }
      ],
      "stateMutability": "view",
      "type": "function"
    },
    {
      "inputs": [],
      "name": "MAINNET_HASH",
      "outputs": [
        {
          "internalType": "bytes32",
          "name": "",
          "type": "bytes32"
        }
      ],
      "stateMutability": "view",
      "type": "function"
    },
    {
      "inputs": [],
      "name": "MAINNET_NAME",
      "outputs": [
        {
          "internalType": "string",
          "name": "",
          "type": "string"
        }
      ],
      "stateMutability": "view",
      "type": "function"
    },
    {
      "inputs": [],
      "name": "TOKEN_REGISTRAR_ROLE",
      "outputs": [
        {
          "internalType": "bytes32",
          "name": "",
          "type": "bytes32"
        }
      ],
      "stateMutability": "view",
      "type": "function"
    },
    {
      "inputs": [
        {
          "internalType": "string",
          "name": "targetChainName",
          "type": "string"
        },
        {
          "internalType": "address",
          "name": "erc20OnMainChain",
          "type": "address"
        },
        {
          "internalType": "address",
          "name": "erc20OnSchain",
          "type": "address"
        }
      ],
      "name": "addERC20TokenByOwner",
      "outputs": [],
      "stateMutability": "nonpayable",
      "type": "function"
    },
    {
      "inputs": [
        {
          "internalType": "string",
          "name": "schainName",
          "type": "string"
        },
        {
          "internalType": "address",
          "name": "newTokenManager",
          "type": "address"
        }
      ],
      "name": "addTokenManager",
      "outputs": [],
      "stateMutability": "nonpayable",
      "type": "function"
    },
    {
      "inputs": [
        {
          "internalType": "contract ERC20OnChain",
          "name": "",
          "type": "address"
        }
      ],
      "name": "addedClones",
      "outputs": [
        {
          "internalType": "bool",
          "name": "",
          "type": "bool"
        }
      ],
      "stateMutability": "view",
      "type": "function"
    },
    {
      "inputs": [],
      "name": "automaticDeploy",
      "outputs": [
        {
          "internalType": "bool",
          "name": "",
          "type": "bool"
        }
      ],
      "stateMutability": "view",
      "type": "function"
    },
    {
      "inputs": [
        {
          "internalType": "address",
          "name": "newDepositBox",
          "type": "address"
        }
      ],
      "name": "changeDepositBoxAddress",
      "outputs": [],
      "stateMutability": "nonpayable",
      "type": "function"
    },
    {
      "inputs": [
        {
          "internalType": "bytes32",
          "name": "",
          "type": "bytes32"
        },
        {
          "internalType": "address",
          "name": "",
          "type": "address"
        }
      ],
      "name": "clonesErc20",
      "outputs": [
        {
          "internalType": "contract ERC20OnChain",
          "name": "",
          "type": "address"
        }
      ],
      "stateMutability": "view",
      "type": "function"
    },
    {
      "inputs": [],
      "name": "communityLocker",
      "outputs": [
        {
          "internalType": "contract ICommunityLocker",
          "name": "",
          "type": "address"
        }
      ],
      "stateMutability": "view",
      "type": "function"
    },
    {
      "inputs": [],
      "name": "depositBox",
      "outputs": [
        {
          "internalType": "address",
          "name": "",
          "type": "address"
        }
      ],
      "stateMutability": "view",
      "type": "function"
    },
    {
      "inputs": [
        {
          "internalType": "address",
          "name": "",
          "type": "address"
        }
      ],
      "name": "deprecatedClonesErc20",
      "outputs": [
        {
          "internalType": "contract ERC20OnChain",
          "name": "",
          "type": "address"
        }
      ],
      "stateMutability": "view",
      "type": "function"
    },
    {
      "inputs": [],
      "name": "disableAutomaticDeploy",
      "outputs": [],
      "stateMutability": "nonpayable",
      "type": "function"
    },
    {
      "inputs": [],
      "name": "enableAutomaticDeploy",
      "outputs": [],
      "stateMutability": "nonpayable",
      "type": "function"
    },
    {
      "inputs": [
        {
          "internalType": "address",
          "name": "contractOnMainnet",
          "type": "address"
        },
        {
          "internalType": "uint256",
          "name": "amount",
          "type": "uint256"
        }
      ],
      "name": "exitToMainERC20",
      "outputs": [],
      "stateMutability": "nonpayable",
      "type": "function"
    },
    {
      "inputs": [
        {
          "internalType": "bytes32",
          "name": "role",
          "type": "bytes32"
        }
      ],
      "name": "getRoleAdmin",
      "outputs": [
        {
          "internalType": "bytes32",
          "name": "",
          "type": "bytes32"
        }
      ],
      "stateMutability": "view",
      "type": "function"
    },
    {
      "inputs": [
        {
          "internalType": "bytes32",
          "name": "role",
          "type": "bytes32"
        },
        {
          "internalType": "uint256",
          "name": "index",
          "type": "uint256"
        }
      ],
      "name": "getRoleMember",
      "outputs": [
        {
          "internalType": "address",
          "name": "",
          "type": "address"
        }
      ],
      "stateMutability": "view",
      "type": "function"
    },
    {
      "inputs": [
        {
          "internalType": "bytes32",
          "name": "role",
          "type": "bytes32"
        }
      ],
      "name": "getRoleMemberCount",
      "outputs": [
        {
          "internalType": "uint256",
          "name": "",
          "type": "uint256"
        }
      ],
      "stateMutability": "view",
      "type": "function"
    },
    {
      "inputs": [
        {
          "internalType": "bytes32",
          "name": "role",
          "type": "bytes32"
        },
        {
          "internalType": "address",
          "name": "account",
          "type": "address"
        }
      ],
      "name": "grantRole",
      "outputs": [],
      "stateMutability": "nonpayable",
      "type": "function"
    },
    {
      "inputs": [
        {
          "internalType": "bytes32",
          "name": "role",
          "type": "bytes32"
        },
        {
          "internalType": "address",
          "name": "account",
          "type": "address"
        }
      ],
      "name": "hasRole",
      "outputs": [
        {
          "internalType": "bool",
          "name": "",
          "type": "bool"
        }
      ],
      "stateMutability": "view",
      "type": "function"
    },
    {
      "inputs": [
        {
          "internalType": "string",
          "name": "schainName",
          "type": "string"
        }
      ],
      "name": "hasTokenManager",
      "outputs": [
        {
          "internalType": "bool",
          "name": "",
          "type": "bool"
        }
      ],
      "stateMutability": "view",
      "type": "function"
    },
    {
      "inputs": [
        {
          "internalType": "string",
          "name": "newChainName",
          "type": "string"
        },
        {
          "internalType": "contract IMessageProxyForSchain",
          "name": "newMessageProxy",
          "type": "address"
        },
        {
          "internalType": "contract ITokenManagerLinker",
          "name": "newIMALinker",
          "type": "address"
        },
        {
          "internalType": "contract ICommunityLocker",
          "name": "newCommunityLocker",
          "type": "address"
        },
        {
          "internalType": "address",
          "name": "newDepositBox",
          "type": "address"
        }
      ],
      "name": "initialize",
      "outputs": [],
      "stateMutability": "nonpayable",
      "type": "function"
    },
    {
      "inputs": [
        {
          "internalType": "string",
          "name": "newSchainName",
          "type": "string"
        },
        {
          "internalType": "contract IMessageProxyForSchain",
          "name": "newMessageProxy",
          "type": "address"
        },
        {
          "internalType": "contract ITokenManagerLinker",
          "name": "newIMALinker",
          "type": "address"
        },
        {
          "internalType": "contract ICommunityLocker",
          "name": "newCommunityLocker",
          "type": "address"
        },
        {
          "internalType": "address",
          "name": "newDepositBox",
          "type": "address"
        }
      ],
      "name": "initializeTokenManager",
      "outputs": [],
      "stateMutability": "nonpayable",
      "type": "function"
    },
    {
      "inputs": [],
      "name": "messageProxy",
      "outputs": [
        {
          "internalType": "contract IMessageProxyForSchain",
          "name": "",
          "type": "address"
        }
      ],
      "stateMutability": "view",
      "type": "function"
    },
    {
      "inputs": [
        {
          "internalType": "bytes32",
          "name": "fromChainHash",
          "type": "bytes32"
        },
        {
          "internalType": "address",
          "name": "sender",
          "type": "address"
        },
        {
          "internalType": "bytes",
          "name": "data",
          "type": "bytes"
        }
      ],
      "name": "postMessage",
      "outputs": [],
      "stateMutability": "nonpayable",
      "type": "function"
    },
    {
      "inputs": [
        {
          "internalType": "string",
          "name": "schainName",
          "type": "string"
        }
      ],
      "name": "removeTokenManager",
      "outputs": [],
      "stateMutability": "nonpayable",
      "type": "function"
    },
    {
      "inputs": [
        {
          "internalType": "bytes32",
          "name": "role",
          "type": "bytes32"
        },
        {
          "internalType": "address",
          "name": "account",
          "type": "address"
        }
      ],
      "name": "renounceRole",
      "outputs": [],
      "stateMutability": "nonpayable",
      "type": "function"
    },
    {
      "inputs": [
        {
          "internalType": "bytes32",
          "name": "role",
          "type": "bytes32"
        },
        {
          "internalType": "address",
          "name": "account",
          "type": "address"
        }
      ],
      "name": "revokeRole",
      "outputs": [],
      "stateMutability": "nonpayable",
      "type": "function"
    },
    {
      "inputs": [],
      "name": "schainHash",
      "outputs": [
        {
          "internalType": "bytes32",
          "name": "",
          "type": "bytes32"
        }
      ],
      "stateMutability": "view",
      "type": "function"
    },
    {
      "inputs": [
        {
          "internalType": "bytes4",
          "name": "interfaceId",
          "type": "bytes4"
        }
      ],
      "name": "supportsInterface",
      "outputs": [
        {
          "internalType": "bool",
          "name": "",
          "type": "bool"
        }
      ],
      "stateMutability": "view",
      "type": "function"
    },
    {
      "inputs": [],
      "name": "tokenManagerLinker",
      "outputs": [
        {
          "internalType": "contract ITokenManagerLinker",
          "name": "",
          "type": "address"
        }
      ],
      "stateMutability": "view",
      "type": "function"
    },
    {
      "inputs": [
        {
          "internalType": "bytes32",
          "name": "",
          "type": "bytes32"
        }
      ],
      "name": "tokenManagers",
      "outputs": [
        {
          "internalType": "address",
          "name": "",
          "type": "address"
        }
      ],
      "stateMutability": "view",
      "type": "function"
    },
    {
      "inputs": [
        {
          "internalType": "contract IERC20Upgradeable",
          "name": "",
          "type": "address"
        }
      ],
      "name": "totalSupplyOnMainnet",
      "outputs": [
        {
          "internalType": "uint256",
          "name": "",
          "type": "uint256"
        }
      ],
      "stateMutability": "view",
      "type": "function"
    },
    {
      "inputs": [
        {
          "internalType": "string",
          "name": "targetSchainName",
          "type": "string"
        },
        {
          "internalType": "address",
          "name": "contractOnMainnet",
          "type": "address"
        },
        {
          "internalType": "uint256",
          "name": "amount",
          "type": "uint256"
        }
      ],
      "name": "transferToSchainERC20",
      "outputs": [],
      "stateMutability": "nonpayable",
      "type": "function"
    },
    {
      "inputs": [
        {
          "internalType": "bytes32",
          "name": "",
          "type": "bytes32"
        },
        {
          "internalType": "address",
          "name": "",
          "type": "address"
        }
      ],
      "name": "transferredAmount",
      "outputs": [
        {
          "internalType": "uint256",
          "name": "",
          "type": "uint256"
        }
      ],
      "stateMutability": "view",
      "type": "function"
    }
  ],
  "bytecode": "0x608060405234801561001057600080fd5b50615f01806100206000396000f3fe60806040523480156200001157600080fd5b5060043610620002555760003560e01c80636d6112861162000149578063babc4a3311620000c7578063d547741f1162000086578063d547741f14620005da578063dec2deb614620005f1578063eafd15c81462000606578063edcc12b5146200061d578063f429e383146200063457600080fd5b8063babc4a33146200053f578063c0e312dc146200056d578063ca15c8731462000584578063cb703bff146200059b578063cc5b715b14620005b257600080fd5b80639010d07c11620001145780639010d07c14620004d857806391d1485414620004ef578063a217fddf1462000506578063aebaaca9146200050f578063b9581c50146200053557600080fd5b80636d61128614620004825780636d6c68e614620004965780638504950614620004aa578063884cee5a14620004c157600080fd5b806339927cf911620001d757806350f4428011620001a257806350f4428014620003d3578063510d8a5814620004095780635573b8b6146200044057806368eb202214620004545780636ce681d2146200046b57600080fd5b806339927cf9146200036f5780633b690b6b14620003865780633fa194ce1462000390578063467a5d8114620003a757600080fd5b8063248a9ca31162000224578063248a9ca314620002ee57806328c5e18214620003235780632dc151de146200032d5780632f2ff15d146200034157806336568abe146200035857600080fd5b806301ffc9a7146200025a578063029996b814620002865780630b885ac314620002925780630f1a8f7414620002a9575b600080fd5b620002716200026b3660046200371c565b62000657565b60405190151581526020015b60405180910390f35b6200029062000685565b005b62000290620002a336600462003957565b620006dd565b620002d5620002ba3660046200364b565b60ce602052600090815260409020546001600160a01b031681565b6040516001600160a01b0390911681526020016200027d565b62000314620002ff3660046200364b565b60009081526065602052604090206001015490565b6040519081526020016200027d565b62000314620006f3565b60ca54620002d5906001600160a01b031681565b620002906200035236600462003665565b6200073e565b620002906200036936600462003665565b6200076c565b620002716200038036600462003766565b620007ee565b6200031460cc5481565b6200031460008051602062005eac83398151915281565b620002d5620003b8366004620035d8565b60cf602052600090815260409020546001600160a01b031681565b620003fa6040518060400160405280600781526020016613585a5b9b995d60ca1b81525081565b6040516200027d919062003d29565b620002d56200041a36600462003665565b60d26020908152600092835260408084209091529082529020546001600160a01b031681565b60c954620002d5906001600160a01b031681565b6200029062000465366004620035f8565b6200084b565b620002906200047c36600462003957565b6200090d565b60cd54620002d5906001600160a01b031681565b60cb54620002d5906001600160a01b031681565b62000290620004bb36600462003876565b62000b81565b62000290620004d236600462003698565b62000daf565b620002d5620004e9366004620036f9565b62000f3c565b620002716200050036600462003665565b62000f5d565b62000314600081565b6200027162000520366004620035d8565b60d16020526000908152604090205460ff1681565b6200029062000f88565b620003146200055036600462003665565b60d360209081526000928352604080842090915290825290205481565b620002906200057e36600462003766565b62000fd1565b62000314620005953660046200364b565b620010ef565b62000290620005ac366004620037ab565b62001108565b620003147ffda70c2cc66a36c14884ee85424961f51b1d92b4494751699b6d105b3bcbcba881565b62000290620005eb36600462003665565b6200128f565b60cd546200027190600160a01b900460ff1681565b620002906200061736600462003807565b620012b8565b620002906200062e366004620035d8565b620016a5565b6200031462000645366004620035d8565b60d06020526000908152604090205481565b60006001600160e01b03198216635a05180f60e01b14806200067f57506200067f82620017c1565b92915050565b620006a060008051602062005eac8339815191523362000f5d565b620006c85760405162461bcd60e51b8152600401620006bf9062003d67565b60405180910390fd5b60cd805460ff60a01b1916600160a01b179055565b620006ec85858585856200090d565b5050505050565b6040518060400160405280600781526020016613585a5b9b995d60ca1b81525060405160200162000725919062003c37565b6040516020818303038152906040528051906020012081565b6000828152606560205260409020600101546200075b81620017f8565b62000767838362001807565b505050565b6001600160a01b0381163314620007de5760405162461bcd60e51b815260206004820152602f60248201527f416363657373436f6e74726f6c3a2063616e206f6e6c792072656e6f756e636560448201526e103937b632b9903337b91039b2b63360891b6064820152608401620006bf565b620007ea82826200182d565b5050565b6000806001600160a01b031660ce600085856040516020016200081392919062003c27565b60408051808303601f19018152918152815160209283012083529082019290925201600020546001600160a01b031614159392505050565b60cb546040516311be333d60e11b81523360048201526001600160a01b039091169063237c667a90602401600060405180830381600087803b1580156200089157600080fd5b505af1158015620008a6573d6000803e3d6000fd5b50505050620007ea6040518060400160405280600781526020016613585a5b9b995d60ca1b815250604051602001620008e0919062003c37565b60408051601f19818403018152919052805160209091012060cd546001600160a01b031684338562001853565b600054610100900460ff16158080156200092e5750600054600160ff909116105b806200094a5750303b1580156200094a575060005460ff166001145b620009af5760405162461bcd60e51b815260206004820152602e60248201527f496e697469616c697a61626c653a20636f6e747261637420697320616c72656160448201526d191e481a5b9a5d1a585b1a5e995960921b6064820152608401620006bf565b6000805460ff191660011790558015620009d3576000805461ff0019166101001790555b6001600160a01b03821662000a2b5760405162461bcd60e51b815260206004820181905260248201527f4465706f736974426f7820616464726573732068617320746f206265207365746044820152606401620006bf565b62000a3562001e02565b62000a4260003362001e71565b62000a5d60008051602062005eac8339815191523362001e71565b62000a897ffda70c2cc66a36c14884ee85424961f51b1d92b4494751699b6d105b3bcbcba83362001e71565b8560405160200162000a9c919062003c37565b60408051601f19818403018152828252805160209182012060cc5560c980546001600160a01b038a81166001600160a01b03199283161790925560ca80548a841690831617905560cb805489841690831617905560cd8054928816929091168217905560008452908301527fc968af77923193016f61d74ba6827296db5e1f37ec4fab3ad1ef20e193395e59910160405180910390a1801562000b79576000805461ff0019169055604051600181527f7f26b83ff96e1f2b6a682f133852f6798a09c465da95921460cefb38474024989060200160405180910390a15b505050505050565b83838080601f016020809104026020016040519081016040528093929190818152602001838380828437600092018290525060405133945090925062000bcd9150849060200162003c37565b60408051601f1981840301815282825280516020918201208383018352600784526613585a5b9b995d60ca1b84830152915191935062000c0f92910162003c37565b6040516020818303038152906040528051906020012081141562000c8f5760405162461bcd60e51b815260206004820152603060248201527f546869732066756e6374696f6e206973206e6f7420666f72207472616e73666560448201526f1c9c9a5b99c81d1bc813585a5b9b995d60821b6064820152608401620006bf565b6001600160a01b03821662000ce75760405162461bcd60e51b815260206004820152601a60248201527f496e636f727265637420726563656976657220616464726573730000000000006044820152606401620006bf565b600081815260ce60205260409020546001600160a01b031662000d4d5760405162461bcd60e51b815260206004820152601f60248201527f496e636f727265637420546f6b656e204d616e616765722061646472657373006044820152606401620006bf565b6000878760405160200162000d6492919062003c27565b60408051601f198184030181529181528151602092830120600081815260ce90935291205490915062000da59082906001600160a01b031688338962001853565b5050505050505050565b60c9546001600160a01b0316331462000e0b5760405162461bcd60e51b815260206004820152601c60248201527f53656e646572206973206e6f742061204d65737361676550726f7879000000006044820152606401620006bf565b838360cc54821415801562000e27575062000e27828262001e7d565b62000e755760405162461bcd60e51b815260206004820152601b60248201527f526563656976657220636861696e20697320696e636f727265637400000000006044820152606401620006bf565b600062000e83858562001f08565b90506000600282600e81111562000e9e5762000e9e6200400f565b148062000ebf5750600482600e81111562000ebd5762000ebd6200400f565b145b8062000edf5750600382600e81111562000edd5762000edd6200400f565b145b1562000efa5762000ef288878762001f5c565b905062000da5565b60405162461bcd60e51b815260206004820152601660248201527526b2b9b9b0b3b2aa3cb8329034b9903ab735b737bbb760511b6044820152606401620006bf565b600082815260976020526040812062000f56908362002559565b9392505050565b60009182526065602090815260408084206001600160a01b0393909316845291905290205460ff1690565b62000fa360008051602062005eac8339815191523362000f5d565b62000fc25760405162461bcd60e51b8152600401620006bf9062003d67565b60cd805460ff60a01b19169055565b60ca546001600160a01b031633148062000ff3575062000ff360003362000f5d565b620010395760405162461bcd60e51b81526020600482015260156024820152742737ba1030baba3437b934bd32b21031b0b63632b960591b6044820152606401620006bf565b600082826040516020016200105092919062003c27565b60408051601f198184030181529181528151602092830120600081815260ce9093529120549091506001600160a01b0316620010cf5760405162461bcd60e51b815260206004820152601860248201527f546f6b656e204d616e61676572206973206e6f742073657400000000000000006044820152606401620006bf565b600090815260ce6020526040902080546001600160a01b03191690555050565b60008181526097602052604081206200067f9062002567565b60ca546001600160a01b03163314806200112a57506200112a60003362000f5d565b620011705760405162461bcd60e51b81526020600482015260156024820152742737ba1030baba3437b934bd32b21031b0b63632b960591b6044820152606401620006bf565b600083836040516020016200118792919062003c27565b60408051601f198184030181529181528151602092830120600081815260ce9093529120549091506001600160a01b031615620012075760405162461bcd60e51b815260206004820152601c60248201527f546f6b656e204d616e6167657220697320616c726561647920736574000000006044820152606401620006bf565b6001600160a01b0382166200125f5760405162461bcd60e51b815260206004820152601f60248201527f496e636f727265637420546f6b656e204d616e616765722061646472657373006044820152606401620006bf565b600090815260ce6020526040902080546001600160a01b0319166001600160a01b03929092169190911790555050565b600082815260656020526040902060010154620012ac81620017f8565b6200076783836200182d565b620012e47ffda70c2cc66a36c14884ee85424961f51b1d92b4494751699b6d105b3bcbcba83362000f5d565b620013325760405162461bcd60e51b815260206004820181905260248201527f544f4b454e5f5245474953545241525f524f4c452069732072657175697265646044820152606401620006bf565b60c954604051634ccd5cd560e11b81526001600160a01b039091169063999ab9aa9062001366908790879060040162003cfa565b60206040518083038186803b1580156200137f57600080fd5b505afa15801562001394573d6000803e3d6000fd5b505050506040513d601f19601f82011682018060405250810190620013ba919062003627565b620014015760405162461bcd60e51b815260206004820152601660248201527510da185a5b881a5cc81b9bdd0818dbdb9b9958dd195960521b6044820152606401620006bf565b6001600160a01b0381163b6200145a5760405162461bcd60e51b815260206004820152601f60248201527f476976656e2061646472657373206973206e6f74206120636f6e7472616374006044820152606401620006bf565b806001600160a01b03166318160ddd6040518163ffffffff1660e01b815260040160206040518083038186803b1580156200149457600080fd5b505afa158015620014a9573d6000803e3d6000fd5b505050506040513d601f19601f82011682018060405250810190620014cf919062003b6b565b156200151e5760405162461bcd60e51b815260206004820152601760248201527f546f74616c537570706c79206973206e6f74207a65726f0000000000000000006044820152606401620006bf565b600084846040516020016200153592919062003c27565b60408051601f198184030181529181528151602092830120600081815260d284528281206001600160a01b038881168352945291909120549092501615620015b95760405162461bcd60e51b8152602060048201526016602482015275436f756c64206e6f742072656c696e6b20636c6f6e6560501b6044820152606401620006bf565b6001600160a01b038216600090815260d1602052604090205460ff1615620016245760405162461bcd60e51b815260206004820152601760248201527f436c6f6e652077617320616c72656164792061646465640000000000000000006044820152606401620006bf565b600081815260d2602090815260408083206001600160a01b0387811680865291845282852080546001600160a01b031916918816918217905580855260d1909352818420805460ff1916600117905590519192909184917f89b97f12155170c72b8eb3449d5f1ba0c6a29e5546051dc35694313b1b60741f91a45050505050565b620016b260003362000f5d565b620017005760405162461bcd60e51b815260206004820152601e60248201527f44454641554c545f41444d494e5f524f4c4520697320726571756972656400006044820152606401620006bf565b6001600160a01b038116620017585760405162461bcd60e51b815260206004820181905260248201527f4465706f736974426f7820616464726573732068617320746f206265207365746044820152606401620006bf565b60cd54604080516001600160a01b03928316815291831660208301527fc968af77923193016f61d74ba6827296db5e1f37ec4fab3ad1ef20e193395e59910160405180910390a160cd80546001600160a01b0319166001600160a01b0392909216919091179055565b60006001600160e01b03198216637965db0b60e01b14806200067f57506301ffc9a760e01b6001600160e01b03198316146200067f565b62001804813362002572565b50565b620018138282620025e1565b60008281526097602052604090206200076790826200266b565b62001839828262002682565b6000828152609760205260409020620007679082620026ec565b600085815260d2602090815260408083206001600160a01b03808816855292528220541680620018f057506001600160a01b038416600090815260d16020526040902054849060ff1615620018eb5760405162461bcd60e51b815260206004820152601a60248201527f496e636f7272656374206d61696e20636861696e20746f6b656e0000000000006044820152606401620006bf565b600191505b6001600160a01b0381163b620019495760405162461bcd60e51b815260206004820152601860248201527f4e6f20746f6b656e20636c6f6e65206f6e2073636861696e00000000000000006044820152606401620006bf565b6040516370a0823160e01b815233600482015283906001600160a01b038316906370a082319060240160206040518083038186803b1580156200198b57600080fd5b505afa158015620019a0573d6000803e3d6000fd5b505050506040513d601f19601f82011682018060405250810190620019c6919062003b6b565b101562001a0b5760405162461bcd60e51b8152602060048201526012602482015271496e73756666696369656e742066756e647360701b6044820152606401620006bf565b604051636eb1769f60e11b815233600482015230602482015283906001600160a01b0383169063dd62ed3e9060440160206040518083038186803b15801562001a5357600080fd5b505afa15801562001a68573d6000803e3d6000fd5b505050506040513d601f19601f8201168201806040525081019062001a8e919062003b6b565b101562001aef5760405162461bcd60e51b815260206004820152602860248201527f5472616e73666572206973206e6f7420617070726f76656420627920746f6b6560448201526737103437b63232b960c11b6064820152608401620006bf565b600062001afe86868662002703565b9050821562001c88576040518060400160405280600781526020016613585a5b9b995d60ca1b81525060405160200162001b39919062003c37565b6040516020818303038152906040528051906020012088141562001bbc5760405162461bcd60e51b815260206004820152603360248201527f4d61696e20636861696e20746f6b656e20636f756c64206e6f74206265207472604482015272185b9cd9995c9959081d1bc813585a5b9b995d606a1b6064820152608401620006bf565b62001bca8883338762002764565b905062001bd9888386620028f0565b6040516323b872dd60e01b8152336004820152306024820152604481018590526001600160a01b038316906323b872dd90606401602060405180830381600087803b15801562001c2857600080fd5b505af115801562001c3d573d6000803e3d6000fd5b505050506040513d601f19601f8201168201806040525081019062001c63919062003627565b62001c825760405162461bcd60e51b8152600401620006bf9062003da8565b62001d8e565b6040516323b872dd60e01b8152336004820152306024820152604481018590526001600160a01b038316906323b872dd90606401602060405180830381600087803b15801562001cd757600080fd5b505af115801562001cec573d6000803e3d6000fd5b505050506040513d601f19601f8201168201806040525081019062001d12919062003627565b62001d315760405162461bcd60e51b8152600401620006bf9062003da8565b604051630852cd8d60e31b8152600481018590526001600160a01b038316906342966c6890602401600060405180830381600087803b15801562001d7457600080fd5b505af115801562001d89573d6000803e3d6000fd5b505050505b60c954604051634a24490160e11b81526001600160a01b039091169063944892029062001dc4908b908b90869060040162003cce565b600060405180830381600087803b15801562001ddf57600080fd5b505af115801562001df4573d6000803e3d6000fd5b505050505050505050505050565b600054610100900460ff1662001e6f5760405162461bcd60e51b815260206004820152602b60248201527f496e697469616c697a61626c653a20636f6e7472616374206973206e6f74206960448201526a6e697469616c697a696e6760a81b6064820152608401620006bf565b565b620007ea828262001807565b60006040518060400160405280600781526020016613585a5b9b995d60ca1b81525060405160200162001eb1919062003c37565b60405160208183030381529060405280519060200120831462001ef157600083815260ce60205260409020546001600160a01b0383811691161462000f56565b5060cd546001600160a01b03908116911614919050565b60008062001f19838501856200364b565b905062001f2860208262003fd6565b62001f4e5762001f4562001f3f8483818862003f06565b62001f08565b9150506200067f565b62001f458385018562003748565b60008062001f6b848462001f08565b9050600080600062001f7e87876200292e565b919450925090506000600285600e81111562001f9e5762001f9e6200400f565b146200230e576000600386600e81111562001fbd5762001fbd6200400f565b14156200200757600062001fd28a8a620029f0565b60209081015160008d815260d2835260408082206001600160a01b03808b168452945290205490911693509150620021719050565b6000620020158a8a62002acb565b60208082015160008e815260d2835260408082206001600160a01b03808c1684529452902054909116945092509050826200216f5760cd54600160a01b900460ff16620020a55760405162461bcd60e51b815260206004820152601c60248201527f4175746f6d61746963206465706c6f792069732064697361626c6564000000006044820152606401620006bf565b806040015160000151816040015160400151604051620020c59062003452565b620020d292919062003d3e565b604051809103906000f080158015620020ef573d6000803e3d6000fd5b5060008c815260d2602090815260408083206001600160a01b038a811680865291845282852080546001600160a01b031916918716918217905580855260d1909352818420805460ff191660011790559051939650909290918e917f817384d3c8c32b58342425cd864f5540355cc93dfbbfc2df8763793d2d3a5e129190a45b505b6001600160a01b038216600090815260d060205260409020548114620021ad576001600160a01b038216600090815260d0602052604090208190555b60008062002230846001600160a01b03166318160ddd6040518163ffffffff1660e01b815260040160206040518083038186803b158015620021ee57600080fd5b505afa15801562002203573d6000803e3d6000fd5b505050506040513d601f19601f8201168201806040525081019062002229919062003b6b565b8662002bc2565b90925090508180156200225b57506001600160a01b038416600090815260d060205260409020548111155b620022a15760405162461bcd60e51b8152602060048201526015602482015274151bdd185b081cdd5c1c1b1e48195e18d959591959605a1b6044820152606401620006bf565b6040516340c10f1960e01b81526001600160a01b038881166004830152602482018790528516906340c10f1990604401600060405180830381600087803b158015620022ec57600080fd5b505af115801562002301573d6000803e3d6000fd5b50505050505050620024fd565b6001600160a01b0383163b151580156200233d5750600089815260d4602052604090206200233d908462002bed565b6200238b5760405162461bcd60e51b815260206004820152601a60248201527f496e636f7272656374206d61696e20636861696e20746f6b656e0000000000006044820152606401620006bf565b6040516370a0823160e01b815230600482015282906001600160a01b038516906370a082319060240160206040518083038186803b158015620023cd57600080fd5b505afa158015620023e2573d6000803e3d6000fd5b505050506040513d601f19601f8201168201806040525081019062002408919062003b6b565b10156200244b5760405162461bcd60e51b815260206004820152601060248201526f4e6f7420656e6f756768206d6f6e657960801b6044820152606401620006bf565b6200245889848462002c10565b60405163a9059cbb60e01b81526001600160a01b0385811660048301526024820184905284169063a9059cbb90604401602060405180830381600087803b158015620024a357600080fd5b505af1158015620024b8573d6000803e3d6000fd5b505050506040513d601f19601f82011682018060405250810190620024de919062003627565b620024fd5760405162461bcd60e51b8152600401620006bf9062003da8565b806001600160a01b0316836001600160a01b03168a7f131b32ac87206ff25b3250e2d194c4cc6d63e928ab212dbd294b03b49af27b48856040516200254491815260200190565b60405180910390a45091979650505050505050565b600062000f56838362002c44565b60006200067f825490565b6200257e828262000f5d565b620007ea5762002599816001600160a01b0316601462002c71565b620025a683602062002c71565b604051602001620025b992919062003c55565b60408051601f198184030181529082905262461bcd60e51b8252620006bf9160040162003d29565b620025ed828262000f5d565b620007ea5760008281526065602090815260408083206001600160a01b03851684529091529020805460ff19166001179055620026273390565b6001600160a01b0316816001600160a01b0316837f2f8788117e7eff1d82e926ec794901d17c78024a50270940304540a733656f0d60405160405180910390a45050565b600062000f56836001600160a01b03841662002e2a565b6200268e828262000f5d565b15620007ea5760008281526065602090815260408083206001600160a01b0385168085529252808320805460ff1916905551339285917ff6391f5c32d9c69d2a47ea670b442974b53935d1edc7fd64eb21e047a839171b9190a45050565b600062000f56836001600160a01b03841662002e7c565b6040805160a08101825260026080820190815281526001600160a01b0380861660208084019190915290851682840152606080830185905292516200274b9183910162003e6e565b6040516020818303038152906040529150509392505050565b606060008490506000816001600160a01b03166318160ddd6040518163ffffffff1660e01b815260040160206040518083038186803b158015620027a757600080fd5b505afa158015620027bc573d6000803e3d6000fd5b505050506040513d601f19601f82011682018060405250810190620027e2919062003b6b565b9050808411156200282c5760405162461bcd60e51b8152602060048201526013602482015272105b5bdd5b9d081a5cc81a5b98dbdc9c9958dd606a1b6044820152606401620006bf565b600087815260d46020526040812062002846908862002bed565b90508062002885576200285a888862002f80565b6200287d8787876200286c8762003099565b620028778862003110565b620032b3565b9350620028a0565b6200289d878787620028978762003099565b6200332b565b93505b866001600160a01b0316887f759c7e29aa34dec4bb9f3af86e647e11cffa0fee371049fd55e8779a2c24484e87604051620028dd91815260200190565b60405180910390a3505050949350505050565b600083815260d3602090815260408083206001600160a01b0386168452909152812080548392906200292490849062003f32565b9091555050505050565b60008060008062002940868662001f08565b9050600281600e8111156200295957620029596200400f565b14156200298d5760006200296e87876200339e565b90508060400151816020015182606001519450945094505050620029e9565b600381600e811115620029a457620029a46200400f565b1415620029db576000620029b98787620029f0565b51604081015160208201516060909201519096509094509250620029e9915050565b6000620029b9878762002acb565b9250925092565b62002a306040805160e081018252600060c08201818152928201928352606082018190526080820181905260a08201529081908152602001600081525090565b600362002a3e848462001f08565b600e81111562002a525762002a526200400f565b1462002abd5760405162461bcd60e51b815260206004820152603360248201527f4d6573736167652074797065206973206e6f74204552433230207472616e7366604482015272657220616e6420746f74616c20737570706c7960681b6064820152608401620006bf565b62000f568284018462003af1565b62002b286040805161010081018252600060e0820181815260608084019182526080840183905260a0840183905260c084018390529083526020808401839052845180830186528281529081019290925281840152909182015290565b600462002b36848462001f08565b600e81111562002b4a5762002b4a6200400f565b1462002bb45760405162461bcd60e51b815260206004820152603260248201527f4d6573736167652074797065206973206e6f74204552433230207472616e73666044820152716572207769746820746f6b656e20696e666f60701b6064820152608401620006bf565b62000f5682840184620039ec565b6000808383018481101562002bdf57600080925092505062002be6565b6001925090505b9250929050565b6001600160a01b0381166000908152600183016020526040812054151562000f56565b600083815260d3602090815260408083206001600160a01b0386168452909152812080548392906200292490849062003f6f565b600082600001828154811062002c5e5762002c5e6200403b565b9060005260206000200154905092915050565b6060600062002c8283600262003f4d565b62002c8f90600262003f32565b6001600160401b0381111562002ca95762002ca962004051565b6040519080825280601f01601f19166020018201604052801562002cd4576020820181803683370190505b509050600360fc1b8160008151811062002cf25762002cf26200403b565b60200101906001600160f81b031916908160001a905350600f60fb1b8160018151811062002d245762002d246200403b565b60200101906001600160f81b031916908160001a905350600062002d4a84600262003f4d565b62002d5790600162003f32565b90505b600181111562002dd9576f181899199a1a9b1b9c1cb0b131b232b360811b85600f166010811062002d8f5762002d8f6200403b565b1a60f81b82828151811062002da85762002da86200403b565b60200101906001600160f81b031916908160001a90535060049490941c9362002dd18162003fbc565b905062002d5a565b50831562000f565760405162461bcd60e51b815260206004820181905260248201527f537472696e67733a20686578206c656e67746820696e73756666696369656e746044820152606401620006bf565b600081815260018301602052604081205462002e73575081546001818101845560008481526020808220909301849055845484825282860190935260409020919091556200067f565b5060006200067f565b6000818152600183016020526040812054801562002f7557600062002ea360018362003f6f565b855490915060009062002eb99060019062003f6f565b905081811462002f2557600086600001828154811062002edd5762002edd6200403b565b906000526020600020015490508087600001848154811062002f035762002f036200403b565b6000918252602080832090910192909255918252600188019052604090208390555b855486908062002f395762002f3962004025565b6001900381819060005260206000200160009055905585600101600086815260200190815260200160002060009055600193505050506200067f565b60009150506200067f565b6001600160a01b0381163b62002fd95760405162461bcd60e51b815260206004820152601f60248201527f476976656e2061646472657373206973206e6f74206120636f6e7472616374006044820152606401620006bf565b600082815260d46020526040902062002ff3908262002bed565b15620030425760405162461bcd60e51b815260206004820152601d60248201527f455243323020546f6b656e2077617320616c72656164792061646465640000006044820152606401620006bf565b600082815260d4602052604090206200305c90826200266b565b506040516000906001600160a01b0383169084907f89b97f12155170c72b8eb3449d5f1ba0c6a29e5546051dc35694313b1b60741f908490a45050565b6000816001600160a01b03166318160ddd6040518163ffffffff1660e01b815260040160206040518083038186803b158015620030d557600080fd5b505afa158015620030ea573d6000803e3d6000fd5b505050506040513d601f19601f820116820180604052508101906200067f919062003b6b565b604080516060808201835280825260006020830152918101919091526040518060600160405280836001600160a01b03166306fdde036040518163ffffffff1660e01b815260040160006040518083038186803b1580156200317157600080fd5b505afa15801562003186573d6000803e3d6000fd5b505050506040513d6000823e601f3d908101601f19168201604052620031b09190810190620038d8565b8152602001836001600160a01b031663313ce5676040518163ffffffff1660e01b815260040160206040518083038186803b158015620031ef57600080fd5b505afa15801562003204573d6000803e3d6000fd5b505050506040513d601f19601f820116820180604052508101906200322a919062003b85565b60ff168152602001836001600160a01b03166395d89b416040518163ffffffff1660e01b815260040160006040518083038186803b1580156200326c57600080fd5b505afa15801562003281573d6000803e3d6000fd5b505050506040513d6000823e601f3d908101601f19168201604052620032ab9190810190620038d8565b905292915050565b6040805161010081018252600460e0820190815260608083019182526001600160a01b03808a166080850152881660a084015260c08301879052908252602080830186905282840185905292519092620033109183910162003dd5565b60405160208183030381529060405291505095945050505050565b6040805160e081018252600360c082019081528183019081526001600160a01b03808816606080850191909152908716608084015260a08301869052908252602080830185905292519092620033849183910162003e49565b604051602081830303815290604052915050949350505050565b6040805160a08101825260006080820181815282526020820181905291810182905260608101919091526002620033d6848462001f08565b600e811115620033ea57620033ea6200400f565b14620034445760405162461bcd60e51b815260206004820152602260248201527f4d6573736167652074797065206973206e6f74204552433230207472616e736660448201526132b960f11b6064820152608401620006bf565b62000f568284018462003b4c565b611e1e806200408e83390190565b60008083601f8401126200347357600080fd5b5081356001600160401b038111156200348b57600080fd5b60208301915083602082850101111562002be657600080fd5b8035600f8110620034b457600080fd5b919050565b600082601f830112620034cb57600080fd5b8135620034e2620034dc8262003edc565b62003ea9565b818152846020838601011115620034f857600080fd5b816020850160208301376000918101602001919091529392505050565b600081830360808112156200352957600080fd5b604051608081016001600160401b0382821081831117156200354f576200354f62004051565b8160405282945060208412156200356557600080fd5b60a083019350818410818511171562003582576200358262004051565b50826040526200359285620034a4565b8152815260208401359150620035a88262004067565b81602082015260408401359150620035c08262004067565b81604082015260608401356060820152505092915050565b600060208284031215620035eb57600080fd5b813562000f568162004067565b600080604083850312156200360c57600080fd5b8235620036198162004067565b946020939093013593505050565b6000602082840312156200363a57600080fd5b8151801515811462000f5657600080fd5b6000602082840312156200365e57600080fd5b5035919050565b600080604083850312156200367957600080fd5b8235915060208301356200368d8162004067565b809150509250929050565b60008060008060608587031215620036af57600080fd5b843593506020850135620036c38162004067565b925060408501356001600160401b03811115620036df57600080fd5b620036ed8782880162003460565b95989497509550505050565b600080604083850312156200370d57600080fd5b50508035926020909101359150565b6000602082840312156200372f57600080fd5b81356001600160e01b03198116811462000f5657600080fd5b6000602082840312156200375b57600080fd5b62000f5682620034a4565b600080602083850312156200377a57600080fd5b82356001600160401b038111156200379157600080fd5b6200379f8582860162003460565b90969095509350505050565b600080600060408486031215620037c157600080fd5b83356001600160401b03811115620037d857600080fd5b620037e68682870162003460565b9094509250506020840135620037fc8162004067565b809150509250925092565b600080600080606085870312156200381e57600080fd5b84356001600160401b038111156200383557600080fd5b620038438782880162003460565b9095509350506020850135620038598162004067565b915060408501356200386b8162004067565b939692955090935050565b600080600080606085870312156200388d57600080fd5b84356001600160401b03811115620038a457600080fd5b620038b28782880162003460565b9095509350506020850135620038c88162004067565b9396929550929360400135925050565b600060208284031215620038eb57600080fd5b81516001600160401b038111156200390257600080fd5b8201601f810184136200391457600080fd5b805162003925620034dc8262003edc565b8181528560208385010111156200393b57600080fd5b6200394e82602083016020860162003f89565b95945050505050565b600080600080600060a086880312156200397057600080fd5b85356001600160401b038111156200398757600080fd5b6200399588828901620034b9565b9550506020860135620039a88162004067565b93506040860135620039ba8162004067565b92506060860135620039cc8162004067565b91506080860135620039de8162004067565b809150509295509295909350565b600060208284031215620039ff57600080fd5b81356001600160401b038082111562003a1757600080fd5b9083019060c0828603121562003a2c57600080fd5b62003a3662003e7e565b62003a42868462003515565b81526080830135602082015260a08301358281111562003a6157600080fd5b92909201916060838703121562003a7757600080fd5b62003a8162003e7e565b83358381111562003a9157600080fd5b62003a9f88828701620034b9565b825250602084013562003ab2816200407d565b602082015260408401358381111562003aca57600080fd5b62003ad888828701620034b9565b6040830152508060408301525080935050505092915050565b600060a0828403121562003b0457600080fd5b604051604081018181106001600160401b038211171562003b295762003b2962004051565b60405262003b38848462003515565b815260809290920135602083015250919050565b60006080828403121562003b5f57600080fd5b62000f56838362003515565b60006020828403121562003b7e57600080fd5b5051919050565b60006020828403121562003b9857600080fd5b815162000f56816200407d565b6000815180845262003bbf81602086016020860162003f89565b601f01601f19169290920160200192915050565b805151600f811062003bf557634e487b7160e01b600052602160045260246000fd5b82526020818101516001600160a01b039081169184019190915260408083015190911690830152606090810151910152565b8183823760009101908152919050565b6000825162003c4b81846020870162003f89565b9190910192915050565b7f416363657373436f6e74726f6c3a206163636f756e742000000000000000000081526000835162003c8f81601785016020880162003f89565b7001034b99036b4b9b9b4b733903937b6329607d1b601791840191820152835162003cc281602884016020880162003f89565b01602801949350505050565b8381526001600160a01b03831660208201526060604082018190526000906200394e9083018462003ba5565b60208152816020820152818360408301376000818301604090810191909152601f909201601f19160101919050565b60208152600062000f56602083018462003ba5565b60408152600062003d53604083018562003ba5565b82810360208401526200394e818562003ba5565b60208082526021908201527f4155544f4d415449435f4445504c4f595f524f4c4520697320726571756972656040820152601960fa1b606082015260800190565b602080825260139082015272151c985b9cd9995c881dd85cc819985a5b1959606a1b604082015260600190565b6020815262003de960208201835162003bd3565b602082015160a08201526000604083015160c0808401528051606060e085015262003e1961014085018262003ba5565b602083015160ff1661010086015260409092015184830360df19016101208601529190506200394e818362003ba5565b600060a08201905062003e5e82845162003bd3565b6020830151608083015292915050565b608081016200067f828462003bd3565b604051606081016001600160401b038111828210171562003ea35762003ea362004051565b60405290565b604051601f8201601f191681016001600160401b038111828210171562003ed45762003ed462004051565b604052919050565b60006001600160401b0382111562003ef85762003ef862004051565b50601f01601f191660200190565b6000808585111562003f1757600080fd5b8386111562003f2557600080fd5b5050820193919092039150565b6000821982111562003f485762003f4862003ff9565b500190565b600081600019048311821515161562003f6a5762003f6a62003ff9565b500290565b60008282101562003f845762003f8462003ff9565b500390565b60005b8381101562003fa657818101518382015260200162003f8c565b8381111562003fb6576000848401525b50505050565b60008162003fce5762003fce62003ff9565b506000190190565b60008262003ff457634e487b7160e01b600052601260045260246000fd5b500690565b634e487b7160e01b600052601160045260246000fd5b634e487b7160e01b600052602160045260246000fd5b634e487b7160e01b600052603160045260246000fd5b634e487b7160e01b600052603260045260246000fd5b634e487b7160e01b600052604160045260246000fd5b6001600160a01b03811681146200180457600080fd5b60ff811681146200180457600080fdfe60806040523480156200001157600080fd5b5060405162001e1e38038062001e1e833981016040819052620000349162000646565b600054610100900460ff1615808015620000555750600054600160ff909116105b806200008557506200007230620001d960201b620007211760201c565b15801562000085575060005460ff166001145b620000ee5760405162461bcd60e51b815260206004820152602e60248201527f496e697469616c697a61626c653a20636f6e747261637420697320616c72656160448201526d191e481a5b9a5d1a585b1a5e995960921b60648201526084015b60405180910390fd5b6000805460ff19166001179055801562000112576000805461ff0019166101001790555b62000127620001e860201b620007301760201c565b6200013e83836200024660201b620007591760201c565b62000153620001e860201b620007301760201c565b6200016e60008051602062001dfe83398151915280620002b2565b6200018960008051602062001dfe83398151915233620002fd565b8015620001d0576000805461ff0019169055604051600181527f7f26b83ff96e1f2b6a682f133852f6798a09c465da95921460cefb38474024989060200160405180910390a15b50505062000703565b6001600160a01b03163b151590565b600054610100900460ff16620002445760405162461bcd60e51b815260206004820152602b602482015260008051602062001dde83398151915260448201526a6e697469616c697a696e6760a81b6064820152608401620000e5565b565b600054610100900460ff16620002a25760405162461bcd60e51b815260206004820152602b602482015260008051602062001dde83398151915260448201526a6e697469616c697a696e6760a81b6064820152608401620000e5565b620002ae828262000309565b5050565b600082815260656020526040808220600101805490849055905190918391839186917fbd79b86ffe0ab8e8776151514217cd7cacd52c909f66475c3af44e129f0b00ff9190a4505050565b620002ae828262000395565b600054610100900460ff16620003655760405162461bcd60e51b815260206004820152602b602482015260008051602062001dde83398151915260448201526a6e697469616c697a696e6760a81b6064820152608401620000e5565b81516200037a9060cc906020850190620004e9565b508051620003909060cd906020840190620004e9565b505050565b620003ac8282620003d360201b6200078a1760201c565b6000828152609760209081526040909120620003909183906200081062000477821b17901c565b60008281526065602090815260408083206001600160a01b038516845290915290205460ff16620002ae5760008281526065602090815260408083206001600160a01b03851684529091529020805460ff19166001179055620004333390565b6001600160a01b0316816001600160a01b0316837f2f8788117e7eff1d82e926ec794901d17c78024a50270940304540a733656f0d60405160405180910390a45050565b60006200048e836001600160a01b03841662000497565b90505b92915050565b6000818152600183016020526040812054620004e05750815460018181018455600084815260208082209093018490558454848252828601909352604090209190915562000491565b50600062000491565b828054620004f790620006b0565b90600052602060002090601f0160209004810192826200051b576000855562000566565b82601f106200053657805160ff191683800117855562000566565b8280016001018555821562000566579182015b828111156200056657825182559160200191906001019062000549565b506200057492915062000578565b5090565b5b8082111562000574576000815560010162000579565b600082601f830112620005a157600080fd5b81516001600160401b0380821115620005be57620005be620006ed565b604051601f8301601f19908116603f01168101908282118183101715620005e957620005e9620006ed565b816040528381526020925086838588010111156200060657600080fd5b600091505b838210156200062a57858201830151818301840152908201906200060b565b838211156200063c5760008385830101525b9695505050505050565b600080604083850312156200065a57600080fd5b82516001600160401b03808211156200067257600080fd5b62000680868387016200058f565b935060208501519150808211156200069757600080fd5b50620006a6858286016200058f565b9150509250929050565b600181811c90821680620006c557607f821691505b60208210811415620006e757634e487b7160e01b600052602260045260246000fd5b50919050565b634e487b7160e01b600052604160045260246000fd5b6116cb80620007136000396000f3fe608060405234801561001057600080fd5b50600436106101585760003560e01c806370a08231116100c3578063a457c2d71161007c578063a457c2d7146102ef578063a9059cbb14610302578063ca15c87314610315578063d539139314610328578063d547741f1461034f578063dd62ed3e1461036257600080fd5b806370a082311461026557806379cc67901461028e5780639010d07c146102a157806391d14854146102cc57806395d89b41146102df578063a217fddf146102e757600080fd5b80632f2ff15d116101155780632f2ff15d146101f5578063313ce5671461020a57806336568abe14610219578063395093511461022c57806340c10f191461023f57806342966c681461025257600080fd5b806301ffc9a71461015d57806306fdde0314610185578063095ea7b31461019a57806318160ddd146101ad57806323b872dd146101bf578063248a9ca3146101d2575b600080fd5b61017061016b366004611454565b610375565b60405190151581526020015b60405180910390f35b61018d6103a0565b60405161017c91906114f3565b6101706101a83660046113cc565b610432565b60cb545b60405190815260200161017c565b6101706101cd366004611390565b61044a565b6101b16101e03660046113f6565b60009081526065602052604090206001015490565b61020861020336600461140f565b61046e565b005b6040516012815260200161017c565b61020861022736600461140f565b610498565b61017061023a3660046113cc565b61051b565b61020861024d3660046113cc565b61053d565b6102086102603660046113f6565b6105b6565b6101b1610273366004611342565b6001600160a01b0316600090815260c9602052604090205490565b61020861029c3660046113cc565b6105c3565b6102b46102af366004611432565b6105d8565b6040516001600160a01b03909116815260200161017c565b6101706102da36600461140f565b6105f7565b61018d610622565b6101b1600081565b6101706102fd3660046113cc565b610631565b6101706103103660046113cc565b6106ac565b6101b16103233660046113f6565b6106ba565b6101b17f9f2df0fed2c77648de5860a4cc508cd0818c85b8b8a1ab4ceeef8d981c8956a681565b61020861035d36600461140f565b6106d1565b6101b161037036600461135d565b6106f6565b60006001600160e01b03198216635a05180f60e01b148061039a575061039a82610825565b92915050565b606060cc80546103af90611602565b80601f01602080910402602001604051908101604052809291908181526020018280546103db90611602565b80156104285780601f106103fd57610100808354040283529160200191610428565b820191906000526020600020905b81548152906001019060200180831161040b57829003601f168201915b5050505050905090565b60003361044081858561085a565b5060019392505050565b60003361045885828561097e565b6104638585856109f8565b506001949350505050565b60008281526065602052604090206001015461048981610bc6565b6104938383610bd0565b505050565b6001600160a01b038116331461050d5760405162461bcd60e51b815260206004820152602f60248201527f416363657373436f6e74726f6c3a2063616e206f6e6c792072656e6f756e636560448201526e103937b632b9903337b91039b2b63360891b60648201526084015b60405180910390fd5b6105178282610bf2565b5050565b60003361044081858561052e83836106f6565b6105389190611571565b61085a565b6105677f9f2df0fed2c77648de5860a4cc508cd0818c85b8b8a1ab4ceeef8d981c8956a6336105f7565b6105ac5760405162461bcd60e51b815260206004820152601660248201527529b2b73232b91034b9903737ba10309026b4b73a32b960511b6044820152606401610504565b6105178282610c14565b6105c03382610cf3565b50565b6105ce82338361097e565b6105178282610cf3565b60008281526097602052604081206105f09083610e41565b9392505050565b60009182526065602090815260408084206001600160a01b0393909316845291905290205460ff1690565b606060cd80546103af90611602565b6000338161063f82866106f6565b90508381101561069f5760405162461bcd60e51b815260206004820152602560248201527f45524332303a2064656372656173656420616c6c6f77616e63652062656c6f77604482015264207a65726f60d81b6064820152608401610504565b610463828686840361085a565b6000336104408185856109f8565b600081815260976020526040812061039a90610e4d565b6000828152606560205260409020600101546106ec81610bc6565b6104938383610bf2565b6001600160a01b03918216600090815260ca6020908152604080832093909416825291909152205490565b6001600160a01b03163b151590565b600054610100900460ff166107575760405162461bcd60e51b815260040161050490611526565b565b600054610100900460ff166107805760405162461bcd60e51b815260040161050490611526565b6105178282610e57565b61079482826105f7565b6105175760008281526065602090815260408083206001600160a01b03851684529091529020805460ff191660011790556107cc3390565b6001600160a01b0316816001600160a01b0316837f2f8788117e7eff1d82e926ec794901d17c78024a50270940304540a733656f0d60405160405180910390a45050565b60006105f0836001600160a01b038416610ea5565b60006001600160e01b03198216637965db0b60e01b148061039a57506301ffc9a760e01b6001600160e01b031983161461039a565b6001600160a01b0383166108bc5760405162461bcd60e51b8152602060048201526024808201527f45524332303a20617070726f76652066726f6d20746865207a65726f206164646044820152637265737360e01b6064820152608401610504565b6001600160a01b03821661091d5760405162461bcd60e51b815260206004820152602260248201527f45524332303a20617070726f766520746f20746865207a65726f206164647265604482015261737360f01b6064820152608401610504565b6001600160a01b03838116600081815260ca602090815260408083209487168084529482529182902085905590518481527f8c5be1e5ebec7d5bd14f71427d1e84f3dd0314c0f7b2291e5b200ac8c7c3b925910160405180910390a3505050565b600061098a84846106f6565b905060001981146109f257818110156109e55760405162461bcd60e51b815260206004820152601d60248201527f45524332303a20696e73756666696369656e7420616c6c6f77616e63650000006044820152606401610504565b6109f2848484840361085a565b50505050565b6001600160a01b038316610a5c5760405162461bcd60e51b815260206004820152602560248201527f45524332303a207472616e736665722066726f6d20746865207a65726f206164604482015264647265737360d81b6064820152608401610504565b6001600160a01b038216610abe5760405162461bcd60e51b815260206004820152602360248201527f45524332303a207472616e7366657220746f20746865207a65726f206164647260448201526265737360e81b6064820152608401610504565b6001600160a01b038316600090815260c9602052604090205481811015610b365760405162461bcd60e51b815260206004820152602660248201527f45524332303a207472616e7366657220616d6f756e7420657863656564732062604482015265616c616e636560d01b6064820152608401610504565b6001600160a01b03808516600090815260c96020526040808220858503905591851681529081208054849290610b6d908490611571565b92505081905550826001600160a01b0316846001600160a01b03167fddf252ad1be2c89b69c2b068fc378daa952ba7f163c4a11628f55a4df523b3ef84604051610bb991815260200190565b60405180910390a36109f2565b6105c08133610ef4565b610bda828261078a565b60008281526097602052604090206104939082610810565b610bfc8282610f58565b60008281526097602052604090206104939082610fbf565b6001600160a01b038216610c6a5760405162461bcd60e51b815260206004820152601f60248201527f45524332303a206d696e7420746f20746865207a65726f2061646472657373006044820152606401610504565b8060cb6000828254610c7c9190611571565b90915550506001600160a01b038216600090815260c9602052604081208054839290610ca9908490611571565b90915550506040518181526001600160a01b038316906000907fddf252ad1be2c89b69c2b068fc378daa952ba7f163c4a11628f55a4df523b3ef9060200160405180910390a35050565b6001600160a01b038216610d535760405162461bcd60e51b815260206004820152602160248201527f45524332303a206275726e2066726f6d20746865207a65726f206164647265736044820152607360f81b6064820152608401610504565b6001600160a01b038216600090815260c9602052604090205481811015610dc75760405162461bcd60e51b815260206004820152602260248201527f45524332303a206275726e20616d6f756e7420657863656564732062616c616e604482015261636560f01b6064820152608401610504565b6001600160a01b038316600090815260c960205260408120838303905560cb8054849290610df69084906115a8565b90915550506040518281526000906001600160a01b038516907fddf252ad1be2c89b69c2b068fc378daa952ba7f163c4a11628f55a4df523b3ef9060200160405180910390a3505050565b60006105f08383610fd4565b600061039a825490565b600054610100900460ff16610e7e5760405162461bcd60e51b815260040161050490611526565b8151610e919060cc90602085019061128d565b5080516104939060cd90602084019061128d565b6000818152600183016020526040812054610eec5750815460018181018455600084815260208082209093018490558454848252828601909352604090209190915561039a565b50600061039a565b610efe82826105f7565b61051757610f16816001600160a01b03166014610ffe565b610f21836020610ffe565b604051602001610f3292919061147e565b60408051601f198184030181529082905262461bcd60e51b8252610504916004016114f3565b610f6282826105f7565b156105175760008281526065602090815260408083206001600160a01b0385168085529252808320805460ff1916905551339285917ff6391f5c32d9c69d2a47ea670b442974b53935d1edc7fd64eb21e047a839171b9190a45050565b60006105f0836001600160a01b03841661119a565b6000826000018281548110610feb57610feb611669565b9060005260206000200154905092915050565b6060600061100d836002611589565b611018906002611571565b67ffffffffffffffff8111156110305761103061167f565b6040519080825280601f01601f19166020018201604052801561105a576020820181803683370190505b509050600360fc1b8160008151811061107557611075611669565b60200101906001600160f81b031916908160001a905350600f60fb1b816001815181106110a4576110a4611669565b60200101906001600160f81b031916908160001a90535060006110c8846002611589565b6110d3906001611571565b90505b600181111561114b576f181899199a1a9b1b9c1cb0b131b232b360811b85600f166010811061110757611107611669565b1a60f81b82828151811061111d5761111d611669565b60200101906001600160f81b031916908160001a90535060049490941c93611144816115eb565b90506110d6565b5083156105f05760405162461bcd60e51b815260206004820181905260248201527f537472696e67733a20686578206c656e67746820696e73756666696369656e746044820152606401610504565b600081815260018301602052604081205480156112835760006111be6001836115a8565b85549091506000906111d2906001906115a8565b90508181146112375760008660000182815481106111f2576111f2611669565b906000526020600020015490508087600001848154811061121557611215611669565b6000918252602080832090910192909255918252600188019052604090208390555b855486908061124857611248611653565b60019003818190600052602060002001600090559055856001016000868152602001908152602001600020600090556001935050505061039a565b600091505061039a565b82805461129990611602565b90600052602060002090601f0160209004810192826112bb5760008555611301565b82601f106112d457805160ff1916838001178555611301565b82800160010185558215611301579182015b828111156113015782518255916020019190600101906112e6565b5061130d929150611311565b5090565b5b8082111561130d5760008155600101611312565b80356001600160a01b038116811461133d57600080fd5b919050565b60006020828403121561135457600080fd5b6105f082611326565b6000806040838503121561137057600080fd5b61137983611326565b915061138760208401611326565b90509250929050565b6000806000606084860312156113a557600080fd5b6113ae84611326565b92506113bc60208501611326565b9150604084013590509250925092565b600080604083850312156113df57600080fd5b6113e883611326565b946020939093013593505050565b60006020828403121561140857600080fd5b5035919050565b6000806040838503121561142257600080fd5b8235915061138760208401611326565b6000806040838503121561144557600080fd5b50508035926020909101359150565b60006020828403121561146657600080fd5b81356001600160e01b0319811681146105f057600080fd5b7f416363657373436f6e74726f6c3a206163636f756e74200000000000000000008152600083516114b68160178501602088016115bf565b7001034b99036b4b9b9b4b733903937b6329607d1b60179184019182015283516114e78160288401602088016115bf565b01602801949350505050565b60208152600082518060208401526115128160408501602087016115bf565b601f01601f19169190910160400192915050565b6020808252602b908201527f496e697469616c697a61626c653a20636f6e7472616374206973206e6f74206960408201526a6e697469616c697a696e6760a81b606082015260800190565b600082198211156115845761158461163d565b500190565b60008160001904831182151516156115a3576115a361163d565b500290565b6000828210156115ba576115ba61163d565b500390565b60005b838110156115da5781810151838201526020016115c2565b838111156109f25750506000910152565b6000816115fa576115fa61163d565b506000190190565b600181811c9082168061161657607f821691505b6020821081141561163757634e487b7160e01b600052602260045260246000fd5b50919050565b634e487b7160e01b600052601160045260246000fd5b634e487b7160e01b600052603160045260246000fd5b634e487b7160e01b600052603260045260246000fd5b634e487b7160e01b600052604160045260246000fdfea26469706673582212207ec0a01c64deef7f84ea0d9b258c87f0b14598efc31b3bf5e7f90898a7f4b1d364736f6c63430008060033496e697469616c697a61626c653a20636f6e7472616374206973206e6f7420699f2df0fed2c77648de5860a4cc508cd0818c85b8b8a1ab4ceeef8d981c8956a67164765a3c8bd2513bdfa0c90f1bee9606e920fbf2c9071f310263fbd818684ba26469706673582212208d9b85d5b1efce20df7fb0c7860a65b0d78b6bd42efca53a5e494f0f158ea66b64736f6c63430008060033",
  "linkReferences": {},
  "deployedLinkReferences": {}
}