{
  "_format": "hh-sol-artifact-1",
  "contractName": "TokenManagerLinker",
  "sourceName": "contracts/schain/TokenManagerLinker.sol",
  "abi": [
    {
      "anonymous": false,
      "inputs": [
        {
          "indexed": false,
          "internalType": "uint8",
          "name": "version",
          "type": "uint8"
        }
      ],
      "name": "Initialized",
      "type": "event"
    },
    {
      "anonymous": false,
      "inputs": [
        {
          "indexed": true,
          "internalType": "bytes32",
          "name": "role",
          "type": "bytes32"
        },
        {
          "indexed": true,
          "internalType": "bytes32",
          "name": "previousAdminRole",
          "type": "bytes32"
        },
        {
          "indexed": true,
          "internalType": "bytes32",
          "name": "newAdminRole",
          "type": "bytes32"
        }
      ],
      "name": "RoleAdminChanged",
      "type": "event"
    },
    {
      "anonymous": false,
      "inputs": [
        {
          "indexed": true,
          "internalType": "bytes32",
          "name": "role",
          "type": "bytes32"
        },
        {
          "indexed": true,
          "internalType": "address",
          "name": "account",
          "type": "address"
        },
        {
          "indexed": true,
          "internalType": "address",
          "name": "sender",
          "type": "address"
        }
      ],
      "name": "RoleGranted",
      "type": "event"
    },
    {
      "anonymous": false,
      "inputs": [
        {
          "indexed": true,
          "internalType": "bytes32",
          "name": "role",
          "type": "bytes32"
        },
        {
          "indexed": true,
          "internalType": "address",
          "name": "account",
          "type": "address"
        },
        {
          "indexed": true,
          "internalType": "address",
          "name": "sender",
          "type": "address"
        }
      ],
      "name": "RoleRevoked",
      "type": "event"
    },
    {
      "inputs": [],
      "name": "DEFAULT_ADMIN_ROLE",
      "outputs": [
        {
          "internalType": "bytes32",
          "name": "",
          "type": "bytes32"
        }
      ],
      "stateMutability": "view",
      "type": "function"
    },
    {
      "inputs": [],
      "name": "MAINNET_HASH",
      "outputs": [
        {
          "internalType": "bytes32",
          "name": "",
          "type": "bytes32"
        }
      ],
      "stateMutability": "view",
      "type": "function"
    },
    {
      "inputs": [],
      "name": "MAINNET_NAME",
      "outputs": [
        {
          "internalType": "string",
          "name": "",
          "type": "string"
        }
      ],
      "stateMutability": "view",
      "type": "function"
    },
    {
      "inputs": [],
      "name": "REGISTRAR_ROLE",
      "outputs": [
        {
          "internalType": "bytes32",
          "name": "",
          "type": "bytes32"
        }
      ],
      "stateMutability": "view",
      "type": "function"
    },
    {
      "inputs": [
        {
          "internalType": "string",
          "name": "schainName",
          "type": "string"
        }
      ],
      "name": "connectSchain",
      "outputs": [],
      "stateMutability": "nonpayable",
      "type": "function"
    },
    {
      "inputs": [
        {
          "internalType": "string",
          "name": "schainName",
          "type": "string"
        }
      ],
      "name": "disconnectSchain",
      "outputs": [],
      "stateMutability": "nonpayable",
      "type": "function"
    },
    {
      "inputs": [
        {
          "internalType": "bytes32",
          "name": "role",
          "type": "bytes32"
        }
      ],
      "name": "getRoleAdmin",
      "outputs": [
        {
          "internalType": "bytes32",
          "name": "",
          "type": "bytes32"
        }
      ],
      "stateMutability": "view",
      "type": "function"
    },
    {
      "inputs": [
        {
          "internalType": "bytes32",
          "name": "role",
          "type": "bytes32"
        },
        {
          "internalType": "uint256",
          "name": "index",
          "type": "uint256"
        }
      ],
      "name": "getRoleMember",
      "outputs": [
        {
          "internalType": "address",
          "name": "",
          "type": "address"
        }
      ],
      "stateMutability": "view",
      "type": "function"
    },
    {
      "inputs": [
        {
          "internalType": "bytes32",
          "name": "role",
          "type": "bytes32"
        }
      ],
      "name": "getRoleMemberCount",
      "outputs": [
        {
          "internalType": "uint256",
          "name": "",
          "type": "uint256"
        }
      ],
      "stateMutability": "view",
      "type": "function"
    },
    {
      "inputs": [
        {
          "internalType": "bytes32",
          "name": "role",
          "type": "bytes32"
        },
        {
          "internalType": "address",
          "name": "account",
          "type": "address"
        }
      ],
      "name": "grantRole",
      "outputs": [],
      "stateMutability": "nonpayable",
      "type": "function"
    },
    {
      "inputs": [
        {
          "internalType": "bytes32",
          "name": "role",
          "type": "bytes32"
        },
        {
          "internalType": "address",
          "name": "account",
          "type": "address"
        }
      ],
      "name": "hasRole",
      "outputs": [
        {
          "internalType": "bool",
          "name": "",
          "type": "bool"
        }
      ],
      "stateMutability": "view",
      "type": "function"
    },
    {
      "inputs": [
        {
          "internalType": "string",
          "name": "schainName",
          "type": "string"
        }
      ],
      "name": "hasSchain",
      "outputs": [
        {
          "internalType": "bool",
          "name": "connected",
          "type": "bool"
        }
      ],
      "stateMutability": "view",
      "type": "function"
    },
    {
      "inputs": [
        {
          "internalType": "contract ITokenManager",
          "name": "tokenManager",
          "type": "address"
        }
      ],
      "name": "hasTokenManager",
      "outputs": [
        {
          "internalType": "bool",
          "name": "",
          "type": "bool"
        }
      ],
      "stateMutability": "view",
      "type": "function"
    },
    {
      "inputs": [
        {
          "internalType": "contract IMessageProxyForSchain",
          "name": "newMessageProxyAddress",
          "type": "address"
        },
        {
          "internalType": "address",
          "name": "linker",
          "type": "address"
        }
      ],
      "name": "initialize",
      "outputs": [],
      "stateMutability": "nonpayable",
      "type": "function"
    },
    {
      "inputs": [],
      "name": "linkerAddress",
      "outputs": [
        {
          "internalType": "address",
          "name": "",
          "type": "address"
        }
      ],
      "stateMutability": "view",
      "type": "function"
    },
    {
      "inputs": [],
      "name": "messageProxy",
      "outputs": [
        {
          "internalType": "contract IMessageProxyForSchain",
          "name": "",
          "type": "address"
        }
      ],
      "stateMutability": "view",
      "type": "function"
    },
    {
      "inputs": [
        {
          "internalType": "contract ITokenManager",
          "name": "newTokenManager",
          "type": "address"
        }
      ],
      "name": "registerTokenManager",
      "outputs": [],
      "stateMutability": "nonpayable",
      "type": "function"
    },
    {
      "inputs": [
        {
          "internalType": "contract ITokenManager",
          "name": "tokenManagerAddress",
          "type": "address"
        }
      ],
      "name": "removeTokenManager",
      "outputs": [],
      "stateMutability": "nonpayable",
      "type": "function"
    },
    {
      "inputs": [
        {
          "internalType": "bytes32",
          "name": "role",
          "type": "bytes32"
        },
        {
          "internalType": "address",
          "name": "account",
          "type": "address"
        }
      ],
      "name": "renounceRole",
      "outputs": [],
      "stateMutability": "nonpayable",
      "type": "function"
    },
    {
      "inputs": [
        {
          "internalType": "bytes32",
          "name": "role",
          "type": "bytes32"
        },
        {
          "internalType": "address",
          "name": "account",
          "type": "address"
        }
      ],
      "name": "revokeRole",
      "outputs": [],
      "stateMutability": "nonpayable",
      "type": "function"
    },
    {
      "inputs": [
        {
          "internalType": "bytes4",
          "name": "interfaceId",
          "type": "bytes4"
        }
      ],
      "name": "supportsInterface",
      "outputs": [
        {
          "internalType": "bool",
          "name": "",
          "type": "bool"
        }
      ],
      "stateMutability": "view",
      "type": "function"
    },
    {
      "inputs": [
        {
          "internalType": "uint256",
          "name": "",
          "type": "uint256"
        }
      ],
      "name": "tokenManagers",
      "outputs": [
        {
          "internalType": "contract ITokenManager",
          "name": "",
          "type": "address"
        }
      ],
      "stateMutability": "view",
      "type": "function"
    }
  ],
  "bytecode": "0x608060405234801561001057600080fd5b50611726806100206000396000f3fe608060405234801561001057600080fd5b50600436106101425760003560e01c80635573b8b6116100b8578063a217fddf1161007c578063a217fddf146102d9578063b9727f96146102e1578063ca15c873146102f4578063d547741f14610307578063e953c9921461031a578063f68e95531461032d57600080fd5b80635573b8b61461027a57806364a5142f1461028d5780639010d07c146102a057806391d14854146102b3578063990c85e6146102c657600080fd5b8063291f60d31161010a578063291f60d3146101d05780632f2ff15d146101e357806336568abe146101f657806341ecadf914610209578063485cc9551461023457806350f442801461024757600080fd5b806301ffc9a714610147578063041f4c9b1461016f578063173df64b14610182578063248a9ca31461019757806328c5e182146101c8575b600080fd5b61015a610155366004611368565b610342565b60405190151581526020015b60405180910390f35b61015a61017d3660046113dd565b61036d565b6101956101903660046113dd565b6104cb565b005b6101ba6101a53660046112fd565b60009081526065602052604090206001015490565b604051908152602001610166565b6101ba610613565b6101956101de3660046113c0565b61065c565b6101956101f1366004611316565b6106e2565b610195610204366004611316565b61070c565b61021c6102173660046112fd565b61078a565b6040516001600160a01b039091168152602001610166565b610195610242366004611392565b6107b4565b61026d6040518060400160405280600781526020016613585a5b9b995d60ca1b81525081565b6040516101669190611549565b60c95461021c906001600160a01b031681565b60ca5461021c906001600160a01b031681565b61021c6102ae366004611346565b610979565b61015a6102c1366004611316565b610998565b6101956102d43660046113dd565b6109c3565b6101ba600081565b6101956102ef3660046113c0565b610b3e565b6101ba6103023660046112fd565b610c9a565b610195610315366004611316565b610cb1565b61015a6103283660046113c0565b610cd6565b6101ba6000805160206116d183398151915281565b60006001600160e01b03198216635a05180f60e01b1480610367575061036782610d45565b92915050565b60cb5460019060005b8181101561043857828015610424575060cb81815481106103995761039961168f565b6000918252602090912001546040516339927cf960e01b81526001600160a01b03909116906339927cf9906103d49088908890600401611509565b60206040518083038186803b1580156103ec57600080fd5b505afa158015610400573d6000803e3d6000fd5b505050506040513d601f19601f8201168201806040525081019061042491906112db565b92508061043081611648565b915050610376565b508180156104c3575060c954604051634ccd5cd560e11b81526001600160a01b039091169063999ab9aa906104739087908790600401611509565b60206040518083038186803b15801561048b57600080fd5b505afa15801561049f573d6000803e3d6000fd5b505050506040513d601f19601f820116820180604052508101906104c391906112db565b949350505050565b6104e36000805160206116d183398151915233610998565b6105085760405162461bcd60e51b81526004016104ff9061157c565b60405180910390fd5b60cb5460005b818110156105a95760cb81815481106105295761052961168f565b600091825260209091200154604051633038c4b760e21b81526001600160a01b039091169063c0e312dc906105649087908790600401611509565b600060405180830381600087803b15801561057e57600080fd5b505af1158015610592573d6000803e3d6000fd5b5050505080806105a190611648565b91505061050e565b5060c954604051633cdd2cc360e01b81526001600160a01b0390911690633cdd2cc3906105dc9086908690600401611509565b600060405180830381600087803b1580156105f657600080fd5b505af115801561060a573d6000803e3d6000fd5b50505050505050565b6040518060400160405280600781526020016613585a5b9b995d60ca1b8152506040516020016106439190611478565b6040516020818303038152906040528051906020012081565b6106746000805160206116d183398151915233610998565b6106905760405162461bcd60e51b81526004016104ff9061157c565b60cb80546001810182556000919091527fa7ce836d032b2bf62b7e2097a8e0a6d8aeb35405ad15271e96d3b0188a1d06fb0180546001600160a01b0319166001600160a01b0392909216919091179055565b6000828152606560205260409020600101546106fd81610d7a565b6107078383610d87565b505050565b6001600160a01b038116331461077c5760405162461bcd60e51b815260206004820152602f60248201527f416363657373436f6e74726f6c3a2063616e206f6e6c792072656e6f756e636560448201526e103937b632b9903337b91039b2b63360891b60648201526084016104ff565b6107868282610da9565b5050565b60cb818154811061079a57600080fd5b6000918252602090912001546001600160a01b0316905081565b600054610100900460ff16158080156107d45750600054600160ff909116105b806107ee5750303b1580156107ee575060005460ff166001145b6108515760405162461bcd60e51b815260206004820152602e60248201527f496e697469616c697a61626c653a20636f6e747261637420697320616c72656160448201526d191e481a5b9a5d1a585b1a5e995960921b60648201526084016104ff565b6000805460ff191660011790558015610874576000805461ff0019166101001790555b6001600160a01b0382166108ca5760405162461bcd60e51b815260206004820152601c60248201527f4c696e6b657220616464726573732068617320746f206265207365740000000060448201526064016104ff565b6108d2610dcb565b6108dd600033610e38565b6108f56000805160206116d183398151915233610e38565b60c980546001600160a01b038086166001600160a01b03199283161790925560ca80549285169290911691909117905560cc805460ff191690558015610707576000805461ff0019169055604051600181527f7f26b83ff96e1f2b6a682f133852f6798a09c465da95921460cefb38474024989060200160405180910390a1505050565b60008281526097602052604081206109919083610e42565b9392505050565b60009182526065602090815260408084206001600160a01b0393909316845291905290205460ff1690565b6109db6000805160206116d183398151915233610998565b6109f75760405162461bcd60e51b81526004016104ff9061157c565b60005b60cb54811015610ad55760cb8181548110610a1757610a1761168f565b9060005260206000200160009054906101000a90046001600160a01b03166001600160a01b031663cb703bff848460cb8581548110610a5857610a5861168f565b6000918252602090912001546040516001600160e01b031960e086901b168152610a909392916001600160a01b03169060040161151d565b600060405180830381600087803b158015610aaa57600080fd5b505af1158015610abe573d6000803e3d6000fd5b505050508080610acd90611648565b9150506109fa565b5060c95460405163f2f6360560e01b81526001600160a01b039091169063f2f6360590610b089085908590600401611509565b600060405180830381600087803b158015610b2257600080fd5b505af1158015610b36573d6000803e3d6000fd5b505050505050565b610b566000805160206116d183398151915233610998565b610b725760405162461bcd60e51b81526004016104ff9061157c565b60cb546000905b80821015610bd057826001600160a01b031660cb8381548110610b9e57610b9e61168f565b6000918252602090912001546001600160a01b03161415610bbe57610bd0565b81610bc881611648565b925050610b79565b8082101561070757610be36001826115ea565b821015610c625760cb610bf76001836115ea565b81548110610c0757610c0761168f565b60009182526020909120015460cb80546001600160a01b039092169184908110610c3357610c3361168f565b9060005260206000200160006101000a8154816001600160a01b0302191690836001600160a01b031602179055505b60cb805480610c7357610c73611679565b600082815260209020810160001990810180546001600160a01b0319169055019055505050565b600081815260976020526040812061036790610e4e565b600082815260656020526040902060010154610ccc81610d7a565b6107078383610da9565b60cb5460009081905b80821015610d3b57836001600160a01b031660cb8381548110610d0457610d0461168f565b6000918252602090912001546001600160a01b03161415610d29575060019392505050565b81610d3381611648565b925050610cdf565b5060009392505050565b60006001600160e01b03198216637965db0b60e01b148061036757506301ffc9a760e01b6001600160e01b0319831614610367565b610d848133610e58565b50565b610d918282610ebc565b60008281526097602052604090206107079082610f42565b610db38282610f57565b60008281526097602052604090206107079082610fbe565b600054610100900460ff16610e365760405162461bcd60e51b815260206004820152602b60248201527f496e697469616c697a61626c653a20636f6e7472616374206973206e6f74206960448201526a6e697469616c697a696e6760a81b60648201526084016104ff565b565b6107868282610d87565b60006109918383610fd3565b6000610367825490565b610e628282610998565b61078657610e7a816001600160a01b03166014610ffd565b610e85836020610ffd565b604051602001610e96929190611494565b60408051601f198184030181529082905262461bcd60e51b82526104ff91600401611549565b610ec68282610998565b6107865760008281526065602090815260408083206001600160a01b03851684529091529020805460ff19166001179055610efe3390565b6001600160a01b0316816001600160a01b0316837f2f8788117e7eff1d82e926ec794901d17c78024a50270940304540a733656f0d60405160405180910390a45050565b6000610991836001600160a01b038416611199565b610f618282610998565b156107865760008281526065602090815260408083206001600160a01b0385168085529252808320805460ff1916905551339285917ff6391f5c32d9c69d2a47ea670b442974b53935d1edc7fd64eb21e047a839171b9190a45050565b6000610991836001600160a01b0384166111e8565b6000826000018281548110610fea57610fea61168f565b9060005260206000200154905092915050565b6060600061100c8360026115cb565b6110179060026115b3565b67ffffffffffffffff81111561102f5761102f6116a5565b6040519080825280601f01601f191660200182016040528015611059576020820181803683370190505b509050600360fc1b816000815181106110745761107461168f565b60200101906001600160f81b031916908160001a905350600f60fb1b816001815181106110a3576110a361168f565b60200101906001600160f81b031916908160001a90535060006110c78460026115cb565b6110d29060016115b3565b90505b600181111561114a576f181899199a1a9b1b9c1cb0b131b232b360811b85600f16601081106111065761110661168f565b1a60f81b82828151811061111c5761111c61168f565b60200101906001600160f81b031916908160001a90535060049490941c9361114381611631565b90506110d5565b5083156109915760405162461bcd60e51b815260206004820181905260248201527f537472696e67733a20686578206c656e67746820696e73756666696369656e7460448201526064016104ff565b60008181526001830160205260408120546111e057508154600181810184556000848152602080822090930184905584548482528286019093526040902091909155610367565b506000610367565b600081815260018301602052604081205480156112d157600061120c6001836115ea565b8554909150600090611220906001906115ea565b90508181146112855760008660000182815481106112405761124061168f565b90600052602060002001549050808760000184815481106112635761126361168f565b6000918252602080832090910192909255918252600188019052604090208390555b855486908061129657611296611679565b600190038181906000526020600020016000905590558560010160008681526020019081526020016000206000905560019350505050610367565b6000915050610367565b6000602082840312156112ed57600080fd5b8151801515811461099157600080fd5b60006020828403121561130f57600080fd5b5035919050565b6000806040838503121561132957600080fd5b82359150602083013561133b816116bb565b809150509250929050565b6000806040838503121561135957600080fd5b50508035926020909101359150565b60006020828403121561137a57600080fd5b81356001600160e01b03198116811461099157600080fd5b600080604083850312156113a557600080fd5b82356113b0816116bb565b9150602083013561133b816116bb565b6000602082840312156113d257600080fd5b8135610991816116bb565b600080602083850312156113f057600080fd5b823567ffffffffffffffff8082111561140857600080fd5b818501915085601f83011261141c57600080fd5b81358181111561142b57600080fd5b86602082850101111561143d57600080fd5b60209290920196919550909350505050565b81835281816020850137506000828201602090810191909152601f909101601f19169091010190565b6000825161148a818460208701611601565b9190910192915050565b7f416363657373436f6e74726f6c3a206163636f756e74200000000000000000008152600083516114cc816017850160208801611601565b7001034b99036b4b9b9b4b733903937b6329607d1b60179184019182015283516114fd816028840160208801611601565b01602801949350505050565b6020815260006104c360208301848661144f565b60408152600061153160408301858761144f565b905060018060a01b0383166020830152949350505050565b6020815260008251806020840152611568816040850160208701611601565b601f01601f19169190910160400192915050565b6020808252601a908201527f5245474953545241525f524f4c45206973207265717569726564000000000000604082015260600190565b600082198211156115c6576115c6611663565b500190565b60008160001904831182151516156115e5576115e5611663565b500290565b6000828210156115fc576115fc611663565b500390565b60005b8381101561161c578181015183820152602001611604565b8381111561162b576000848401525b50505050565b60008161164057611640611663565b506000190190565b600060001982141561165c5761165c611663565b5060010190565b634e487b7160e01b600052601160045260246000fd5b634e487b7160e01b600052603160045260246000fd5b634e487b7160e01b600052603260045260246000fd5b634e487b7160e01b600052604160045260246000fd5b6001600160a01b0381168114610d8457600080fdfeedcc084d3dcd65a1f7f23c65c46722faca6953d28e43150a467cf43e5c309238a2646970667358221220c43991d8cdf58aa311d74666051e727641f9f55479b8d3446dcb81763591d44064736f6c63430008060033",
  "linkReferences": {},
  "deployedLinkReferences": {}
}