{
  "_format": "hh-sol-artifact-1",
  "contractName": "CommunityLocker",
  "sourceName": "contracts/schain/CommunityLocker.sol",
  "abi": [
    {
      "anonymous": false,
      "inputs": [
        {
          "indexed": false,
          "internalType": "bytes32",
          "name": "schainHash",
          "type": "bytes32"
        },
        {
          "indexed": false,
          "internalType": "address",
          "name": "user",
          "type": "address"
        }
      ],
      "name": "ActivateUser",
      "type": "event"
    },
    {
      "anonymous": false,
      "inputs": [
        {
          "indexed": true,
          "internalType": "bytes32",
          "name": "constantHash",
          "type": "bytes32"
        },
        {
          "indexed": false,
          "internalType": "uint256",
          "name": "previousValue",
          "type": "uint256"
        },
        {
          "indexed": false,
          "internalType": "uint256",
          "name": "newValue",
          "type": "uint256"
        }
      ],
      "name": "ConstantUpdated",
      "type": "event"
    },
    {
      "anonymous": false,
      "inputs": [
        {
          "indexed": false,
          "internalType": "bytes32",
          "name": "schainHash",
          "type": "bytes32"
        },
        {
          "indexed": false,
          "internalType": "address",
          "name": "user",
          "type": "address"
        }
      ],
      "name": "LockUser",
      "type": "event"
    },
    {
      "anonymous": false,
      "inputs": [
        {
          "indexed": true,
          "internalType": "bytes32",
          "name": "role",
          "type": "bytes32"
        },
        {
          "indexed": true,
          "internalType": "bytes32",
          "name": "previousAdminRole",
          "type": "bytes32"
        },
        {
          "indexed": true,
          "internalType": "bytes32",
          "name": "newAdminRole",
          "type": "bytes32"
        }
      ],
      "name": "RoleAdminChanged",
      "type": "event"
    },
    {
      "anonymous": false,
      "inputs": [
        {
          "indexed": true,
          "internalType": "bytes32",
          "name": "role",
          "type": "bytes32"
        },
        {
          "indexed": true,
          "internalType": "address",
          "name": "account",
          "type": "address"
        },
        {
          "indexed": true,
          "internalType": "address",
          "name": "sender",
          "type": "address"
        }
      ],
      "name": "RoleGranted",
      "type": "event"
    },
    {
      "anonymous": false,
      "inputs": [
        {
          "indexed": true,
          "internalType": "bytes32",
          "name": "role",
          "type": "bytes32"
        },
        {
          "indexed": true,
          "internalType": "address",
          "name": "account",
          "type": "address"
        },
        {
          "indexed": true,
          "internalType": "address",
          "name": "sender",
          "type": "address"
        }
      ],
      "name": "RoleRevoked",
      "type": "event"
    },
    {
      "inputs": [],
      "name": "CONSTANT_SETTER_ROLE",
      "outputs": [
        {
          "internalType": "bytes32",
          "name": "",
          "type": "bytes32"
        }
      ],
      "stateMutability": "view",
      "type": "function"
    },
    {
      "inputs": [],
      "name": "DEFAULT_ADMIN_ROLE",
      "outputs": [
        {
          "internalType": "bytes32",
          "name": "",
          "type": "bytes32"
        }
      ],
      "stateMutability": "view",
      "type": "function"
    },
    {
      "inputs": [],
      "name": "MAINNET_HASH",
      "outputs": [
        {
          "internalType": "bytes32",
          "name": "",
          "type": "bytes32"
        }
      ],
      "stateMutability": "view",
      "type": "function"
    },
    {
      "inputs": [],
      "name": "MAINNET_NAME",
      "outputs": [
        {
          "internalType": "string",
          "name": "",
          "type": "string"
        }
      ],
      "stateMutability": "view",
      "type": "function"
    },
    {
      "inputs": [
        {
          "internalType": "address",
          "name": "",
          "type": "address"
        }
      ],
      "name": "activeUsers",
      "outputs": [
        {
          "internalType": "bool",
          "name": "",
          "type": "bool"
        }
      ],
      "stateMutability": "view",
      "type": "function"
    },
    {
      "inputs": [
        {
          "internalType": "address",
          "name": "receiver",
          "type": "address"
        }
      ],
      "name": "checkAllowedToSendMessage",
      "outputs": [],
      "stateMutability": "nonpayable",
      "type": "function"
    },
    {
      "inputs": [],
      "name": "communityPool",
      "outputs": [
        {
          "internalType": "address",
          "name": "",
          "type": "address"
        }
      ],
      "stateMutability": "view",
      "type": "function"
    },
    {
      "inputs": [],
      "name": "gasPriceTimestamp",
      "outputs": [
        {
          "internalType": "uint256",
          "name": "",
          "type": "uint256"
        }
      ],
      "stateMutability": "view",
      "type": "function"
    },
    {
      "inputs": [
        {
          "internalType": "bytes32",
          "name": "role",
          "type": "bytes32"
        }
      ],
      "name": "getRoleAdmin",
      "outputs": [
        {
          "internalType": "bytes32",
          "name": "",
          "type": "bytes32"
        }
      ],
      "stateMutability": "view",
      "type": "function"
    },
    {
      "inputs": [
        {
          "internalType": "bytes32",
          "name": "role",
          "type": "bytes32"
        },
        {
          "internalType": "uint256",
          "name": "index",
          "type": "uint256"
        }
      ],
      "name": "getRoleMember",
      "outputs": [
        {
          "internalType": "address",
          "name": "",
          "type": "address"
        }
      ],
      "stateMutability": "view",
      "type": "function"
    },
    {
      "inputs": [
        {
          "internalType": "bytes32",
          "name": "role",
          "type": "bytes32"
        }
      ],
      "name": "getRoleMemberCount",
      "outputs": [
        {
          "internalType": "uint256",
          "name": "",
          "type": "uint256"
        }
      ],
      "stateMutability": "view",
      "type": "function"
    },
    {
      "inputs": [
        {
          "internalType": "bytes32",
          "name": "role",
          "type": "bytes32"
        },
        {
          "internalType": "address",
          "name": "account",
          "type": "address"
        }
      ],
      "name": "grantRole",
      "outputs": [],
      "stateMutability": "nonpayable",
      "type": "function"
    },
    {
      "inputs": [
        {
          "internalType": "bytes32",
          "name": "role",
          "type": "bytes32"
        },
        {
          "internalType": "address",
          "name": "account",
          "type": "address"
        }
      ],
      "name": "hasRole",
      "outputs": [
        {
          "internalType": "bool",
          "name": "",
          "type": "bool"
        }
      ],
      "stateMutability": "view",
      "type": "function"
    },
    {
      "inputs": [
        {
          "internalType": "string",
          "name": "newSchainName",
          "type": "string"
        },
        {
          "internalType": "contract IMessageProxyForSchain",
          "name": "newMessageProxy",
          "type": "address"
        },
        {
          "internalType": "contract ITokenManagerLinker",
          "name": "newTokenManagerLinker",
          "type": "address"
        },
        {
          "internalType": "address",
          "name": "newCommunityPool",
          "type": "address"
        }
      ],
      "name": "initialize",
      "outputs": [],
      "stateMutability": "nonpayable",
      "type": "function"
    },
    {
      "inputs": [
        {
          "internalType": "address",
          "name": "",
          "type": "address"
        }
      ],
      "name": "lastMessageTimeStamp",
      "outputs": [
        {
          "internalType": "uint256",
          "name": "",
          "type": "uint256"
        }
      ],
      "stateMutability": "view",
      "type": "function"
    },
    {
      "inputs": [],
      "name": "mainnetGasPrice",
      "outputs": [
        {
          "internalType": "uint256",
          "name": "",
          "type": "uint256"
        }
      ],
      "stateMutability": "view",
      "type": "function"
    },
    {
      "inputs": [],
      "name": "messageProxy",
      "outputs": [
        {
          "internalType": "contract IMessageProxyForSchain",
          "name": "",
          "type": "address"
        }
      ],
      "stateMutability": "view",
      "type": "function"
    },
    {
      "inputs": [
        {
          "internalType": "bytes32",
          "name": "fromChainHash",
          "type": "bytes32"
        },
        {
          "internalType": "address",
          "name": "sender",
          "type": "address"
        },
        {
          "internalType": "bytes",
          "name": "data",
          "type": "bytes"
        }
      ],
      "name": "postMessage",
      "outputs": [],
      "stateMutability": "nonpayable",
      "type": "function"
    },
    {
      "inputs": [
        {
          "internalType": "bytes32",
          "name": "role",
          "type": "bytes32"
        },
        {
          "internalType": "address",
          "name": "account",
          "type": "address"
        }
      ],
      "name": "renounceRole",
      "outputs": [],
      "stateMutability": "nonpayable",
      "type": "function"
    },
    {
      "inputs": [
        {
          "internalType": "bytes32",
          "name": "role",
          "type": "bytes32"
        },
        {
          "internalType": "address",
          "name": "account",
          "type": "address"
        }
      ],
      "name": "revokeRole",
      "outputs": [],
      "stateMutability": "nonpayable",
      "type": "function"
    },
    {
      "inputs": [],
      "name": "schainHash",
      "outputs": [
        {
          "internalType": "bytes32",
          "name": "",
          "type": "bytes32"
        }
      ],
      "stateMutability": "view",
      "type": "function"
    },
    {
      "inputs": [
        {
          "internalType": "uint256",
          "name": "gasPrice",
          "type": "uint256"
        },
        {
          "internalType": "uint256",
          "name": "timestamp",
          "type": "uint256"
        },
        {
          "components": [
            {
              "internalType": "uint256[2]",
              "name": "blsSignature",
              "type": "uint256[2]"
            },
            {
              "internalType": "uint256",
              "name": "hashA",
              "type": "uint256"
            },
            {
              "internalType": "uint256",
              "name": "hashB",
              "type": "uint256"
            },
            {
              "internalType": "uint256",
              "name": "counter",
              "type": "uint256"
            }
          ],
          "internalType": "struct IMessageProxy.Signature",
          "name": "",
          "type": "tuple"
        }
      ],
      "name": "setGasPrice",
      "outputs": [],
      "stateMutability": "nonpayable",
      "type": "function"
    },
    {
      "inputs": [
        {
          "internalType": "uint256",
          "name": "newTimeLimitPerMessage",
          "type": "uint256"
        }
      ],
      "name": "setTimeLimitPerMessage",
      "outputs": [],
      "stateMutability": "nonpayable",
      "type": "function"
    },
    {
      "inputs": [
        {
          "internalType": "bytes4",
          "name": "interfaceId",
          "type": "bytes4"
        }
      ],
      "name": "supportsInterface",
      "outputs": [
        {
          "internalType": "bool",
          "name": "",
          "type": "bool"
        }
      ],
      "stateMutability": "view",
      "type": "function"
    },
    {
      "inputs": [],
      "name": "timeLimitPerMessage",
      "outputs": [
        {
          "internalType": "uint256",
          "name": "",
          "type": "uint256"
        }
      ],
      "stateMutability": "view",
      "type": "function"
    },
    {
      "inputs": [],
      "name": "tokenManagerLinker",
      "outputs": [
        {
          "internalType": "contract ITokenManagerLinker",
          "name": "",
          "type": "address"
        }
      ],
      "stateMutability": "view",
      "type": "function"
    }
  ],
  "bytecode": "0x608060405234801561001057600080fd5b50611c39806100206000396000f3fe608060405234801561001057600080fd5b506004361061018e5760003560e01c80637304b44d116100de578063aebc4bc311610097578063d547741f11610071578063d547741f14610378578063eb0eb8ab1461038b578063f0cfb52e146103ae578063f34822b4146103ce57600080fd5b8063aebc4bc314610335578063bbc4e8c21461033e578063ca15c8731461036557600080fd5b80637304b44d146102d857806382fd8c96146102eb578063884cee5a146102f45780639010d07c1461030757806391d148541461031a578063a217fddf1461032d57600080fd5b80632dc151de1161014b5780633b690b6b116101255780633b690b6b1461027657806348ed32ef1461027f57806350f44280146102925780635573b8b6146102c557600080fd5b80632dc151de1461023d5780632f2ff15d1461025057806336568abe1461026357600080fd5b806301ffc9a71461019357806314d140b0146101bb578063237c667a146101e6578063248a9ca3146101fb57806328c5e1821461022c5780632d44892814610234575b600080fd5b6101a66101a1366004611696565b6103e1565b60405190151581526020015b60405180910390f35b60cb546101ce906001600160a01b031681565b6040516001600160a01b0390911681526020016101b2565b6101f96101f4366004611568565b61040c565b005b61021e6102093660046115a2565b60009081526065602052604090206001015490565b6040519081526020016101b2565b61021e6105e9565b61021e60d15481565b60ca546101ce906001600160a01b031681565b6101f961025e3660046115bb565b610632565b6101f96102713660046115bb565b610659565b61021e60cc5481565b6101f961028d3660046115a2565b61067b565b6102b86040518060400160405280600781526020016613585a5b9b995d60ca1b81525081565b6040516101b29190611993565b60c9546101ce906001600160a01b031681565b6101f96102e636600461184c565b610776565b61021e60cd5481565b6101f96103023660046115eb565b6108aa565b6101ce610315366004611674565b610c05565b6101a66103283660046115bb565b610c24565b61021e600081565b61021e60d05481565b61021e7f96e3fc3be15159903e053027cff8a23f39a990e0194abcd8ac1cf1b355b8b93c81565b61021e6103733660046115a2565b610c4f565b6101f96103863660046115bb565b610c66565b6101a6610399366004611568565b60ce6020526000908152604090205460ff1681565b61021e6103bc366004611568565b60cf6020526000908152604090205481565b6101f96103dc3660046116db565b610c70565b60006001600160e01b03198216635a05180f60e01b1480610406575061040682610dc6565b92915050565b60ca546040516374a9e4c960e11b81523360048201526001600160a01b039091169063e953c9929060240160206040518083038186803b15801561044f57600080fd5b505afa158015610463573d6000803e3d6000fd5b505050506040513d601f19601f820116820180604052508101906104879190611585565b6104e75760405162461bcd60e51b815260206004820152602660248201527f53656e646572206973206e6f74207265676973746572656420746f6b656e206d60448201526530b730b3b2b960d11b60648201526084015b60405180910390fd5b6001600160a01b038116600090815260ce602052604090205460ff1661054f5760405162461bcd60e51b815260206004820152601860248201527f526563697069656e74206d75737420626520616374697665000000000000000060448201526064016104de565b60cd546001600160a01b038216600090815260cf6020526040902054429161057691611abb565b106105cd5760405162461bcd60e51b815260206004820152602160248201527f547279696e6720746f2073656e64206d6573736167657320746f6f206f6674656044820152603760f91b60648201526084016104de565b6001600160a01b0316600090815260cf60205260409020429055565b6040518060400160405280600781526020016613585a5b9b995d60ca1b8152506040516020016106199190611902565b6040516020818303038152906040528051906020012081565b61063c8282610dfb565b60008281526097602052604090206106549082610e21565b505050565b6106638282610e36565b60008281526097602052604090206106549082610eb4565b6106a57f96e3fc3be15159903e053027cff8a23f39a990e0194abcd8ac1cf1b355b8b93c33610c24565b6107005760405162461bcd60e51b815260206004820152602660248201527f4e6f7420656e6f756768207065726d697373696f6e7320746f2073657420636f6044820152651b9cdd185b9d60d21b60648201526084016104de565b6040517254696d654c696d69745065724d65737361676560681b602082015260330160408051601f19818403018152828252805160209182012060cd548452908301849052917fd9f6bd2abae0f2a51b3f5ffb29e0e35ee9ad2e3921ede0d71bff21dc8609f6f1910160405180910390a260cd55565b60d15482116107d35760405162461bcd60e51b815260206004820152602360248201527f4761732070726963652074696d657374616d7020616c726561647920757064616044820152621d195960ea1b60648201526084016104de565b428211156108315760405162461bcd60e51b815260206004820152602560248201527f54696d657374616d702073686f756c64206e6f7420626520696e207468652066604482015264757475726560d81b60648201526084016104de565b6040516e4d61696e6e6574476173507269636560881b6020820152602f0160408051601f19818403018152828252805160209182012060d0548452908301869052917fd9f6bd2abae0f2a51b3f5ffb29e0e35ee9ad2e3921ede0d71bff21dc8609f6f1910160405180910390a25060d09190915560d155565b60c9546001600160a01b031633146109045760405162461bcd60e51b815260206004820152601d60248201527f53656e646572206973206e6f742061206d6573736167652070726f787900000060448201526064016104de565b60cb546001600160a01b038481169116146109615760405162461bcd60e51b815260206004820152601c60248201527f53656e646572206d75737420626520436f6d6d756e697479506f6f6c0000000060448201526064016104de565b6040518060400160405280600781526020016613585a5b9b995d60ca1b8152506040516020016109919190611902565b6040516020818303038152906040528051906020012084146109ff5760405162461bcd60e51b815260206004820152602160248201527f536f7572636520636861696e206e616d65206d757374206265204d61696e6e656044820152601d60fa1b60648201526084016104de565b6000610a0b8383610ec9565b9050600781600e811115610a2157610a21611b88565b14610a825760405162461bcd60e51b815260206004820152602b60248201527f546865206d6573736167652073686f756c6420636f6e7461696e20612073746160448201526a3a3ab99037b3103ab9b2b960a91b60648201526084016104de565b6000610a8e8484610f11565b6040818101516020808401516001600160a01b0316600090815260ce9091529190912054919250151560ff90911615151415610b1b5760405162461bcd60e51b815260206004820152602660248201527f4163746976652075736572207374617475736573206d7573742062652064696660448201526519995c995b9d60d21b60648201526084016104de565b604081810180516020808501516001600160a01b0316600090815260ce90915292909220805460ff1916921515929092179091555115610bab577fdacccea96400d48c51a00ff7af4d1c6b6ac4909bbff0fe495f0e0edc298c3dde60cc548260200151604051610b9e9291909182526001600160a01b0316602082015260400190565b60405180910390a1610bfd565b7f01d8973c54faac85b2cfd40f935f8da4261d9883283ad73ce0e10aa91fc37bdf60cc548260200151604051610bf49291909182526001600160a01b0316602082015260400190565b60405180910390a15b505050505050565b6000828152609760205260408120610c1d9083610faa565b9392505050565b60009182526065602090815260408084206001600160a01b0393909316845291905290205460ff1690565b600081815260976020526040812061040690610fb6565b6106638282610fc0565b600054610100900460ff1680610c89575060005460ff16155b610ca55760405162461bcd60e51b81526004016104de906119c6565b600054610100900460ff16158015610cc7576000805461ffff19166101011790555b6001600160a01b038216610d1d5760405162461bcd60e51b815260206004820152601a60248201527f4e6f646520616464726573732068617320746f2062652073657400000000000060448201526064016104de565b610d25610fe6565b610d30600033611072565b60c980546001600160a01b038087166001600160a01b03199283161790925560ca805492861692909116919091179055604051610d71908690602001611902565b60408051808303601f19018152919052805160209091012060cc5561012c60cd5560cb80546001600160a01b0319166001600160a01b0384161790558015610dbf576000805461ff00191690555b5050505050565b60006001600160e01b03198216637965db0b60e01b148061040657506301ffc9a760e01b6001600160e01b0319831614610406565b600082815260656020526040902060010154610e17813361107c565b61065483836110e0565b6000610c1d836001600160a01b038416611166565b6001600160a01b0381163314610ea65760405162461bcd60e51b815260206004820152602f60248201527f416363657373436f6e74726f6c3a2063616e206f6e6c792072656e6f756e636560448201526e103937b632b9903337b91039b2b63360891b60648201526084016104de565b610eb082826111b5565b5050565b6000610c1d836001600160a01b03841661121c565b600080610ed8838501856115a2565b9050610ee5602082611b50565b610f0557610efd610ef884838188611a91565b610ec9565b915050610406565b610efd838501856116c0565b60408051608081018252600060608201818152825260208201819052918101919091526007610f408484610ec9565b600e811115610f5157610f51611b88565b14610f9e5760405162461bcd60e51b815260206004820152601f60248201527f4d6573736167652074797065206973206e6f742055736572205374617475730060448201526064016104de565b610c1d828401846117a2565b6000610c1d838361130f565b6000610406825490565b600082815260656020526040902060010154610fdc813361107c565b61065483836111b5565b600054610100900460ff1680610fff575060005460ff16155b61101b5760405162461bcd60e51b81526004016104de906119c6565b600054610100900460ff1615801561103d576000805461ffff19166101011790555b611045611339565b61104d611339565b611055611339565b61105d611339565b801561106f576000805461ff00191690555b50565b61063c82826113a3565b6110868282610c24565b610eb05761109e816001600160a01b031660146113ad565b6110a98360206113ad565b6040516020016110ba92919061191e565b60408051601f198184030181529082905262461bcd60e51b82526104de91600401611993565b6110ea8282610c24565b610eb05760008281526065602090815260408083206001600160a01b03851684529091529020805460ff191660011790556111223390565b6001600160a01b0316816001600160a01b0316837f2f8788117e7eff1d82e926ec794901d17c78024a50270940304540a733656f0d60405160405180910390a45050565b60008181526001830160205260408120546111ad57508154600181810184556000848152602080822090930184905584548482528286019093526040902091909155610406565b506000610406565b6111bf8282610c24565b15610eb05760008281526065602090815260408083206001600160a01b0385168085529252808320805460ff1916905551339285917ff6391f5c32d9c69d2a47ea670b442974b53935d1edc7fd64eb21e047a839171b9190a45050565b60008181526001830160205260408120548015611305576000611240600183611af2565b855490915060009061125490600190611af2565b90508181146112b957600086600001828154811061127457611274611bb4565b906000526020600020015490508087600001848154811061129757611297611bb4565b6000918252602080832090910192909255918252600188019052604090208390555b85548690806112ca576112ca611b9e565b600190038181906000526020600020016000905590558560010160008681526020019081526020016000206000905560019350505050610406565b6000915050610406565b600082600001828154811061132657611326611bb4565b9060005260206000200154905092915050565b600054610100900460ff1680611352575060005460ff16155b61136e5760405162461bcd60e51b81526004016104de906119c6565b600054610100900460ff1615801561105d576000805461ffff1916610101179055801561106f576000805461ff001916905550565b610eb082826110e0565b606060006113bc836002611ad3565b6113c7906002611abb565b67ffffffffffffffff8111156113df576113df611bca565b6040519080825280601f01601f191660200182016040528015611409576020820181803683370190505b509050600360fc1b8160008151811061142457611424611bb4565b60200101906001600160f81b031916908160001a905350600f60fb1b8160018151811061145357611453611bb4565b60200101906001600160f81b031916908160001a9053506000611477846002611ad3565b611482906001611abb565b90505b60018111156114fa576f181899199a1a9b1b9c1cb0b131b232b360811b85600f16601081106114b6576114b6611bb4565b1a60f81b8282815181106114cc576114cc611bb4565b60200101906001600160f81b031916908160001a90535060049490941c936114f381611b39565b9050611485565b508315610c1d5760405162461bcd60e51b815260206004820181905260248201527f537472696e67733a20686578206c656e67746820696e73756666696369656e7460448201526064016104de565b803561155481611be0565b919050565b8035600f811061155457600080fd5b60006020828403121561157a57600080fd5b8135610c1d81611be0565b60006020828403121561159757600080fd5b8151610c1d81611bf5565b6000602082840312156115b457600080fd5b5035919050565b600080604083850312156115ce57600080fd5b8235915060208301356115e081611be0565b809150509250929050565b6000806000806060858703121561160157600080fd5b84359350602085013561161381611be0565b9250604085013567ffffffffffffffff8082111561163057600080fd5b818701915087601f83011261164457600080fd5b81358181111561165357600080fd5b88602082850101111561166557600080fd5b95989497505060200194505050565b6000806040838503121561168757600080fd5b50508035926020909101359150565b6000602082840312156116a857600080fd5b81356001600160e01b031981168114610c1d57600080fd5b6000602082840312156116d257600080fd5b610c1d82611559565b600080600080608085870312156116f157600080fd5b843567ffffffffffffffff8082111561170957600080fd5b818701915087601f83011261171d57600080fd5b813560208282111561173157611731611bca565b611743601f8301601f19168201611a60565b9250818352898183860101111561175957600080fd5b81818501828501376000818385010152829750611777818a01611549565b96505050505061178960408601611549565b915061179760608601611549565b905092959194509250565b600081830360608112156117b557600080fd5b6040516060810167ffffffffffffffff82821081831117156117d9576117d9611bca565b8160405260208412156117eb57600080fd5b608083019350818410818511171561180557611805611bca565b508260405261181385611559565b815281526020840135915061182782611be0565b8160208201526040840135915061183d82611bf5565b60408101919091529392505050565b600080600083850360e081121561186257600080fd5b84359350602080860135935060a0603f198301121561188057600080fd5b611888611a14565b915086605f87011261189957600080fd5b6118a1611a3d565b8060408801608089018a8111156118b757600080fd5b60005b60028110156118d7578235855293850193918501916001016118ba565b509185525035918301919091525060a0850135604082015260c0909401356060850152509093909250565b60008251611914818460208701611b09565b9190910192915050565b7f416363657373436f6e74726f6c3a206163636f756e7420000000000000000000815260008351611956816017850160208801611b09565b7001034b99036b4b9b9b4b733903937b6329607d1b6017918401918201528351611987816028840160208801611b09565b01602801949350505050565b60208152600082518060208401526119b2816040850160208701611b09565b601f01601f19169190910160400192915050565b6020808252602e908201527f496e697469616c697a61626c653a20636f6e747261637420697320616c72656160408201526d191e481a5b9a5d1a585b1a5e995960921b606082015260800190565b6040516080810167ffffffffffffffff81118282101715611a3757611a37611bca565b60405290565b6040805190810167ffffffffffffffff81118282101715611a3757611a37611bca565b604051601f8201601f1916810167ffffffffffffffff81118282101715611a8957611a89611bca565b604052919050565b60008085851115611aa157600080fd5b83861115611aae57600080fd5b5050820193919092039150565b60008219821115611ace57611ace611b72565b500190565b6000816000190483118215151615611aed57611aed611b72565b500290565b600082821015611b0457611b04611b72565b500390565b60005b83811015611b24578181015183820152602001611b0c565b83811115611b33576000848401525b50505050565b600081611b4857611b48611b72565b506000190190565b600082611b6d57634e487b7160e01b600052601260045260246000fd5b500690565b634e487b7160e01b600052601160045260246000fd5b634e487b7160e01b600052602160045260246000fd5b634e487b7160e01b600052603160045260246000fd5b634e487b7160e01b600052603260045260246000fd5b634e487b7160e01b600052604160045260246000fd5b6001600160a01b038116811461106f57600080fd5b801515811461106f57600080fdfea26469706673582212204df86b9ee93900c2c2f3eab838e4551fcd7c7cc2c485c299820a2ae0a24a182164736f6c63430008060033",
  "linkReferences": {},
  "deployedLinkReferences": {}
}