{
  "_format": "hh-sol-artifact-1",
  "contractName": "ERC721OnChain",
  "sourceName": "contracts/schain/tokens/ERC721OnChain.sol",
  "abi": [
    {
      "inputs": [
        {
          "internalType": "string",
          "name": "contractName",
          "type": "string"
        },
        {
          "internalType": "string",
          "name": "contractSymbol",
          "type": "string"
        }
      ],
      "stateMutability": "nonpayable",
      "type": "constructor"
    },
    {
      "anonymous": false,
      "inputs": [
        {
          "indexed": true,
          "internalType": "address",
          "name": "owner",
          "type": "address"
        },
        {
          "indexed": true,
          "internalType": "address",
          "name": "approved",
          "type": "address"
        },
        {
          "indexed": true,
          "internalType": "uint256",
          "name": "tokenId",
          "type": "uint256"
        }
      ],
      "name": "Approval",
      "type": "event"
    },
    {
      "anonymous": false,
      "inputs": [
        {
          "indexed": true,
          "internalType": "address",
          "name": "owner",
          "type": "address"
        },
        {
          "indexed": true,
          "internalType": "address",
          "name": "operator",
          "type": "address"
        },
        {
          "indexed": false,
          "internalType": "bool",
          "name": "approved",
          "type": "bool"
        }
      ],
      "name": "ApprovalForAll",
      "type": "event"
    },
    {
      "anonymous": false,
      "inputs": [
        {
          "indexed": true,
          "internalType": "bytes32",
          "name": "role",
          "type": "bytes32"
        },
        {
          "indexed": true,
          "internalType": "bytes32",
          "name": "previousAdminRole",
          "type": "bytes32"
        },
        {
          "indexed": true,
          "internalType": "bytes32",
          "name": "newAdminRole",
          "type": "bytes32"
        }
      ],
      "name": "RoleAdminChanged",
      "type": "event"
    },
    {
      "anonymous": false,
      "inputs": [
        {
          "indexed": true,
          "internalType": "bytes32",
          "name": "role",
          "type": "bytes32"
        },
        {
          "indexed": true,
          "internalType": "address",
          "name": "account",
          "type": "address"
        },
        {
          "indexed": true,
          "internalType": "address",
          "name": "sender",
          "type": "address"
        }
      ],
      "name": "RoleGranted",
      "type": "event"
    },
    {
      "anonymous": false,
      "inputs": [
        {
          "indexed": true,
          "internalType": "bytes32",
          "name": "role",
          "type": "bytes32"
        },
        {
          "indexed": true,
          "internalType": "address",
          "name": "account",
          "type": "address"
        },
        {
          "indexed": true,
          "internalType": "address",
          "name": "sender",
          "type": "address"
        }
      ],
      "name": "RoleRevoked",
      "type": "event"
    },
    {
      "anonymous": false,
      "inputs": [
        {
          "indexed": true,
          "internalType": "address",
          "name": "from",
          "type": "address"
        },
        {
          "indexed": true,
          "internalType": "address",
          "name": "to",
          "type": "address"
        },
        {
          "indexed": true,
          "internalType": "uint256",
          "name": "tokenId",
          "type": "uint256"
        }
      ],
      "name": "Transfer",
      "type": "event"
    },
    {
      "inputs": [],
      "name": "DEFAULT_ADMIN_ROLE",
      "outputs": [
        {
          "internalType": "bytes32",
          "name": "",
          "type": "bytes32"
        }
      ],
      "stateMutability": "view",
      "type": "function"
    },
    {
      "inputs": [],
      "name": "MINTER_ROLE",
      "outputs": [
        {
          "internalType": "bytes32",
          "name": "",
          "type": "bytes32"
        }
      ],
      "stateMutability": "view",
      "type": "function"
    },
    {
      "inputs": [
        {
          "internalType": "address",
          "name": "to",
          "type": "address"
        },
        {
          "internalType": "uint256",
          "name": "tokenId",
          "type": "uint256"
        }
      ],
      "name": "approve",
      "outputs": [],
      "stateMutability": "nonpayable",
      "type": "function"
    },
    {
      "inputs": [
        {
          "internalType": "address",
          "name": "owner",
          "type": "address"
        }
      ],
      "name": "balanceOf",
      "outputs": [
        {
          "internalType": "uint256",
          "name": "",
          "type": "uint256"
        }
      ],
      "stateMutability": "view",
      "type": "function"
    },
    {
      "inputs": [
        {
          "internalType": "uint256",
          "name": "tokenId",
          "type": "uint256"
        }
      ],
      "name": "burn",
      "outputs": [],
      "stateMutability": "nonpayable",
      "type": "function"
    },
    {
      "inputs": [
        {
          "internalType": "uint256",
          "name": "tokenId",
          "type": "uint256"
        }
      ],
      "name": "getApproved",
      "outputs": [
        {
          "internalType": "address",
          "name": "",
          "type": "address"
        }
      ],
      "stateMutability": "view",
      "type": "function"
    },
    {
      "inputs": [
        {
          "internalType": "bytes32",
          "name": "role",
          "type": "bytes32"
        }
      ],
      "name": "getRoleAdmin",
      "outputs": [
        {
          "internalType": "bytes32",
          "name": "",
          "type": "bytes32"
        }
      ],
      "stateMutability": "view",
      "type": "function"
    },
    {
      "inputs": [
        {
          "internalType": "bytes32",
          "name": "role",
          "type": "bytes32"
        },
        {
          "internalType": "uint256",
          "name": "index",
          "type": "uint256"
        }
      ],
      "name": "getRoleMember",
      "outputs": [
        {
          "internalType": "address",
          "name": "",
          "type": "address"
        }
      ],
      "stateMutability": "view",
      "type": "function"
    },
    {
      "inputs": [
        {
          "internalType": "bytes32",
          "name": "role",
          "type": "bytes32"
        }
      ],
      "name": "getRoleMemberCount",
      "outputs": [
        {
          "internalType": "uint256",
          "name": "",
          "type": "uint256"
        }
      ],
      "stateMutability": "view",
      "type": "function"
    },
    {
      "inputs": [
        {
          "internalType": "bytes32",
          "name": "role",
          "type": "bytes32"
        },
        {
          "internalType": "address",
          "name": "account",
          "type": "address"
        }
      ],
      "name": "grantRole",
      "outputs": [],
      "stateMutability": "nonpayable",
      "type": "function"
    },
    {
      "inputs": [
        {
          "internalType": "bytes32",
          "name": "role",
          "type": "bytes32"
        },
        {
          "internalType": "address",
          "name": "account",
          "type": "address"
        }
      ],
      "name": "hasRole",
      "outputs": [
        {
          "internalType": "bool",
          "name": "",
          "type": "bool"
        }
      ],
      "stateMutability": "view",
      "type": "function"
    },
    {
      "inputs": [
        {
          "internalType": "address",
          "name": "owner",
          "type": "address"
        },
        {
          "internalType": "address",
          "name": "operator",
          "type": "address"
        }
      ],
      "name": "isApprovedForAll",
      "outputs": [
        {
          "internalType": "bool",
          "name": "",
          "type": "bool"
        }
      ],
      "stateMutability": "view",
      "type": "function"
    },
    {
      "inputs": [
        {
          "internalType": "address",
          "name": "account",
          "type": "address"
        },
        {
          "internalType": "uint256",
          "name": "tokenId",
          "type": "uint256"
        }
      ],
      "name": "mint",
      "outputs": [],
      "stateMutability": "nonpayable",
      "type": "function"
    },
    {
      "inputs": [],
      "name": "name",
      "outputs": [
        {
          "internalType": "string",
          "name": "",
          "type": "string"
        }
      ],
      "stateMutability": "view",
      "type": "function"
    },
    {
      "inputs": [
        {
          "internalType": "uint256",
          "name": "tokenId",
          "type": "uint256"
        }
      ],
      "name": "ownerOf",
      "outputs": [
        {
          "internalType": "address",
          "name": "",
          "type": "address"
        }
      ],
      "stateMutability": "view",
      "type": "function"
    },
    {
      "inputs": [
        {
          "internalType": "bytes32",
          "name": "role",
          "type": "bytes32"
        },
        {
          "internalType": "address",
          "name": "account",
          "type": "address"
        }
      ],
      "name": "renounceRole",
      "outputs": [],
      "stateMutability": "nonpayable",
      "type": "function"
    },
    {
      "inputs": [
        {
          "internalType": "bytes32",
          "name": "role",
          "type": "bytes32"
        },
        {
          "internalType": "address",
          "name": "account",
          "type": "address"
        }
      ],
      "name": "revokeRole",
      "outputs": [],
      "stateMutability": "nonpayable",
      "type": "function"
    },
    {
      "inputs": [
        {
          "internalType": "address",
          "name": "from",
          "type": "address"
        },
        {
          "internalType": "address",
          "name": "to",
          "type": "address"
        },
        {
          "internalType": "uint256",
          "name": "tokenId",
          "type": "uint256"
        }
      ],
      "name": "safeTransferFrom",
      "outputs": [],
      "stateMutability": "nonpayable",
      "type": "function"
    },
    {
      "inputs": [
        {
          "internalType": "address",
          "name": "from",
          "type": "address"
        },
        {
          "internalType": "address",
          "name": "to",
          "type": "address"
        },
        {
          "internalType": "uint256",
          "name": "tokenId",
          "type": "uint256"
        },
        {
          "internalType": "bytes",
          "name": "_data",
          "type": "bytes"
        }
      ],
      "name": "safeTransferFrom",
      "outputs": [],
      "stateMutability": "nonpayable",
      "type": "function"
    },
    {
      "inputs": [
        {
          "internalType": "address",
          "name": "operator",
          "type": "address"
        },
        {
          "internalType": "bool",
          "name": "approved",
          "type": "bool"
        }
      ],
      "name": "setApprovalForAll",
      "outputs": [],
      "stateMutability": "nonpayable",
      "type": "function"
    },
    {
      "inputs": [
        {
          "internalType": "uint256",
          "name": "tokenId",
          "type": "uint256"
        },
        {
          "internalType": "string",
          "name": "tokenUri",
          "type": "string"
        }
      ],
      "name": "setTokenURI",
      "outputs": [
        {
          "internalType": "bool",
          "name": "",
          "type": "bool"
        }
      ],
      "stateMutability": "nonpayable",
      "type": "function"
    },
    {
      "inputs": [
        {
          "internalType": "bytes4",
          "name": "interfaceId",
          "type": "bytes4"
        }
      ],
      "name": "supportsInterface",
      "outputs": [
        {
          "internalType": "bool",
          "name": "",
          "type": "bool"
        }
      ],
      "stateMutability": "view",
      "type": "function"
    },
    {
      "inputs": [],
      "name": "symbol",
      "outputs": [
        {
          "internalType": "string",
          "name": "",
          "type": "string"
        }
      ],
      "stateMutability": "view",
      "type": "function"
    },
    {
      "inputs": [
        {
          "internalType": "uint256",
          "name": "tokenId",
          "type": "uint256"
        }
      ],
      "name": "tokenURI",
      "outputs": [
        {
          "internalType": "string",
          "name": "",
          "type": "string"
        }
      ],
      "stateMutability": "view",
      "type": "function"
    },
    {
      "inputs": [
        {
          "internalType": "address",
          "name": "from",
          "type": "address"
        },
        {
          "internalType": "address",
          "name": "to",
          "type": "address"
        },
        {
          "internalType": "uint256",
          "name": "tokenId",
          "type": "uint256"
        }
      ],
      "name": "transferFrom",
      "outputs": [],
      "stateMutability": "nonpayable",
      "type": "function"
    }
  ],
  "bytecode": "0x60806040523480156200001157600080fd5b5060405162002eac38038062002eac833981016040819052620000349162000813565b600054610100900460ff16806200004e575060005460ff16155b620000a65760405162461bcd60e51b815260206004820152602e602482015260008051602062002e6c83398151915260448201526d191e481a5b9a5d1a585b1a5e995960921b60648201526084015b60405180910390fd5b600054610100900460ff16158015620000c9576000805461ffff19166101011790555b620000de6200015c60201b62000b361760201c565b620000f583836200022b60201b62000bc11760201c565b6200010a620002f460201b62000c481760201c565b6200012560008051602062002e8c833981519152806200038e565b6200014060008051602062002e8c83398151915233620003d9565b801562000153576000805461ff00191690555b505050620008d0565b600054610100900460ff168062000176575060005460ff16155b620001ca5760405162461bcd60e51b815260206004820152602e602482015260008051602062002e6c83398151915260448201526d191e481a5b9a5d1a585b1a5e995960921b60648201526084016200009d565b600054610100900460ff16158015620001ed576000805461ffff19166101011790555b620001f762000417565b6200020162000417565b6200020b62000417565b6200021562000417565b801562000228576000805461ff00191690555b50565b600054610100900460ff168062000245575060005460ff16155b620002995760405162461bcd60e51b815260206004820152602e602482015260008051602062002e6c83398151915260448201526d191e481a5b9a5d1a585b1a5e995960921b60648201526084016200009d565b600054610100900460ff16158015620002bc576000805461ffff19166101011790555b620002c662000417565b620002d062000417565b620002dc8383620004bc565b8015620002ef576000805461ff00191690555b505050565b600054610100900460ff16806200030e575060005460ff16155b620003625760405162461bcd60e51b815260206004820152602e602482015260008051602062002e6c83398151915260448201526d191e481a5b9a5d1a585b1a5e995960921b60648201526084016200009d565b600054610100900460ff16158015620001f7576000805461ffff19166101011790556200020162000417565b600082815260656020526040808220600101805490849055905190918391839186917fbd79b86ffe0ab8e8776151514217cd7cacd52c909f66475c3af44e129f0b00ff9190a4505050565b620003f082826200059060201b62000ca61760201c565b6000828152609760209081526040909120620002ef91839062000cb0620005a0821b17901c565b600054610100900460ff168062000431575060005460ff16155b620004855760405162461bcd60e51b815260206004820152602e602482015260008051602062002e6c83398151915260448201526d191e481a5b9a5d1a585b1a5e995960921b60648201526084016200009d565b600054610100900460ff1615801562000215576000805461ffff1916610101179055801562000228576000805461ff001916905550565b600054610100900460ff1680620004d6575060005460ff16155b6200052a5760405162461bcd60e51b815260206004820152602e602482015260008051602062002e6c83398151915260448201526d191e481a5b9a5d1a585b1a5e995960921b60648201526084016200009d565b600054610100900460ff161580156200054d576000805461ffff19166101011790555b8251620005629060c9906020860190620006b6565b508151620005789060ca906020850190620006b6565b508015620002ef576000805461ff0019169055505050565b6200059c8282620005c0565b5050565b6000620005b7836001600160a01b03841662000664565b90505b92915050565b60008281526065602090815260408083206001600160a01b038516845290915290205460ff166200059c5760008281526065602090815260408083206001600160a01b03851684529091529020805460ff19166001179055620006203390565b6001600160a01b0316816001600160a01b0316837f2f8788117e7eff1d82e926ec794901d17c78024a50270940304540a733656f0d60405160405180910390a45050565b6000818152600183016020526040812054620006ad57508154600181810184556000848152602080822090930184905584548482528286019093526040902091909155620005ba565b506000620005ba565b828054620006c4906200087d565b90600052602060002090601f016020900481019282620006e8576000855562000733565b82601f106200070357805160ff191683800117855562000733565b8280016001018555821562000733579182015b828111156200073357825182559160200191906001019062000716565b506200074192915062000745565b5090565b5b8082111562000741576000815560010162000746565b600082601f8301126200076e57600080fd5b81516001600160401b03808211156200078b576200078b620008ba565b604051601f8301601f19908116603f01168101908282118183101715620007b657620007b6620008ba565b81604052838152602092508683858801011115620007d357600080fd5b600091505b83821015620007f75785820183015181830184015290820190620007d8565b83821115620008095760008385830101525b9695505050505050565b600080604083850312156200082757600080fd5b82516001600160401b03808211156200083f57600080fd5b6200084d868387016200075c565b935060208501519150808211156200086457600080fd5b5062000873858286016200075c565b9150509250929050565b600181811c908216806200089257607f821691505b60208210811415620008b457634e487b7160e01b600052602260045260246000fd5b50919050565b634e487b7160e01b600052604160045260246000fd5b61258c80620008e06000396000f3fe608060405234801561001057600080fd5b50600436106101735760003560e01c80636352211e116100de578063a22cb46511610097578063ca15c87311610071578063ca15c87314610340578063d539139314610353578063d547741f1461037a578063e985e9c51461038d57600080fd5b8063a22cb46514610307578063b88d4fde1461031a578063c87b56dd1461032d57600080fd5b80636352211e146102ab57806370a08231146102be5780639010d07c146102d157806391d14854146102e457806395d89b41146102f7578063a217fddf146102ff57600080fd5b8063248a9ca311610130578063248a9ca31461021b5780632f2ff15d1461024c57806336568abe1461025f57806340c10f191461027257806342842e0e1461028557806342966c681461029857600080fd5b806301ffc9a71461017857806306fdde03146101a0578063081812fc146101b5578063095ea7b3146101e0578063162094c4146101f557806323b872dd14610208575b600080fd5b61018b6101863660046120fc565b6103c9565b60405190151581526020015b60405180910390f35b6101a86103da565b60405161019791906122bf565b6101c86101c336600461209e565b61046c565b6040516001600160a01b039091168152602001610197565b6101f36101ee366004612074565b6104f9565b005b61018b610203366004612136565b61060f565b6101f3610216366004611f20565b61072e565b61023e61022936600461209e565b60009081526065602052604090206001015490565b604051908152602001610197565b6101f361025a3660046120b7565b610760565b6101f361026d3660046120b7565b610782565b6101f3610280366004612074565b6107a4565b6101f3610293366004611f20565b610821565b6101f36102a636600461209e565b61083c565b6101c86102b936600461209e565b6108b6565b61023e6102cc366004611ed2565b61092d565b6101c86102df3660046120da565b6109b4565b61018b6102f23660046120b7565b6109d3565b6101a86109fe565b61023e600081565b6101f3610315366004612038565b610a0d565b6101f3610328366004611f5c565b610ad2565b6101a861033b36600461209e565b610b0a565b61023e61034e36600461209e565b610b15565b61023e7f9f2df0fed2c77648de5860a4cc508cd0818c85b8b8a1ab4ceeef8d981c8956a681565b6101f36103883660046120b7565b610b2c565b61018b61039b366004611eed565b6001600160a01b03918216600090815260ce6020908152604080832093909416825291909152205460ff1690565b60006103d482610cc5565b92915050565b606060c980546103e990612468565b80601f016020809104026020016040519081016040528092919081815260200182805461041590612468565b80156104625780601f1061043757610100808354040283529160200191610462565b820191906000526020600020905b81548152906001019060200180831161044557829003601f168201915b5050505050905090565b600061047782610d05565b6104dd5760405162461bcd60e51b815260206004820152602c60248201527f4552433732313a20617070726f76656420717565727920666f72206e6f6e657860448201526b34b9ba32b73a103a37b5b2b760a11b60648201526084015b60405180910390fd5b50600090815260cd60205260409020546001600160a01b031690565b6000610504826108b6565b9050806001600160a01b0316836001600160a01b031614156105725760405162461bcd60e51b815260206004820152602160248201527f4552433732313a20617070726f76616c20746f2063757272656e74206f776e656044820152603960f91b60648201526084016104d4565b336001600160a01b038216148061058e575061058e813361039b565b6106005760405162461bcd60e51b815260206004820152603860248201527f4552433732313a20617070726f76652063616c6c6572206973206e6f74206f7760448201527f6e6572206e6f7220617070726f76656420666f7220616c6c000000000000000060648201526084016104d4565b61060a8383610d22565b505050565b600061061a84610d05565b61065e5760405162461bcd60e51b8152602060048201526015602482015274546f6b656e20646f6573206e6f742065786973747360581b60448201526064016104d4565b6106683385610d90565b8061069857506106987f9f2df0fed2c77648de5860a4cc508cd0818c85b8b8a1ab4ceeef8d981c8956a6336109d3565b6106e45760405162461bcd60e51b815260206004820152601c60248201527f53656e6465722063616e206e6f742073657420746f6b656e205552490000000060448201526064016104d4565b6107248484848080601f016020809104026020016040519081016040528093929190818152602001838380828437600092019190915250610e7a92505050565b5060019392505050565b610739335b82610d90565b6107555760405162461bcd60e51b81526004016104d490612372565b61060a838383610f06565b61076a82826110a6565b600082815260976020526040902061060a9082610cb0565b61078c82826110cc565b600082815260976020526040902061060a9082611146565b6107ce7f9f2df0fed2c77648de5860a4cc508cd0818c85b8b8a1ab4ceeef8d981c8956a6336109d3565b6108135760405162461bcd60e51b815260206004820152601660248201527529b2b73232b91034b9903737ba10309026b4b73a32b960511b60448201526064016104d4565b61081d828261115b565b5050565b61060a83838360405180602001604052806000815250610ad2565b61084533610733565b6108aa5760405162461bcd60e51b815260206004820152603060248201527f4552433732314275726e61626c653a2063616c6c6572206973206e6f74206f7760448201526f1b995c881b9bdc88185c1c1c9bdd995960821b60648201526084016104d4565b6108b38161128e565b50565b600081815260cb60205260408120546001600160a01b0316806103d45760405162461bcd60e51b815260206004820152602960248201527f4552433732313a206f776e657220717565727920666f72206e6f6e657869737460448201526832b73a103a37b5b2b760b91b60648201526084016104d4565b60006001600160a01b0382166109985760405162461bcd60e51b815260206004820152602a60248201527f4552433732313a2062616c616e636520717565727920666f7220746865207a65604482015269726f206164647265737360b01b60648201526084016104d4565b506001600160a01b0316600090815260cc602052604090205490565b60008281526097602052604081206109cc9083611297565b9392505050565b60009182526065602090815260408084206001600160a01b0393909316845291905290205460ff1690565b606060ca80546103e990612468565b6001600160a01b038216331415610a665760405162461bcd60e51b815260206004820152601960248201527f4552433732313a20617070726f766520746f2063616c6c65720000000000000060448201526064016104d4565b33600081815260ce602090815260408083206001600160a01b03871680855290835292819020805460ff191686151590811790915590519081529192917f17307eab39ab6107e8899845ad3d59bd9653f200f220920489ca2b5937696c31910160405180910390a35050565b610adc3383610d90565b610af85760405162461bcd60e51b81526004016104d490612372565b610b04848484846112a3565b50505050565b60606103d4826112d6565b60008181526097602052604081206103d490611446565b61078c8282611450565b600054610100900460ff1680610b4f575060005460ff16155b610b6b5760405162461bcd60e51b81526004016104d490612324565b600054610100900460ff16158015610b8d576000805461ffff19166101011790555b610b95611476565b610b9d611476565b610ba5611476565b610bad611476565b80156108b3576000805461ff001916905550565b600054610100900460ff1680610bda575060005460ff16155b610bf65760405162461bcd60e51b81526004016104d490612324565b600054610100900460ff16158015610c18576000805461ffff19166101011790555b610c20611476565b610c28611476565b610c3283836114e0565b801561060a576000805461ff0019169055505050565b600054610100900460ff1680610c61575060005460ff16155b610c7d5760405162461bcd60e51b81526004016104d490612324565b600054610100900460ff16158015610b95576000805461ffff1916610101179055610b9d611476565b61081d8282611575565b60006109cc836001600160a01b0384166115fb565b60006001600160e01b031982166380ac58cd60e01b1480610cf657506001600160e01b03198216635b5e139f60e01b145b806103d457506103d48261164a565b600090815260cb60205260409020546001600160a01b0316151590565b600081815260cd6020526040902080546001600160a01b0319166001600160a01b0384169081179091558190610d57826108b6565b6001600160a01b03167f8c5be1e5ebec7d5bd14f71427d1e84f3dd0314c0f7b2291e5b200ac8c7c3b92560405160405180910390a45050565b6000610d9b82610d05565b610dfc5760405162461bcd60e51b815260206004820152602c60248201527f4552433732313a206f70657261746f7220717565727920666f72206e6f6e657860448201526b34b9ba32b73a103a37b5b2b760a11b60648201526084016104d4565b6000610e07836108b6565b9050806001600160a01b0316846001600160a01b03161480610e425750836001600160a01b0316610e378461046c565b6001600160a01b0316145b80610e7257506001600160a01b03808216600090815260ce602090815260408083209388168352929052205460ff165b949350505050565b610e8382610d05565b610ee65760405162461bcd60e51b815260206004820152602e60248201527f45524337323155524953746f726167653a2055524920736574206f66206e6f6e60448201526d32bc34b9ba32b73a103a37b5b2b760911b60648201526084016104d4565b600082815261012d60209081526040909120825161060a92840190611de7565b826001600160a01b0316610f19826108b6565b6001600160a01b031614610f815760405162461bcd60e51b815260206004820152602960248201527f4552433732313a207472616e73666572206f6620746f6b656e2074686174206960448201526839903737ba1037bbb760b91b60648201526084016104d4565b6001600160a01b038216610fe35760405162461bcd60e51b8152602060048201526024808201527f4552433732313a207472616e7366657220746f20746865207a65726f206164646044820152637265737360e01b60648201526084016104d4565b610fee600082610d22565b6001600160a01b038316600090815260cc6020526040812080546001929061101790849061240e565b90915550506001600160a01b038216600090815260cc602052604081208054600192906110459084906123c3565b9091555050600081815260cb602052604080822080546001600160a01b0319166001600160a01b0386811691821790925591518493918716917fddf252ad1be2c89b69c2b068fc378daa952ba7f163c4a11628f55a4df523b3ef91a4505050565b6000828152606560205260409020600101546110c2813361166f565b61060a8383611575565b6001600160a01b038116331461113c5760405162461bcd60e51b815260206004820152602f60248201527f416363657373436f6e74726f6c3a2063616e206f6e6c792072656e6f756e636560448201526e103937b632b9903337b91039b2b63360891b60648201526084016104d4565b61081d82826116d3565b60006109cc836001600160a01b03841661173a565b6001600160a01b0382166111b15760405162461bcd60e51b815260206004820181905260248201527f4552433732313a206d696e7420746f20746865207a65726f206164647265737360448201526064016104d4565b6111ba81610d05565b156112075760405162461bcd60e51b815260206004820152601c60248201527f4552433732313a20746f6b656e20616c7265616479206d696e7465640000000060448201526064016104d4565b6001600160a01b038216600090815260cc602052604081208054600192906112309084906123c3565b9091555050600081815260cb602052604080822080546001600160a01b0319166001600160a01b03861690811790915590518392907fddf252ad1be2c89b69c2b068fc378daa952ba7f163c4a11628f55a4df523b3ef908290a45050565b6108b38161182d565b60006109cc838361186f565b6112ae848484610f06565b6112ba84848484611899565b610b045760405162461bcd60e51b81526004016104d4906122d2565b60606112e182610d05565b6113475760405162461bcd60e51b815260206004820152603160248201527f45524337323155524953746f726167653a2055524920717565727920666f72206044820152703737b732bc34b9ba32b73a103a37b5b2b760791b60648201526084016104d4565b600082815261012d60205260408120805461136190612468565b80601f016020809104026020016040519081016040528092919081815260200182805461138d90612468565b80156113da5780601f106113af576101008083540402835291602001916113da565b820191906000526020600020905b8154815290600101906020018083116113bd57829003601f168201915b5050505050905060006113f860408051602081019091526000815290565b905080516000141561140b575092915050565b81511561143d5780826040516020016114259291906121de565b60405160208183030381529060405292505050919050565b610e72846119a6565b60006103d4825490565b60008281526065602052604090206001015461146c813361166f565b61060a83836116d3565b600054610100900460ff168061148f575060005460ff16155b6114ab5760405162461bcd60e51b81526004016104d490612324565b600054610100900460ff16158015610bad576000805461ffff191661010117905580156108b3576000805461ff001916905550565b600054610100900460ff16806114f9575060005460ff16155b6115155760405162461bcd60e51b81526004016104d490612324565b600054610100900460ff16158015611537576000805461ffff19166101011790555b825161154a9060c9906020860190611de7565b50815161155e9060ca906020850190611de7565b50801561060a576000805461ff0019169055505050565b61157f82826109d3565b61081d5760008281526065602090815260408083206001600160a01b03851684529091529020805460ff191660011790556115b73390565b6001600160a01b0316816001600160a01b0316837f2f8788117e7eff1d82e926ec794901d17c78024a50270940304540a733656f0d60405160405180910390a45050565b6000818152600183016020526040812054611642575081546001818101845560008481526020808220909301849055845484825282860190935260409020919091556103d4565b5060006103d4565b60006001600160e01b03198216635a05180f60e01b14806103d457506103d482611a7d565b61167982826109d3565b61081d57611691816001600160a01b03166014611ab2565b61169c836020611ab2565b6040516020016116ad92919061220d565b60408051601f198184030181529082905262461bcd60e51b82526104d4916004016122bf565b6116dd82826109d3565b1561081d5760008281526065602090815260408083206001600160a01b0385168085529252808320805460ff1916905551339285917ff6391f5c32d9c69d2a47ea670b442974b53935d1edc7fd64eb21e047a839171b9190a45050565b6000818152600183016020526040812054801561182357600061175e60018361240e565b85549091506000906117729060019061240e565b90508181146117d757600086600001828154811061179257611792612514565b90600052602060002001549050808760000184815481106117b5576117b5612514565b6000918252602080832090910192909255918252600188019052604090208390555b85548690806117e8576117e86124fe565b6001900381819060005260206000200160009055905585600101600086815260200190815260200160002060009055600193505050506103d4565b60009150506103d4565b61183681611c4e565b600081815261012d60205260409020805461185090612468565b1590506108b357600081815261012d602052604081206108b391611e6b565b600082600001828154811061188657611886612514565b9060005260206000200154905092915050565b60006001600160a01b0384163b1561199b57604051630a85bd0160e11b81526001600160a01b0385169063150b7a02906118dd903390899088908890600401612282565b602060405180830381600087803b1580156118f757600080fd5b505af1925050508015611927575060408051601f3d908101601f1916820190925261192491810190612119565b60015b611981573d808015611955576040519150601f19603f3d011682016040523d82523d6000602084013e61195a565b606091505b5080516119795760405162461bcd60e51b81526004016104d4906122d2565b805181602001fd5b6001600160e01b031916630a85bd0160e11b149050610e72565b506001949350505050565b60606119b182610d05565b611a155760405162461bcd60e51b815260206004820152602f60248201527f4552433732314d657461646174613a2055524920717565727920666f72206e6f60448201526e3732bc34b9ba32b73a103a37b5b2b760891b60648201526084016104d4565b6000611a2c60408051602081019091526000815290565b90506000815111611a4c57604051806020016040528060008152506109cc565b80611a5684611ce9565b604051602001611a679291906121de565b6040516020818303038152906040529392505050565b60006001600160e01b03198216637965db0b60e01b14806103d457506301ffc9a760e01b6001600160e01b03198316146103d4565b60606000611ac18360026123ef565b611acc9060026123c3565b67ffffffffffffffff811115611ae457611ae461252a565b6040519080825280601f01601f191660200182016040528015611b0e576020820181803683370190505b509050600360fc1b81600081518110611b2957611b29612514565b60200101906001600160f81b031916908160001a905350600f60fb1b81600181518110611b5857611b58612514565b60200101906001600160f81b031916908160001a9053506000611b7c8460026123ef565b611b879060016123c3565b90505b6001811115611bff576f181899199a1a9b1b9c1cb0b131b232b360811b85600f1660108110611bbb57611bbb612514565b1a60f81b828281518110611bd157611bd1612514565b60200101906001600160f81b031916908160001a90535060049490941c93611bf881612451565b9050611b8a565b5083156109cc5760405162461bcd60e51b815260206004820181905260248201527f537472696e67733a20686578206c656e67746820696e73756666696369656e7460448201526064016104d4565b6000611c59826108b6565b9050611c66600083610d22565b6001600160a01b038116600090815260cc60205260408120805460019290611c8f90849061240e565b9091555050600082815260cb602052604080822080546001600160a01b0319169055518391906001600160a01b038416907fddf252ad1be2c89b69c2b068fc378daa952ba7f163c4a11628f55a4df523b3ef908390a45050565b606081611d0d5750506040805180820190915260018152600360fc1b602082015290565b8160005b8115611d375780611d21816124a3565b9150611d309050600a836123db565b9150611d11565b60008167ffffffffffffffff811115611d5257611d5261252a565b6040519080825280601f01601f191660200182016040528015611d7c576020820181803683370190505b5090505b8415610e7257611d9160018361240e565b9150611d9e600a866124be565b611da99060306123c3565b60f81b818381518110611dbe57611dbe612514565b60200101906001600160f81b031916908160001a905350611de0600a866123db565b9450611d80565b828054611df390612468565b90600052602060002090601f016020900481019282611e155760008555611e5b565b82601f10611e2e57805160ff1916838001178555611e5b565b82800160010185558215611e5b579182015b82811115611e5b578251825591602001919060010190611e40565b50611e67929150611ea1565b5090565b508054611e7790612468565b6000825580601f10611e87575050565b601f0160209004906000526020600020908101906108b391905b5b80821115611e675760008155600101611ea2565b80356001600160a01b0381168114611ecd57600080fd5b919050565b600060208284031215611ee457600080fd5b6109cc82611eb6565b60008060408385031215611f0057600080fd5b611f0983611eb6565b9150611f1760208401611eb6565b90509250929050565b600080600060608486031215611f3557600080fd5b611f3e84611eb6565b9250611f4c60208501611eb6565b9150604084013590509250925092565b60008060008060808587031215611f7257600080fd5b611f7b85611eb6565b9350611f8960208601611eb6565b925060408501359150606085013567ffffffffffffffff80821115611fad57600080fd5b818701915087601f830112611fc157600080fd5b813581811115611fd357611fd361252a565b604051601f8201601f19908116603f01168101908382118183101715611ffb57611ffb61252a565b816040528281528a602084870101111561201457600080fd5b82602086016020830137600060208483010152809550505050505092959194509250565b6000806040838503121561204b57600080fd5b61205483611eb6565b91506020830135801515811461206957600080fd5b809150509250929050565b6000806040838503121561208757600080fd5b61209083611eb6565b946020939093013593505050565b6000602082840312156120b057600080fd5b5035919050565b600080604083850312156120ca57600080fd5b82359150611f1760208401611eb6565b600080604083850312156120ed57600080fd5b50508035926020909101359150565b60006020828403121561210e57600080fd5b81356109cc81612540565b60006020828403121561212b57600080fd5b81516109cc81612540565b60008060006040848603121561214b57600080fd5b83359250602084013567ffffffffffffffff8082111561216a57600080fd5b818601915086601f83011261217e57600080fd5b81358181111561218d57600080fd5b87602082850101111561219f57600080fd5b6020830194508093505050509250925092565b600081518084526121ca816020860160208601612425565b601f01601f19169290920160200192915050565b600083516121f0818460208801612425565b835190830190612204818360208801612425565b01949350505050565b7f416363657373436f6e74726f6c3a206163636f756e7420000000000000000000815260008351612245816017850160208801612425565b7001034b99036b4b9b9b4b733903937b6329607d1b6017918401918201528351612276816028840160208801612425565b01602801949350505050565b6001600160a01b03858116825284166020820152604081018390526080606082018190526000906122b5908301846121b2565b9695505050505050565b6020815260006109cc60208301846121b2565b60208082526032908201527f4552433732313a207472616e7366657220746f206e6f6e20455243373231526560408201527131b2b4bb32b91034b6b83632b6b2b73a32b960711b606082015260800190565b6020808252602e908201527f496e697469616c697a61626c653a20636f6e747261637420697320616c72656160408201526d191e481a5b9a5d1a585b1a5e995960921b606082015260800190565b60208082526031908201527f4552433732313a207472616e736665722063616c6c6572206973206e6f74206f6040820152701ddb995c881b9bdc88185c1c1c9bdd9959607a1b606082015260800190565b600082198211156123d6576123d66124d2565b500190565b6000826123ea576123ea6124e8565b500490565b6000816000190483118215151615612409576124096124d2565b500290565b600082821015612420576124206124d2565b500390565b60005b83811015612440578181015183820152602001612428565b83811115610b045750506000910152565b600081612460576124606124d2565b506000190190565b600181811c9082168061247c57607f821691505b6020821081141561249d57634e487b7160e01b600052602260045260246000fd5b50919050565b60006000198214156124b7576124b76124d2565b5060010190565b6000826124cd576124cd6124e8565b500690565b634e487b7160e01b600052601160045260246000fd5b634e487b7160e01b600052601260045260246000fd5b634e487b7160e01b600052603160045260246000fd5b634e487b7160e01b600052603260045260246000fd5b634e487b7160e01b600052604160045260246000fd5b6001600160e01b0319811681146108b357600080fdfea26469706673582212201c1d64fd03b665da908e618f3bafe998f24d5eab747a8c7453de7250ee91667b64736f6c63430008060033496e697469616c697a61626c653a20636f6e747261637420697320616c7265619f2df0fed2c77648de5860a4cc508cd0818c85b8b8a1ab4ceeef8d981c8956a6",
  "linkReferences": {},
  "deployedLinkReferences": {}
}