{
  "_format": "hh-sol-artifact-1",
  "contractName": "Fp2Operations",
  "sourceName": "contracts/schain/bls/FieldOperations.sol",
  "abi": [
    {
      "inputs": [],
      "name": "P",
      "outputs": [
        {
          "internalType": "uint256",
          "name": "",
          "type": "uint256"
        }
      ],
      "stateMutability": "view",
      "type": "function"
    }
  ],
  "bytecode": "0x60a6610038600b82828239805160001a607314602b57634e487b7160e01b600052600060045260246000fd5b30600052607381538281f3fe730000000000000000000000000000000000000000301460806040526004361060335760003560e01c80638b8fbd92146038575b600080fd5b605e7f30644e72e131a029b85045b68181585d97816a916871ca8d3c208c16d87cfd4781565b60405190815260200160405180910390f3fea2646970667358221220b6114dfffc7cc5bd71bdb443a150b7f076f1feaee0930e8a9fc3a2447113f8fd64736f6c63430008060033",
  "linkReferences": {},
  "deployedLinkReferences": {}
}