{
  "_format": "hh-sol-artifact-1",
  "contractName": "MessageProxyForSchain",
  "sourceName": "contracts/schain/MessageProxyForSchain.sol",
  "abi": [
    {
      "anonymous": false,
      "inputs": [
        {
          "indexed": true,
          "internalType": "bytes32",
          "name": "chainHash",
          "type": "bytes32"
        },
        {
          "indexed": false,
          "internalType": "address",
          "name": "contractAddress",
          "type": "address"
        }
      ],
      "name": "ExtraContractRegistered",
      "type": "event"
    },
    {
      "anonymous": false,
      "inputs": [
        {
          "indexed": true,
          "internalType": "bytes32",
          "name": "chainHash",
          "type": "bytes32"
        },
        {
          "indexed": false,
          "internalType": "address",
          "name": "contractAddress",
          "type": "address"
        }
      ],
      "name": "ExtraContractRemoved",
      "type": "event"
    },
    {
      "anonymous": false,
      "inputs": [
        {
          "indexed": false,
          "internalType": "uint256",
          "name": "oldValue",
          "type": "uint256"
        },
        {
          "indexed": false,
          "internalType": "uint256",
          "name": "newValue",
          "type": "uint256"
        }
      ],
      "name": "GasLimitWasChanged",
      "type": "event"
    },
    {
      "anonymous": false,
      "inputs": [
        {
          "indexed": true,
          "internalType": "bytes32",
          "name": "dstChainHash",
          "type": "bytes32"
        },
        {
          "indexed": true,
          "internalType": "uint256",
          "name": "msgCounter",
          "type": "uint256"
        },
        {
          "indexed": true,
          "internalType": "address",
          "name": "srcContract",
          "type": "address"
        },
        {
          "indexed": false,
          "internalType": "address",
          "name": "dstContract",
          "type": "address"
        },
        {
          "indexed": false,
          "internalType": "bytes",
          "name": "data",
          "type": "bytes"
        }
      ],
      "name": "OutgoingMessage",
      "type": "event"
    },
    {
      "anonymous": false,
      "inputs": [
        {
          "indexed": true,
          "internalType": "uint256",
          "name": "msgCounter",
          "type": "uint256"
        },
        {
          "indexed": false,
          "internalType": "bytes",
          "name": "message",
          "type": "bytes"
        }
      ],
      "name": "PostMessageError",
      "type": "event"
    },
    {
      "anonymous": false,
      "inputs": [
        {
          "indexed": true,
          "internalType": "bytes32",
          "name": "role",
          "type": "bytes32"
        },
        {
          "indexed": true,
          "internalType": "bytes32",
          "name": "previousAdminRole",
          "type": "bytes32"
        },
        {
          "indexed": true,
          "internalType": "bytes32",
          "name": "newAdminRole",
          "type": "bytes32"
        }
      ],
      "name": "RoleAdminChanged",
      "type": "event"
    },
    {
      "anonymous": false,
      "inputs": [
        {
          "indexed": true,
          "internalType": "bytes32",
          "name": "role",
          "type": "bytes32"
        },
        {
          "indexed": true,
          "internalType": "address",
          "name": "account",
          "type": "address"
        },
        {
          "indexed": true,
          "internalType": "address",
          "name": "sender",
          "type": "address"
        }
      ],
      "name": "RoleGranted",
      "type": "event"
    },
    {
      "anonymous": false,
      "inputs": [
        {
          "indexed": true,
          "internalType": "bytes32",
          "name": "role",
          "type": "bytes32"
        },
        {
          "indexed": true,
          "internalType": "address",
          "name": "account",
          "type": "address"
        },
        {
          "indexed": true,
          "internalType": "address",
          "name": "sender",
          "type": "address"
        }
      ],
      "name": "RoleRevoked",
      "type": "event"
    },
    {
      "anonymous": false,
      "inputs": [
        {
          "indexed": false,
          "internalType": "string",
          "name": "oldVersion",
          "type": "string"
        },
        {
          "indexed": false,
          "internalType": "string",
          "name": "newVersion",
          "type": "string"
        }
      ],
      "name": "VersionUpdated",
      "type": "event"
    },
    {
      "inputs": [],
      "name": "CHAIN_CONNECTOR_ROLE",
      "outputs": [
        {
          "internalType": "bytes32",
          "name": "",
          "type": "bytes32"
        }
      ],
      "stateMutability": "view",
      "type": "function"
    },
    {
      "inputs": [],
      "name": "CONSTANT_SETTER_ROLE",
      "outputs": [
        {
          "internalType": "bytes32",
          "name": "",
          "type": "bytes32"
        }
      ],
      "stateMutability": "view",
      "type": "function"
    },
    {
      "inputs": [],
      "name": "DEFAULT_ADMIN_ROLE",
      "outputs": [
        {
          "internalType": "bytes32",
          "name": "",
          "type": "bytes32"
        }
      ],
      "stateMutability": "view",
      "type": "function"
    },
    {
      "inputs": [],
      "name": "ETHERBASE",
      "outputs": [
        {
          "internalType": "contract IEtherbaseUpgradeable",
          "name": "",
          "type": "address"
        }
      ],
      "stateMutability": "view",
      "type": "function"
    },
    {
      "inputs": [],
      "name": "EXTRA_CONTRACT_REGISTRAR_ROLE",
      "outputs": [
        {
          "internalType": "bytes32",
          "name": "",
          "type": "bytes32"
        }
      ],
      "stateMutability": "view",
      "type": "function"
    },
    {
      "inputs": [],
      "name": "MAINNET_HASH",
      "outputs": [
        {
          "internalType": "bytes32",
          "name": "",
          "type": "bytes32"
        }
      ],
      "stateMutability": "view",
      "type": "function"
    },
    {
      "inputs": [],
      "name": "MESSAGES_LENGTH",
      "outputs": [
        {
          "internalType": "uint256",
          "name": "",
          "type": "uint256"
        }
      ],
      "stateMutability": "view",
      "type": "function"
    },
    {
      "inputs": [],
      "name": "MINIMUM_BALANCE",
      "outputs": [
        {
          "internalType": "uint256",
          "name": "",
          "type": "uint256"
        }
      ],
      "stateMutability": "view",
      "type": "function"
    },
    {
      "inputs": [],
      "name": "REVERT_REASON_LENGTH",
      "outputs": [
        {
          "internalType": "uint256",
          "name": "",
          "type": "uint256"
        }
      ],
      "stateMutability": "view",
      "type": "function"
    },
    {
      "inputs": [
        {
          "internalType": "string",
          "name": "chainName",
          "type": "string"
        }
      ],
      "name": "addConnectedChain",
      "outputs": [],
      "stateMutability": "nonpayable",
      "type": "function"
    },
    {
      "inputs": [
        {
          "internalType": "bytes32",
          "name": "",
          "type": "bytes32"
        }
      ],
      "name": "connectedChains",
      "outputs": [
        {
          "internalType": "uint256",
          "name": "incomingMessageCounter",
          "type": "uint256"
        },
        {
          "internalType": "uint256",
          "name": "outgoingMessageCounter",
          "type": "uint256"
        },
        {
          "internalType": "bool",
          "name": "inited",
          "type": "bool"
        }
      ],
      "stateMutability": "view",
      "type": "function"
    },
    {
      "inputs": [],
      "name": "gasLimit",
      "outputs": [
        {
          "internalType": "uint256",
          "name": "",
          "type": "uint256"
        }
      ],
      "stateMutability": "view",
      "type": "function"
    },
    {
      "inputs": [
        {
          "internalType": "bytes32",
          "name": "schainHash",
          "type": "bytes32"
        }
      ],
      "name": "getContractRegisteredLength",
      "outputs": [
        {
          "internalType": "uint256",
          "name": "",
          "type": "uint256"
        }
      ],
      "stateMutability": "view",
      "type": "function"
    },
    {
      "inputs": [
        {
          "internalType": "bytes32",
          "name": "schainHash",
          "type": "bytes32"
        },
        {
          "internalType": "uint256",
          "name": "from",
          "type": "uint256"
        },
        {
          "internalType": "uint256",
          "name": "to",
          "type": "uint256"
        }
      ],
      "name": "getContractRegisteredRange",
      "outputs": [
        {
          "internalType": "address[]",
          "name": "contractsInRange",
          "type": "address[]"
        }
      ],
      "stateMutability": "view",
      "type": "function"
    },
    {
      "inputs": [
        {
          "internalType": "string",
          "name": "fromSchainName",
          "type": "string"
        }
      ],
      "name": "getIncomingMessagesCounter",
      "outputs": [
        {
          "internalType": "uint256",
          "name": "",
          "type": "uint256"
        }
      ],
      "stateMutability": "view",
      "type": "function"
    },
    {
      "inputs": [
        {
          "internalType": "string",
          "name": "targetSchainName",
          "type": "string"
        }
      ],
      "name": "getOutgoingMessagesCounter",
      "outputs": [
        {
          "internalType": "uint256",
          "name": "",
          "type": "uint256"
        }
      ],
      "stateMutability": "view",
      "type": "function"
    },
    {
      "inputs": [
        {
          "internalType": "bytes32",
          "name": "role",
          "type": "bytes32"
        }
      ],
      "name": "getRoleAdmin",
      "outputs": [
        {
          "internalType": "bytes32",
          "name": "",
          "type": "bytes32"
        }
      ],
      "stateMutability": "view",
      "type": "function"
    },
    {
      "inputs": [
        {
          "internalType": "bytes32",
          "name": "role",
          "type": "bytes32"
        },
        {
          "internalType": "uint256",
          "name": "index",
          "type": "uint256"
        }
      ],
      "name": "getRoleMember",
      "outputs": [
        {
          "internalType": "address",
          "name": "",
          "type": "address"
        }
      ],
      "stateMutability": "view",
      "type": "function"
    },
    {
      "inputs": [
        {
          "internalType": "bytes32",
          "name": "role",
          "type": "bytes32"
        }
      ],
      "name": "getRoleMemberCount",
      "outputs": [
        {
          "internalType": "uint256",
          "name": "",
          "type": "uint256"
        }
      ],
      "stateMutability": "view",
      "type": "function"
    },
    {
      "inputs": [
        {
          "internalType": "bytes32",
          "name": "role",
          "type": "bytes32"
        },
        {
          "internalType": "address",
          "name": "account",
          "type": "address"
        }
      ],
      "name": "grantRole",
      "outputs": [],
      "stateMutability": "nonpayable",
      "type": "function"
    },
    {
      "inputs": [
        {
          "internalType": "bytes32",
          "name": "role",
          "type": "bytes32"
        },
        {
          "internalType": "address",
          "name": "account",
          "type": "address"
        }
      ],
      "name": "hasRole",
      "outputs": [
        {
          "internalType": "bool",
          "name": "",
          "type": "bool"
        }
      ],
      "stateMutability": "view",
      "type": "function"
    },
    {
      "inputs": [
        {
          "internalType": "contract IKeyStorage",
          "name": "blsKeyStorage",
          "type": "address"
        },
        {
          "internalType": "string",
          "name": "schainName",
          "type": "string"
        }
      ],
      "name": "initialize",
      "outputs": [],
      "stateMutability": "nonpayable",
      "type": "function"
    },
    {
      "inputs": [
        {
          "internalType": "bytes32",
          "name": "chainHash",
          "type": "bytes32"
        },
        {
          "internalType": "address[]",
          "name": "contracts",
          "type": "address[]"
        }
      ],
      "name": "initializeAllRegisteredContracts",
      "outputs": [],
      "stateMutability": "nonpayable",
      "type": "function"
    },
    {
      "inputs": [
        {
          "internalType": "uint256",
          "name": "newGasLimit",
          "type": "uint256"
        }
      ],
      "name": "initializeMessageProxy",
      "outputs": [],
      "stateMutability": "nonpayable",
      "type": "function"
    },
    {
      "inputs": [
        {
          "internalType": "string",
          "name": "schainName",
          "type": "string"
        }
      ],
      "name": "isConnectedChain",
      "outputs": [
        {
          "internalType": "bool",
          "name": "",
          "type": "bool"
        }
      ],
      "stateMutability": "view",
      "type": "function"
    },
    {
      "inputs": [
        {
          "internalType": "bytes32",
          "name": "schainHash",
          "type": "bytes32"
        },
        {
          "internalType": "address",
          "name": "contractAddress",
          "type": "address"
        }
      ],
      "name": "isContractRegistered",
      "outputs": [
        {
          "internalType": "bool",
          "name": "",
          "type": "bool"
        }
      ],
      "stateMutability": "view",
      "type": "function"
    },
    {
      "inputs": [],
      "name": "keyStorage",
      "outputs": [
        {
          "internalType": "contract IKeyStorage",
          "name": "",
          "type": "address"
        }
      ],
      "stateMutability": "view",
      "type": "function"
    },
    {
      "inputs": [],
      "name": "messageInProgress",
      "outputs": [
        {
          "internalType": "bool",
          "name": "",
          "type": "bool"
        }
      ],
      "stateMutability": "view",
      "type": "function"
    },
    {
      "inputs": [
        {
          "internalType": "string",
          "name": "fromChainName",
          "type": "string"
        },
        {
          "internalType": "uint256",
          "name": "startingCounter",
          "type": "uint256"
        },
        {
          "components": [
            {
              "internalType": "address",
              "name": "sender",
              "type": "address"
            },
            {
              "internalType": "address",
              "name": "destinationContract",
              "type": "address"
            },
            {
              "internalType": "bytes",
              "name": "data",
              "type": "bytes"
            }
          ],
          "internalType": "struct IMessageProxy.Message[]",
          "name": "messages",
          "type": "tuple[]"
        },
        {
          "components": [
            {
              "internalType": "uint256[2]",
              "name": "blsSignature",
              "type": "uint256[2]"
            },
            {
              "internalType": "uint256",
              "name": "hashA",
              "type": "uint256"
            },
            {
              "internalType": "uint256",
              "name": "hashB",
              "type": "uint256"
            },
            {
              "internalType": "uint256",
              "name": "counter",
              "type": "uint256"
            }
          ],
          "internalType": "struct IMessageProxy.Signature",
          "name": "signature",
          "type": "tuple"
        }
      ],
      "name": "postIncomingMessages",
      "outputs": [],
      "stateMutability": "nonpayable",
      "type": "function"
    },
    {
      "inputs": [
        {
          "internalType": "bytes32",
          "name": "targetChainHash",
          "type": "bytes32"
        },
        {
          "internalType": "address",
          "name": "targetContract",
          "type": "address"
        },
        {
          "internalType": "bytes",
          "name": "data",
          "type": "bytes"
        }
      ],
      "name": "postOutgoingMessage",
      "outputs": [],
      "stateMutability": "nonpayable",
      "type": "function"
    },
    {
      "inputs": [
        {
          "internalType": "string",
          "name": "chainName",
          "type": "string"
        },
        {
          "internalType": "address",
          "name": "extraContract",
          "type": "address"
        }
      ],
      "name": "registerExtraContract",
      "outputs": [],
      "stateMutability": "nonpayable",
      "type": "function"
    },
    {
      "inputs": [
        {
          "internalType": "address",
          "name": "extraContract",
          "type": "address"
        }
      ],
      "name": "registerExtraContractForAll",
      "outputs": [],
      "stateMutability": "nonpayable",
      "type": "function"
    },
    {
      "inputs": [
        {
          "internalType": "string",
          "name": "chainName",
          "type": "string"
        }
      ],
      "name": "removeConnectedChain",
      "outputs": [],
      "stateMutability": "nonpayable",
      "type": "function"
    },
    {
      "inputs": [
        {
          "internalType": "string",
          "name": "chainName",
          "type": "string"
        },
        {
          "internalType": "address",
          "name": "extraContract",
          "type": "address"
        }
      ],
      "name": "removeExtraContract",
      "outputs": [],
      "stateMutability": "nonpayable",
      "type": "function"
    },
    {
      "inputs": [
        {
          "internalType": "address",
          "name": "extraContract",
          "type": "address"
        }
      ],
      "name": "removeExtraContractForAll",
      "outputs": [],
      "stateMutability": "nonpayable",
      "type": "function"
    },
    {
      "inputs": [
        {
          "internalType": "bytes32",
          "name": "role",
          "type": "bytes32"
        },
        {
          "internalType": "address",
          "name": "account",
          "type": "address"
        }
      ],
      "name": "renounceRole",
      "outputs": [],
      "stateMutability": "nonpayable",
      "type": "function"
    },
    {
      "inputs": [
        {
          "internalType": "bytes32",
          "name": "role",
          "type": "bytes32"
        },
        {
          "internalType": "address",
          "name": "account",
          "type": "address"
        }
      ],
      "name": "revokeRole",
      "outputs": [],
      "stateMutability": "nonpayable",
      "type": "function"
    },
    {
      "inputs": [],
      "name": "schainHash",
      "outputs": [
        {
          "internalType": "bytes32",
          "name": "",
          "type": "bytes32"
        }
      ],
      "stateMutability": "view",
      "type": "function"
    },
    {
      "inputs": [
        {
          "internalType": "uint256",
          "name": "newGasLimit",
          "type": "uint256"
        }
      ],
      "name": "setNewGasLimit",
      "outputs": [],
      "stateMutability": "nonpayable",
      "type": "function"
    },
    {
      "inputs": [
        {
          "internalType": "string",
          "name": "newVersion",
          "type": "string"
        }
      ],
      "name": "setVersion",
      "outputs": [],
      "stateMutability": "nonpayable",
      "type": "function"
    },
    {
      "inputs": [
        {
          "internalType": "bytes4",
          "name": "interfaceId",
          "type": "bytes4"
        }
      ],
      "name": "supportsInterface",
      "outputs": [
        {
          "internalType": "bool",
          "name": "",
          "type": "bool"
        }
      ],
      "stateMutability": "view",
      "type": "function"
    },
    {
      "inputs": [
        {
          "components": [
            {
              "internalType": "bytes32",
              "name": "dstChainHash",
              "type": "bytes32"
            },
            {
              "internalType": "uint256",
              "name": "msgCounter",
              "type": "uint256"
            },
            {
              "internalType": "address",
              "name": "srcContract",
              "type": "address"
            },
            {
              "internalType": "address",
              "name": "dstContract",
              "type": "address"
            },
            {
              "internalType": "bytes",
              "name": "data",
              "type": "bytes"
            }
          ],
          "internalType": "struct IMessageProxyForSchain.OutgoingMessageData",
          "name": "message",
          "type": "tuple"
        }
      ],
      "name": "verifyOutgoingMessageData",
      "outputs": [
        {
          "internalType": "bool",
          "name": "isValidMessage",
          "type": "bool"
        }
      ],
      "stateMutability": "view",
      "type": "function"
    },
    {
      "inputs": [
        {
          "internalType": "bytes32",
          "name": "hashedMessage",
          "type": "bytes32"
        },
        {
          "components": [
            {
              "internalType": "uint256[2]",
              "name": "blsSignature",
              "type": "uint256[2]"
            },
            {
              "internalType": "uint256",
              "name": "hashA",
              "type": "uint256"
            },
            {
              "internalType": "uint256",
              "name": "hashB",
              "type": "uint256"
            },
            {
              "internalType": "uint256",
              "name": "counter",
              "type": "uint256"
            }
          ],
          "internalType": "struct IMessageProxy.Signature",
          "name": "signature",
          "type": "tuple"
        }
      ],
      "name": "verifySignature",
      "outputs": [
        {
          "internalType": "bool",
          "name": "",
          "type": "bool"
        }
      ],
      "stateMutability": "view",
      "type": "function"
    },
    {
      "inputs": [],
      "name": "version",
      "outputs": [
        {
          "internalType": "string",
          "name": "",
          "type": "string"
        }
      ],
      "stateMutability": "view",
      "type": "function"
    }
  ],
  "bytecode": "0x608060405234801561001057600080fd5b50614336806100206000396000f3fe608060405234801561001057600080fd5b50600436106102745760003560e01c80636a156b9a11610151578063bbc4e8c2116100c3578063e6ab840311610087578063e6ab8403146105a3578063f2f63605146105f2578063f399e22e14610605578063f68016b714610618578063f79f795414610621578063f8c88a161461063457600080fd5b8063bbc4e8c21461053b578063bdb40cb014610562578063ca15c8731461056a578063cab010c91461057d578063d547741f1461059057600080fd5b80639010d07c116101155780639010d07c146104d457806391d14854146104e757806394489202146104fa578063999ab9aa1461050d578063a217fddf14610520578063a8bb1b7d1461052857600080fd5b80636a156b9a146104635780636e2f37b01461048857806377fe0f311461049b578063788bc78c146104ae5780637aa38a7c146104c157600080fd5b80633b690b6b116101ea57806353498cdd116101ae57806353498cdd146103f357806354fd4d5014610402578063603e5d1314610417578063654d88281461042a5780636660de1c1461043d57806367ec60201461045057600080fd5b80633b690b6b1461039c5780633cdd2cc3146103a55780634d203859146103b8578063523c8ab6146103cb57806352dc24ee146103e057600080fd5b8063214883401161023c57806321488340146102ec578063248a9ca31461030c57806328c5e1821461032f5780632f2ff15d1461036157806336568abe146103765780633b597ffe1461038957600080fd5b806301ffc9a7146102795780630fc307a8146102a157806313c52260146102c2578063198e687c146102d75780631cf5379d146102df575b600080fd5b61028c610287366004613858565b610647565b60405190151581526020015b60405180910390f35b6102b46102af3660046136d8565b610672565b604051908152602001610298565b6102b46000805160206142c183398151915281565b6102b4604081565b60d35461028c9060ff1681565b6102ff6102fa36600461382c565b610689565b6040516102989190613c80565b6102b461031a3660046136d8565b60009081526065602052604090206001015490565b6102b46040516613585a5b9b995d60ca1b60208201526027016040516020818303038152906040528051906020012081565b61037461036f36600461370a565b6107c8565b005b61037461038436600461370a565b6107ef565b6103746103973660046136d8565b610811565b6102b460cd5481565b6103746103b336600461399c565b6108d7565b6103746103c6366004613699565b6109c5565b6102b460008051602061428183398151915281565b61028c6103ee3660046137dd565b610aff565b6102b4670de0b6b3a764000081565b61040a610b12565b6040516102989190613cf8565b610374610425366004613912565b610ba0565b61028c61043836600461370a565b610e43565b61037461044b366004613792565b610e5b565b6102b461045e3660046138d1565b61100b565b61047062695d1f60891b81565b6040516001600160a01b039091168152602001610298565b6103746104963660046136d8565b611084565b6102b46104a93660046138d1565b611162565b6103746104bc3660046138d1565b611208565b61028c6104cf366004613a59565b6112a7565b6104706104e236600461380a565b6112e1565b61028c6104f536600461370a565b6112f9565b61037461050836600461373a565b611324565b61028c61051b36600461399c565b6113da565b6102b4600081565b610374610536366004613699565b611423565b6102b47f96e3fc3be15159903e053027cff8a23f39a990e0194abcd8ac1cf1b355b8b93c81565b6102b4600a81565b6102b46105783660046136d8565b61151d565b61037461058b3660046139d0565b611534565b61037461059e36600461370a565b6115bf565b6105d56105b13660046136d8565b60c96020526000908152604090208054600182015460029092015490919060ff1683565b604080519384526020840192909252151590820152606001610298565b6103746106003660046138d1565b6115c9565b610374610613366004613882565b611651565b6102b460cb5481565b60cc54610470906001600160a01b031681565b6103746106423660046139d0565b611798565b60006001600160e01b03198216635a05180f60e01b148061066c575061066c82611823565b92915050565b600081815260d16020526040812061066c90611858565b606081831080156106a45750600a6106a1848461400a565b11155b80156106c65750600084815260d1602052604090206106c290611858565b8211155b61070c5760405162461bcd60e51b815260206004820152601260248201527114985b99d9481a5cc81a5b98dbdc9c9958dd60721b60448201526064015b60405180910390fd5b610716838361400a565b6001600160401b0381111561072d5761072d614190565b604051908082528060200260200182016040528015610756578160200160208202803683370190505b509050825b828110156107c057600085815260d16020526040902061077b9082611862565b82610786868461400a565b815181106107965761079661417a565b6001600160a01b0390921660209283029190910190910152806107b881614109565b91505061075b565b509392505050565b6107d2828261186e565b60008281526097602052604090206107ea9082611894565b505050565b6107f982826118a9565b60008281526097602052604090206107ea9082611923565b61083b7f96e3fc3be15159903e053027cff8a23f39a990e0194abcd8ac1cf1b355b8b93c336112f9565b6108965760405162461bcd60e51b815260206004820152602660248201527f4e6f7420656e6f756768207065726d697373696f6e7320746f2073657420636f6044820152651b9cdd185b9d60d21b6064820152608401610703565b60cb5460408051918252602082018390527f8abddb75fd50f7583079c0b550ec7a54fa3fd8d5dd1d2dfdc473f7ce27e3b9ac910160405180910390a160cb55565b6108ef6000805160206142c1833981519152336112f9565b61090b5760405162461bcd60e51b815260040161070390613dbf565b60008160405160200161091e9190613bcb565b604051602081830303815290604052805190602001209050604051602001610953906613585a5b9b995d60ca1b815260070190565b604051602081830303815290604052805190602001208114156109b85760405162461bcd60e51b815260206004820152601960248201527f4d61696e6e65742063616e6e6f742062652072656d6f766564000000000000006044820152606401610703565b6109c182611938565b5050565b6109dd600080516020614281833981519152336112f9565b6109f95760405162461bcd60e51b815260040161070390613df4565b6001600160a01b0381163b610a505760405162461bcd60e51b815260206004820152601f60248201527f476976656e2061646472657373206973206e6f74206120636f6e7472616374006044820152606401610703565b610a6c8160d15b60008080526020919091526040902090611a1b565b15610a895760405162461bcd60e51b815260040161070390613f1f565b6000805260d1602052610abb7efa5413e7b01fc543d01f0911de573ace463b956369df4472f39030e8d98b7782611894565b506040516001600160a01b03821681526000907f03bcd152926369e3cf05cb7af471a15d680e8ec5d20b13705048d14e94679365906020015b60405180910390a250565b6000610b0b8383611a3d565b9392505050565b60d28054610b1f90614064565b80601f0160208091040260200160405190810160405280929190818152602001828054610b4b90614064565b8015610b985780601f10610b6d57610100808354040283529160200191610b98565b820191906000526020600020905b815481529060010190602001808311610b7b57829003601f168201915b505050505081565b60d35460ff1615610bec5760405162461bcd60e51b81526020600482015260166024820152754d65737361676520697320696e2070726f677265737360501b6044820152606401610703565b60d3805460ff19166001179055604051600090610c0f9088908890602001613bbb565b60408051601f198184030181529181528151602092830120600081815260c990935291206002015490915060ff16610c845760405162461bcd60e51b815260206004820152601860248201527710da185a5b881a5cc81b9bdd081a5b9a5d1a585b1a5e995960421b6044820152606401610703565b600a831115610cc95760405162461bcd60e51b8152602060048201526011602482015270546f6f206d616e79206d6573736167657360781b6044820152606401610703565b610cdf610cd98585888b8b611aea565b83611a3d565b610d2b5760405162461bcd60e51b815260206004820152601960248201527f5369676e6174757265206973206e6f74207665726966696564000000000000006044820152606401610703565b600081815260c960205260409020548514610dae5760405162461bcd60e51b815260206004820152603860248201527f5374617274696e6720636f756e746572206973206e6f74207175616c20746f2060448201527f696e636f6d696e67206d65737361676520636f756e74657200000000000000006064820152608401610703565b600081815260c9602052604081208054859290610dcc908490613fbf565b90915550600090505b83811015610e2757610e1582868684818110610df357610df361417a565b9050602002810190610e059190613fa9565b610e10896001613fbf565b611c65565b80610e1f81614109565b915050610dd5565b50610e30611e8a565b505060d3805460ff191690555050505050565b600082815260d160205260408120610b0b9083611a1b565b610e666000336112f9565b610eb25760405162461bcd60e51b815260206004820152601860248201527f53656e646572206973206e6f7420617574686f72697a656400000000000000006044820152606401610703565b60005b8181101561100557600084815260ca6020526040812090848484818110610ede57610ede61417a565b9050602002016020810190610ef39190613699565b6001600160a01b0316815260208101919091526040016000205460ff168015610f575750610f55838383818110610f2c57610f2c61417a565b9050602002016020810190610f419190613699565b600086815260d16020526040902090611a1b565b155b15610ff357610f9a838383818110610f7157610f7161417a565b9050602002016020810190610f869190613699565b600086815260d16020526040902090611894565b50600084815260ca6020526040812090848484818110610fbc57610fbc61417a565b9050602002016020810190610fd19190613699565b6001600160a01b031681526020810191909152604001600020805460ff191690555b80610ffd81614109565b915050610eb5565b50505050565b6000808383604051602001611021929190613bbb565b60408051601f198184030181529181528151602092830120600081815260c990935291206002015490915060ff1661106b5760405162461bcd60e51b815260040161070390613e8b565b600090815260c960205260409020600101549392505050565b600054610100900460ff168061109d575060005460ff16155b6110b95760405162461bcd60e51b815260040161070390613e3d565b600054610100900460ff161580156110db576000805461ffff19166101011790555b6110e361207e565b6110ee60003361210a565b6111066000805160206142c18339815191523361210a565b61111e6000805160206142818339815191523361210a565b6111487f96e3fc3be15159903e053027cff8a23f39a990e0194abcd8ac1cf1b355b8b93c3361210a565b60cb82905580156109c1576000805461ff00191690555050565b6000808383604051602001611178929190613bbb565b60408051601f198184030181529181528151602092830120600081815260c990935291206002015490915060ff166111f25760405162461bcd60e51b815260206004820152601f60248201527f536f7572636520636861696e206973206e6f7420696e697469616c697a6564006044820152606401610703565b600090815260c960205260409020549392505050565b6112136000336112f9565b61125f5760405162461bcd60e51b815260206004820152601e60248201527f44454641554c545f41444d494e5f524f4c4520697320726571756972656400006044820152606401610703565b7f22efc5f993dce37856b77dd72d7d7661032380c9728c4133f3c071c591bc6ca760d2838360405161129393929190613d0b565b60405180910390a16107ea60d28383613438565b8051600090815260ce602090815260408083208285015184529091528120546112cf83612114565b8114156112db57600191505b50919050565b6000828152609760205260408120610b0b9083611862565b60009182526065602090815260408084206001600160a01b0393909316845291905290205460ff1690565b61132f83838361218a565b60006040518060a00160405280858152602001600160c9600088815260200190815260200160002060010154611365919061400a565b81523360208201526001600160a01b0385166040820152606001839052805190915061139082612114565b600082815260ce6020908152604080832060d080845282852080548652918452918420949094558483529052815460019291906113ce908490613fbf565b90915550505050505050565b600060c96000836040516020016113f19190613bcb565b60408051601f198184030181529181528151602092830120835290820192909252016000206002015460ff1692915050565b61143b600080516020614281833981519152336112f9565b6114575760405162461bcd60e51b815260040161070390613df4565b6114628160d1610a57565b6114ae5760405162461bcd60e51b815260206004820181905260248201527f457874726120636f6e7472616374206973206e6f7420726567697374657265646044820152606401610703565b6000805260d16020526114e07efa5413e7b01fc543d01f0911de573ace463b956369df4472f39030e8d98b7782611923565b506040516001600160a01b03821681526000907f4d393b64277bfc0b02e0459a74c316c7f22069352a678319fd8139ba4085e06190602001610af4565b600081815260976020526040812061066c90611858565b61154c600080516020614281833981519152336112f9565b6115685760405162461bcd60e51b815260040161070390613df4565b60008260405160200161157b9190613bcb565b60405160208183030381529060405280519060200120905060cd548114156115b55760405162461bcd60e51b815260040161070390613ecf565b6107ea8183612250565b6107f982826123b0565b600082826040516020016115de929190613bbb565b60405160208183030381529060405280519060200120905060cd548114156116485760405162461bcd60e51b815260206004820152601c60248201527f53636861696e2063616e6e6f7420636f6e6e65637420697473656c66000000006044820152606401610703565b6107ea816123d6565b600054610100900460ff168061166a575060005460ff16155b6116865760405162461bcd60e51b815260040161070390613e3d565b600054610100900460ff161580156116a8576000805461ffff19166101011790555b6116b4622dc6c0611084565b60cc80546001600160a01b0385166001600160a01b031990911617905560408051606081018252600080825260208083018290526001838501529251919260c99261170d91016613585a5b9b995d60ca1b815260070190565b60408051808303601f19018152918152815160209283012083528282019390935290820160002083518155838201516001820155928201516002909301805460ff1916931515939093179092555161176791849101613bcb565b60408051601f19818403018152919052805160209091012060cd5580156107ea576000805461ff0019169055505050565b6117b0600080516020614281833981519152336112f9565b6117cc5760405162461bcd60e51b815260040161070390613df4565b6000826040516020016117df9190613bcb565b60405160208183030381529060405280519060200120905060cd548114156118195760405162461bcd60e51b815260040161070390613ecf565b6107ea81836124bc565b60006001600160e01b03198216637965db0b60e01b148061066c57506301ffc9a760e01b6001600160e01b031983161461066c565b600061066c825490565b6000610b0b8383612567565b60008281526065602052604090206001015461188a8133612591565b6107ea83836125f5565b6000610b0b836001600160a01b03841661267b565b6001600160a01b03811633146119195760405162461bcd60e51b815260206004820152602f60248201527f416363657373436f6e74726f6c3a2063616e206f6e6c792072656e6f756e636560448201526e103937b632b9903337b91039b2b63360891b6064820152608401610703565b6109c182826126ca565b6000610b0b836001600160a01b038416612731565b6119506000805160206142c1833981519152336112f9565b61196c5760405162461bcd60e51b815260040161070390613dbf565b60008160405160200161197f9190613bcb565b60408051601f198184030181529181528151602092830120600081815260c990935291206002015490915060ff166119f45760405162461bcd60e51b815260206004820152601860248201527710da185a5b881a5cc81b9bdd081a5b9a5d1a585b1a5e995960421b6044820152606401610703565b600090815260c9602052604081208181556001810191909155600201805460ff1916905550565b6001600160a01b03811660009081526001830160205260408120541515610b0b565b604080518082018252823581526020808401359082015260cc548251632aa77bd360e11b81528351600094610b0b949388936080808a013594938a01359360608b0135936001600160a01b03169263554ef7a6926004808301939192829003018186803b158015611aad57600080fd5b505afa158015611ac1573d6000803e3d6000fd5b505050506040513d601f19601f82011682018060405250810190611ae59190613a16565b61282b565b6000808383604051602001611b00929190613bbb565b60408051808303601f190181528282528051602091820120908301819052908201879052915060009060600160405160208183030381529060405280519060200120905060005b87811015611c595781898983818110611b6257611b6261417a565b9050602002810190611b749190613fa9565b611b82906020810190613699565b8a8a84818110611b9457611b9461417a565b9050602002810190611ba69190613fa9565b611bb7906040810190602001613699565b6040805160208101949094526001600160a01b0392831690840152166060820152608001604051602081830303815290604052898983818110611bfc57611bfc61417a565b9050602002810190611c0e9190613fa9565b611c1c906040810190613f63565b604051602001611c2e93929190613b93565b6040516020818303038152906040528051906020012091508080611c5190614109565b915050611b47565b50979650505050505050565b611c87611c786040840160208501613699565b6001600160a01b03163b151590565b611cf557806000805160206142e1833981519152604051611ce89060208082526026908201527f44657374696e6174696f6e20636f6e7472616374206973206e6f74206120636f6040820152651b9d1c9858dd60d21b606082015260800190565b60405180910390a2505050565b611d056040830160208401613699565b6001600160a01b031663884cee5a60cb5485856000016020810190611d2a9190613699565b611d376040880188613f63565b6040518663ffffffff1660e01b8152600401611d569493929190613ccd565b600060405180830381600088803b158015611d7057600080fd5b5087f193505050508015611d82575060015b6107ea57611d8e6141a6565b806308c379a01415611de45750611da36141c2565b80611dae5750611e3f565b816000805160206142e1833981519152611dc98360406129f5565b604051611dd69190613cf8565b60405180910390a250505050565b634e487b711415611e3f57611df761424b565b90611e025750611e3f565b816000805160206142e183398151915282604051602001611e2591815260200190565b60408051601f1981840301815290829052611dd691613cf8565b3d808015611e69576040519150601f19603f3d011682016040523d82523d6000602084013e611e6e565b606091505b50816000805160206142e1833981519152611dc98360406129f5565b60003a5a611e989190613feb565b611ea3903331613fbf565b905062695d1f60891b803b15801590611fac5750806001600160a01b03166391d14854826001600160a01b031663bc2a1e8d6040518163ffffffff1660e01b815260040160206040518083038186803b158015611eff57600080fd5b505afa158015611f13573d6000803e3d6000fd5b505050506040513d601f19601f82011682018060405250810190611f3791906136f1565b6040516001600160e01b031960e084901b168152600481019190915230602482015260440160206040518083038186803b158015611f7457600080fd5b505afa158015611f88573d6000803e3d6000fd5b505050506040513d601f19601f82011682018060405250810190611fac91906136b6565b8015611fbf5750670de0b6b3a764000082105b156109c1576000611fd883670de0b6b3a764000061400a565b9050816001600160a01b0316318110156120525760405163204a3e9360e01b8152336004820152602481018290526001600160a01b0383169063204a3e93906044015b600060405180830381600087803b15801561203557600080fd5b505af1158015612049573d6000803e3d6000fd5b50505050505050565b604051630a79309b60e01b81523360048201526001600160a01b03831690630a79309b9060240161201b565b600054610100900460ff1680612097575060005460ff16155b6120b35760405162461bcd60e51b815260040161070390613e3d565b600054610100900460ff161580156120d5576000805461ffff19166101011790555b6120dd612abf565b6120e5612abf565b6120ed612abf565b6120f5612abf565b8015612107576000805461ff00191690555b50565b6107d28282612b29565b6000808260000151836020015160001b846040015160601b6bffffffffffffffffffffffff1916856060015160601b6bffffffffffffffffffffffff1916866080015160405160200161216b959493929190613b58565b60408051601f1981840301815291905280516020909101209392505050565b600083815260c9602052604090206002015460ff166121bb5760405162461bcd60e51b815260040161070390613e8b565b6121c483612b33565b336001600160a01b031660c9600085815260200190815260200160002060010154847f803d7f3ca0e5f93fcce39fa29812ed57a95a151594966e17125220132741c6b08585604051612217929190613c5c565b60405180910390a4600160c9600085815260200190815260200160002060010160008282546122469190613fbf565b9091555050505050565b6001600160a01b0381163b6122a75760405162461bcd60e51b815260206004820152601f60248201527f476976656e2061646472657373206973206e6f74206120636f6e7472616374006044820152606401610703565b6122c38160d15b60008581526020919091526040902090611a1b565b156122e05760405162461bcd60e51b815260040161070390613f1f565b6122eb8160d1610a57565b156123545760405162461bcd60e51b815260206004820152603360248201527f457874726120636f6e747261637420697320616c7265616479207265676973746044820152726572656420666f7220616c6c20636861696e7360681b6064820152608401610703565b600082815260d16020526040902061236c9082611894565b506040516001600160a01b038216815282907f03bcd152926369e3cf05cb7af471a15d680e8ec5d20b13705048d14e94679365906020015b60405180910390a25050565b6000828152606560205260409020600101546123cc8133612591565b6107ea83836126ca565b6123ee6000805160206142c1833981519152336112f9565b61240a5760405162461bcd60e51b815260040161070390613dbf565b600081815260c9602052604090206002015460ff161561246c5760405162461bcd60e51b815260206004820152601a60248201527f436861696e20697320616c726561647920636f6e6e65637465640000000000006044820152606401610703565b6040805160608101825260008082526020808301828152600184860181815296845260c9909252939091209151825591519181019190915590516002909101805460ff1916911515919091179055565b6124c78160d16122ae565b6125135760405162461bcd60e51b815260206004820181905260248201527f457874726120636f6e7472616374206973206e6f7420726567697374657265646044820152606401610703565b600082815260d16020526040902061252b9082611923565b506040516001600160a01b038216815282907f4d393b64277bfc0b02e0459a74c316c7f22069352a678319fd8139ba4085e061906020016123a4565b600082600001828154811061257e5761257e61417a565b9060005260206000200154905092915050565b61259b82826112f9565b6109c1576125b3816001600160a01b03166014612ba4565b6125be836020612ba4565b6040516020016125cf929190613be7565b60408051601f198184030181529082905262461bcd60e51b825261070391600401613cf8565b6125ff82826112f9565b6109c15760008281526065602090815260408083206001600160a01b03851684529091529020805460ff191660011790556126373390565b6001600160a01b0316816001600160a01b0316837f2f8788117e7eff1d82e926ec794901d17c78024a50270940304540a733656f0d60405160405180910390a45050565b60008181526001830160205260408120546126c25750815460018181018455600084815260208082209093018490558454848252828601909352604090209190915561066c565b50600061066c565b6126d482826112f9565b156109c15760008281526065602090815260408083206001600160a01b0385168085529252808320805460ff1916905551339285917ff6391f5c32d9c69d2a47ea670b442974b53935d1edc7fd64eb21e047a839171b9190a45050565b6000818152600183016020526040812054801561281a57600061275560018361400a565b85549091506000906127699060019061400a565b90508181146127ce5760008660000182815481106127895761278961417a565b90600052602060002001549050808760000184815481106127ac576127ac61417a565b6000918252602080832090910192909255918252600188019052604090208390555b85548690806127df576127df614164565b60019003818190600052602060002001600090559055856001016000868152602001908152602001600020600090556001935050505061066c565b600091505061066c565b5092915050565b600061283687612d3f565b61287b5760405162461bcd60e51b815260206004820152601660248201527514da59db985d1d5c99481a5cc81b9bdd081d985b1a5960521b6044820152606401610703565b61288786868686612d75565b612893575060006129eb565b60006128a28860200151612e63565b90506128b2886000015182612e88565b6128ef5760405162461bcd60e51b815260206004820152600e60248201526d5369676e206e6f7420696e20473160901b6044820152606401610703565b6128f98585612e88565b6129365760405162461bcd60e51b815260206004820152600e60248201526d48617368206e6f7420696e20473160901b6044820152606401610703565b6000612940612ebe565b905061294b84612f7e565b61298e5760405162461bcd60e51b8152602060048201526014602482015273283ab13634b19025b2bc903737ba1034b710239960611b6044820152606401610703565b6129e68960000151838360000151602001518460000151600001518560200151602001518660200151600001518c8c8c60000151602001518d60000151600001518e60200151602001518f6020015160000151612f92565b925050505b9695505050505050565b6060600083518310612a08578351612a0a565b825b90506000816001600160401b03811115612a2657612a26614190565b6040519080825280601f01601f191660200182016040528015612a50576020820181803683370190505b50905060005b82811015612ab657858181518110612a7057612a7061417a565b602001015160f81c60f81b828281518110612a8d57612a8d61417a565b60200101906001600160f81b031916908160001a90535080612aae81614109565b915050612a56565b50949350505050565b600054610100900460ff1680612ad8575060005460ff16155b612af45760405162461bcd60e51b815260040161070390613e3d565b600054610100900460ff161580156120f5576000805461ffff19166101011790558015612107576000805461ff001916905550565b6109c182826125f5565b612b3e600033610e43565b80612b4e5750612b4e8133610e43565b6121075760405162461bcd60e51b815260206004820152602160248201527f53656e64657220636f6e7472616374206973206e6f74207265676973746572656044820152601960fa1b6064820152608401610703565b60606000612bb3836002613feb565b612bbe906002613fbf565b6001600160401b03811115612bd557612bd5614190565b6040519080825280601f01601f191660200182016040528015612bff576020820181803683370190505b509050600360fc1b81600081518110612c1a57612c1a61417a565b60200101906001600160f81b031916908160001a905350600f60fb1b81600181518110612c4957612c4961417a565b60200101906001600160f81b031916908160001a9053506000612c6d846002613feb565b612c78906001613fbf565b90505b6001811115612cf0576f181899199a1a9b1b9c1cb0b131b232b360811b85600f1660108110612cac57612cac61417a565b1a60f81b828281518110612cc257612cc261417a565b60200101906001600160f81b031916908160001a90535060049490941c93612ce98161404d565b9050612c7b565b508315610b0b5760405162461bcd60e51b815260206004820181905260248201527f537472696e67733a20686578206c656e67746820696e73756666696369656e746044820152606401610703565b60006000805160206142a1833981519152826000015110801561066c575050602001516000805160206142a18339815191521190565b60006064841115612d8857506000612e5b565b6000612da26000805160206142a183398151915287614124565b90506000805160206142a1833981519152612dbd8683613fbf565b612dc79190614124565b905060006000805160206142a183398151915260036000805160206142a1833981519152846000805160206142a183398151915286870909089050612e1b60026000805160206142a1833981519152613fd7565b841080612e395750806000805160206142a183398151915285860914155b80612e445750848214155b15612e5457600092505050612e5b565b6001925050505b949350505050565b60006000805160206142a1833981519152612e7e838261400a565b61066c9190614124565b60006000805160206142a183398151915280600381868188890909088180612eb257612eb261414e565b84850914949350505050565b612ec66134bc565b50604080516080810182527f1800deef121f1e76426a00665e5c4479674322d4f75edadd46debd5cd992f6ed8183019081527f198e9393920d483a7260bfb731fb5d25f1aa493335a9e71297e485b7aef312c26060830152815281518083019092527f12c85ea5db8c6deb4aab71808dcb408fe3d1e7690c43d37b4ce6cc0166fa7daa82527f090689d0585ff075ec9e99ad690c3395bc4b313370b38ef355acdadcd122975b60208381019190915281019190915290565b600061066c82600001518360200151613062565b600080612f9d613500565b8e8152602081018e9052604081018d9052606081018c9052608081018b905260a081018a905260c0810189905260e081018890526101008101879052610120810186905261014081018590526101608101849052612ff961351f565b602081610180846008600019fa92508261304c5760405162461bcd60e51b815260206004820152601460248201527314185a5c9a5b99c818da1958dac819985a5b195960621b6044820152606401610703565b5115159f9e505050505050505050505050505050565b600061306e8383613136565b1561307b5750600161066c565b600061308683613169565b905060006131196130f6604080518082018252600080825260209182015281518083019092527f2b149d40ceb8aaae81be18991be06ac3b5b4c5e559dbefa33267e6dc24a138e582527e9713b03af0fed4cd2cafadeed8fdf4a74fa084e52d1852e4a2bd0685c315d29082015290565b61311361310c886131068a613169565b9061321f565b8590613332565b90613332565b805190915015801561312d57506020810151155b95945050505050565b815160009015801561314a57506020830151155b8015613157575081516001145b8015610b0b5750506020015115919050565b60408051808201909152600080825260208201526000805160206142a183398151915260008160208501518551099050600082806131a9576131a961414e565b83806131b7576131b761414e565b84806131c5576131c561414e565b60208801516131d560018861400a565b0987510884806131e7576131e761414e565b6020880151885108099050604051806040016040528082815260200184806132115761321161414e565b848508905295945050505050565b604080518082019091526000808252602082015260006000805160206142a183398151915290506000604051806040016040528083806132615761326161414e565b8651885109815260200183806132795761327961414e565b86602001518860200151099052905081806132965761329661414e565b82806132a4576132a461414e565b60208301516132b460018661400a565b09825108835281806132c8576132c861414e565b82806132d6576132d661414e565b60208301518351086132e8908461400a565b83806132f6576132f661414e565b84806133045761330461414e565b6020880151885108858061331a5761331a61414e565b60208a01518a51080908602084015250909392505050565b6040805180820190915260008082526020820152815183516000805160206142a1833981519152911161338357808061336d5761336d61414e565b8351613379908361400a565b85510882526133b8565b8081806133925761339261414e565b855161339e908461400a565b8551086133ab908361400a565b6133b59190614124565b82525b82602001518460200151106133f45780806133d5576133d561414e565b60208401516133e4908361400a565b8560200151086020830152612824565b8081806134035761340361414e565b6020860151613412908461400a565b856020015108613422908361400a565b61342c9190614124565b60208301525092915050565b82805461344490614064565b90600052602060002090601f01602090048101928261346657600085556134ac565b82601f1061347f5782800160ff198235161785556134ac565b828001600101855582156134ac579182015b828111156134ac578235825591602001919060010190613491565b506134b892915061353d565b5090565b604080516080810182526000918101828152606082019290925290819081526020016134fb604051806040016040528060008152602001600081525090565b905290565b604051806101800160405280600c906020820280368337509192915050565b60405180602001604052806001906020820280368337509192915050565b5b808211156134b8576000815560010161353e565b60008083601f84011261356457600080fd5b5081356001600160401b0381111561357b57600080fd5b6020830191508360208260051b850101111561359657600080fd5b9250929050565b600082601f8301126135ae57600080fd5b81356001600160401b038111156135c7576135c7614190565b6040516135de601f8301601f1916602001826140dd565b8181528460208386010111156135f357600080fd5b816020850160208301376000918101602001919091529392505050565b60008083601f84011261362257600080fd5b5081356001600160401b0381111561363957600080fd5b60208301915083602082850101111561359657600080fd5b60006040828403121561366357600080fd5b60405161366f81614099565b80915082518152602083015160208201525092915050565b600060a082840312156112db57600080fd5b6000602082840312156136ab57600080fd5b8135610b0b8161426b565b6000602082840312156136c857600080fd5b81518015158114610b0b57600080fd5b6000602082840312156136ea57600080fd5b5035919050565b60006020828403121561370357600080fd5b5051919050565b6000806040838503121561371d57600080fd5b82359150602083013561372f8161426b565b809150509250929050565b60008060006060848603121561374f57600080fd5b8335925060208401356137618161426b565b915060408401356001600160401b0381111561377c57600080fd5b6137888682870161359d565b9150509250925092565b6000806000604084860312156137a757600080fd5b8335925060208401356001600160401b038111156137c457600080fd5b6137d086828701613552565b9497909650939450505050565b60008060c083850312156137f057600080fd5b823591506138018460208501613687565b90509250929050565b6000806040838503121561381d57600080fd5b50508035926020909101359150565b60008060006060848603121561384157600080fd5b505081359360208301359350604090920135919050565b60006020828403121561386a57600080fd5b81356001600160e01b031981168114610b0b57600080fd5b6000806040838503121561389557600080fd5b82356138a08161426b565b915060208301356001600160401b038111156138bb57600080fd5b6138c78582860161359d565b9150509250929050565b600080602083850312156138e457600080fd5b82356001600160401b038111156138fa57600080fd5b61390685828601613610565b90969095509350505050565b600080600080600080610100878903121561392c57600080fd5b86356001600160401b038082111561394357600080fd5b61394f8a838b01613610565b909850965060208901359550604089013591508082111561396f57600080fd5b5061397c89828a01613552565b909450925061399090508860608901613687565b90509295509295509295565b6000602082840312156139ae57600080fd5b81356001600160401b038111156139c457600080fd5b612e5b8482850161359d565b600080604083850312156139e357600080fd5b82356001600160401b038111156139f957600080fd5b613a058582860161359d565b925050602083013561372f8161426b565b600060808284031215613a2857600080fd5b604051613a3481614099565b613a3e8484613651565b8152613a4d8460408501613651565b60208201529392505050565b600060208284031215613a6b57600080fd5b81356001600160401b0380821115613a8257600080fd5b9083019060a08286031215613a9657600080fd5b604051613aa2816140be565b82358152602083013560208201526040830135613abe8161426b565b60408201526060830135613ad18161426b565b6060820152608083013582811115613ae857600080fd5b613af48782860161359d565b60808301525095945050505050565b81835281816020850137506000828201602090810191909152601f909101601f19169091010190565b60008151808452613b44816020860160208601614021565b601f01601f19169290920160200192915050565b85815284602082015283604082015282606082015260008251613b82816080850160208701614021565b919091016080019695505050505050565b60008451613ba5818460208901614021565b8201838582376000930192835250909392505050565b8183823760009101908152919050565b60008251613bdd818460208701614021565b9190910192915050565b7f416363657373436f6e74726f6c3a206163636f756e7420000000000000000000815260008351613c1f816017850160208801614021565b7001034b99036b4b9b9b4b733903937b6329607d1b6017918401918201528351613c50816028840160208801614021565b01602801949350505050565b6001600160a01b0383168152604060208201819052600090612e5b90830184613b2c565b6020808252825182820181905260009190848201906040850190845b81811015613cc15783516001600160a01b031683529284019291840191600101613c9c565b50909695505050505050565b8481526001600160a01b03841660208201526060604082018190526000906129eb9083018486613b03565b602081526000610b0b6020830184613b2c565b60408152600080855481600182811c915080831680613d2b57607f831692505b6020808410821415613d4b57634e487b7160e01b86526022600452602486fd5b6040880184905260608801828015613d6a5760018114613d7b57613da6565b60ff19871682528282019750613da6565b60008d81526020902060005b87811015613da057815484820152908601908401613d87565b83019850505b50508786038189015250505050506129eb818587613b03565b6020808252818101527f434841494e5f434f4e4e4543544f525f524f4c45206973207265717569726564604082015260600190565b60208082526029908201527f45585452415f434f4e54524143545f5245474953545241525f524f4c45206973604082015268081c995c5d5a5c995960ba1b606082015260800190565b6020808252602e908201527f496e697469616c697a61626c653a20636f6e747261637420697320616c72656160408201526d191e481a5b9a5d1a585b1a5e995960921b606082015260800190565b60208082526024908201527f44657374696e6174696f6e20636861696e206973206e6f7420696e697469616c6040820152631a5e995960e21b606082015260800190565b60208082526030908201527f44657374696e6174696f6e20636861696e20686173682063616e6e6f7420626560408201526f1032b8bab0b6103a379034ba39b2b63360811b606082015260800190565b60208082526024908201527f457874726120636f6e747261637420697320616c726561647920726567697374604082015263195c995960e21b606082015260800190565b6000808335601e19843603018112613f7a57600080fd5b8301803591506001600160401b03821115613f9457600080fd5b60200191503681900382131561359657600080fd5b60008235605e19833603018112613bdd57600080fd5b60008219821115613fd257613fd2614138565b500190565b600082613fe657613fe661414e565b500490565b600081600019048311821515161561400557614005614138565b500290565b60008282101561401c5761401c614138565b500390565b60005b8381101561403c578181015183820152602001614024565b838111156110055750506000910152565b60008161405c5761405c614138565b506000190190565b600181811c9082168061407857607f821691505b602082108114156112db57634e487b7160e01b600052602260045260246000fd5b604081018181106001600160401b03821117156140b8576140b8614190565b60405250565b60a081018181106001600160401b03821117156140b8576140b8614190565b601f8201601f191681016001600160401b038111828210171561410257614102614190565b6040525050565b600060001982141561411d5761411d614138565b5060010190565b6000826141335761413361414e565b500690565b634e487b7160e01b600052601160045260246000fd5b634e487b7160e01b600052601260045260246000fd5b634e487b7160e01b600052603160045260246000fd5b634e487b7160e01b600052603260045260246000fd5b634e487b7160e01b600052604160045260246000fd5b600060033d11156141bf5760046000803e5060005160e01c5b90565b600060443d10156141d05790565b6040516003193d81016004833e81513d6001600160401b0381602484011181841117156141ff57505050505090565b82850191508151818111156142175750505050505090565b843d87010160208285010111156142315750505050505090565b614240602082860101876140dd565b509095945050505050565b60008060233d1115614267576020600460003e50506000516001905b9091565b6001600160a01b038116811461210757600080fdfe6155b5aac15ce9aa193c0527a6f43be0a36a7e2e7496c2b615c0e5f92284277330644e72e131a029b85045b68181585d97816a916871ca8d3c208c16d87cfd472785f35fe7d8743aa971942d8474737bb31895d396eff2cc688a481e0221e1914b7d3908626050c0d998d657e4e6f31cb43ed736bf2b9a1a0192494537ca0e59a26469706673582212205ca5266d85326357c17741a6ace249b95dc0dcb2016c05d4a8370dcbab9ff30264736f6c63430008060033",
  "linkReferences": {},
  "deployedLinkReferences": {}
}