{
  "_format": "hh-sol-artifact-1",
  "contractName": "TokenManagerERC721WithMetadata",
  "sourceName": "contracts/schain/TokenManagers/TokenManagerERC721WithMetadata.sol",
  "abi": [
    {
      "anonymous": false,
      "inputs": [
        {
          "indexed": false,
          "internalType": "address",
          "name": "oldValue",
          "type": "address"
        },
        {
          "indexed": false,
          "internalType": "address",
          "name": "newValue",
          "type": "address"
        }
      ],
      "name": "DepositBoxWasChanged",
      "type": "event"
    },
    {
      "anonymous": false,
      "inputs": [
        {
          "indexed": true,
          "internalType": "bytes32",
          "name": "chainHash",
          "type": "bytes32"
        },
        {
          "indexed": true,
          "internalType": "address",
          "name": "erc721OnMainChain",
          "type": "address"
        },
        {
          "indexed": true,
          "internalType": "address",
          "name": "erc721OnSchain",
          "type": "address"
        }
      ],
      "name": "ERC721TokenAdded",
      "type": "event"
    },
    {
      "anonymous": false,
      "inputs": [
        {
          "indexed": true,
          "internalType": "bytes32",
          "name": "chainHash",
          "type": "bytes32"
        },
        {
          "indexed": true,
          "internalType": "address",
          "name": "erc721OnMainChain",
          "type": "address"
        },
        {
          "indexed": true,
          "internalType": "address",
          "name": "erc721OnSchain",
          "type": "address"
        }
      ],
      "name": "ERC721TokenCreated",
      "type": "event"
    },
    {
      "anonymous": false,
      "inputs": [
        {
          "indexed": true,
          "internalType": "bytes32",
          "name": "chainHash",
          "type": "bytes32"
        },
        {
          "indexed": true,
          "internalType": "address",
          "name": "contractOnMainnet",
          "type": "address"
        },
        {
          "indexed": false,
          "internalType": "uint256",
          "name": "tokenId",
          "type": "uint256"
        }
      ],
      "name": "ERC721TokenReady",
      "type": "event"
    },
    {
      "anonymous": false,
      "inputs": [
        {
          "indexed": true,
          "internalType": "bytes32",
          "name": "chainHash",
          "type": "bytes32"
        },
        {
          "indexed": true,
          "internalType": "address",
          "name": "erc721OnMainChain",
          "type": "address"
        },
        {
          "indexed": true,
          "internalType": "address",
          "name": "erc721OnSchain",
          "type": "address"
        },
        {
          "indexed": false,
          "internalType": "uint256",
          "name": "tokenId",
          "type": "uint256"
        }
      ],
      "name": "ERC721TokenReceived",
      "type": "event"
    },
    {
      "anonymous": false,
      "inputs": [
        {
          "indexed": true,
          "internalType": "bytes32",
          "name": "role",
          "type": "bytes32"
        },
        {
          "indexed": true,
          "internalType": "bytes32",
          "name": "previousAdminRole",
          "type": "bytes32"
        },
        {
          "indexed": true,
          "internalType": "bytes32",
          "name": "newAdminRole",
          "type": "bytes32"
        }
      ],
      "name": "RoleAdminChanged",
      "type": "event"
    },
    {
      "anonymous": false,
      "inputs": [
        {
          "indexed": true,
          "internalType": "bytes32",
          "name": "role",
          "type": "bytes32"
        },
        {
          "indexed": true,
          "internalType": "address",
          "name": "account",
          "type": "address"
        },
        {
          "indexed": true,
          "internalType": "address",
          "name": "sender",
          "type": "address"
        }
      ],
      "name": "RoleGranted",
      "type": "event"
    },
    {
      "anonymous": false,
      "inputs": [
        {
          "indexed": true,
          "internalType": "bytes32",
          "name": "role",
          "type": "bytes32"
        },
        {
          "indexed": true,
          "internalType": "address",
          "name": "account",
          "type": "address"
        },
        {
          "indexed": true,
          "internalType": "address",
          "name": "sender",
          "type": "address"
        }
      ],
      "name": "RoleRevoked",
      "type": "event"
    },
    {
      "inputs": [],
      "name": "AUTOMATIC_DEPLOY_ROLE",
      "outputs": [
        {
          "internalType": "bytes32",
          "name": "",
          "type": "bytes32"
        }
      ],
      "stateMutability": "view",
      "type": "function"
    },
    {
      "inputs": [],
      "name": "DEFAULT_ADMIN_ROLE",
      "outputs": [
        {
          "internalType": "bytes32",
          "name": "",
          "type": "bytes32"
        }
      ],
      "stateMutability": "view",
      "type": "function"
    },
    {
      "inputs": [],
      "name": "MAINNET_HASH",
      "outputs": [
        {
          "internalType": "bytes32",
          "name": "",
          "type": "bytes32"
        }
      ],
      "stateMutability": "view",
      "type": "function"
    },
    {
      "inputs": [],
      "name": "MAINNET_NAME",
      "outputs": [
        {
          "internalType": "string",
          "name": "",
          "type": "string"
        }
      ],
      "stateMutability": "view",
      "type": "function"
    },
    {
      "inputs": [],
      "name": "TOKEN_REGISTRAR_ROLE",
      "outputs": [
        {
          "internalType": "bytes32",
          "name": "",
          "type": "bytes32"
        }
      ],
      "stateMutability": "view",
      "type": "function"
    },
    {
      "inputs": [
        {
          "internalType": "string",
          "name": "targetChainName",
          "type": "string"
        },
        {
          "internalType": "address",
          "name": "erc721OnMainChain",
          "type": "address"
        },
        {
          "internalType": "address",
          "name": "erc721OnSchain",
          "type": "address"
        }
      ],
      "name": "addERC721TokenByOwner",
      "outputs": [],
      "stateMutability": "nonpayable",
      "type": "function"
    },
    {
      "inputs": [
        {
          "internalType": "string",
          "name": "schainName",
          "type": "string"
        },
        {
          "internalType": "address",
          "name": "newTokenManager",
          "type": "address"
        }
      ],
      "name": "addTokenManager",
      "outputs": [],
      "stateMutability": "nonpayable",
      "type": "function"
    },
    {
      "inputs": [
        {
          "internalType": "contract ERC721OnChain",
          "name": "",
          "type": "address"
        }
      ],
      "name": "addedClones",
      "outputs": [
        {
          "internalType": "bool",
          "name": "",
          "type": "bool"
        }
      ],
      "stateMutability": "view",
      "type": "function"
    },
    {
      "inputs": [],
      "name": "automaticDeploy",
      "outputs": [
        {
          "internalType": "bool",
          "name": "",
          "type": "bool"
        }
      ],
      "stateMutability": "view",
      "type": "function"
    },
    {
      "inputs": [
        {
          "internalType": "address",
          "name": "newDepositBox",
          "type": "address"
        }
      ],
      "name": "changeDepositBoxAddress",
      "outputs": [],
      "stateMutability": "nonpayable",
      "type": "function"
    },
    {
      "inputs": [
        {
          "internalType": "bytes32",
          "name": "",
          "type": "bytes32"
        },
        {
          "internalType": "address",
          "name": "",
          "type": "address"
        }
      ],
      "name": "clonesErc721",
      "outputs": [
        {
          "internalType": "contract ERC721OnChain",
          "name": "",
          "type": "address"
        }
      ],
      "stateMutability": "view",
      "type": "function"
    },
    {
      "inputs": [],
      "name": "communityLocker",
      "outputs": [
        {
          "internalType": "contract ICommunityLocker",
          "name": "",
          "type": "address"
        }
      ],
      "stateMutability": "view",
      "type": "function"
    },
    {
      "inputs": [],
      "name": "depositBox",
      "outputs": [
        {
          "internalType": "address",
          "name": "",
          "type": "address"
        }
      ],
      "stateMutability": "view",
      "type": "function"
    },
    {
      "inputs": [
        {
          "internalType": "address",
          "name": "",
          "type": "address"
        }
      ],
      "name": "deprecatedClonesErc721",
      "outputs": [
        {
          "internalType": "contract ERC721OnChain",
          "name": "",
          "type": "address"
        }
      ],
      "stateMutability": "view",
      "type": "function"
    },
    {
      "inputs": [],
      "name": "disableAutomaticDeploy",
      "outputs": [],
      "stateMutability": "nonpayable",
      "type": "function"
    },
    {
      "inputs": [],
      "name": "enableAutomaticDeploy",
      "outputs": [],
      "stateMutability": "nonpayable",
      "type": "function"
    },
    {
      "inputs": [
        {
          "internalType": "address",
          "name": "contractOnMainnet",
          "type": "address"
        },
        {
          "internalType": "uint256",
          "name": "tokenId",
          "type": "uint256"
        }
      ],
      "name": "exitToMainERC721",
      "outputs": [],
      "stateMutability": "nonpayable",
      "type": "function"
    },
    {
      "inputs": [
        {
          "internalType": "bytes32",
          "name": "role",
          "type": "bytes32"
        }
      ],
      "name": "getRoleAdmin",
      "outputs": [
        {
          "internalType": "bytes32",
          "name": "",
          "type": "bytes32"
        }
      ],
      "stateMutability": "view",
      "type": "function"
    },
    {
      "inputs": [
        {
          "internalType": "bytes32",
          "name": "role",
          "type": "bytes32"
        },
        {
          "internalType": "uint256",
          "name": "index",
          "type": "uint256"
        }
      ],
      "name": "getRoleMember",
      "outputs": [
        {
          "internalType": "address",
          "name": "",
          "type": "address"
        }
      ],
      "stateMutability": "view",
      "type": "function"
    },
    {
      "inputs": [
        {
          "internalType": "bytes32",
          "name": "role",
          "type": "bytes32"
        }
      ],
      "name": "getRoleMemberCount",
      "outputs": [
        {
          "internalType": "uint256",
          "name": "",
          "type": "uint256"
        }
      ],
      "stateMutability": "view",
      "type": "function"
    },
    {
      "inputs": [
        {
          "internalType": "bytes32",
          "name": "role",
          "type": "bytes32"
        },
        {
          "internalType": "address",
          "name": "account",
          "type": "address"
        }
      ],
      "name": "grantRole",
      "outputs": [],
      "stateMutability": "nonpayable",
      "type": "function"
    },
    {
      "inputs": [
        {
          "internalType": "bytes32",
          "name": "role",
          "type": "bytes32"
        },
        {
          "internalType": "address",
          "name": "account",
          "type": "address"
        }
      ],
      "name": "hasRole",
      "outputs": [
        {
          "internalType": "bool",
          "name": "",
          "type": "bool"
        }
      ],
      "stateMutability": "view",
      "type": "function"
    },
    {
      "inputs": [
        {
          "internalType": "string",
          "name": "schainName",
          "type": "string"
        }
      ],
      "name": "hasTokenManager",
      "outputs": [
        {
          "internalType": "bool",
          "name": "",
          "type": "bool"
        }
      ],
      "stateMutability": "view",
      "type": "function"
    },
    {
      "inputs": [
        {
          "internalType": "string",
          "name": "newChainName",
          "type": "string"
        },
        {
          "internalType": "contract IMessageProxyForSchain",
          "name": "newMessageProxy",
          "type": "address"
        },
        {
          "internalType": "contract ITokenManagerLinker",
          "name": "newIMALinker",
          "type": "address"
        },
        {
          "internalType": "contract ICommunityLocker",
          "name": "newCommunityLocker",
          "type": "address"
        },
        {
          "internalType": "address",
          "name": "newDepositBox",
          "type": "address"
        }
      ],
      "name": "initialize",
      "outputs": [],
      "stateMutability": "nonpayable",
      "type": "function"
    },
    {
      "inputs": [
        {
          "internalType": "address[]",
          "name": "contracts",
          "type": "address[]"
        }
      ],
      "name": "initializeAllClonesERC721",
      "outputs": [],
      "stateMutability": "nonpayable",
      "type": "function"
    },
    {
      "inputs": [
        {
          "internalType": "string",
          "name": "newSchainName",
          "type": "string"
        },
        {
          "internalType": "contract IMessageProxyForSchain",
          "name": "newMessageProxy",
          "type": "address"
        },
        {
          "internalType": "contract ITokenManagerLinker",
          "name": "newIMALinker",
          "type": "address"
        },
        {
          "internalType": "contract ICommunityLocker",
          "name": "newCommunityLocker",
          "type": "address"
        },
        {
          "internalType": "address",
          "name": "newDepositBox",
          "type": "address"
        }
      ],
      "name": "initializeTokenManager",
      "outputs": [],
      "stateMutability": "nonpayable",
      "type": "function"
    },
    {
      "inputs": [],
      "name": "messageProxy",
      "outputs": [
        {
          "internalType": "contract IMessageProxyForSchain",
          "name": "",
          "type": "address"
        }
      ],
      "stateMutability": "view",
      "type": "function"
    },
    {
      "inputs": [
        {
          "internalType": "bytes32",
          "name": "fromChainHash",
          "type": "bytes32"
        },
        {
          "internalType": "address",
          "name": "sender",
          "type": "address"
        },
        {
          "internalType": "bytes",
          "name": "data",
          "type": "bytes"
        }
      ],
      "name": "postMessage",
      "outputs": [],
      "stateMutability": "nonpayable",
      "type": "function"
    },
    {
      "inputs": [
        {
          "internalType": "string",
          "name": "schainName",
          "type": "string"
        }
      ],
      "name": "removeTokenManager",
      "outputs": [],
      "stateMutability": "nonpayable",
      "type": "function"
    },
    {
      "inputs": [
        {
          "internalType": "bytes32",
          "name": "role",
          "type": "bytes32"
        },
        {
          "internalType": "address",
          "name": "account",
          "type": "address"
        }
      ],
      "name": "renounceRole",
      "outputs": [],
      "stateMutability": "nonpayable",
      "type": "function"
    },
    {
      "inputs": [
        {
          "internalType": "bytes32",
          "name": "role",
          "type": "bytes32"
        },
        {
          "internalType": "address",
          "name": "account",
          "type": "address"
        }
      ],
      "name": "revokeRole",
      "outputs": [],
      "stateMutability": "nonpayable",
      "type": "function"
    },
    {
      "inputs": [],
      "name": "schainHash",
      "outputs": [
        {
          "internalType": "bytes32",
          "name": "",
          "type": "bytes32"
        }
      ],
      "stateMutability": "view",
      "type": "function"
    },
    {
      "inputs": [
        {
          "internalType": "bytes4",
          "name": "interfaceId",
          "type": "bytes4"
        }
      ],
      "name": "supportsInterface",
      "outputs": [
        {
          "internalType": "bool",
          "name": "",
          "type": "bool"
        }
      ],
      "stateMutability": "view",
      "type": "function"
    },
    {
      "inputs": [],
      "name": "tokenManagerLinker",
      "outputs": [
        {
          "internalType": "contract ITokenManagerLinker",
          "name": "",
          "type": "address"
        }
      ],
      "stateMutability": "view",
      "type": "function"
    },
    {
      "inputs": [
        {
          "internalType": "bytes32",
          "name": "",
          "type": "bytes32"
        }
      ],
      "name": "tokenManagers",
      "outputs": [
        {
          "internalType": "address",
          "name": "",
          "type": "address"
        }
      ],
      "stateMutability": "view",
      "type": "function"
    },
    {
      "inputs": [
        {
          "internalType": "string",
          "name": "targetSchainName",
          "type": "string"
        },
        {
          "internalType": "address",
          "name": "contractOnMainnet",
          "type": "address"
        },
        {
          "internalType": "uint256",
          "name": "tokenId",
          "type": "uint256"
        }
      ],
      "name": "transferToSchainERC721",
      "outputs": [],
      "stateMutability": "nonpayable",
      "type": "function"
    },
    {
      "inputs": [
        {
          "internalType": "address",
          "name": "",
          "type": "address"
        },
        {
          "internalType": "uint256",
          "name": "",
          "type": "uint256"
        }
      ],
      "name": "transferredAmount",
      "outputs": [
        {
          "internalType": "bytes32",
          "name": "",
          "type": "bytes32"
        }
      ],
      "stateMutability": "view",
      "type": "function"
    }
  ],
  "bytecode": "0x608060405234801561001057600080fd5b50616ebb806100206000396000f3fe60806040523480156200001157600080fd5b5060043610620002555760003560e01c80636d6112861162000149578063b9581c5011620000c7578063cc5b715b1162000086578063cc5b715b14620005c9578063d547741f14620005f1578063dec2deb61462000608578063e4df560b146200061d578063edcc12b5146200063457600080fd5b8063b9581c501462000543578063c0e312dc146200054d578063ca15c8731462000564578063ca99be02146200057b578063cb703bff14620005b257600080fd5b80639010d07c11620001145780639010d07c14620004ba57806391d1485414620004d1578063a217fddf14620004e8578063aebaaca914620004f1578063b4a0522b146200051757600080fd5b80636d61128614620004645780636d6c68e614620004785780636e81ae28146200048c578063884cee5a14620004a357600080fd5b80632f2ff15d11620001d75780633fa194ce11620001a25780633fa194ce14620003d557806350f4428014620003ec5780635573b8b61462000422578063680ae2fe14620004365780636ce681d2146200044d57600080fd5b80632f2ff15d146200038657806336568abe146200039d57806339927cf914620003b45780633b690b6b14620003cb57600080fd5b80630f1a8f7411620002245780630f1a8f7414620002e65780631e0594e3146200032b578063248a9ca3146200034257806328c5e18214620003685780632dc151de146200037257600080fd5b806301ffc9a7146200025a578063029996b814620002865780630b6c672314620002925780630b885ac314620002cf575b600080fd5b620002716200026b3660046200363e565b6200064b565b60405190151581526020015b60405180910390f35b6200029062000679565b005b620002c0620002a3366004620034a1565b60d260209081526000928352604080842090915290825290205481565b6040519081526020016200027d565b62000290620002e036600462003879565b620006d1565b62000312620002f73660046200356d565b60ce602052600090815260409020546001600160a01b031681565b6040516001600160a01b0390911681526020016200027d565b620002906200033c36600462003798565b620006e7565b620002c0620003533660046200356d565b60009081526065602052604090206001015490565b620002c062000915565b60ca5462000312906001600160a01b031681565b620002906200039736600462003587565b62000960565b62000290620003ae36600462003587565b6200098b565b62000271620003c536600462003688565b620009b1565b620002c060cc5481565b620002c060008051602062006e6683398151915281565b620004136040518060400160405280600781526020016613585a5b9b995d60ca1b81525081565b6040516200027d919062003be8565b60c95462000312906001600160a01b031681565b620002906200044736600462003729565b62000a0e565b620002906200045e36600462003879565b62000d37565b60cd5462000312906001600160a01b031681565b60cb5462000312906001600160a01b031681565b620002906200049d366004620034a1565b62000f0d565b62000290620004b4366004620035ba565b62000fd3565b62000312620004cb3660046200361b565b62001140565b62000271620004e236600462003587565b62001161565b620002c0600081565b620002716200050236600462003461565b60d06020526000908152604090205460ff1681565b620003126200052836600462003461565b60cf602052600090815260409020546001600160a01b031681565b620002906200118c565b620002906200055e36600462003688565b620011d5565b620002c0620005753660046200356d565b620012f3565b620003126200058c36600462003587565b60d16020908152600092835260408084209091529082529020546001600160a01b031681565b62000290620005c3366004620036cd565b6200130c565b620002c07ffda70c2cc66a36c14884ee85424961f51b1d92b4494751699b6d105b3bcbcba881565b620002906200060236600462003587565b62001493565b60cd546200027190600160a01b900460ff1681565b620002906200062e366004620034d0565b6200149f565b620002906200064536600462003461565b6200177f565b60006001600160e01b03198216635a05180f60e01b148062000673575062000673826200189b565b92915050565b6200069460008051602062006e668339815191523362001161565b620006bc5760405162461bcd60e51b8152600401620006b39062003c26565b60405180910390fd5b60cd805460ff60a01b1916600160a01b179055565b620006e0858585858562000d37565b5050505050565b83838080601f0160208091040260200160405190810160405280939291908181526020018383808284376000920182905250604051339450909250620007339150849060200162003af6565b60408051601f1981840301815282825280516020918201208383018352600784526613585a5b9b995d60ca1b8483015291519193506200077592910162003af6565b60405160208183030381529060405280519060200120811415620007f55760405162461bcd60e51b815260206004820152603060248201527f546869732066756e6374696f6e206973206e6f7420666f72207472616e73666560448201526f1c9c9a5b99c81d1bc813585a5b9b995d60821b6064820152608401620006b3565b6001600160a01b0382166200084d5760405162461bcd60e51b815260206004820152601a60248201527f496e636f727265637420726563656976657220616464726573730000000000006044820152606401620006b3565b600081815260ce60205260409020546001600160a01b0316620008b35760405162461bcd60e51b815260206004820152601f60248201527f496e636f727265637420546f6b656e204d616e616765722061646472657373006044820152606401620006b3565b60008787604051602001620008ca92919062003ae6565b60408051601f198184030181529181528151602092830120600081815260ce9093529120549091506200090b9082906001600160a01b0316883389620018d2565b5050505050505050565b6040518060400160405280600781526020016613585a5b9b995d60ca1b81525060405160200162000947919062003af6565b6040516020818303038152906040528051906020012081565b6200096c828262001d3b565b600082815260976020526040902062000986908262001d65565b505050565b62000997828262001d7c565b600082815260976020526040902062000986908262001dfa565b6000806001600160a01b031660ce60008585604051602001620009d692919062003ae6565b60408051808303601f19018152918152815160209283012083529082019290925201600020546001600160a01b031614159392505050565b62000a3a7ffda70c2cc66a36c14884ee85424961f51b1d92b4494751699b6d105b3bcbcba83362001161565b62000a885760405162461bcd60e51b815260206004820181905260248201527f544f4b454e5f5245474953545241525f524f4c452069732072657175697265646044820152606401620006b3565b60c954604051634ccd5cd560e11b81526001600160a01b039091169063999ab9aa9062000abc908790879060040162003bb9565b60206040518083038186803b15801562000ad557600080fd5b505afa15801562000aea573d6000803e3d6000fd5b505050506040513d601f19601f8201168201806040525081019062000b10919062003549565b62000b575760405162461bcd60e51b815260206004820152601660248201527510da185a5b881a5cc81b9bdd0818dbdb9b9958dd195960521b6044820152606401620006b3565b6001600160a01b0381163b62000bb05760405162461bcd60e51b815260206004820152601f60248201527f476976656e2061646472657373206973206e6f74206120636f6e7472616374006044820152606401620006b3565b6000848460405160200162000bc792919062003ae6565b60408051601f198184030181529181528151602092830120600081815260d184528281206001600160a01b03888116835294529190912054909250161562000c4b5760405162461bcd60e51b8152602060048201526016602482015275436f756c64206e6f742072656c696e6b20636c6f6e6560501b6044820152606401620006b3565b6001600160a01b038216600090815260d0602052604090205460ff161562000cb65760405162461bcd60e51b815260206004820152601760248201527f436c6f6e652077617320616c72656164792061646465640000000000000000006044820152606401620006b3565b600081815260d1602090815260408083206001600160a01b0387811680865291845282852080546001600160a01b031916918816918217905580855260d0909352818420805460ff1916600117905590519192909184917f11bec40858c3e219ac2d82dd307a6989e3ea72d1c463dfce7376c149d5ccf30c91a45050505050565b600054610100900460ff168062000d51575060005460ff16155b62000d705760405162461bcd60e51b8152600401620006b39062003c67565b600054610100900460ff1615801562000d93576000805461ffff19166101011790555b6001600160a01b03821662000deb5760405162461bcd60e51b815260206004820181905260248201527f4465706f736974426f7820616464726573732068617320746f206265207365746044820152606401620006b3565b62000df562001e11565b62000e0260003362001eab565b62000e1d60008051602062006e668339815191523362001eab565b62000e497ffda70c2cc66a36c14884ee85424961f51b1d92b4494751699b6d105b3bcbcba83362001eab565b8560405160200162000e5c919062003af6565b60408051601f19818403018152828252805160209182012060cc5560c980546001600160a01b038a81166001600160a01b03199283161790925560ca80548a841690831617905560cb805489841690831617905560cd8054928816929091168217905560008452908301527fc968af77923193016f61d74ba6827296db5e1f37ec4fab3ad1ef20e193395e59910160405180910390a1801562000f05576000805461ff00191690555b505050505050565b60cb546040516311be333d60e11b81523360048201526001600160a01b039091169063237c667a90602401600060405180830381600087803b15801562000f5357600080fd5b505af115801562000f68573d6000803e3d6000fd5b5050505062000fcf6040518060400160405280600781526020016613585a5b9b995d60ca1b81525060405160200162000fa2919062003af6565b60408051601f19818403018152919052805160209091012060cd546001600160a01b0316843385620018d2565b5050565b60c9546001600160a01b031633146200102f5760405162461bcd60e51b815260206004820152601c60248201527f53656e646572206973206e6f742061204d65737361676550726f7879000000006044820152606401620006b3565b838360cc5482141580156200104b57506200104b828262001eb7565b620010995760405162461bcd60e51b815260206004820152601b60248201527f526563656976657220636861696e20697320696e636f727265637400000000006044820152606401620006b3565b6000620010a7858562001f42565b90506000600e82600e811115620010c257620010c262003f4b565b1480620010e35750600d82600e811115620010e157620010e162003f4b565b145b15620010fe57620010f688878762001f96565b90506200090b565b60405162461bcd60e51b815260206004820152601660248201527526b2b9b9b0b3b2aa3cb8329034b9903ab735b737bbb760511b6044820152606401620006b3565b60008281526097602052604081206200115a908362002596565b9392505050565b60009182526065602090815260408084206001600160a01b0393909316845291905290205460ff1690565b620011a760008051602062006e668339815191523362001161565b620011c65760405162461bcd60e51b8152600401620006b39062003c26565b60cd805460ff60a01b19169055565b60ca546001600160a01b0316331480620011f75750620011f760003362001161565b6200123d5760405162461bcd60e51b81526020600482015260156024820152742737ba1030baba3437b934bd32b21031b0b63632b960591b6044820152606401620006b3565b600082826040516020016200125492919062003ae6565b60408051601f198184030181529181528151602092830120600081815260ce9093529120549091506001600160a01b0316620012d35760405162461bcd60e51b815260206004820152601860248201527f546f6b656e204d616e61676572206973206e6f742073657400000000000000006044820152606401620006b3565b600090815260ce6020526040902080546001600160a01b03191690555050565b60008181526097602052604081206200067390620025a4565b60ca546001600160a01b03163314806200132e57506200132e60003362001161565b620013745760405162461bcd60e51b81526020600482015260156024820152742737ba1030baba3437b934bd32b21031b0b63632b960591b6044820152606401620006b3565b600083836040516020016200138b92919062003ae6565b60408051601f198184030181529181528151602092830120600081815260ce9093529120549091506001600160a01b0316156200140b5760405162461bcd60e51b815260206004820152601c60248201527f546f6b656e204d616e6167657220697320616c726561647920736574000000006044820152606401620006b3565b6001600160a01b038216620014635760405162461bcd60e51b815260206004820152601f60248201527f496e636f727265637420546f6b656e204d616e616765722061646472657373006044820152606401620006b3565b600090815260ce6020526040902080546001600160a01b0319166001600160a01b03929092169190911790555050565b620009978282620025af565b620014ac60003362001161565b620014fa5760405162461bcd60e51b815260206004820152601860248201527f53656e646572206973206e6f7420617574686f72697a656400000000000000006044820152606401620006b3565b60005b8181101562000986576200155d60cf600085858581811062001523576200152362003f77565b90506020020160208101906200153a919062003461565b6001600160a01b039081168252602082019290925260400160002054163b151590565b8015620015dc5750620015da60d160006040518060400160405280600781526020016613585a5b9b995d60ca1b8152506040516020016200159f919062003af6565b604051602081830303815290604052805190602001208152602001908152602001600020600085858581811062001523576200152362003f77565b155b156200176a5760cf6000848484818110620015fb57620015fb62003f77565b905060200201602081019062001612919062003461565b6001600160a01b03166001600160a01b0316815260200190815260200160002060009054906101000a90046001600160a01b031660d160006040518060400160405280600781526020016613585a5b9b995d60ca1b8152506040516020016200167c919062003af6565b6040516020818303038152906040528051906020012081526020019081526020016000206000858585818110620016b757620016b762003f77565b9050602002016020810190620016ce919062003461565b6001600160a01b03166001600160a01b0316815260200190815260200160002060006101000a8154816001600160a01b0302191690836001600160a01b0316021790555060cf60008484848181106200172b576200172b62003f77565b905060200201602081019062001742919062003461565b6001600160a01b03168152602081019190915260400160002080546001600160a01b03191690555b80620017768162003ef4565b915050620014fd565b6200178c60003362001161565b620017da5760405162461bcd60e51b815260206004820152601e60248201527f44454641554c545f41444d494e5f524f4c4520697320726571756972656400006044820152606401620006b3565b6001600160a01b038116620018325760405162461bcd60e51b815260206004820181905260248201527f4465706f736974426f7820616464726573732068617320746f206265207365746044820152606401620006b3565b60cd54604080516001600160a01b03928316815291831660208301527fc968af77923193016f61d74ba6827296db5e1f37ec4fab3ad1ef20e193395e59910160405180910390a160cd80546001600160a01b0319166001600160a01b0392909216919091179055565b60006001600160e01b03198216637965db0b60e01b14806200067357506301ffc9a760e01b6001600160e01b031983161462000673565b600085815260d1602090815260408083206001600160a01b038088168552925282205416806200196f57506001600160a01b038416600090815260d06020526040902054849060ff16156200196a5760405162461bcd60e51b815260206004820152601a60248201527f496e636f7272656374206d61696e20636861696e20746f6b656e0000000000006044820152606401620006b3565b600191505b6001600160a01b0381163b620019c85760405162461bcd60e51b815260206004820152601860248201527f4e6f20746f6b656e20636c6f6e65206f6e2073636861696e00000000000000006044820152606401620006b3565b60405163020604bf60e21b81526004810184905230906001600160a01b0383169063081812fc9060240160206040518083038186803b15801562001a0b57600080fd5b505afa15801562001a20573d6000803e3d6000fd5b505050506040513d601f19601f8201168201806040525081019062001a46919062003481565b6001600160a01b03161462001a9e5760405162461bcd60e51b815260206004820152601860248201527f4e6f7420616c6c6f7765642045524337323120546f6b656e00000000000000006044820152606401620006b3565b600062001ab986868662001ab38689620025d9565b6200265c565b9050821562001c02576040518060400160405280600781526020016613585a5b9b995d60ca1b81525060405160200162001af4919062003af6565b6040516020818303038152906040528051906020012088141562001b775760405162461bcd60e51b815260206004820152603360248201527f4d61696e20636861696e20746f6b656e20636f756c64206e6f74206265207472604482015272185b9cd9995c9959081d1bc813585a5b9b995d606a1b6064820152608401620006b3565b62001b8588833387620026cf565b905062001b9488838662002783565b6040516323b872dd60e01b8152336004820152306024820152604481018590526001600160a01b038316906323b872dd90606401600060405180830381600087803b15801562001be357600080fd5b505af115801562001bf8573d6000803e3d6000fd5b5050505062001cc7565b6040516323b872dd60e01b8152336004820152306024820152604481018590526001600160a01b038316906323b872dd90606401600060405180830381600087803b15801562001c5157600080fd5b505af115801562001c66573d6000803e3d6000fd5b5050604051630852cd8d60e31b8152600481018790526001600160a01b03851692506342966c689150602401600060405180830381600087803b15801562001cad57600080fd5b505af115801562001cc2573d6000803e3d6000fd5b505050505b60c954604051634a24490160e11b81526001600160a01b039091169063944892029062001cfd908b908b90869060040162003b8d565b600060405180830381600087803b15801562001d1857600080fd5b505af115801562001d2d573d6000803e3d6000fd5b505050505050505050505050565b60008281526065602052604090206001015462001d5981336200282b565b6200098683836200289a565b60006200115a836001600160a01b03841662002924565b6001600160a01b038116331462001dee5760405162461bcd60e51b815260206004820152602f60248201527f416363657373436f6e74726f6c3a2063616e206f6e6c792072656e6f756e636560448201526e103937b632b9903337b91039b2b63360891b6064820152608401620006b3565b62000fcf828262002976565b60006200115a836001600160a01b038416620029e0565b600054610100900460ff168062001e2b575060005460ff16155b62001e4a5760405162461bcd60e51b8152600401620006b39062003c67565b600054610100900460ff1615801562001e6d576000805461ffff19166101011790555b62001e7762002ae4565b62001e8162002ae4565b62001e8b62002ae4565b62001e9562002ae4565b801562001ea8576000805461ff00191690555b50565b6200096c828262002b54565b60006040518060400160405280600781526020016613585a5b9b995d60ca1b81525060405160200162001eeb919062003af6565b60405160208183030381529060405280519060200120831462001f2b57600083815260ce60205260409020546001600160a01b038381169116146200115a565b5060cd546001600160a01b03908116911614919050565b60008062001f53838501856200356d565b905062001f6260208262003f12565b62001f885762001f7f62001f798483818862003e24565b62001f42565b91505062000673565b62001f7f838501856200366a565b60008062001fa5848462001f42565b905060008080606081600d86600e81111562001fc55762001fc562003f4b565b14156200205757600062001fda8a8a62002b60565b90508060000151604001519550806000015160200151945080600001516060015193508060200151925060d160008c81526020019081526020016000206000866001600160a01b03166001600160a01b0316815260200190815260200160002060009054906101000a90046001600160a01b031691505062002227565b6000620020658a8a62002c2b565b9050806000015160000151604001519550806000015160000151602001519450806000015160000151606001519350806000015160200151925060d160008c81526020019081526020016000206000866001600160a01b03166001600160a01b0316815260200190815260200160002060009054906101000a90046001600160a01b0316915060006001600160a01b0316826001600160a01b03161415620022255760cd54600160a01b900460ff16620021625760405162461bcd60e51b815260206004820152601c60248201527f4175746f6d61746963206465706c6f792069732064697361626c6564000000006044820152606401620006b3565b60208082015180519101516040516200217b9062003258565b6200218892919062003bfd565b604051809103906000f080158015620021a5573d6000803e3d6000fd5b5060008c815260d1602090815260408083206001600160a01b038a811680865291845282852080546001600160a01b031916918716918217905580855260d0909352818420805460ff191660011790559051939550909290918e917f3db9e29b45c5fe72aaa0bdc4514d68a645660185a44637e9bc6f0b805ea770459190a45b505b600d86600e8111156200223e576200223e62003f4b565b1480156200229357506040518060400160405280600781526020016613585a5b9b995d60ca1b81525060405160200162002279919062003af6565b604051602081830303815290604052805190602001208a14155b8015620022a75750620022a78a8562002cd0565b156200244d576001600160a01b0384163b620023065760405162461bcd60e51b815260206004820152601a60248201527f496e636f7272656374206d61696e20636861696e20746f6b656e0000000000006044820152606401620006b3565b6040516331a9108f60e11b81526004810184905230906001600160a01b03861690636352211e9060240160206040518083038186803b1580156200234957600080fd5b505afa1580156200235e573d6000803e3d6000fd5b505050506040513d601f19601f8201168201806040525081019062002384919062003481565b6001600160a01b031614620023d05760405162461bcd60e51b8152602060048201526011602482015270125b98dbdc9c9958dd081d1bdad95b9259607a1b6044820152606401620006b3565b620023dd8a858562002cea565b6040516323b872dd60e01b81523060048201526001600160a01b038681166024830152604482018590528516906323b872dd90606401600060405180830381600087803b1580156200242e57600080fd5b505af115801562002443573d6000803e3d6000fd5b5050505062002539565b6040516340c10f1960e01b81526001600160a01b038681166004830152602482018590528216906340c10f1990604401600060405180830381600087803b1580156200249857600080fd5b505af1158015620024ad573d6000803e3d6000fd5b5050604051630588253160e21b81526001600160a01b038416925063162094c49150620024e1908690869060040162003d37565b602060405180830381600087803b158015620024fc57600080fd5b505af115801562002511573d6000803e3d6000fd5b505050506040513d601f19601f8201168201806040525081019062002537919062003549565b505b806001600160a01b0316846001600160a01b03168b7f2735a548eee1cda16c2df4c1a546c0376f3b3bb2ceca4966ef9d251fcbdd3c45866040516200258091815260200190565b60405180910390a4509298975050505050505050565b60006200115a838362002d98565b600062000673825490565b600082815260656020526040902060010154620025cd81336200282b565b62000986838362002976565b60405163c87b56dd60e01b8152600481018290526060906001600160a01b0384169063c87b56dd9060240160006040518083038186803b1580156200261d57600080fd5b505afa15801562002632573d6000803e3d6000fd5b505050506040513d6000823e601f3d908101601f191682016040526200115a9190810190620037fa565b6040805160e081018252600d60c082019081528183019081526001600160a01b03808816606080850191909152908716608084015260a08301869052908252602080830185905292519092620026b59183910162003cb5565b604051602081830303815290604052915050949350505050565b60606000620026df868662002cd0565b9050806200271f57620026f3868662002dc5565b62002717858585620027068988620025d9565b620027118a62002ede565b62002ffc565b915062002735565b6200273285858562001ab38988620025d9565b91505b846001600160a01b0316867fd0fe87fb12c7aa2b7f679256044123cb20de43059fb2ddbb4cc6556f217f29dc856040516200277291815260200190565b60405180910390a350949350505050565b6001600160a01b038216600090815260d26020908152604080832084845290915290205415620028055760405162461bcd60e51b815260206004820152602660248201527f546f6b656e2077617320616c7265616479207472616e7366657272656420746f6044820152651031b430b4b760d11b6064820152608401620006b3565b6001600160a01b03909116600090815260d2602090815260408083209383529290522055565b62002837828262001161565b62000fcf5762002852816001600160a01b031660146200307c565b6200285f8360206200307c565b6040516020016200287292919062003b14565b60408051601f198184030181529082905262461bcd60e51b8252620006b39160040162003be8565b620028a6828262001161565b62000fcf5760008281526065602090815260408083206001600160a01b03851684529091529020805460ff19166001179055620028e03390565b6001600160a01b0316816001600160a01b0316837f2f8788117e7eff1d82e926ec794901d17c78024a50270940304540a733656f0d60405160405180910390a45050565b60008181526001830160205260408120546200296d5750815460018181018455600084815260208082209093018490558454848252828601909352604090209190915562000673565b50600062000673565b62002982828262001161565b1562000fcf5760008281526065602090815260408083206001600160a01b0385168085529252808320805460ff1916905551339285917ff6391f5c32d9c69d2a47ea670b442974b53935d1edc7fd64eb21e047a839171b9190a45050565b6000818152600183016020526040812054801562002ad957600062002a0760018362003e8d565b855490915060009062002a1d9060019062003e8d565b905081811462002a8957600086600001828154811062002a415762002a4162003f77565b906000526020600020015490508087600001848154811062002a675762002a6762003f77565b6000918252602080832090910192909255918252600188019052604090208390555b855486908062002a9d5762002a9d62003f61565b60019003818190600052602060002001600090559055856001016000868152602001908152602001600020600090556001935050505062000673565b600091505062000673565b600054610100900460ff168062002afe575060005460ff16155b62002b1d5760405162461bcd60e51b8152600401620006b39062003c67565b600054610100900460ff1615801562001e95576000805461ffff1916610101179055801562001ea8576000805461ff001916905550565b62000fcf82826200289a565b62002ba06040805160e081018252600060c08201818152928201928352606082018190526080820181905260a08201529081908152602001606081525090565b600d62002bae848462001f42565b600e81111562002bc25762002bc262003f4b565b1462002c1d5760405162461bcd60e51b815260206004820152602360248201527f4d6573736167652074797065206973206e6f7420455243373231207472616e736044820152623332b960e91b6064820152608401620006b3565b6200115a828401846200390e565b62002c3562003266565b600e62002c43848462001f42565b600e81111562002c575762002c5762003f4b565b1462002cc25760405162461bcd60e51b815260206004820152603360248201527f4d6573736167652074797065206973206e6f7420455243373231207472616e73604482015272666572207769746820746f6b656e20696e666f60681b6064820152608401620006b3565b6200115a828401846200394e565b600082815260d3602052604081206200115a908362003235565b6001600160a01b038216600090815260d260209081526040808320848452909152902054831462002d6f5760405162461bcd60e51b815260206004820152602860248201527f546f6b656e2077617320616c7265616479207472616e7366657272656420667260448201526737b69031b430b4b760c11b6064820152608401620006b3565b6001600160a01b03909116600090815260d2602090815260408083209383529290529081205550565b600082600001828154811062002db25762002db262003f77565b9060005260206000200154905092915050565b6001600160a01b0381163b62002e1e5760405162461bcd60e51b815260206004820152601f60248201527f476976656e2061646472657373206973206e6f74206120636f6e7472616374006044820152606401620006b3565b600082815260d36020526040902062002e38908262003235565b1562002e875760405162461bcd60e51b815260206004820152601e60248201527f45524337323120546f6b656e2077617320616c726561647920616464656400006044820152606401620006b3565b600082815260d36020526040902062002ea1908262001d65565b506040516000906001600160a01b0383169084907f11bec40858c3e219ac2d82dd307a6989e3ea72d1c463dfce7376c149d5ccf30c908490a45050565b60408051808201909152606080825260208201526040518060400160405280836001600160a01b03166306fdde036040518163ffffffff1660e01b815260040160006040518083038186803b15801562002f3757600080fd5b505afa15801562002f4c573d6000803e3d6000fd5b505050506040513d6000823e601f3d908101601f1916820160405262002f769190810190620037fa565b8152602001836001600160a01b03166395d89b416040518163ffffffff1660e01b815260040160006040518083038186803b15801562002fb557600080fd5b505afa15801562002fca573d6000803e3d6000fd5b505050506040513d6000823e601f3d908101601f1916820160405262002ff49190810190620037fa565b905292915050565b6040805161012081018252600e6101008201908152608082019081526001600160a01b0380891660a0840152871660c083015260e082018690528183019081526060808301869052908252602080830185905292519092620030619183910162003cca565b60405160208183030381529060405291505095945050505050565b606060006200308d83600262003e6b565b6200309a90600262003e50565b6001600160401b03811115620030b457620030b462003f8d565b6040519080825280601f01601f191660200182016040528015620030df576020820181803683370190505b509050600360fc1b81600081518110620030fd57620030fd62003f77565b60200101906001600160f81b031916908160001a905350600f60fb1b816001815181106200312f576200312f62003f77565b60200101906001600160f81b031916908160001a90535060006200315584600262003e6b565b6200316290600162003e50565b90505b6001811115620031e4576f181899199a1a9b1b9c1cb0b131b232b360811b85600f16601081106200319a576200319a62003f77565b1a60f81b828281518110620031b357620031b362003f77565b60200101906001600160f81b031916908160001a90535060049490941c93620031dc8162003eda565b905062003165565b5083156200115a5760405162461bcd60e51b815260206004820181905260248201527f537472696e67733a20686578206c656e67746820696e73756666696369656e746044820152606401620006b3565b6001600160a01b038116600090815260018301602052604081205415156200115a565b612eac8062003fba83390190565b6040805161012081018252600061010082018181526080830190815260a0830182905260c0830182905260e08301919091529181019182526060808201529081908152602001620032ca604051806040016040528060608152602001606081525090565b905290565b60008083601f840112620032e257600080fd5b5081356001600160401b03811115620032fa57600080fd5b6020830191508360208285010111156200331357600080fd5b9250929050565b8035600f81106200332a57600080fd5b919050565b600082601f8301126200334157600080fd5b813562003358620033528262003dfa565b62003dc7565b8181528460208386010111156200336e57600080fd5b816020850160208301376000918101602001919091529392505050565b600081830360a08112156200339f57600080fd5b620033a962003d52565b91506080811215620033ba57600080fd5b620033c462003d7d565b6020821215620033d357600080fd5b620033dd62003da2565b9150620033ea846200331a565b8252908152602083013590620034008262003fa3565b81602082015260408401359150620034188262003fa3565b81604082015260608401356060820152808352505060808201356001600160401b038111156200344757600080fd5b62003455848285016200332f565b60208301525092915050565b6000602082840312156200347457600080fd5b81356200115a8162003fa3565b6000602082840312156200349457600080fd5b81516200115a8162003fa3565b60008060408385031215620034b557600080fd5b8235620034c28162003fa3565b946020939093013593505050565b60008060208385031215620034e457600080fd5b82356001600160401b0380821115620034fc57600080fd5b818501915085601f8301126200351157600080fd5b8135818111156200352157600080fd5b8660208260051b85010111156200353757600080fd5b60209290920196919550909350505050565b6000602082840312156200355c57600080fd5b815180151581146200115a57600080fd5b6000602082840312156200358057600080fd5b5035919050565b600080604083850312156200359b57600080fd5b823591506020830135620035af8162003fa3565b809150509250929050565b60008060008060608587031215620035d157600080fd5b843593506020850135620035e58162003fa3565b925060408501356001600160401b038111156200360157600080fd5b6200360f87828801620032cf565b95989497509550505050565b600080604083850312156200362f57600080fd5b50508035926020909101359150565b6000602082840312156200365157600080fd5b81356001600160e01b0319811681146200115a57600080fd5b6000602082840312156200367d57600080fd5b6200115a826200331a565b600080602083850312156200369c57600080fd5b82356001600160401b03811115620036b357600080fd5b620036c185828601620032cf565b90969095509350505050565b600080600060408486031215620036e357600080fd5b83356001600160401b03811115620036fa57600080fd5b6200370886828701620032cf565b90945092505060208401356200371e8162003fa3565b809150509250925092565b600080600080606085870312156200374057600080fd5b84356001600160401b038111156200375757600080fd5b6200376587828801620032cf565b90955093505060208501356200377b8162003fa3565b915060408501356200378d8162003fa3565b939692955090935050565b60008060008060608587031215620037af57600080fd5b84356001600160401b03811115620037c657600080fd5b620037d487828801620032cf565b9095509350506020850135620037ea8162003fa3565b9396929550929360400135925050565b6000602082840312156200380d57600080fd5b81516001600160401b038111156200382457600080fd5b8201601f810184136200383657600080fd5b805162003847620033528262003dfa565b8181528560208385010111156200385d57600080fd5b6200387082602083016020860162003ea7565b95945050505050565b600080600080600060a086880312156200389257600080fd5b85356001600160401b03811115620038a957600080fd5b620038b7888289016200332f565b9550506020860135620038ca8162003fa3565b93506040860135620038dc8162003fa3565b92506060860135620038ee8162003fa3565b91506080860135620039008162003fa3565b809150509295509295909350565b6000602082840312156200392157600080fd5b81356001600160401b038111156200393857600080fd5b62003946848285016200338b565b949350505050565b6000602082840312156200396157600080fd5b81356001600160401b03808211156200397957600080fd5b90830190604082860312156200398e57600080fd5b6200399862003d52565b823582811115620039a857600080fd5b620039b6878286016200338b565b825250602083013582811115620039cc57600080fd5b929092019160408387031215620039e257600080fd5b620039ec62003d52565b833583811115620039fc57600080fd5b62003a0a888287016200332f565b82525060208401358381111562003a2057600080fd5b62003a2e888287016200332f565b6020830152508060208301525080935050505092915050565b6000815180845262003a6181602086016020860162003ea7565b601f01601f19169290920160200192915050565b60008151805151600f811062003a9b57634e487b7160e01b600052602160045260246000fd5b84526020818101516001600160a01b0390811682870152604080840151909116908601526060918201519185019190915282015160a060808501819052620039469085018262003a47565b8183823760009101908152919050565b6000825162003b0a81846020870162003ea7565b9190910192915050565b7f416363657373436f6e74726f6c3a206163636f756e742000000000000000000081526000835162003b4e81601785016020880162003ea7565b7001034b99036b4b9b9b4b733903937b6329607d1b601791840191820152835162003b8181602884016020880162003ea7565b01602801949350505050565b8381526001600160a01b0383166020820152606060408201819052600090620038709083018462003a47565b60208152816020820152818360408301376000818301604090810191909152601f909201601f19160101919050565b6020815260006200115a602083018462003a47565b60408152600062003c12604083018562003a47565b828103602084015262003870818562003a47565b60208082526021908201527f4155544f4d415449435f4445504c4f595f524f4c4520697320726571756972656040820152601960fa1b606082015260800190565b6020808252602e908201527f496e697469616c697a61626c653a20636f6e747261637420697320616c72656160408201526d191e481a5b9a5d1a585b1a5e995960921b606082015260800190565b6020815260006200115a602083018462003a75565b60208152600082516040602084015262003ce8606084018262003a75565b90506020840151601f1984830301604085015280516040835262003d10604084018262003a47565b905060208201519150828103602084015262003d2d818362003a47565b9695505050505050565b82815260406020820152600062003946604083018462003a47565b604080519081016001600160401b038111828210171562003d775762003d7762003f8d565b60405290565b604051608081016001600160401b038111828210171562003d775762003d7762003f8d565b604051602081016001600160401b038111828210171562003d775762003d7762003f8d565b604051601f8201601f191681016001600160401b038111828210171562003df25762003df262003f8d565b604052919050565b60006001600160401b0382111562003e165762003e1662003f8d565b50601f01601f191660200190565b6000808585111562003e3557600080fd5b8386111562003e4357600080fd5b5050820193919092039150565b6000821982111562003e665762003e6662003f35565b500190565b600081600019048311821515161562003e885762003e8862003f35565b500290565b60008282101562003ea25762003ea262003f35565b500390565b60005b8381101562003ec457818101518382015260200162003eaa565b8381111562003ed4576000848401525b50505050565b60008162003eec5762003eec62003f35565b506000190190565b600060001982141562003f0b5762003f0b62003f35565b5060010190565b60008262003f3057634e487b7160e01b600052601260045260246000fd5b500690565b634e487b7160e01b600052601160045260246000fd5b634e487b7160e01b600052602160045260246000fd5b634e487b7160e01b600052603160045260246000fd5b634e487b7160e01b600052603260045260246000fd5b634e487b7160e01b600052604160045260246000fd5b6001600160a01b038116811462001ea857600080fdfe60806040523480156200001157600080fd5b5060405162002eac38038062002eac833981016040819052620000349162000813565b600054610100900460ff16806200004e575060005460ff16155b620000a65760405162461bcd60e51b815260206004820152602e602482015260008051602062002e6c83398151915260448201526d191e481a5b9a5d1a585b1a5e995960921b60648201526084015b60405180910390fd5b600054610100900460ff16158015620000c9576000805461ffff19166101011790555b620000de6200015c60201b62000b361760201c565b620000f583836200022b60201b62000bc11760201c565b6200010a620002f460201b62000c481760201c565b6200012560008051602062002e8c833981519152806200038e565b6200014060008051602062002e8c83398151915233620003d9565b801562000153576000805461ff00191690555b505050620008d0565b600054610100900460ff168062000176575060005460ff16155b620001ca5760405162461bcd60e51b815260206004820152602e602482015260008051602062002e6c83398151915260448201526d191e481a5b9a5d1a585b1a5e995960921b60648201526084016200009d565b600054610100900460ff16158015620001ed576000805461ffff19166101011790555b620001f762000417565b6200020162000417565b6200020b62000417565b6200021562000417565b801562000228576000805461ff00191690555b50565b600054610100900460ff168062000245575060005460ff16155b620002995760405162461bcd60e51b815260206004820152602e602482015260008051602062002e6c83398151915260448201526d191e481a5b9a5d1a585b1a5e995960921b60648201526084016200009d565b600054610100900460ff16158015620002bc576000805461ffff19166101011790555b620002c662000417565b620002d062000417565b620002dc8383620004bc565b8015620002ef576000805461ff00191690555b505050565b600054610100900460ff16806200030e575060005460ff16155b620003625760405162461bcd60e51b815260206004820152602e602482015260008051602062002e6c83398151915260448201526d191e481a5b9a5d1a585b1a5e995960921b60648201526084016200009d565b600054610100900460ff16158015620001f7576000805461ffff19166101011790556200020162000417565b600082815260656020526040808220600101805490849055905190918391839186917fbd79b86ffe0ab8e8776151514217cd7cacd52c909f66475c3af44e129f0b00ff9190a4505050565b620003f082826200059060201b62000ca61760201c565b6000828152609760209081526040909120620002ef91839062000cb0620005a0821b17901c565b600054610100900460ff168062000431575060005460ff16155b620004855760405162461bcd60e51b815260206004820152602e602482015260008051602062002e6c83398151915260448201526d191e481a5b9a5d1a585b1a5e995960921b60648201526084016200009d565b600054610100900460ff1615801562000215576000805461ffff1916610101179055801562000228576000805461ff001916905550565b600054610100900460ff1680620004d6575060005460ff16155b6200052a5760405162461bcd60e51b815260206004820152602e602482015260008051602062002e6c83398151915260448201526d191e481a5b9a5d1a585b1a5e995960921b60648201526084016200009d565b600054610100900460ff161580156200054d576000805461ffff19166101011790555b8251620005629060c9906020860190620006b6565b508151620005789060ca906020850190620006b6565b508015620002ef576000805461ff0019169055505050565b6200059c8282620005c0565b5050565b6000620005b7836001600160a01b03841662000664565b90505b92915050565b60008281526065602090815260408083206001600160a01b038516845290915290205460ff166200059c5760008281526065602090815260408083206001600160a01b03851684529091529020805460ff19166001179055620006203390565b6001600160a01b0316816001600160a01b0316837f2f8788117e7eff1d82e926ec794901d17c78024a50270940304540a733656f0d60405160405180910390a45050565b6000818152600183016020526040812054620006ad57508154600181810184556000848152602080822090930184905584548482528286019093526040902091909155620005ba565b506000620005ba565b828054620006c4906200087d565b90600052602060002090601f016020900481019282620006e8576000855562000733565b82601f106200070357805160ff191683800117855562000733565b8280016001018555821562000733579182015b828111156200073357825182559160200191906001019062000716565b506200074192915062000745565b5090565b5b8082111562000741576000815560010162000746565b600082601f8301126200076e57600080fd5b81516001600160401b03808211156200078b576200078b620008ba565b604051601f8301601f19908116603f01168101908282118183101715620007b657620007b6620008ba565b81604052838152602092508683858801011115620007d357600080fd5b600091505b83821015620007f75785820183015181830184015290820190620007d8565b83821115620008095760008385830101525b9695505050505050565b600080604083850312156200082757600080fd5b82516001600160401b03808211156200083f57600080fd5b6200084d868387016200075c565b935060208501519150808211156200086457600080fd5b5062000873858286016200075c565b9150509250929050565b600181811c908216806200089257607f821691505b60208210811415620008b457634e487b7160e01b600052602260045260246000fd5b50919050565b634e487b7160e01b600052604160045260246000fd5b61258c80620008e06000396000f3fe608060405234801561001057600080fd5b50600436106101735760003560e01c80636352211e116100de578063a22cb46511610097578063ca15c87311610071578063ca15c87314610340578063d539139314610353578063d547741f1461037a578063e985e9c51461038d57600080fd5b8063a22cb46514610307578063b88d4fde1461031a578063c87b56dd1461032d57600080fd5b80636352211e146102ab57806370a08231146102be5780639010d07c146102d157806391d14854146102e457806395d89b41146102f7578063a217fddf146102ff57600080fd5b8063248a9ca311610130578063248a9ca31461021b5780632f2ff15d1461024c57806336568abe1461025f57806340c10f191461027257806342842e0e1461028557806342966c681461029857600080fd5b806301ffc9a71461017857806306fdde03146101a0578063081812fc146101b5578063095ea7b3146101e0578063162094c4146101f557806323b872dd14610208575b600080fd5b61018b6101863660046120fc565b6103c9565b60405190151581526020015b60405180910390f35b6101a86103da565b60405161019791906122bf565b6101c86101c336600461209e565b61046c565b6040516001600160a01b039091168152602001610197565b6101f36101ee366004612074565b6104f9565b005b61018b610203366004612136565b61060f565b6101f3610216366004611f20565b61072e565b61023e61022936600461209e565b60009081526065602052604090206001015490565b604051908152602001610197565b6101f361025a3660046120b7565b610760565b6101f361026d3660046120b7565b610782565b6101f3610280366004612074565b6107a4565b6101f3610293366004611f20565b610821565b6101f36102a636600461209e565b61083c565b6101c86102b936600461209e565b6108b6565b61023e6102cc366004611ed2565b61092d565b6101c86102df3660046120da565b6109b4565b61018b6102f23660046120b7565b6109d3565b6101a86109fe565b61023e600081565b6101f3610315366004612038565b610a0d565b6101f3610328366004611f5c565b610ad2565b6101a861033b36600461209e565b610b0a565b61023e61034e36600461209e565b610b15565b61023e7f9f2df0fed2c77648de5860a4cc508cd0818c85b8b8a1ab4ceeef8d981c8956a681565b6101f36103883660046120b7565b610b2c565b61018b61039b366004611eed565b6001600160a01b03918216600090815260ce6020908152604080832093909416825291909152205460ff1690565b60006103d482610cc5565b92915050565b606060c980546103e990612468565b80601f016020809104026020016040519081016040528092919081815260200182805461041590612468565b80156104625780601f1061043757610100808354040283529160200191610462565b820191906000526020600020905b81548152906001019060200180831161044557829003601f168201915b5050505050905090565b600061047782610d05565b6104dd5760405162461bcd60e51b815260206004820152602c60248201527f4552433732313a20617070726f76656420717565727920666f72206e6f6e657860448201526b34b9ba32b73a103a37b5b2b760a11b60648201526084015b60405180910390fd5b50600090815260cd60205260409020546001600160a01b031690565b6000610504826108b6565b9050806001600160a01b0316836001600160a01b031614156105725760405162461bcd60e51b815260206004820152602160248201527f4552433732313a20617070726f76616c20746f2063757272656e74206f776e656044820152603960f91b60648201526084016104d4565b336001600160a01b038216148061058e575061058e813361039b565b6106005760405162461bcd60e51b815260206004820152603860248201527f4552433732313a20617070726f76652063616c6c6572206973206e6f74206f7760448201527f6e6572206e6f7220617070726f76656420666f7220616c6c000000000000000060648201526084016104d4565b61060a8383610d22565b505050565b600061061a84610d05565b61065e5760405162461bcd60e51b8152602060048201526015602482015274546f6b656e20646f6573206e6f742065786973747360581b60448201526064016104d4565b6106683385610d90565b8061069857506106987f9f2df0fed2c77648de5860a4cc508cd0818c85b8b8a1ab4ceeef8d981c8956a6336109d3565b6106e45760405162461bcd60e51b815260206004820152601c60248201527f53656e6465722063616e206e6f742073657420746f6b656e205552490000000060448201526064016104d4565b6107248484848080601f016020809104026020016040519081016040528093929190818152602001838380828437600092019190915250610e7a92505050565b5060019392505050565b610739335b82610d90565b6107555760405162461bcd60e51b81526004016104d490612372565b61060a838383610f06565b61076a82826110a6565b600082815260976020526040902061060a9082610cb0565b61078c82826110cc565b600082815260976020526040902061060a9082611146565b6107ce7f9f2df0fed2c77648de5860a4cc508cd0818c85b8b8a1ab4ceeef8d981c8956a6336109d3565b6108135760405162461bcd60e51b815260206004820152601660248201527529b2b73232b91034b9903737ba10309026b4b73a32b960511b60448201526064016104d4565b61081d828261115b565b5050565b61060a83838360405180602001604052806000815250610ad2565b61084533610733565b6108aa5760405162461bcd60e51b815260206004820152603060248201527f4552433732314275726e61626c653a2063616c6c6572206973206e6f74206f7760448201526f1b995c881b9bdc88185c1c1c9bdd995960821b60648201526084016104d4565b6108b38161128e565b50565b600081815260cb60205260408120546001600160a01b0316806103d45760405162461bcd60e51b815260206004820152602960248201527f4552433732313a206f776e657220717565727920666f72206e6f6e657869737460448201526832b73a103a37b5b2b760b91b60648201526084016104d4565b60006001600160a01b0382166109985760405162461bcd60e51b815260206004820152602a60248201527f4552433732313a2062616c616e636520717565727920666f7220746865207a65604482015269726f206164647265737360b01b60648201526084016104d4565b506001600160a01b0316600090815260cc602052604090205490565b60008281526097602052604081206109cc9083611297565b9392505050565b60009182526065602090815260408084206001600160a01b0393909316845291905290205460ff1690565b606060ca80546103e990612468565b6001600160a01b038216331415610a665760405162461bcd60e51b815260206004820152601960248201527f4552433732313a20617070726f766520746f2063616c6c65720000000000000060448201526064016104d4565b33600081815260ce602090815260408083206001600160a01b03871680855290835292819020805460ff191686151590811790915590519081529192917f17307eab39ab6107e8899845ad3d59bd9653f200f220920489ca2b5937696c31910160405180910390a35050565b610adc3383610d90565b610af85760405162461bcd60e51b81526004016104d490612372565b610b04848484846112a3565b50505050565b60606103d4826112d6565b60008181526097602052604081206103d490611446565b61078c8282611450565b600054610100900460ff1680610b4f575060005460ff16155b610b6b5760405162461bcd60e51b81526004016104d490612324565b600054610100900460ff16158015610b8d576000805461ffff19166101011790555b610b95611476565b610b9d611476565b610ba5611476565b610bad611476565b80156108b3576000805461ff001916905550565b600054610100900460ff1680610bda575060005460ff16155b610bf65760405162461bcd60e51b81526004016104d490612324565b600054610100900460ff16158015610c18576000805461ffff19166101011790555b610c20611476565b610c28611476565b610c3283836114e0565b801561060a576000805461ff0019169055505050565b600054610100900460ff1680610c61575060005460ff16155b610c7d5760405162461bcd60e51b81526004016104d490612324565b600054610100900460ff16158015610b95576000805461ffff1916610101179055610b9d611476565b61081d8282611575565b60006109cc836001600160a01b0384166115fb565b60006001600160e01b031982166380ac58cd60e01b1480610cf657506001600160e01b03198216635b5e139f60e01b145b806103d457506103d48261164a565b600090815260cb60205260409020546001600160a01b0316151590565b600081815260cd6020526040902080546001600160a01b0319166001600160a01b0384169081179091558190610d57826108b6565b6001600160a01b03167f8c5be1e5ebec7d5bd14f71427d1e84f3dd0314c0f7b2291e5b200ac8c7c3b92560405160405180910390a45050565b6000610d9b82610d05565b610dfc5760405162461bcd60e51b815260206004820152602c60248201527f4552433732313a206f70657261746f7220717565727920666f72206e6f6e657860448201526b34b9ba32b73a103a37b5b2b760a11b60648201526084016104d4565b6000610e07836108b6565b9050806001600160a01b0316846001600160a01b03161480610e425750836001600160a01b0316610e378461046c565b6001600160a01b0316145b80610e7257506001600160a01b03808216600090815260ce602090815260408083209388168352929052205460ff165b949350505050565b610e8382610d05565b610ee65760405162461bcd60e51b815260206004820152602e60248201527f45524337323155524953746f726167653a2055524920736574206f66206e6f6e60448201526d32bc34b9ba32b73a103a37b5b2b760911b60648201526084016104d4565b600082815261012d60209081526040909120825161060a92840190611de7565b826001600160a01b0316610f19826108b6565b6001600160a01b031614610f815760405162461bcd60e51b815260206004820152602960248201527f4552433732313a207472616e73666572206f6620746f6b656e2074686174206960448201526839903737ba1037bbb760b91b60648201526084016104d4565b6001600160a01b038216610fe35760405162461bcd60e51b8152602060048201526024808201527f4552433732313a207472616e7366657220746f20746865207a65726f206164646044820152637265737360e01b60648201526084016104d4565b610fee600082610d22565b6001600160a01b038316600090815260cc6020526040812080546001929061101790849061240e565b90915550506001600160a01b038216600090815260cc602052604081208054600192906110459084906123c3565b9091555050600081815260cb602052604080822080546001600160a01b0319166001600160a01b0386811691821790925591518493918716917fddf252ad1be2c89b69c2b068fc378daa952ba7f163c4a11628f55a4df523b3ef91a4505050565b6000828152606560205260409020600101546110c2813361166f565b61060a8383611575565b6001600160a01b038116331461113c5760405162461bcd60e51b815260206004820152602f60248201527f416363657373436f6e74726f6c3a2063616e206f6e6c792072656e6f756e636560448201526e103937b632b9903337b91039b2b63360891b60648201526084016104d4565b61081d82826116d3565b60006109cc836001600160a01b03841661173a565b6001600160a01b0382166111b15760405162461bcd60e51b815260206004820181905260248201527f4552433732313a206d696e7420746f20746865207a65726f206164647265737360448201526064016104d4565b6111ba81610d05565b156112075760405162461bcd60e51b815260206004820152601c60248201527f4552433732313a20746f6b656e20616c7265616479206d696e7465640000000060448201526064016104d4565b6001600160a01b038216600090815260cc602052604081208054600192906112309084906123c3565b9091555050600081815260cb602052604080822080546001600160a01b0319166001600160a01b03861690811790915590518392907fddf252ad1be2c89b69c2b068fc378daa952ba7f163c4a11628f55a4df523b3ef908290a45050565b6108b38161182d565b60006109cc838361186f565b6112ae848484610f06565b6112ba84848484611899565b610b045760405162461bcd60e51b81526004016104d4906122d2565b60606112e182610d05565b6113475760405162461bcd60e51b815260206004820152603160248201527f45524337323155524953746f726167653a2055524920717565727920666f72206044820152703737b732bc34b9ba32b73a103a37b5b2b760791b60648201526084016104d4565b600082815261012d60205260408120805461136190612468565b80601f016020809104026020016040519081016040528092919081815260200182805461138d90612468565b80156113da5780601f106113af576101008083540402835291602001916113da565b820191906000526020600020905b8154815290600101906020018083116113bd57829003601f168201915b5050505050905060006113f860408051602081019091526000815290565b905080516000141561140b575092915050565b81511561143d5780826040516020016114259291906121de565b60405160208183030381529060405292505050919050565b610e72846119a6565b60006103d4825490565b60008281526065602052604090206001015461146c813361166f565b61060a83836116d3565b600054610100900460ff168061148f575060005460ff16155b6114ab5760405162461bcd60e51b81526004016104d490612324565b600054610100900460ff16158015610bad576000805461ffff191661010117905580156108b3576000805461ff001916905550565b600054610100900460ff16806114f9575060005460ff16155b6115155760405162461bcd60e51b81526004016104d490612324565b600054610100900460ff16158015611537576000805461ffff19166101011790555b825161154a9060c9906020860190611de7565b50815161155e9060ca906020850190611de7565b50801561060a576000805461ff0019169055505050565b61157f82826109d3565b61081d5760008281526065602090815260408083206001600160a01b03851684529091529020805460ff191660011790556115b73390565b6001600160a01b0316816001600160a01b0316837f2f8788117e7eff1d82e926ec794901d17c78024a50270940304540a733656f0d60405160405180910390a45050565b6000818152600183016020526040812054611642575081546001818101845560008481526020808220909301849055845484825282860190935260409020919091556103d4565b5060006103d4565b60006001600160e01b03198216635a05180f60e01b14806103d457506103d482611a7d565b61167982826109d3565b61081d57611691816001600160a01b03166014611ab2565b61169c836020611ab2565b6040516020016116ad92919061220d565b60408051601f198184030181529082905262461bcd60e51b82526104d4916004016122bf565b6116dd82826109d3565b1561081d5760008281526065602090815260408083206001600160a01b0385168085529252808320805460ff1916905551339285917ff6391f5c32d9c69d2a47ea670b442974b53935d1edc7fd64eb21e047a839171b9190a45050565b6000818152600183016020526040812054801561182357600061175e60018361240e565b85549091506000906117729060019061240e565b90508181146117d757600086600001828154811061179257611792612514565b90600052602060002001549050808760000184815481106117b5576117b5612514565b6000918252602080832090910192909255918252600188019052604090208390555b85548690806117e8576117e86124fe565b6001900381819060005260206000200160009055905585600101600086815260200190815260200160002060009055600193505050506103d4565b60009150506103d4565b61183681611c4e565b600081815261012d60205260409020805461185090612468565b1590506108b357600081815261012d602052604081206108b391611e6b565b600082600001828154811061188657611886612514565b9060005260206000200154905092915050565b60006001600160a01b0384163b1561199b57604051630a85bd0160e11b81526001600160a01b0385169063150b7a02906118dd903390899088908890600401612282565b602060405180830381600087803b1580156118f757600080fd5b505af1925050508015611927575060408051601f3d908101601f1916820190925261192491810190612119565b60015b611981573d808015611955576040519150601f19603f3d011682016040523d82523d6000602084013e61195a565b606091505b5080516119795760405162461bcd60e51b81526004016104d4906122d2565b805181602001fd5b6001600160e01b031916630a85bd0160e11b149050610e72565b506001949350505050565b60606119b182610d05565b611a155760405162461bcd60e51b815260206004820152602f60248201527f4552433732314d657461646174613a2055524920717565727920666f72206e6f60448201526e3732bc34b9ba32b73a103a37b5b2b760891b60648201526084016104d4565b6000611a2c60408051602081019091526000815290565b90506000815111611a4c57604051806020016040528060008152506109cc565b80611a5684611ce9565b604051602001611a679291906121de565b6040516020818303038152906040529392505050565b60006001600160e01b03198216637965db0b60e01b14806103d457506301ffc9a760e01b6001600160e01b03198316146103d4565b60606000611ac18360026123ef565b611acc9060026123c3565b67ffffffffffffffff811115611ae457611ae461252a565b6040519080825280601f01601f191660200182016040528015611b0e576020820181803683370190505b509050600360fc1b81600081518110611b2957611b29612514565b60200101906001600160f81b031916908160001a905350600f60fb1b81600181518110611b5857611b58612514565b60200101906001600160f81b031916908160001a9053506000611b7c8460026123ef565b611b879060016123c3565b90505b6001811115611bff576f181899199a1a9b1b9c1cb0b131b232b360811b85600f1660108110611bbb57611bbb612514565b1a60f81b828281518110611bd157611bd1612514565b60200101906001600160f81b031916908160001a90535060049490941c93611bf881612451565b9050611b8a565b5083156109cc5760405162461bcd60e51b815260206004820181905260248201527f537472696e67733a20686578206c656e67746820696e73756666696369656e7460448201526064016104d4565b6000611c59826108b6565b9050611c66600083610d22565b6001600160a01b038116600090815260cc60205260408120805460019290611c8f90849061240e565b9091555050600082815260cb602052604080822080546001600160a01b0319169055518391906001600160a01b038416907fddf252ad1be2c89b69c2b068fc378daa952ba7f163c4a11628f55a4df523b3ef908390a45050565b606081611d0d5750506040805180820190915260018152600360fc1b602082015290565b8160005b8115611d375780611d21816124a3565b9150611d309050600a836123db565b9150611d11565b60008167ffffffffffffffff811115611d5257611d5261252a565b6040519080825280601f01601f191660200182016040528015611d7c576020820181803683370190505b5090505b8415610e7257611d9160018361240e565b9150611d9e600a866124be565b611da99060306123c3565b60f81b818381518110611dbe57611dbe612514565b60200101906001600160f81b031916908160001a905350611de0600a866123db565b9450611d80565b828054611df390612468565b90600052602060002090601f016020900481019282611e155760008555611e5b565b82601f10611e2e57805160ff1916838001178555611e5b565b82800160010185558215611e5b579182015b82811115611e5b578251825591602001919060010190611e40565b50611e67929150611ea1565b5090565b508054611e7790612468565b6000825580601f10611e87575050565b601f0160209004906000526020600020908101906108b391905b5b80821115611e675760008155600101611ea2565b80356001600160a01b0381168114611ecd57600080fd5b919050565b600060208284031215611ee457600080fd5b6109cc82611eb6565b60008060408385031215611f0057600080fd5b611f0983611eb6565b9150611f1760208401611eb6565b90509250929050565b600080600060608486031215611f3557600080fd5b611f3e84611eb6565b9250611f4c60208501611eb6565b9150604084013590509250925092565b60008060008060808587031215611f7257600080fd5b611f7b85611eb6565b9350611f8960208601611eb6565b925060408501359150606085013567ffffffffffffffff80821115611fad57600080fd5b818701915087601f830112611fc157600080fd5b813581811115611fd357611fd361252a565b604051601f8201601f19908116603f01168101908382118183101715611ffb57611ffb61252a565b816040528281528a602084870101111561201457600080fd5b82602086016020830137600060208483010152809550505050505092959194509250565b6000806040838503121561204b57600080fd5b61205483611eb6565b91506020830135801515811461206957600080fd5b809150509250929050565b6000806040838503121561208757600080fd5b61209083611eb6565b946020939093013593505050565b6000602082840312156120b057600080fd5b5035919050565b600080604083850312156120ca57600080fd5b82359150611f1760208401611eb6565b600080604083850312156120ed57600080fd5b50508035926020909101359150565b60006020828403121561210e57600080fd5b81356109cc81612540565b60006020828403121561212b57600080fd5b81516109cc81612540565b60008060006040848603121561214b57600080fd5b83359250602084013567ffffffffffffffff8082111561216a57600080fd5b818601915086601f83011261217e57600080fd5b81358181111561218d57600080fd5b87602082850101111561219f57600080fd5b6020830194508093505050509250925092565b600081518084526121ca816020860160208601612425565b601f01601f19169290920160200192915050565b600083516121f0818460208801612425565b835190830190612204818360208801612425565b01949350505050565b7f416363657373436f6e74726f6c3a206163636f756e7420000000000000000000815260008351612245816017850160208801612425565b7001034b99036b4b9b9b4b733903937b6329607d1b6017918401918201528351612276816028840160208801612425565b01602801949350505050565b6001600160a01b03858116825284166020820152604081018390526080606082018190526000906122b5908301846121b2565b9695505050505050565b6020815260006109cc60208301846121b2565b60208082526032908201527f4552433732313a207472616e7366657220746f206e6f6e20455243373231526560408201527131b2b4bb32b91034b6b83632b6b2b73a32b960711b606082015260800190565b6020808252602e908201527f496e697469616c697a61626c653a20636f6e747261637420697320616c72656160408201526d191e481a5b9a5d1a585b1a5e995960921b606082015260800190565b60208082526031908201527f4552433732313a207472616e736665722063616c6c6572206973206e6f74206f6040820152701ddb995c881b9bdc88185c1c1c9bdd9959607a1b606082015260800190565b600082198211156123d6576123d66124d2565b500190565b6000826123ea576123ea6124e8565b500490565b6000816000190483118215151615612409576124096124d2565b500290565b600082821015612420576124206124d2565b500390565b60005b83811015612440578181015183820152602001612428565b83811115610b045750506000910152565b600081612460576124606124d2565b506000190190565b600181811c9082168061247c57607f821691505b6020821081141561249d57634e487b7160e01b600052602260045260246000fd5b50919050565b60006000198214156124b7576124b76124d2565b5060010190565b6000826124cd576124cd6124e8565b500690565b634e487b7160e01b600052601160045260246000fd5b634e487b7160e01b600052601260045260246000fd5b634e487b7160e01b600052603160045260246000fd5b634e487b7160e01b600052603260045260246000fd5b634e487b7160e01b600052604160045260246000fd5b6001600160e01b0319811681146108b357600080fdfea26469706673582212201c1d64fd03b665da908e618f3bafe998f24d5eab747a8c7453de7250ee91667b64736f6c63430008060033496e697469616c697a61626c653a20636f6e747261637420697320616c7265619f2df0fed2c77648de5860a4cc508cd0818c85b8b8a1ab4ceeef8d981c8956a67164765a3c8bd2513bdfa0c90f1bee9606e920fbf2c9071f310263fbd818684ba26469706673582212209ceb165f8a57ec02d536e75ccb4aa0f63395e622c87f2fbbf4f132b5922b15d164736f6c63430008060033",
  "linkReferences": {},
  "deployedLinkReferences": {}
}