{
  "_format": "hh-sol-artifact-1",
  "contractName": "TokenManagerERC20",
  "sourceName": "contracts/schain/TokenManagers/TokenManagerERC20.sol",
  "abi": [
    {
      "anonymous": false,
      "inputs": [
        {
          "indexed": false,
          "internalType": "address",
          "name": "oldValue",
          "type": "address"
        },
        {
          "indexed": false,
          "internalType": "address",
          "name": "newValue",
          "type": "address"
        }
      ],
      "name": "DepositBoxWasChanged",
      "type": "event"
    },
    {
      "anonymous": false,
      "inputs": [
        {
          "indexed": true,
          "internalType": "bytes32",
          "name": "chainHash",
          "type": "bytes32"
        },
        {
          "indexed": true,
          "internalType": "address",
          "name": "erc20OnMainChain",
          "type": "address"
        },
        {
          "indexed": true,
          "internalType": "address",
          "name": "erc20OnSchain",
          "type": "address"
        }
      ],
      "name": "ERC20TokenAdded",
      "type": "event"
    },
    {
      "anonymous": false,
      "inputs": [
        {
          "indexed": true,
          "internalType": "bytes32",
          "name": "chainHash",
          "type": "bytes32"
        },
        {
          "indexed": true,
          "internalType": "address",
          "name": "erc20OnMainChain",
          "type": "address"
        },
        {
          "indexed": true,
          "internalType": "address",
          "name": "erc20OnSchain",
          "type": "address"
        }
      ],
      "name": "ERC20TokenCreated",
      "type": "event"
    },
    {
      "anonymous": false,
      "inputs": [
        {
          "indexed": true,
          "internalType": "bytes32",
          "name": "chainHash",
          "type": "bytes32"
        },
        {
          "indexed": true,
          "internalType": "address",
          "name": "contractOnMainnet",
          "type": "address"
        },
        {
          "indexed": false,
          "internalType": "uint256",
          "name": "amount",
          "type": "uint256"
        }
      ],
      "name": "ERC20TokenReady",
      "type": "event"
    },
    {
      "anonymous": false,
      "inputs": [
        {
          "indexed": true,
          "internalType": "bytes32",
          "name": "chainHash",
          "type": "bytes32"
        },
        {
          "indexed": true,
          "internalType": "address",
          "name": "erc20OnMainChain",
          "type": "address"
        },
        {
          "indexed": true,
          "internalType": "address",
          "name": "erc20OnSchain",
          "type": "address"
        },
        {
          "indexed": false,
          "internalType": "uint256",
          "name": "amount",
          "type": "uint256"
        }
      ],
      "name": "ERC20TokenReceived",
      "type": "event"
    },
    {
      "anonymous": false,
      "inputs": [
        {
          "indexed": true,
          "internalType": "bytes32",
          "name": "role",
          "type": "bytes32"
        },
        {
          "indexed": true,
          "internalType": "bytes32",
          "name": "previousAdminRole",
          "type": "bytes32"
        },
        {
          "indexed": true,
          "internalType": "bytes32",
          "name": "newAdminRole",
          "type": "bytes32"
        }
      ],
      "name": "RoleAdminChanged",
      "type": "event"
    },
    {
      "anonymous": false,
      "inputs": [
        {
          "indexed": true,
          "internalType": "bytes32",
          "name": "role",
          "type": "bytes32"
        },
        {
          "indexed": true,
          "internalType": "address",
          "name": "account",
          "type": "address"
        },
        {
          "indexed": true,
          "internalType": "address",
          "name": "sender",
          "type": "address"
        }
      ],
      "name": "RoleGranted",
      "type": "event"
    },
    {
      "anonymous": false,
      "inputs": [
        {
          "indexed": true,
          "internalType": "bytes32",
          "name": "role",
          "type": "bytes32"
        },
        {
          "indexed": true,
          "internalType": "address",
          "name": "account",
          "type": "address"
        },
        {
          "indexed": true,
          "internalType": "address",
          "name": "sender",
          "type": "address"
        }
      ],
      "name": "RoleRevoked",
      "type": "event"
    },
    {
      "inputs": [],
      "name": "AUTOMATIC_DEPLOY_ROLE",
      "outputs": [
        {
          "internalType": "bytes32",
          "name": "",
          "type": "bytes32"
        }
      ],
      "stateMutability": "view",
      "type": "function"
    },
    {
      "inputs": [],
      "name": "DEFAULT_ADMIN_ROLE",
      "outputs": [
        {
          "internalType": "bytes32",
          "name": "",
          "type": "bytes32"
        }
      ],
      "stateMutability": "view",
      "type": "function"
    },
    {
      "inputs": [],
      "name": "MAINNET_HASH",
      "outputs": [
        {
          "internalType": "bytes32",
          "name": "",
          "type": "bytes32"
        }
      ],
      "stateMutability": "view",
      "type": "function"
    },
    {
      "inputs": [],
      "name": "MAINNET_NAME",
      "outputs": [
        {
          "internalType": "string",
          "name": "",
          "type": "string"
        }
      ],
      "stateMutability": "view",
      "type": "function"
    },
    {
      "inputs": [],
      "name": "TOKEN_REGISTRAR_ROLE",
      "outputs": [
        {
          "internalType": "bytes32",
          "name": "",
          "type": "bytes32"
        }
      ],
      "stateMutability": "view",
      "type": "function"
    },
    {
      "inputs": [
        {
          "internalType": "string",
          "name": "targetChainName",
          "type": "string"
        },
        {
          "internalType": "address",
          "name": "erc20OnMainChain",
          "type": "address"
        },
        {
          "internalType": "address",
          "name": "erc20OnSchain",
          "type": "address"
        }
      ],
      "name": "addERC20TokenByOwner",
      "outputs": [],
      "stateMutability": "nonpayable",
      "type": "function"
    },
    {
      "inputs": [
        {
          "internalType": "string",
          "name": "schainName",
          "type": "string"
        },
        {
          "internalType": "address",
          "name": "newTokenManager",
          "type": "address"
        }
      ],
      "name": "addTokenManager",
      "outputs": [],
      "stateMutability": "nonpayable",
      "type": "function"
    },
    {
      "inputs": [
        {
          "internalType": "contract ERC20OnChain",
          "name": "",
          "type": "address"
        }
      ],
      "name": "addedClones",
      "outputs": [
        {
          "internalType": "bool",
          "name": "",
          "type": "bool"
        }
      ],
      "stateMutability": "view",
      "type": "function"
    },
    {
      "inputs": [],
      "name": "automaticDeploy",
      "outputs": [
        {
          "internalType": "bool",
          "name": "",
          "type": "bool"
        }
      ],
      "stateMutability": "view",
      "type": "function"
    },
    {
      "inputs": [
        {
          "internalType": "address",
          "name": "newDepositBox",
          "type": "address"
        }
      ],
      "name": "changeDepositBoxAddress",
      "outputs": [],
      "stateMutability": "nonpayable",
      "type": "function"
    },
    {
      "inputs": [
        {
          "internalType": "bytes32",
          "name": "",
          "type": "bytes32"
        },
        {
          "internalType": "address",
          "name": "",
          "type": "address"
        }
      ],
      "name": "clonesErc20",
      "outputs": [
        {
          "internalType": "contract ERC20OnChain",
          "name": "",
          "type": "address"
        }
      ],
      "stateMutability": "view",
      "type": "function"
    },
    {
      "inputs": [],
      "name": "communityLocker",
      "outputs": [
        {
          "internalType": "contract ICommunityLocker",
          "name": "",
          "type": "address"
        }
      ],
      "stateMutability": "view",
      "type": "function"
    },
    {
      "inputs": [],
      "name": "depositBox",
      "outputs": [
        {
          "internalType": "address",
          "name": "",
          "type": "address"
        }
      ],
      "stateMutability": "view",
      "type": "function"
    },
    {
      "inputs": [
        {
          "internalType": "address",
          "name": "",
          "type": "address"
        }
      ],
      "name": "deprecatedClonesErc20",
      "outputs": [
        {
          "internalType": "contract ERC20OnChain",
          "name": "",
          "type": "address"
        }
      ],
      "stateMutability": "view",
      "type": "function"
    },
    {
      "inputs": [],
      "name": "disableAutomaticDeploy",
      "outputs": [],
      "stateMutability": "nonpayable",
      "type": "function"
    },
    {
      "inputs": [],
      "name": "enableAutomaticDeploy",
      "outputs": [],
      "stateMutability": "nonpayable",
      "type": "function"
    },
    {
      "inputs": [
        {
          "internalType": "address",
          "name": "contractOnMainnet",
          "type": "address"
        },
        {
          "internalType": "uint256",
          "name": "amount",
          "type": "uint256"
        }
      ],
      "name": "exitToMainERC20",
      "outputs": [],
      "stateMutability": "nonpayable",
      "type": "function"
    },
    {
      "inputs": [
        {
          "internalType": "bytes32",
          "name": "role",
          "type": "bytes32"
        }
      ],
      "name": "getRoleAdmin",
      "outputs": [
        {
          "internalType": "bytes32",
          "name": "",
          "type": "bytes32"
        }
      ],
      "stateMutability": "view",
      "type": "function"
    },
    {
      "inputs": [
        {
          "internalType": "bytes32",
          "name": "role",
          "type": "bytes32"
        },
        {
          "internalType": "uint256",
          "name": "index",
          "type": "uint256"
        }
      ],
      "name": "getRoleMember",
      "outputs": [
        {
          "internalType": "address",
          "name": "",
          "type": "address"
        }
      ],
      "stateMutability": "view",
      "type": "function"
    },
    {
      "inputs": [
        {
          "internalType": "bytes32",
          "name": "role",
          "type": "bytes32"
        }
      ],
      "name": "getRoleMemberCount",
      "outputs": [
        {
          "internalType": "uint256",
          "name": "",
          "type": "uint256"
        }
      ],
      "stateMutability": "view",
      "type": "function"
    },
    {
      "inputs": [
        {
          "internalType": "bytes32",
          "name": "role",
          "type": "bytes32"
        },
        {
          "internalType": "address",
          "name": "account",
          "type": "address"
        }
      ],
      "name": "grantRole",
      "outputs": [],
      "stateMutability": "nonpayable",
      "type": "function"
    },
    {
      "inputs": [
        {
          "internalType": "bytes32",
          "name": "role",
          "type": "bytes32"
        },
        {
          "internalType": "address",
          "name": "account",
          "type": "address"
        }
      ],
      "name": "hasRole",
      "outputs": [
        {
          "internalType": "bool",
          "name": "",
          "type": "bool"
        }
      ],
      "stateMutability": "view",
      "type": "function"
    },
    {
      "inputs": [
        {
          "internalType": "string",
          "name": "schainName",
          "type": "string"
        }
      ],
      "name": "hasTokenManager",
      "outputs": [
        {
          "internalType": "bool",
          "name": "",
          "type": "bool"
        }
      ],
      "stateMutability": "view",
      "type": "function"
    },
    {
      "inputs": [
        {
          "internalType": "string",
          "name": "newChainName",
          "type": "string"
        },
        {
          "internalType": "contract IMessageProxyForSchain",
          "name": "newMessageProxy",
          "type": "address"
        },
        {
          "internalType": "contract ITokenManagerLinker",
          "name": "newIMALinker",
          "type": "address"
        },
        {
          "internalType": "contract ICommunityLocker",
          "name": "newCommunityLocker",
          "type": "address"
        },
        {
          "internalType": "address",
          "name": "newDepositBox",
          "type": "address"
        }
      ],
      "name": "initialize",
      "outputs": [],
      "stateMutability": "nonpayable",
      "type": "function"
    },
    {
      "inputs": [
        {
          "internalType": "address[]",
          "name": "contracts",
          "type": "address[]"
        }
      ],
      "name": "initializeAllClonesERC20",
      "outputs": [],
      "stateMutability": "nonpayable",
      "type": "function"
    },
    {
      "inputs": [
        {
          "internalType": "string",
          "name": "newSchainName",
          "type": "string"
        },
        {
          "internalType": "contract IMessageProxyForSchain",
          "name": "newMessageProxy",
          "type": "address"
        },
        {
          "internalType": "contract ITokenManagerLinker",
          "name": "newIMALinker",
          "type": "address"
        },
        {
          "internalType": "contract ICommunityLocker",
          "name": "newCommunityLocker",
          "type": "address"
        },
        {
          "internalType": "address",
          "name": "newDepositBox",
          "type": "address"
        }
      ],
      "name": "initializeTokenManager",
      "outputs": [],
      "stateMutability": "nonpayable",
      "type": "function"
    },
    {
      "inputs": [],
      "name": "messageProxy",
      "outputs": [
        {
          "internalType": "contract IMessageProxyForSchain",
          "name": "",
          "type": "address"
        }
      ],
      "stateMutability": "view",
      "type": "function"
    },
    {
      "inputs": [
        {
          "internalType": "bytes32",
          "name": "fromChainHash",
          "type": "bytes32"
        },
        {
          "internalType": "address",
          "name": "sender",
          "type": "address"
        },
        {
          "internalType": "bytes",
          "name": "data",
          "type": "bytes"
        }
      ],
      "name": "postMessage",
      "outputs": [],
      "stateMutability": "nonpayable",
      "type": "function"
    },
    {
      "inputs": [
        {
          "internalType": "string",
          "name": "schainName",
          "type": "string"
        }
      ],
      "name": "removeTokenManager",
      "outputs": [],
      "stateMutability": "nonpayable",
      "type": "function"
    },
    {
      "inputs": [
        {
          "internalType": "bytes32",
          "name": "role",
          "type": "bytes32"
        },
        {
          "internalType": "address",
          "name": "account",
          "type": "address"
        }
      ],
      "name": "renounceRole",
      "outputs": [],
      "stateMutability": "nonpayable",
      "type": "function"
    },
    {
      "inputs": [
        {
          "internalType": "bytes32",
          "name": "role",
          "type": "bytes32"
        },
        {
          "internalType": "address",
          "name": "account",
          "type": "address"
        }
      ],
      "name": "revokeRole",
      "outputs": [],
      "stateMutability": "nonpayable",
      "type": "function"
    },
    {
      "inputs": [],
      "name": "schainHash",
      "outputs": [
        {
          "internalType": "bytes32",
          "name": "",
          "type": "bytes32"
        }
      ],
      "stateMutability": "view",
      "type": "function"
    },
    {
      "inputs": [
        {
          "internalType": "bytes4",
          "name": "interfaceId",
          "type": "bytes4"
        }
      ],
      "name": "supportsInterface",
      "outputs": [
        {
          "internalType": "bool",
          "name": "",
          "type": "bool"
        }
      ],
      "stateMutability": "view",
      "type": "function"
    },
    {
      "inputs": [],
      "name": "tokenManagerLinker",
      "outputs": [
        {
          "internalType": "contract ITokenManagerLinker",
          "name": "",
          "type": "address"
        }
      ],
      "stateMutability": "view",
      "type": "function"
    },
    {
      "inputs": [
        {
          "internalType": "bytes32",
          "name": "",
          "type": "bytes32"
        }
      ],
      "name": "tokenManagers",
      "outputs": [
        {
          "internalType": "address",
          "name": "",
          "type": "address"
        }
      ],
      "stateMutability": "view",
      "type": "function"
    },
    {
      "inputs": [
        {
          "internalType": "contract IERC20Upgradeable",
          "name": "",
          "type": "address"
        }
      ],
      "name": "totalSupplyOnMainnet",
      "outputs": [
        {
          "internalType": "uint256",
          "name": "",
          "type": "uint256"
        }
      ],
      "stateMutability": "view",
      "type": "function"
    },
    {
      "inputs": [
        {
          "internalType": "string",
          "name": "targetSchainName",
          "type": "string"
        },
        {
          "internalType": "address",
          "name": "contractOnMainnet",
          "type": "address"
        },
        {
          "internalType": "uint256",
          "name": "amount",
          "type": "uint256"
        }
      ],
      "name": "transferToSchainERC20",
      "outputs": [],
      "stateMutability": "nonpayable",
      "type": "function"
    },
    {
      "inputs": [
        {
          "internalType": "bytes32",
          "name": "",
          "type": "bytes32"
        },
        {
          "internalType": "address",
          "name": "",
          "type": "address"
        }
      ],
      "name": "transferredAmount",
      "outputs": [
        {
          "internalType": "uint256",
          "name": "",
          "type": "uint256"
        }
      ],
      "stateMutability": "view",
      "type": "function"
    }
  ],
  "bytecode": "0x608060405234801561001057600080fd5b5061671d806100206000396000f3fe60806040523480156200001157600080fd5b5060043610620002615760003560e01c80636d6c68e61162000149578063babc4a3311620000c7578063d547741f1162000086578063d547741f14620005fd578063dec2deb61462000614578063eafd15c81462000629578063edcc12b51462000640578063f429e383146200065757600080fd5b8063babc4a331462000562578063c0e312dc1462000590578063ca15c87314620005a7578063cb703bff14620005be578063cc5b715b14620005d557600080fd5b806391d14854116200011457806391d1485414620004fb5780639a9b9efb1462000512578063a217fddf1462000529578063aebaaca91462000532578063b9581c50146200055857600080fd5b80636d6c68e614620004a25780638504950614620004b6578063884cee5a14620004cd5780639010d07c14620004e457600080fd5b806339927cf911620001e3578063510d8a5811620001a2578063510d8a5814620004155780635573b8b6146200044c57806368eb202214620004605780636ce681d214620004775780636d611286146200048e57600080fd5b806339927cf9146200037b5780633b690b6b14620003925780633fa194ce146200039c578063467a5d8114620003b357806350f4428014620003df57600080fd5b8063248a9ca31162000230578063248a9ca314620002fa57806328c5e182146200032f5780632dc151de14620003395780632f2ff15d146200034d57806336568abe146200036457600080fd5b806301ffc9a71462000266578063029996b814620002925780630b885ac3146200029e5780630f1a8f7414620002b5575b600080fd5b6200027d6200027736600462003aa0565b6200067a565b60405190151581526020015b60405180910390f35b6200029c620006a8565b005b6200029c620002af36600462003cdb565b62000700565b620002e1620002c6366004620039cf565b60ce602052600090815260409020546001600160a01b031681565b6040516001600160a01b03909116815260200162000289565b620003206200030b366004620039cf565b60009081526065602052604090206001015490565b60405190815260200162000289565b6200032062000716565b60ca54620002e1906001600160a01b031681565b6200029c6200035e366004620039e9565b62000761565b6200029c62000375366004620039e9565b6200078c565b6200027d6200038c36600462003aea565b620007b2565b6200032060cc5481565b62000320600080516020620066c883398151915281565b620002e1620003c4366004620038e3565b60cf602052600090815260409020546001600160a01b031681565b620004066040518060400160405280600781526020016613585a5b9b995d60ca1b81525081565b604051620002899190620040ad565b620002e162000426366004620039e9565b60d26020908152600092835260408084209091529082529020546001600160a01b031681565b60c954620002e1906001600160a01b031681565b6200029c6200047136600462003903565b6200080f565b6200029c6200048836600462003cdb565b620008d5565b60cd54620002e1906001600160a01b031681565b60cb54620002e1906001600160a01b031681565b6200029c620004c736600462003bfa565b62000aab565b6200029c620004de36600462003a1c565b62000cd9565b620002e1620004f536600462003a7d565b62000e66565b6200027d6200050c366004620039e9565b62000e87565b6200029c6200052336600462003932565b62000eb2565b62000320600081565b6200027d62000543366004620038e3565b60d16020526000908152604090205460ff1681565b6200029c62001192565b6200032062000573366004620039e9565b60d360209081526000928352604080842090915290825290205481565b6200029c620005a136600462003aea565b620011db565b62000320620005b8366004620039cf565b620012f9565b6200029c620005cf36600462003b2f565b62001312565b620003207ffda70c2cc66a36c14884ee85424961f51b1d92b4494751699b6d105b3bcbcba881565b6200029c6200060e366004620039e9565b62001499565b60cd546200027d90600160a01b900460ff1681565b6200029c6200063a36600462003b8b565b620014a5565b6200029c62000651366004620038e3565b62001892565b6200032062000668366004620038e3565b60d06020526000908152604090205481565b60006001600160e01b03198216635a05180f60e01b1480620006a25750620006a282620019ae565b92915050565b620006c3600080516020620066c88339815191523362000e87565b620006eb5760405162461bcd60e51b8152600401620006e290620040eb565b60405180910390fd5b60cd805460ff60a01b1916600160a01b179055565b6200070f8585858585620008d5565b5050505050565b6040518060400160405280600781526020016613585a5b9b995d60ca1b81525060405160200162000748919062003fbb565b6040516020818303038152906040528051906020012081565b6200076d8282620019e5565b600082815260976020526040902062000787908262001a0f565b505050565b62000798828262001a26565b600082815260976020526040902062000787908262001aa4565b6000806001600160a01b031660ce60008585604051602001620007d792919062003fab565b60408051808303601f19018152918152815160209283012083529082019290925201600020546001600160a01b031614159392505050565b60cb546040516311be333d60e11b81523360048201526001600160a01b039091169063237c667a90602401600060405180830381600087803b1580156200085557600080fd5b505af11580156200086a573d6000803e3d6000fd5b50505050620008d16040518060400160405280600781526020016613585a5b9b995d60ca1b815250604051602001620008a4919062003fbb565b60408051601f19818403018152919052805160209091012060cd546001600160a01b031684338562001abb565b5050565b600054610100900460ff1680620008ef575060005460ff16155b6200090e5760405162461bcd60e51b8152600401620006e2906200412c565b600054610100900460ff1615801562000931576000805461ffff19166101011790555b6001600160a01b038216620009895760405162461bcd60e51b815260206004820181905260248201527f4465706f736974426f7820616464726573732068617320746f206265207365746044820152606401620006e2565b620009936200206a565b620009a060003362002104565b620009bb600080516020620066c88339815191523362002104565b620009e77ffda70c2cc66a36c14884ee85424961f51b1d92b4494751699b6d105b3bcbcba83362002104565b85604051602001620009fa919062003fbb565b60408051601f19818403018152828252805160209182012060cc5560c980546001600160a01b038a81166001600160a01b03199283161790925560ca80548a841690831617905560cb805489841690831617905560cd8054928816929091168217905560008452908301527fc968af77923193016f61d74ba6827296db5e1f37ec4fab3ad1ef20e193395e59910160405180910390a1801562000aa3576000805461ff00191690555b505050505050565b83838080601f016020809104026020016040519081016040528093929190818152602001838380828437600092018290525060405133945090925062000af79150849060200162003fbb565b60408051601f1981840301815282825280516020918201208383018352600784526613585a5b9b995d60ca1b84830152915191935062000b3992910162003fbb565b6040516020818303038152906040528051906020012081141562000bb95760405162461bcd60e51b815260206004820152603060248201527f546869732066756e6374696f6e206973206e6f7420666f72207472616e73666560448201526f1c9c9a5b99c81d1bc813585a5b9b995d60821b6064820152608401620006e2565b6001600160a01b03821662000c115760405162461bcd60e51b815260206004820152601a60248201527f496e636f727265637420726563656976657220616464726573730000000000006044820152606401620006e2565b600081815260ce60205260409020546001600160a01b031662000c775760405162461bcd60e51b815260206004820152601f60248201527f496e636f727265637420546f6b656e204d616e616765722061646472657373006044820152606401620006e2565b6000878760405160200162000c8e92919062003fab565b60408051601f198184030181529181528151602092830120600081815260ce90935291205490915062000ccf9082906001600160a01b031688338962001abb565b5050505050505050565b60c9546001600160a01b0316331462000d355760405162461bcd60e51b815260206004820152601c60248201527f53656e646572206973206e6f742061204d65737361676550726f7879000000006044820152606401620006e2565b838360cc54821415801562000d51575062000d51828262002110565b62000d9f5760405162461bcd60e51b815260206004820152601b60248201527f526563656976657220636861696e20697320696e636f727265637400000000006044820152606401620006e2565b600062000dad85856200219b565b90506000600282600e81111562000dc85762000dc8620043ff565b148062000de95750600482600e81111562000de75762000de7620043ff565b145b8062000e095750600382600e81111562000e075762000e07620043ff565b145b1562000e245762000e1c888787620021ef565b905062000ccf565b60405162461bcd60e51b815260206004820152601660248201527526b2b9b9b0b3b2aa3cb8329034b9903ab735b737bbb760511b6044820152606401620006e2565b600082815260976020526040812062000e809083620027ec565b9392505050565b60009182526065602090815260408084206001600160a01b0393909316845291905290205460ff1690565b62000ebf60003362000e87565b62000f0d5760405162461bcd60e51b815260206004820152601860248201527f53656e646572206973206e6f7420617574686f72697a656400000000000000006044820152606401620006e2565b60005b81811015620007875762000f7060cf600085858581811062000f365762000f366200442b565b905060200201602081019062000f4d9190620038e3565b6001600160a01b039081168252602082019290925260400160002054163b151590565b801562000fef575062000fed60d260006040518060400160405280600781526020016613585a5b9b995d60ca1b81525060405160200162000fb2919062003fbb565b604051602081830303815290604052805190602001208152602001908152602001600020600085858581811062000f365762000f366200442b565b155b156200117d5760cf60008484848181106200100e576200100e6200442b565b9050602002016020810190620010259190620038e3565b6001600160a01b03166001600160a01b0316815260200190815260200160002060009054906101000a90046001600160a01b031660d260006040518060400160405280600781526020016613585a5b9b995d60ca1b8152506040516020016200108f919062003fbb565b6040516020818303038152906040528051906020012081526020019081526020016000206000858585818110620010ca57620010ca6200442b565b9050602002016020810190620010e19190620038e3565b6001600160a01b03166001600160a01b0316815260200190815260200160002060006101000a8154816001600160a01b0302191690836001600160a01b0316021790555060cf60008484848181106200113e576200113e6200442b565b9050602002016020810190620011559190620038e3565b6001600160a01b03168152602081019190915260400160002080546001600160a01b03191690555b806200118981620043a8565b91505062000f10565b620011ad600080516020620066c88339815191523362000e87565b620011cc5760405162461bcd60e51b8152600401620006e290620040eb565b60cd805460ff60a01b19169055565b60ca546001600160a01b0316331480620011fd5750620011fd60003362000e87565b620012435760405162461bcd60e51b81526020600482015260156024820152742737ba1030baba3437b934bd32b21031b0b63632b960591b6044820152606401620006e2565b600082826040516020016200125a92919062003fab565b60408051601f198184030181529181528151602092830120600081815260ce9093529120549091506001600160a01b0316620012d95760405162461bcd60e51b815260206004820152601860248201527f546f6b656e204d616e61676572206973206e6f742073657400000000000000006044820152606401620006e2565b600090815260ce6020526040902080546001600160a01b03191690555050565b6000818152609760205260408120620006a290620027fa565b60ca546001600160a01b03163314806200133457506200133460003362000e87565b6200137a5760405162461bcd60e51b81526020600482015260156024820152742737ba1030baba3437b934bd32b21031b0b63632b960591b6044820152606401620006e2565b600083836040516020016200139192919062003fab565b60408051601f198184030181529181528151602092830120600081815260ce9093529120549091506001600160a01b031615620014115760405162461bcd60e51b815260206004820152601c60248201527f546f6b656e204d616e6167657220697320616c726561647920736574000000006044820152606401620006e2565b6001600160a01b038216620014695760405162461bcd60e51b815260206004820152601f60248201527f496e636f727265637420546f6b656e204d616e616765722061646472657373006044820152606401620006e2565b600090815260ce6020526040902080546001600160a01b0319166001600160a01b03929092169190911790555050565b62000798828262002805565b620014d17ffda70c2cc66a36c14884ee85424961f51b1d92b4494751699b6d105b3bcbcba83362000e87565b6200151f5760405162461bcd60e51b815260206004820181905260248201527f544f4b454e5f5245474953545241525f524f4c452069732072657175697265646044820152606401620006e2565b60c954604051634ccd5cd560e11b81526001600160a01b039091169063999ab9aa906200155390879087906004016200407e565b60206040518083038186803b1580156200156c57600080fd5b505afa15801562001581573d6000803e3d6000fd5b505050506040513d601f19601f82011682018060405250810190620015a79190620039ab565b620015ee5760405162461bcd60e51b815260206004820152601660248201527510da185a5b881a5cc81b9bdd0818dbdb9b9958dd195960521b6044820152606401620006e2565b6001600160a01b0381163b620016475760405162461bcd60e51b815260206004820152601f60248201527f476976656e2061646472657373206973206e6f74206120636f6e7472616374006044820152606401620006e2565b806001600160a01b03166318160ddd6040518163ffffffff1660e01b815260040160206040518083038186803b1580156200168157600080fd5b505afa15801562001696573d6000803e3d6000fd5b505050506040513d601f19601f82011682018060405250810190620016bc919062003eef565b156200170b5760405162461bcd60e51b815260206004820152601760248201527f546f74616c537570706c79206973206e6f74207a65726f0000000000000000006044820152606401620006e2565b600084846040516020016200172292919062003fab565b60408051601f198184030181529181528151602092830120600081815260d284528281206001600160a01b038881168352945291909120549092501615620017a65760405162461bcd60e51b8152602060048201526016602482015275436f756c64206e6f742072656c696e6b20636c6f6e6560501b6044820152606401620006e2565b6001600160a01b038216600090815260d1602052604090205460ff1615620018115760405162461bcd60e51b815260206004820152601760248201527f436c6f6e652077617320616c72656164792061646465640000000000000000006044820152606401620006e2565b600081815260d2602090815260408083206001600160a01b0387811680865291845282852080546001600160a01b031916918816918217905580855260d1909352818420805460ff1916600117905590519192909184917f89b97f12155170c72b8eb3449d5f1ba0c6a29e5546051dc35694313b1b60741f91a45050505050565b6200189f60003362000e87565b620018ed5760405162461bcd60e51b815260206004820152601e60248201527f44454641554c545f41444d494e5f524f4c4520697320726571756972656400006044820152606401620006e2565b6001600160a01b038116620019455760405162461bcd60e51b815260206004820181905260248201527f4465706f736974426f7820616464726573732068617320746f206265207365746044820152606401620006e2565b60cd54604080516001600160a01b03928316815291831660208301527fc968af77923193016f61d74ba6827296db5e1f37ec4fab3ad1ef20e193395e59910160405180910390a160cd80546001600160a01b0319166001600160a01b0392909216919091179055565b60006001600160e01b03198216637965db0b60e01b1480620006a257506301ffc9a760e01b6001600160e01b0319831614620006a2565b60008281526065602052604090206001015462001a0381336200282f565b6200078783836200289e565b600062000e80836001600160a01b03841662002928565b6001600160a01b038116331462001a985760405162461bcd60e51b815260206004820152602f60248201527f416363657373436f6e74726f6c3a2063616e206f6e6c792072656e6f756e636560448201526e103937b632b9903337b91039b2b63360891b6064820152608401620006e2565b620008d182826200297a565b600062000e80836001600160a01b038416620029e4565b600085815260d2602090815260408083206001600160a01b0380881685529252822054168062001b5857506001600160a01b038416600090815260d16020526040902054849060ff161562001b535760405162461bcd60e51b815260206004820152601a60248201527f496e636f7272656374206d61696e20636861696e20746f6b656e0000000000006044820152606401620006e2565b600191505b6001600160a01b0381163b62001bb15760405162461bcd60e51b815260206004820152601860248201527f4e6f20746f6b656e20636c6f6e65206f6e2073636861696e00000000000000006044820152606401620006e2565b6040516370a0823160e01b815233600482015283906001600160a01b038316906370a082319060240160206040518083038186803b15801562001bf357600080fd5b505afa15801562001c08573d6000803e3d6000fd5b505050506040513d601f19601f8201168201806040525081019062001c2e919062003eef565b101562001c735760405162461bcd60e51b8152602060048201526012602482015271496e73756666696369656e742066756e647360701b6044820152606401620006e2565b604051636eb1769f60e11b815233600482015230602482015283906001600160a01b0383169063dd62ed3e9060440160206040518083038186803b15801562001cbb57600080fd5b505afa15801562001cd0573d6000803e3d6000fd5b505050506040513d601f19601f8201168201806040525081019062001cf6919062003eef565b101562001d575760405162461bcd60e51b815260206004820152602860248201527f5472616e73666572206973206e6f7420617070726f76656420627920746f6b6560448201526737103437b63232b960c11b6064820152608401620006e2565b600062001d6686868662002ae8565b9050821562001ef0576040518060400160405280600781526020016613585a5b9b995d60ca1b81525060405160200162001da1919062003fbb565b6040516020818303038152906040528051906020012088141562001e245760405162461bcd60e51b815260206004820152603360248201527f4d61696e20636861696e20746f6b656e20636f756c64206e6f74206265207472604482015272185b9cd9995c9959081d1bc813585a5b9b995d606a1b6064820152608401620006e2565b62001e328883338762002b49565b905062001e4188838662002cd5565b6040516323b872dd60e01b8152336004820152306024820152604481018590526001600160a01b038316906323b872dd90606401602060405180830381600087803b15801562001e9057600080fd5b505af115801562001ea5573d6000803e3d6000fd5b505050506040513d601f19601f8201168201806040525081019062001ecb9190620039ab565b62001eea5760405162461bcd60e51b8152600401620006e2906200417a565b62001ff6565b6040516323b872dd60e01b8152336004820152306024820152604481018590526001600160a01b038316906323b872dd90606401602060405180830381600087803b15801562001f3f57600080fd5b505af115801562001f54573d6000803e3d6000fd5b505050506040513d601f19601f8201168201806040525081019062001f7a9190620039ab565b62001f995760405162461bcd60e51b8152600401620006e2906200417a565b604051630852cd8d60e31b8152600481018590526001600160a01b038316906342966c6890602401600060405180830381600087803b15801562001fdc57600080fd5b505af115801562001ff1573d6000803e3d6000fd5b505050505b60c954604051634a24490160e11b81526001600160a01b03909116906394489202906200202c908b908b90869060040162004052565b600060405180830381600087803b1580156200204757600080fd5b505af11580156200205c573d6000803e3d6000fd5b505050505050505050505050565b600054610100900460ff168062002084575060005460ff16155b620020a35760405162461bcd60e51b8152600401620006e2906200412c565b600054610100900460ff16158015620020c6576000805461ffff19166101011790555b620020d062002d13565b620020da62002d13565b620020e462002d13565b620020ee62002d13565b801562002101576000805461ff00191690555b50565b6200076d828262002d83565b60006040518060400160405280600781526020016613585a5b9b995d60ca1b81525060405160200162002144919062003fbb565b6040516020818303038152906040528051906020012083146200218457600083815260ce60205260409020546001600160a01b0383811691161462000e80565b5060cd546001600160a01b03908116911614919050565b600080620021ac83850185620039cf565b9050620021bb602082620043c6565b620021e157620021d8620021d284838188620042d8565b6200219b565b915050620006a2565b620021d88385018562003acc565b600080620021fe84846200219b565b9050600080600062002211878762002d8f565b919450925090506000600285600e811115620022315762002231620043ff565b14620025a1576000600386600e811115620022505762002250620043ff565b14156200229a576000620022658a8a62002e51565b60209081015160008d815260d2835260408082206001600160a01b03808b168452945290205490911693509150620024049050565b6000620022a88a8a62002f2c565b60208082015160008e815260d2835260408082206001600160a01b03808c168452945290205490911694509250905082620024025760cd54600160a01b900460ff16620023385760405162461bcd60e51b815260206004820152601c60248201527f4175746f6d61746963206465706c6f792069732064697361626c6564000000006044820152606401620006e2565b80604001516000015181604001516040015160405162002358906200375d565b62002365929190620040c2565b604051809103906000f08015801562002382573d6000803e3d6000fd5b5060008c815260d2602090815260408083206001600160a01b038a811680865291845282852080546001600160a01b031916918716918217905580855260d1909352818420805460ff191660011790559051939650909290918e917f817384d3c8c32b58342425cd864f5540355cc93dfbbfc2df8763793d2d3a5e129190a45b505b6001600160a01b038216600090815260d06020526040902054811462002440576001600160a01b038216600090815260d0602052604090208190555b600080620024c3846001600160a01b03166318160ddd6040518163ffffffff1660e01b815260040160206040518083038186803b1580156200248157600080fd5b505afa15801562002496573d6000803e3d6000fd5b505050506040513d601f19601f82011682018060405250810190620024bc919062003eef565b8662003023565b9092509050818015620024ee57506001600160a01b038416600090815260d060205260409020548111155b620025345760405162461bcd60e51b8152602060048201526015602482015274151bdd185b081cdd5c1c1b1e48195e18d959591959605a1b6044820152606401620006e2565b6040516340c10f1960e01b81526001600160a01b038881166004830152602482018790528516906340c10f1990604401600060405180830381600087803b1580156200257f57600080fd5b505af115801562002594573d6000803e3d6000fd5b5050505050505062002790565b6001600160a01b0383163b15158015620025d05750600089815260d460205260409020620025d090846200304e565b6200261e5760405162461bcd60e51b815260206004820152601a60248201527f496e636f7272656374206d61696e20636861696e20746f6b656e0000000000006044820152606401620006e2565b6040516370a0823160e01b815230600482015282906001600160a01b038516906370a082319060240160206040518083038186803b1580156200266057600080fd5b505afa15801562002675573d6000803e3d6000fd5b505050506040513d601f19601f820116820180604052508101906200269b919062003eef565b1015620026de5760405162461bcd60e51b815260206004820152601060248201526f4e6f7420656e6f756768206d6f6e657960801b6044820152606401620006e2565b620026eb89848462003071565b60405163a9059cbb60e01b81526001600160a01b0385811660048301526024820184905284169063a9059cbb90604401602060405180830381600087803b1580156200273657600080fd5b505af11580156200274b573d6000803e3d6000fd5b505050506040513d601f19601f82011682018060405250810190620027719190620039ab565b620027905760405162461bcd60e51b8152600401620006e2906200417a565b806001600160a01b0316836001600160a01b03168a7f131b32ac87206ff25b3250e2d194c4cc6d63e928ab212dbd294b03b49af27b4885604051620027d791815260200190565b60405180910390a45091979650505050505050565b600062000e808383620030a5565b6000620006a2825490565b6000828152606560205260409020600101546200282381336200282f565b6200078783836200297a565b6200283b828262000e87565b620008d15762002856816001600160a01b03166014620030d2565b62002863836020620030d2565b6040516020016200287692919062003fd9565b60408051601f198184030181529082905262461bcd60e51b8252620006e291600401620040ad565b620028aa828262000e87565b620008d15760008281526065602090815260408083206001600160a01b03851684529091529020805460ff19166001179055620028e43390565b6001600160a01b0316816001600160a01b0316837f2f8788117e7eff1d82e926ec794901d17c78024a50270940304540a733656f0d60405160405180910390a45050565b60008181526001830160205260408120546200297157508154600181810184556000848152602080822090930184905584548482528286019093526040902091909155620006a2565b506000620006a2565b62002986828262000e87565b15620008d15760008281526065602090815260408083206001600160a01b0385168085529252808320805460ff1916905551339285917ff6391f5c32d9c69d2a47ea670b442974b53935d1edc7fd64eb21e047a839171b9190a45050565b6000818152600183016020526040812054801562002add57600062002a0b60018362004341565b855490915060009062002a219060019062004341565b905081811462002a8d57600086600001828154811062002a455762002a456200442b565b906000526020600020015490508087600001848154811062002a6b5762002a6b6200442b565b6000918252602080832090910192909255918252600188019052604090208390555b855486908062002aa15762002aa162004415565b600190038181906000526020600020016000905590558560010160008681526020019081526020016000206000905560019350505050620006a2565b6000915050620006a2565b6040805160a08101825260026080820190815281526001600160a01b03808616602080840191909152908516828401526060808301859052925162002b309183910162004240565b6040516020818303038152906040529150509392505050565b606060008490506000816001600160a01b03166318160ddd6040518163ffffffff1660e01b815260040160206040518083038186803b15801562002b8c57600080fd5b505afa15801562002ba1573d6000803e3d6000fd5b505050506040513d601f19601f8201168201806040525081019062002bc7919062003eef565b90508084111562002c115760405162461bcd60e51b8152602060048201526013602482015272105b5bdd5b9d081a5cc81a5b98dbdc9c9958dd606a1b6044820152606401620006e2565b600087815260d46020526040812062002c2b90886200304e565b90508062002c6a5762002c3f88886200328b565b62002c6287878762002c5187620033a4565b62002c5c886200341b565b620035be565b935062002c85565b62002c8287878762002c7c87620033a4565b62003636565b93505b866001600160a01b0316887f759c7e29aa34dec4bb9f3af86e647e11cffa0fee371049fd55e8779a2c24484e8760405162002cc291815260200190565b60405180910390a3505050949350505050565b600083815260d3602090815260408083206001600160a01b03861684529091528120805483929062002d0990849062004304565b9091555050505050565b600054610100900460ff168062002d2d575060005460ff16155b62002d4c5760405162461bcd60e51b8152600401620006e2906200412c565b600054610100900460ff16158015620020ee576000805461ffff1916610101179055801562002101576000805461ff001916905550565b620008d182826200289e565b60008060008062002da186866200219b565b9050600281600e81111562002dba5762002dba620043ff565b141562002dee57600062002dcf8787620036a9565b9050806040015181602001518260600151945094509450505062002e4a565b600381600e81111562002e055762002e05620043ff565b141562002e3c57600062002e1a878762002e51565b5160408101516020820151606090920151909650909450925062002e4a915050565b600062002e1a878762002f2c565b9250925092565b62002e916040805160e081018252600060c08201818152928201928352606082018190526080820181905260a08201529081908152602001600081525090565b600362002e9f84846200219b565b600e81111562002eb35762002eb3620043ff565b1462002f1e5760405162461bcd60e51b815260206004820152603360248201527f4d6573736167652074797065206973206e6f74204552433230207472616e7366604482015272657220616e6420746f74616c20737570706c7960681b6064820152608401620006e2565b62000e808284018462003e75565b62002f896040805161010081018252600060e0820181815260608084019182526080840183905260a0840183905260c084018390529083526020808401839052845180830186528281529081019290925281840152909182015290565b600462002f9784846200219b565b600e81111562002fab5762002fab620043ff565b14620030155760405162461bcd60e51b815260206004820152603260248201527f4d6573736167652074797065206973206e6f74204552433230207472616e73666044820152716572207769746820746f6b656e20696e666f60701b6064820152608401620006e2565b62000e808284018462003d70565b600080838301848110156200304057600080925092505062003047565b6001925090505b9250929050565b6001600160a01b0381166000908152600183016020526040812054151562000e80565b600083815260d3602090815260408083206001600160a01b03861684529091528120805483929062002d0990849062004341565b6000826000018281548110620030bf57620030bf6200442b565b9060005260206000200154905092915050565b60606000620030e38360026200431f565b620030f090600262004304565b6001600160401b038111156200310a576200310a62004441565b6040519080825280601f01601f19166020018201604052801562003135576020820181803683370190505b509050600360fc1b816000815181106200315357620031536200442b565b60200101906001600160f81b031916908160001a905350600f60fb1b816001815181106200318557620031856200442b565b60200101906001600160f81b031916908160001a9053506000620031ab8460026200431f565b620031b890600162004304565b90505b60018111156200323a576f181899199a1a9b1b9c1cb0b131b232b360811b85600f1660108110620031f057620031f06200442b565b1a60f81b8282815181106200320957620032096200442b565b60200101906001600160f81b031916908160001a90535060049490941c9362003232816200438e565b9050620031bb565b50831562000e805760405162461bcd60e51b815260206004820181905260248201527f537472696e67733a20686578206c656e67746820696e73756666696369656e746044820152606401620006e2565b6001600160a01b0381163b620032e45760405162461bcd60e51b815260206004820152601f60248201527f476976656e2061646472657373206973206e6f74206120636f6e7472616374006044820152606401620006e2565b600082815260d460205260409020620032fe90826200304e565b156200334d5760405162461bcd60e51b815260206004820152601d60248201527f455243323020546f6b656e2077617320616c72656164792061646465640000006044820152606401620006e2565b600082815260d46020526040902062003367908262001a0f565b506040516000906001600160a01b0383169084907f89b97f12155170c72b8eb3449d5f1ba0c6a29e5546051dc35694313b1b60741f908490a45050565b6000816001600160a01b03166318160ddd6040518163ffffffff1660e01b815260040160206040518083038186803b158015620033e057600080fd5b505afa158015620033f5573d6000803e3d6000fd5b505050506040513d601f19601f82011682018060405250810190620006a2919062003eef565b604080516060808201835280825260006020830152918101919091526040518060600160405280836001600160a01b03166306fdde036040518163ffffffff1660e01b815260040160006040518083038186803b1580156200347c57600080fd5b505afa15801562003491573d6000803e3d6000fd5b505050506040513d6000823e601f3d908101601f19168201604052620034bb919081019062003c5c565b8152602001836001600160a01b031663313ce5676040518163ffffffff1660e01b815260040160206040518083038186803b158015620034fa57600080fd5b505afa1580156200350f573d6000803e3d6000fd5b505050506040513d601f19601f8201168201806040525081019062003535919062003f09565b60ff168152602001836001600160a01b03166395d89b416040518163ffffffff1660e01b815260040160006040518083038186803b1580156200357757600080fd5b505afa1580156200358c573d6000803e3d6000fd5b505050506040513d6000823e601f3d908101601f19168201604052620035b6919081019062003c5c565b905292915050565b6040805161010081018252600460e0820190815260608083019182526001600160a01b03808a166080850152881660a084015260c083018790529082526020808301869052828401859052925190926200361b91839101620041a7565b60405160208183030381529060405291505095945050505050565b6040805160e081018252600360c082019081528183019081526001600160a01b03808816606080850191909152908716608084015260a083018690529082526020808301859052925190926200368f918391016200421b565b604051602081830303815290604052915050949350505050565b6040805160a08101825260006080820181815282526020820181905291810182905260608101919091526002620036e184846200219b565b600e811115620036f557620036f5620043ff565b146200374f5760405162461bcd60e51b815260206004820152602260248201527f4d6573736167652074797065206973206e6f74204552433230207472616e736660448201526132b960f11b6064820152608401620006e2565b62000e808284018462003ed0565b61224a806200447e83390190565b60008083601f8401126200377e57600080fd5b5081356001600160401b038111156200379657600080fd5b6020830191508360208285010111156200304757600080fd5b8035600f8110620037bf57600080fd5b919050565b600082601f830112620037d657600080fd5b8135620037ed620037e782620042ae565b6200427b565b8181528460208386010111156200380357600080fd5b816020850160208301376000918101602001919091529392505050565b600081830360808112156200383457600080fd5b604051608081016001600160401b0382821081831117156200385a576200385a62004441565b8160405282945060208412156200387057600080fd5b60a08301935081841081851117156200388d576200388d62004441565b50826040526200389d85620037af565b8152815260208401359150620038b38262004457565b81602082015260408401359150620038cb8262004457565b81604082015260608401356060820152505092915050565b600060208284031215620038f657600080fd5b813562000e808162004457565b600080604083850312156200391757600080fd5b8235620039248162004457565b946020939093013593505050565b600080602083850312156200394657600080fd5b82356001600160401b03808211156200395e57600080fd5b818501915085601f8301126200397357600080fd5b8135818111156200398357600080fd5b8660208260051b85010111156200399957600080fd5b60209290920196919550909350505050565b600060208284031215620039be57600080fd5b8151801515811462000e8057600080fd5b600060208284031215620039e257600080fd5b5035919050565b60008060408385031215620039fd57600080fd5b82359150602083013562003a118162004457565b809150509250929050565b6000806000806060858703121562003a3357600080fd5b84359350602085013562003a478162004457565b925060408501356001600160401b0381111562003a6357600080fd5b62003a71878288016200376b565b95989497509550505050565b6000806040838503121562003a9157600080fd5b50508035926020909101359150565b60006020828403121562003ab357600080fd5b81356001600160e01b03198116811462000e8057600080fd5b60006020828403121562003adf57600080fd5b62000e8082620037af565b6000806020838503121562003afe57600080fd5b82356001600160401b0381111562003b1557600080fd5b62003b23858286016200376b565b90969095509350505050565b60008060006040848603121562003b4557600080fd5b83356001600160401b0381111562003b5c57600080fd5b62003b6a868287016200376b565b909450925050602084013562003b808162004457565b809150509250925092565b6000806000806060858703121562003ba257600080fd5b84356001600160401b0381111562003bb957600080fd5b62003bc7878288016200376b565b909550935050602085013562003bdd8162004457565b9150604085013562003bef8162004457565b939692955090935050565b6000806000806060858703121562003c1157600080fd5b84356001600160401b0381111562003c2857600080fd5b62003c36878288016200376b565b909550935050602085013562003c4c8162004457565b9396929550929360400135925050565b60006020828403121562003c6f57600080fd5b81516001600160401b0381111562003c8657600080fd5b8201601f8101841362003c9857600080fd5b805162003ca9620037e782620042ae565b81815285602083850101111562003cbf57600080fd5b62003cd28260208301602086016200435b565b95945050505050565b600080600080600060a0868803121562003cf457600080fd5b85356001600160401b0381111562003d0b57600080fd5b62003d1988828901620037c4565b955050602086013562003d2c8162004457565b9350604086013562003d3e8162004457565b9250606086013562003d508162004457565b9150608086013562003d628162004457565b809150509295509295909350565b60006020828403121562003d8357600080fd5b81356001600160401b038082111562003d9b57600080fd5b9083019060c0828603121562003db057600080fd5b62003dba62004250565b62003dc6868462003820565b81526080830135602082015260a08301358281111562003de557600080fd5b92909201916060838703121562003dfb57600080fd5b62003e0562004250565b83358381111562003e1557600080fd5b62003e2388828701620037c4565b825250602084013562003e36816200446d565b602082015260408401358381111562003e4e57600080fd5b62003e5c88828701620037c4565b6040830152508060408301525080935050505092915050565b600060a0828403121562003e8857600080fd5b604051604081018181106001600160401b038211171562003ead5762003ead62004441565b60405262003ebc848462003820565b815260809290920135602083015250919050565b60006080828403121562003ee357600080fd5b62000e80838362003820565b60006020828403121562003f0257600080fd5b5051919050565b60006020828403121562003f1c57600080fd5b815162000e80816200446d565b6000815180845262003f438160208601602086016200435b565b601f01601f19169290920160200192915050565b805151600f811062003f7957634e487b7160e01b600052602160045260246000fd5b82526020818101516001600160a01b039081169184019190915260408083015190911690830152606090810151910152565b8183823760009101908152919050565b6000825162003fcf8184602087016200435b565b9190910192915050565b7f416363657373436f6e74726f6c3a206163636f756e7420000000000000000000815260008351620040138160178501602088016200435b565b7001034b99036b4b9b9b4b733903937b6329607d1b6017918401918201528351620040468160288401602088016200435b565b01602801949350505050565b8381526001600160a01b038316602082015260606040820181905260009062003cd29083018462003f29565b60208152816020820152818360408301376000818301604090810191909152601f909201601f19160101919050565b60208152600062000e80602083018462003f29565b604081526000620040d7604083018562003f29565b828103602084015262003cd2818562003f29565b60208082526021908201527f4155544f4d415449435f4445504c4f595f524f4c4520697320726571756972656040820152601960fa1b606082015260800190565b6020808252602e908201527f496e697469616c697a61626c653a20636f6e747261637420697320616c72656160408201526d191e481a5b9a5d1a585b1a5e995960921b606082015260800190565b602080825260139082015272151c985b9cd9995c881dd85cc819985a5b1959606a1b604082015260600190565b60208152620041bb60208201835162003f57565b602082015160a08201526000604083015160c0808401528051606060e0850152620041eb61014085018262003f29565b602083015160ff1661010086015260409092015184830360df190161012086015291905062003cd2818362003f29565b600060a0820190506200423082845162003f57565b6020830151608083015292915050565b60808101620006a2828462003f57565b604051606081016001600160401b038111828210171562004275576200427562004441565b60405290565b604051601f8201601f191681016001600160401b0381118282101715620042a657620042a662004441565b604052919050565b60006001600160401b03821115620042ca57620042ca62004441565b50601f01601f191660200190565b60008085851115620042e957600080fd5b83861115620042f757600080fd5b5050820193919092039150565b600082198211156200431a576200431a620043e9565b500190565b60008160001904831182151516156200433c576200433c620043e9565b500290565b600082821015620043565762004356620043e9565b500390565b60005b83811015620043785781810151838201526020016200435e565b8381111562004388576000848401525b50505050565b600081620043a057620043a0620043e9565b506000190190565b6000600019821415620043bf57620043bf620043e9565b5060010190565b600082620043e457634e487b7160e01b600052601260045260246000fd5b500690565b634e487b7160e01b600052601160045260246000fd5b634e487b7160e01b600052602160045260246000fd5b634e487b7160e01b600052603160045260246000fd5b634e487b7160e01b600052603260045260246000fd5b634e487b7160e01b600052604160045260246000fd5b6001600160a01b03811681146200210157600080fd5b60ff811681146200210157600080fdfe60806040523480156200001157600080fd5b506040516200224a3803806200224a833981016040819052620000349162000809565b600054610100900460ff16806200004e575060005460ff16155b620000a65760405162461bcd60e51b815260206004820152602e60248201526000805160206200220a83398151915260448201526d191e481a5b9a5d1a585b1a5e995960921b60648201526084015b60405180910390fd5b600054610100900460ff16158015620000c9576000805461ffff19166101011790555b620000de6200015c60201b620007cd1760201c565b620000f583836200022b60201b620008581760201c565b6200010a620002ea60201b620008d71760201c565b620001256000805160206200222a8339815191528062000384565b620001406000805160206200222a83398151915233620003cf565b801562000153576000805461ff00191690555b505050620008c6565b600054610100900460ff168062000176575060005460ff16155b620001ca5760405162461bcd60e51b815260206004820152602e60248201526000805160206200220a83398151915260448201526d191e481a5b9a5d1a585b1a5e995960921b60648201526084016200009d565b600054610100900460ff16158015620001ed576000805461ffff19166101011790555b620001f76200040d565b620002016200040d565b6200020b6200040d565b620002156200040d565b801562000228576000805461ff00191690555b50565b600054610100900460ff168062000245575060005460ff16155b620002995760405162461bcd60e51b815260206004820152602e60248201526000805160206200220a83398151915260448201526d191e481a5b9a5d1a585b1a5e995960921b60648201526084016200009d565b600054610100900460ff16158015620002bc576000805461ffff19166101011790555b620002c66200040d565b620002d28383620004b2565b8015620002e5576000805461ff00191690555b505050565b600054610100900460ff168062000304575060005460ff16155b620003585760405162461bcd60e51b815260206004820152602e60248201526000805160206200220a83398151915260448201526d191e481a5b9a5d1a585b1a5e995960921b60648201526084016200009d565b600054610100900460ff1615801562000201576000805461ffff19166101011790556200020b6200040d565b600082815260656020526040808220600101805490849055905190918391839186917fbd79b86ffe0ab8e8776151514217cd7cacd52c909f66475c3af44e129f0b00ff9190a4505050565b620003e682826200058660201b620009351760201c565b6000828152609760209081526040909120620002e59183906200093f62000596821b17901c565b600054610100900460ff168062000427575060005460ff16155b6200047b5760405162461bcd60e51b815260206004820152602e60248201526000805160206200220a83398151915260448201526d191e481a5b9a5d1a585b1a5e995960921b60648201526084016200009d565b600054610100900460ff1615801562000215576000805461ffff1916610101179055801562000228576000805461ff001916905550565b600054610100900460ff1680620004cc575060005460ff16155b620005205760405162461bcd60e51b815260206004820152602e60248201526000805160206200220a83398151915260448201526d191e481a5b9a5d1a585b1a5e995960921b60648201526084016200009d565b600054610100900460ff1615801562000543576000805461ffff19166101011790555b8251620005589060cc906020860190620006ac565b5081516200056e9060cd906020850190620006ac565b508015620002e5576000805461ff0019169055505050565b620005928282620005b6565b5050565b6000620005ad836001600160a01b0384166200065a565b90505b92915050565b60008281526065602090815260408083206001600160a01b038516845290915290205460ff16620005925760008281526065602090815260408083206001600160a01b03851684529091529020805460ff19166001179055620006163390565b6001600160a01b0316816001600160a01b0316837f2f8788117e7eff1d82e926ec794901d17c78024a50270940304540a733656f0d60405160405180910390a45050565b6000818152600183016020526040812054620006a357508154600181810184556000848152602080822090930184905584548482528286019093526040902091909155620005b0565b506000620005b0565b828054620006ba9062000873565b90600052602060002090601f016020900481019282620006de576000855562000729565b82601f10620006f957805160ff191683800117855562000729565b8280016001018555821562000729579182015b82811115620007295782518255916020019190600101906200070c565b50620007379291506200073b565b5090565b5b808211156200073757600081556001016200073c565b600082601f8301126200076457600080fd5b81516001600160401b0380821115620007815762000781620008b0565b604051601f8301601f19908116603f01168101908282118183101715620007ac57620007ac620008b0565b81604052838152602092508683858801011115620007c957600080fd5b600091505b83821015620007ed5785820183015181830184015290820190620007ce565b83821115620007ff5760008385830101525b9695505050505050565b600080604083850312156200081d57600080fd5b82516001600160401b03808211156200083557600080fd5b620008438683870162000752565b935060208501519150808211156200085a57600080fd5b50620008698582860162000752565b9150509250929050565b600181811c908216806200088857607f821691505b60208210811415620008aa57634e487b7160e01b600052602260045260246000fd5b50919050565b634e487b7160e01b600052604160045260246000fd5b61193480620008d66000396000f3fe608060405234801561001057600080fd5b50600436106101585760003560e01c806370a08231116100c3578063a457c2d71161007c578063a457c2d7146102ef578063a9059cbb14610302578063ca15c87314610315578063d539139314610328578063d547741f1461034f578063dd62ed3e1461036257600080fd5b806370a082311461026557806379cc67901461028e5780639010d07c146102a157806391d14854146102cc57806395d89b41146102df578063a217fddf146102e757600080fd5b80632f2ff15d116101155780632f2ff15d146101f5578063313ce5671461020a57806336568abe14610219578063395093511461022c57806340c10f191461023f57806342966c681461025257600080fd5b806301ffc9a71461015d57806306fdde0314610185578063095ea7b31461019a57806318160ddd146101ad57806323b872dd146101bf578063248a9ca3146101d2575b600080fd5b61017061016b3660046116ba565b61039b565b60405190151581526020015b60405180910390f35b61018d6103c6565b60405161017c9190611759565b6101706101a8366004611632565b610458565b60cb545b60405190815260200161017c565b6101706101cd3660046115f6565b61046e565b6101b16101e036600461165c565b60009081526065602052604090206001015490565b610208610203366004611675565b61051d565b005b6040516012815260200161017c565b610208610227366004611675565b610544565b61017061023a366004611632565b610566565b61020861024d366004611632565b6105a2565b61020861026036600461165c565b61061f565b6101b16102733660046115a8565b6001600160a01b0316600090815260c9602052604090205490565b61020861029c366004611632565b61062c565b6102b46102af366004611698565b6106ad565b6040516001600160a01b03909116815260200161017c565b6101706102da366004611675565b6106cc565b61018d6106f7565b6101b1600081565b6101706102fd366004611632565b610706565b610170610310366004611632565b61079f565b6101b161032336600461165c565b6107ac565b6101b17f9f2df0fed2c77648de5860a4cc508cd0818c85b8b8a1ab4ceeef8d981c8956a681565b61020861035d366004611675565b6107c3565b6101b16103703660046115c3565b6001600160a01b03918216600090815260ca6020908152604080832093909416825291909152205490565b60006001600160e01b03198216635a05180f60e01b14806103c057506103c082610954565b92915050565b606060cc80546103d59061186b565b80601f01602080910402602001604051908101604052809291908181526020018280546104019061186b565b801561044e5780601f106104235761010080835404028352916020019161044e565b820191906000526020600020905b81548152906001019060200180831161043157829003601f168201915b5050505050905090565b6000610465338484610989565b50600192915050565b600061047b848484610aad565b6001600160a01b038416600090815260ca60209081526040808320338452909152902054828110156105055760405162461bcd60e51b815260206004820152602860248201527f45524332303a207472616e7366657220616d6f756e74206578636565647320616044820152676c6c6f77616e636560c01b60648201526084015b60405180910390fd5b6105128533858403610989565b506001949350505050565b6105278282610c7d565b600082815260976020526040902061053f908261093f565b505050565b61054e8282610ca3565b600082815260976020526040902061053f9082610d1d565b33600081815260ca602090815260408083206001600160a01b0387168452909152812054909161046591859061059d9086906117da565b610989565b6105cc7f9f2df0fed2c77648de5860a4cc508cd0818c85b8b8a1ab4ceeef8d981c8956a6336106cc565b6106115760405162461bcd60e51b815260206004820152601660248201527529b2b73232b91034b9903737ba10309026b4b73a32b960511b60448201526064016104fc565b61061b8282610d32565b5050565b6106293382610e11565b50565b60006106388333610370565b9050818110156106965760405162461bcd60e51b8152602060048201526024808201527f45524332303a206275726e20616d6f756e74206578636565647320616c6c6f77604482015263616e636560e01b60648201526084016104fc565b6106a38333848403610989565b61053f8383610e11565b60008281526097602052604081206106c59083610f5f565b9392505050565b60009182526065602090815260408084206001600160a01b0393909316845291905290205460ff1690565b606060cd80546103d59061186b565b33600090815260ca602090815260408083206001600160a01b0386168452909152812054828110156107885760405162461bcd60e51b815260206004820152602560248201527f45524332303a2064656372656173656420616c6c6f77616e63652062656c6f77604482015264207a65726f60d81b60648201526084016104fc565b6107953385858403610989565b5060019392505050565b6000610465338484610aad565b60008181526097602052604081206103c090610f6b565b61054e8282610f75565b600054610100900460ff16806107e6575060005460ff16155b6108025760405162461bcd60e51b81526004016104fc9061178c565b600054610100900460ff16158015610824576000805461ffff19166101011790555b61082c610f9b565b610834610f9b565b61083c610f9b565b610844610f9b565b8015610629576000805461ff001916905550565b600054610100900460ff1680610871575060005460ff16155b61088d5760405162461bcd60e51b81526004016104fc9061178c565b600054610100900460ff161580156108af576000805461ffff19166101011790555b6108b7610f9b565b6108c18383611005565b801561053f576000805461ff0019169055505050565b600054610100900460ff16806108f0575060005460ff16155b61090c5760405162461bcd60e51b81526004016104fc9061178c565b600054610100900460ff16158015610834576000805461ffff191661010117905561083c610f9b565b61061b828261109a565b60006106c5836001600160a01b038416611120565b60006001600160e01b03198216637965db0b60e01b14806103c057506301ffc9a760e01b6001600160e01b03198316146103c0565b6001600160a01b0383166109eb5760405162461bcd60e51b8152602060048201526024808201527f45524332303a20617070726f76652066726f6d20746865207a65726f206164646044820152637265737360e01b60648201526084016104fc565b6001600160a01b038216610a4c5760405162461bcd60e51b815260206004820152602260248201527f45524332303a20617070726f766520746f20746865207a65726f206164647265604482015261737360f01b60648201526084016104fc565b6001600160a01b03838116600081815260ca602090815260408083209487168084529482529182902085905590518481527f8c5be1e5ebec7d5bd14f71427d1e84f3dd0314c0f7b2291e5b200ac8c7c3b925910160405180910390a3505050565b6001600160a01b038316610b115760405162461bcd60e51b815260206004820152602560248201527f45524332303a207472616e736665722066726f6d20746865207a65726f206164604482015264647265737360d81b60648201526084016104fc565b6001600160a01b038216610b735760405162461bcd60e51b815260206004820152602360248201527f45524332303a207472616e7366657220746f20746865207a65726f206164647260448201526265737360e81b60648201526084016104fc565b6001600160a01b038316600090815260c9602052604090205481811015610beb5760405162461bcd60e51b815260206004820152602660248201527f45524332303a207472616e7366657220616d6f756e7420657863656564732062604482015265616c616e636560d01b60648201526084016104fc565b6001600160a01b03808516600090815260c96020526040808220858503905591851681529081208054849290610c229084906117da565b92505081905550826001600160a01b0316846001600160a01b03167fddf252ad1be2c89b69c2b068fc378daa952ba7f163c4a11628f55a4df523b3ef84604051610c6e91815260200190565b60405180910390a35b50505050565b600082815260656020526040902060010154610c99813361116f565b61053f838361109a565b6001600160a01b0381163314610d135760405162461bcd60e51b815260206004820152602f60248201527f416363657373436f6e74726f6c3a2063616e206f6e6c792072656e6f756e636560448201526e103937b632b9903337b91039b2b63360891b60648201526084016104fc565b61061b82826111d3565b60006106c5836001600160a01b03841661123a565b6001600160a01b038216610d885760405162461bcd60e51b815260206004820152601f60248201527f45524332303a206d696e7420746f20746865207a65726f20616464726573730060448201526064016104fc565b8060cb6000828254610d9a91906117da565b90915550506001600160a01b038216600090815260c9602052604081208054839290610dc79084906117da565b90915550506040518181526001600160a01b038316906000907fddf252ad1be2c89b69c2b068fc378daa952ba7f163c4a11628f55a4df523b3ef9060200160405180910390a35050565b6001600160a01b038216610e715760405162461bcd60e51b815260206004820152602160248201527f45524332303a206275726e2066726f6d20746865207a65726f206164647265736044820152607360f81b60648201526084016104fc565b6001600160a01b038216600090815260c9602052604090205481811015610ee55760405162461bcd60e51b815260206004820152602260248201527f45524332303a206275726e20616d6f756e7420657863656564732062616c616e604482015261636560f01b60648201526084016104fc565b6001600160a01b038316600090815260c960205260408120838303905560cb8054849290610f14908490611811565b90915550506040518281526000906001600160a01b038516907fddf252ad1be2c89b69c2b068fc378daa952ba7f163c4a11628f55a4df523b3ef9060200160405180910390a3505050565b60006106c5838361132d565b60006103c0825490565b600082815260656020526040902060010154610f91813361116f565b61053f83836111d3565b600054610100900460ff1680610fb4575060005460ff16155b610fd05760405162461bcd60e51b81526004016104fc9061178c565b600054610100900460ff16158015610844576000805461ffff19166101011790558015610629576000805461ff001916905550565b600054610100900460ff168061101e575060005460ff16155b61103a5760405162461bcd60e51b81526004016104fc9061178c565b600054610100900460ff1615801561105c576000805461ffff19166101011790555b825161106f9060cc9060208601906114f3565b5081516110839060cd9060208501906114f3565b50801561053f576000805461ff0019169055505050565b6110a482826106cc565b61061b5760008281526065602090815260408083206001600160a01b03851684529091529020805460ff191660011790556110dc3390565b6001600160a01b0316816001600160a01b0316837f2f8788117e7eff1d82e926ec794901d17c78024a50270940304540a733656f0d60405160405180910390a45050565b6000818152600183016020526040812054611167575081546001818101845560008481526020808220909301849055845484825282860190935260409020919091556103c0565b5060006103c0565b61117982826106cc565b61061b57611191816001600160a01b03166014611357565b61119c836020611357565b6040516020016111ad9291906116e4565b60408051601f198184030181529082905262461bcd60e51b82526104fc91600401611759565b6111dd82826106cc565b1561061b5760008281526065602090815260408083206001600160a01b0385168085529252808320805460ff1916905551339285917ff6391f5c32d9c69d2a47ea670b442974b53935d1edc7fd64eb21e047a839171b9190a45050565b6000818152600183016020526040812054801561132357600061125e600183611811565b855490915060009061127290600190611811565b90508181146112d7576000866000018281548110611292576112926118d2565b90600052602060002001549050808760000184815481106112b5576112b56118d2565b6000918252602080832090910192909255918252600188019052604090208390555b85548690806112e8576112e86118bc565b6001900381819060005260206000200160009055905585600101600086815260200190815260200160002060009055600193505050506103c0565b60009150506103c0565b6000826000018281548110611344576113446118d2565b9060005260206000200154905092915050565b606060006113668360026117f2565b6113719060026117da565b67ffffffffffffffff811115611389576113896118e8565b6040519080825280601f01601f1916602001820160405280156113b3576020820181803683370190505b509050600360fc1b816000815181106113ce576113ce6118d2565b60200101906001600160f81b031916908160001a905350600f60fb1b816001815181106113fd576113fd6118d2565b60200101906001600160f81b031916908160001a90535060006114218460026117f2565b61142c9060016117da565b90505b60018111156114a4576f181899199a1a9b1b9c1cb0b131b232b360811b85600f1660108110611460576114606118d2565b1a60f81b828281518110611476576114766118d2565b60200101906001600160f81b031916908160001a90535060049490941c9361149d81611854565b905061142f565b5083156106c55760405162461bcd60e51b815260206004820181905260248201527f537472696e67733a20686578206c656e67746820696e73756666696369656e7460448201526064016104fc565b8280546114ff9061186b565b90600052602060002090601f0160209004810192826115215760008555611567565b82601f1061153a57805160ff1916838001178555611567565b82800160010185558215611567579182015b8281111561156757825182559160200191906001019061154c565b50611573929150611577565b5090565b5b808211156115735760008155600101611578565b80356001600160a01b03811681146115a357600080fd5b919050565b6000602082840312156115ba57600080fd5b6106c58261158c565b600080604083850312156115d657600080fd5b6115df8361158c565b91506115ed6020840161158c565b90509250929050565b60008060006060848603121561160b57600080fd5b6116148461158c565b92506116226020850161158c565b9150604084013590509250925092565b6000806040838503121561164557600080fd5b61164e8361158c565b946020939093013593505050565b60006020828403121561166e57600080fd5b5035919050565b6000806040838503121561168857600080fd5b823591506115ed6020840161158c565b600080604083850312156116ab57600080fd5b50508035926020909101359150565b6000602082840312156116cc57600080fd5b81356001600160e01b0319811681146106c557600080fd5b7f416363657373436f6e74726f6c3a206163636f756e742000000000000000000081526000835161171c816017850160208801611828565b7001034b99036b4b9b9b4b733903937b6329607d1b601791840191820152835161174d816028840160208801611828565b01602801949350505050565b6020815260008251806020840152611778816040850160208701611828565b601f01601f19169190910160400192915050565b6020808252602e908201527f496e697469616c697a61626c653a20636f6e747261637420697320616c72656160408201526d191e481a5b9a5d1a585b1a5e995960921b606082015260800190565b600082198211156117ed576117ed6118a6565b500190565b600081600019048311821515161561180c5761180c6118a6565b500290565b600082821015611823576118236118a6565b500390565b60005b8381101561184357818101518382015260200161182b565b83811115610c775750506000910152565b600081611863576118636118a6565b506000190190565b600181811c9082168061187f57607f821691505b602082108114156118a057634e487b7160e01b600052602260045260246000fd5b50919050565b634e487b7160e01b600052601160045260246000fd5b634e487b7160e01b600052603160045260246000fd5b634e487b7160e01b600052603260045260246000fd5b634e487b7160e01b600052604160045260246000fdfea26469706673582212207c932ecb7d6fab803c564af853ea45b5be8d2f7cb78862329e03d5371b1ded6864736f6c63430008060033496e697469616c697a61626c653a20636f6e747261637420697320616c7265619f2df0fed2c77648de5860a4cc508cd0818c85b8b8a1ab4ceeef8d981c8956a67164765a3c8bd2513bdfa0c90f1bee9606e920fbf2c9071f310263fbd818684ba2646970667358221220a05e78a02c6112f88804914a07810e8c9e678ee085008ccd1b9839e8ea4dd20364736f6c63430008060033",
  "linkReferences": {},
  "deployedLinkReferences": {}
}