{
  "_format": "hh-sol-artifact-1",
  "contractName": "TokenManagerEth",
  "sourceName": "contracts/schain/TokenManagers/TokenManagerEth.sol",
  "abi": [
    {
      "anonymous": false,
      "inputs": [
        {
          "indexed": false,
          "internalType": "address",
          "name": "oldValue",
          "type": "address"
        },
        {
          "indexed": false,
          "internalType": "address",
          "name": "newValue",
          "type": "address"
        }
      ],
      "name": "DepositBoxWasChanged",
      "type": "event"
    },
    {
      "anonymous": false,
      "inputs": [
        {
          "indexed": true,
          "internalType": "bytes32",
          "name": "role",
          "type": "bytes32"
        },
        {
          "indexed": true,
          "internalType": "bytes32",
          "name": "previousAdminRole",
          "type": "bytes32"
        },
        {
          "indexed": true,
          "internalType": "bytes32",
          "name": "newAdminRole",
          "type": "bytes32"
        }
      ],
      "name": "RoleAdminChanged",
      "type": "event"
    },
    {
      "anonymous": false,
      "inputs": [
        {
          "indexed": true,
          "internalType": "bytes32",
          "name": "role",
          "type": "bytes32"
        },
        {
          "indexed": true,
          "internalType": "address",
          "name": "account",
          "type": "address"
        },
        {
          "indexed": true,
          "internalType": "address",
          "name": "sender",
          "type": "address"
        }
      ],
      "name": "RoleGranted",
      "type": "event"
    },
    {
      "anonymous": false,
      "inputs": [
        {
          "indexed": true,
          "internalType": "bytes32",
          "name": "role",
          "type": "bytes32"
        },
        {
          "indexed": true,
          "internalType": "address",
          "name": "account",
          "type": "address"
        },
        {
          "indexed": true,
          "internalType": "address",
          "name": "sender",
          "type": "address"
        }
      ],
      "name": "RoleRevoked",
      "type": "event"
    },
    {
      "inputs": [],
      "name": "AUTOMATIC_DEPLOY_ROLE",
      "outputs": [
        {
          "internalType": "bytes32",
          "name": "",
          "type": "bytes32"
        }
      ],
      "stateMutability": "view",
      "type": "function"
    },
    {
      "inputs": [],
      "name": "DEFAULT_ADMIN_ROLE",
      "outputs": [
        {
          "internalType": "bytes32",
          "name": "",
          "type": "bytes32"
        }
      ],
      "stateMutability": "view",
      "type": "function"
    },
    {
      "inputs": [],
      "name": "MAINNET_HASH",
      "outputs": [
        {
          "internalType": "bytes32",
          "name": "",
          "type": "bytes32"
        }
      ],
      "stateMutability": "view",
      "type": "function"
    },
    {
      "inputs": [],
      "name": "MAINNET_NAME",
      "outputs": [
        {
          "internalType": "string",
          "name": "",
          "type": "string"
        }
      ],
      "stateMutability": "view",
      "type": "function"
    },
    {
      "inputs": [],
      "name": "TOKEN_REGISTRAR_ROLE",
      "outputs": [
        {
          "internalType": "bytes32",
          "name": "",
          "type": "bytes32"
        }
      ],
      "stateMutability": "view",
      "type": "function"
    },
    {
      "inputs": [
        {
          "internalType": "string",
          "name": "schainName",
          "type": "string"
        },
        {
          "internalType": "address",
          "name": "newTokenManager",
          "type": "address"
        }
      ],
      "name": "addTokenManager",
      "outputs": [],
      "stateMutability": "nonpayable",
      "type": "function"
    },
    {
      "inputs": [],
      "name": "automaticDeploy",
      "outputs": [
        {
          "internalType": "bool",
          "name": "",
          "type": "bool"
        }
      ],
      "stateMutability": "view",
      "type": "function"
    },
    {
      "inputs": [
        {
          "internalType": "address",
          "name": "newDepositBox",
          "type": "address"
        }
      ],
      "name": "changeDepositBoxAddress",
      "outputs": [],
      "stateMutability": "nonpayable",
      "type": "function"
    },
    {
      "inputs": [],
      "name": "communityLocker",
      "outputs": [
        {
          "internalType": "contract ICommunityLocker",
          "name": "",
          "type": "address"
        }
      ],
      "stateMutability": "view",
      "type": "function"
    },
    {
      "inputs": [],
      "name": "depositBox",
      "outputs": [
        {
          "internalType": "address",
          "name": "",
          "type": "address"
        }
      ],
      "stateMutability": "view",
      "type": "function"
    },
    {
      "inputs": [],
      "name": "disableAutomaticDeploy",
      "outputs": [],
      "stateMutability": "nonpayable",
      "type": "function"
    },
    {
      "inputs": [],
      "name": "enableAutomaticDeploy",
      "outputs": [],
      "stateMutability": "nonpayable",
      "type": "function"
    },
    {
      "inputs": [],
      "name": "ethErc20",
      "outputs": [
        {
          "internalType": "contract IEthErc20",
          "name": "",
          "type": "address"
        }
      ],
      "stateMutability": "view",
      "type": "function"
    },
    {
      "inputs": [
        {
          "internalType": "uint256",
          "name": "amount",
          "type": "uint256"
        }
      ],
      "name": "exitToMain",
      "outputs": [],
      "stateMutability": "nonpayable",
      "type": "function"
    },
    {
      "inputs": [
        {
          "internalType": "bytes32",
          "name": "role",
          "type": "bytes32"
        }
      ],
      "name": "getRoleAdmin",
      "outputs": [
        {
          "internalType": "bytes32",
          "name": "",
          "type": "bytes32"
        }
      ],
      "stateMutability": "view",
      "type": "function"
    },
    {
      "inputs": [
        {
          "internalType": "bytes32",
          "name": "role",
          "type": "bytes32"
        },
        {
          "internalType": "uint256",
          "name": "index",
          "type": "uint256"
        }
      ],
      "name": "getRoleMember",
      "outputs": [
        {
          "internalType": "address",
          "name": "",
          "type": "address"
        }
      ],
      "stateMutability": "view",
      "type": "function"
    },
    {
      "inputs": [
        {
          "internalType": "bytes32",
          "name": "role",
          "type": "bytes32"
        }
      ],
      "name": "getRoleMemberCount",
      "outputs": [
        {
          "internalType": "uint256",
          "name": "",
          "type": "uint256"
        }
      ],
      "stateMutability": "view",
      "type": "function"
    },
    {
      "inputs": [
        {
          "internalType": "bytes32",
          "name": "role",
          "type": "bytes32"
        },
        {
          "internalType": "address",
          "name": "account",
          "type": "address"
        }
      ],
      "name": "grantRole",
      "outputs": [],
      "stateMutability": "nonpayable",
      "type": "function"
    },
    {
      "inputs": [
        {
          "internalType": "bytes32",
          "name": "role",
          "type": "bytes32"
        },
        {
          "internalType": "address",
          "name": "account",
          "type": "address"
        }
      ],
      "name": "hasRole",
      "outputs": [
        {
          "internalType": "bool",
          "name": "",
          "type": "bool"
        }
      ],
      "stateMutability": "view",
      "type": "function"
    },
    {
      "inputs": [
        {
          "internalType": "string",
          "name": "schainName",
          "type": "string"
        }
      ],
      "name": "hasTokenManager",
      "outputs": [
        {
          "internalType": "bool",
          "name": "",
          "type": "bool"
        }
      ],
      "stateMutability": "view",
      "type": "function"
    },
    {
      "inputs": [
        {
          "internalType": "string",
          "name": "newChainName",
          "type": "string"
        },
        {
          "internalType": "contract IMessageProxyForSchain",
          "name": "newMessageProxy",
          "type": "address"
        },
        {
          "internalType": "contract ITokenManagerLinker",
          "name": "newIMALinker",
          "type": "address"
        },
        {
          "internalType": "contract ICommunityLocker",
          "name": "newCommunityLocker",
          "type": "address"
        },
        {
          "internalType": "address",
          "name": "newDepositBox",
          "type": "address"
        },
        {
          "internalType": "contract IEthErc20",
          "name": "ethErc20Address",
          "type": "address"
        }
      ],
      "name": "initialize",
      "outputs": [],
      "stateMutability": "nonpayable",
      "type": "function"
    },
    {
      "inputs": [
        {
          "internalType": "string",
          "name": "newSchainName",
          "type": "string"
        },
        {
          "internalType": "contract IMessageProxyForSchain",
          "name": "newMessageProxy",
          "type": "address"
        },
        {
          "internalType": "contract ITokenManagerLinker",
          "name": "newIMALinker",
          "type": "address"
        },
        {
          "internalType": "contract ICommunityLocker",
          "name": "newCommunityLocker",
          "type": "address"
        },
        {
          "internalType": "address",
          "name": "newDepositBox",
          "type": "address"
        }
      ],
      "name": "initializeTokenManager",
      "outputs": [],
      "stateMutability": "nonpayable",
      "type": "function"
    },
    {
      "inputs": [],
      "name": "messageProxy",
      "outputs": [
        {
          "internalType": "contract IMessageProxyForSchain",
          "name": "",
          "type": "address"
        }
      ],
      "stateMutability": "view",
      "type": "function"
    },
    {
      "inputs": [
        {
          "internalType": "bytes32",
          "name": "fromChainHash",
          "type": "bytes32"
        },
        {
          "internalType": "address",
          "name": "sender",
          "type": "address"
        },
        {
          "internalType": "bytes",
          "name": "data",
          "type": "bytes"
        }
      ],
      "name": "postMessage",
      "outputs": [],
      "stateMutability": "nonpayable",
      "type": "function"
    },
    {
      "inputs": [
        {
          "internalType": "string",
          "name": "schainName",
          "type": "string"
        }
      ],
      "name": "removeTokenManager",
      "outputs": [],
      "stateMutability": "nonpayable",
      "type": "function"
    },
    {
      "inputs": [
        {
          "internalType": "bytes32",
          "name": "role",
          "type": "bytes32"
        },
        {
          "internalType": "address",
          "name": "account",
          "type": "address"
        }
      ],
      "name": "renounceRole",
      "outputs": [],
      "stateMutability": "nonpayable",
      "type": "function"
    },
    {
      "inputs": [
        {
          "internalType": "bytes32",
          "name": "role",
          "type": "bytes32"
        },
        {
          "internalType": "address",
          "name": "account",
          "type": "address"
        }
      ],
      "name": "revokeRole",
      "outputs": [],
      "stateMutability": "nonpayable",
      "type": "function"
    },
    {
      "inputs": [],
      "name": "schainHash",
      "outputs": [
        {
          "internalType": "bytes32",
          "name": "",
          "type": "bytes32"
        }
      ],
      "stateMutability": "view",
      "type": "function"
    },
    {
      "inputs": [
        {
          "internalType": "contract IEthErc20",
          "name": "newEthErc20Address",
          "type": "address"
        }
      ],
      "name": "setEthErc20Address",
      "outputs": [],
      "stateMutability": "nonpayable",
      "type": "function"
    },
    {
      "inputs": [
        {
          "internalType": "bytes4",
          "name": "interfaceId",
          "type": "bytes4"
        }
      ],
      "name": "supportsInterface",
      "outputs": [
        {
          "internalType": "bool",
          "name": "",
          "type": "bool"
        }
      ],
      "stateMutability": "view",
      "type": "function"
    },
    {
      "inputs": [],
      "name": "tokenManagerLinker",
      "outputs": [
        {
          "internalType": "contract ITokenManagerLinker",
          "name": "",
          "type": "address"
        }
      ],
      "stateMutability": "view",
      "type": "function"
    },
    {
      "inputs": [
        {
          "internalType": "bytes32",
          "name": "",
          "type": "bytes32"
        }
      ],
      "name": "tokenManagers",
      "outputs": [
        {
          "internalType": "address",
          "name": "",
          "type": "address"
        }
      ],
      "stateMutability": "view",
      "type": "function"
    }
  ],
  "bytecode": "0x608060405234801561001057600080fd5b506120e2806100206000396000f3fe608060405234801561001057600080fd5b50600436106101f05760003560e01c80638182e7071161010f578063c0e312dc116100a2578063d547741f11610071578063d547741f1461046c578063dec2deb61461047f578063edcc12b514610493578063eeeb9601146104a657600080fd5b8063c0e312dc1461040c578063ca15c8731461041f578063cb703bff14610432578063cc5b715b1461044557600080fd5b806391d14854116100de57806391d14854146103d657806392d7846a146103e9578063a217fddf146103fc578063b9581c501461040457600080fd5b80638182e7071461038a578063884cee5a1461039d5780638b71b4b5146103b05780639010d07c146103c357600080fd5b806339927cf9116101875780635573b8b6116101565780635573b8b61461033e5780636ce681d2146103515780636d611286146103645780636d6c68e61461037757600080fd5b806339927cf9146102da5780633b690b6b146102ed5780633fa194ce146102f657806350f442801461030b57600080fd5b806328c5e182116101c357806328c5e182146102995780632dc151de146102a15780632f2ff15d146102b457806336568abe146102c757600080fd5b806301ffc9a7146101f5578063029996b81461021d5780630f1a8f7414610227578063248a9ca314610268575b600080fd5b610208610203366004611a68565b6104b9565b60405190151581526020015b60405180910390f35b6102256104e4565b005b6102506102353660046119a1565b60ce602052600090815260409020546001600160a01b031681565b6040516001600160a01b039091168152602001610214565b61028b6102763660046119a1565b60009081526065602052604090206001015490565b604051908152602001610214565b61028b610536565b60ca54610250906001600160a01b031681565b6102256102c23660046119ba565b61057f565b6102256102d53660046119ba565b6105a6565b6102086102e8366004611aad565b6105c8565b61028b60cc5481565b61028b60008051602061208d83398151915281565b6103316040518060400160405280600781526020016613585a5b9b995d60ca1b81525081565b6040516102149190611e0b565b60c954610250906001600160a01b031681565b61022561035f366004611b46565b610623565b60cd54610250906001600160a01b031681565b60cb54610250906001600160a01b031681565b610225610398366004611bd0565b6107e6565b6102256103ab3660046119ea565b610880565b6102256103be366004611984565b610a13565b6102506103d1366004611a46565b610ab0565b6102086103e43660046119ba565b610acf565b60cf54610250906001600160a01b031681565b61028b600081565b610225610afa565b61022561041a366004611aad565b610b3d565b61028b61042d3660046119a1565b610c2a565b610225610440366004611aef565b610c41565b61028b7ffda70c2cc66a36c14884ee85424961f51b1d92b4494751699b6d105b3bcbcba881565b61022561047a3660046119ba565b610d95565b60cd5461020890600160a01b900460ff1681565b6102256104a1366004611984565b610d9f565b6102256104b43660046119a1565b610eb5565b60006001600160e01b03198216635a05180f60e01b14806104de57506104de82610f73565b92915050565b6104fc60008051602061208d83398151915233610acf565b6105215760405162461bcd60e51b815260040161051890611e1e565b60405180910390fd5b60cd805460ff60a01b1916600160a01b179055565b6040518060400160405280600781526020016613585a5b9b995d60ca1b8152506040516020016105669190611d47565b6040516020818303038152906040528051906020012081565b6105898282610fa8565b60008281526097602052604090206105a19082610fce565b505050565b6105b08282610fe3565b60008281526097602052604090206105a19082611061565b6000806001600160a01b031660ce600085856040516020016105eb929190611d37565b60408051808303601f19018152918152815160209283012083529082019290925201600020546001600160a01b031614159392505050565b600054610100900460ff168061063c575060005460ff16155b6106585760405162461bcd60e51b815260040161051890611e5f565b600054610100900460ff1615801561067a576000805461ffff19166101011790555b6001600160a01b0382166106d05760405162461bcd60e51b815260206004820181905260248201527f4465706f736974426f7820616464726573732068617320746f206265207365746044820152606401610518565b6106d8611076565b6106e3600033611101565b6106fb60008051602061208d83398151915233611101565b6107257ffda70c2cc66a36c14884ee85424961f51b1d92b4494751699b6d105b3bcbcba833611101565b856040516020016107369190611d47565b60408051601f19818403018152828252805160209182012060cc5560c980546001600160a01b038a81166001600160a01b03199283161790925560ca80548a841690831617905560cb805489841690831617905560cd8054928816929091168217905560008452908301527fc968af77923193016f61d74ba6827296db5e1f37ec4fab3ad1ef20e193395e59910160405180910390a180156107de576000805461ff00191690555b505050505050565b600054610100900460ff16806107ff575060005460ff16155b61081b5760405162461bcd60e51b815260040161051890611e5f565b600054610100900460ff1615801561083d576000805461ffff19166101011790555b61084a8787878787610623565b60cf80546001600160a01b0319166001600160a01b0384161790558015610877576000805461ff00191690555b50505050505050565b60c9546001600160a01b031633146108da5760405162461bcd60e51b815260206004820152601c60248201527f53656e646572206973206e6f742061204d65737361676550726f7879000000006044820152606401610518565b838360cc5482141580156108f357506108f3828261110b565b61093f5760405162461bcd60e51b815260206004820152601b60248201527f526563656976657220636861696e20697320696e636f727265637400000000006044820152606401610518565b600061094b8585611173565b60208101519091506001600160a01b03811661099e5760405162461bcd60e51b815260206004820152601260248201527124b731b7b93932b1ba103932b1b2b4bb32b960711b6044820152606401610518565b60cf5460408381015190516340c10f1960e01b81526001600160a01b03848116600483015260248201929092529116906340c10f1990604401600060405180830381600087803b1580156109f157600080fd5b505af1158015610a05573d6000803e3d6000fd5b505050505050505050505050565b610a1e600033610acf565b610a3a5760405162461bcd60e51b815260040161051890611ead565b60cf546001600160a01b0382811691161415610a8e5760405162461bcd60e51b81526020600482015260136024820152724d757374206265206e6577206164647265737360681b6044820152606401610518565b60cf80546001600160a01b0319166001600160a01b0392909216919091179055565b6000828152609760205260408120610ac8908361120c565b9392505050565b60009182526065602090815260408084206001600160a01b0393909316845291905290205460ff1690565b610b1260008051602061208d83398151915233610acf565b610b2e5760405162461bcd60e51b815260040161051890611e1e565b60cd805460ff60a01b19169055565b60ca546001600160a01b0316331480610b5c5750610b5c600033610acf565b610b785760405162461bcd60e51b815260040161051890611ead565b60008282604051602001610b8d929190611d37565b60408051601f198184030181529181528151602092830120600081815260ce9093529120549091506001600160a01b0316610c0a5760405162461bcd60e51b815260206004820152601860248201527f546f6b656e204d616e61676572206973206e6f742073657400000000000000006044820152606401610518565b600090815260ce6020526040902080546001600160a01b03191690555050565b60008181526097602052604081206104de90611218565b60ca546001600160a01b0316331480610c605750610c60600033610acf565b610c7c5760405162461bcd60e51b815260040161051890611ead565b60008383604051602001610c91929190611d37565b60408051601f198184030181529181528151602092830120600081815260ce9093529120549091506001600160a01b031615610d0f5760405162461bcd60e51b815260206004820152601c60248201527f546f6b656e204d616e6167657220697320616c726561647920736574000000006044820152606401610518565b6001600160a01b038216610d655760405162461bcd60e51b815260206004820152601f60248201527f496e636f727265637420546f6b656e204d616e616765722061646472657373006044820152606401610518565b600090815260ce6020526040902080546001600160a01b0319166001600160a01b03929092169190911790555050565b6105b08282611222565b610daa600033610acf565b610df65760405162461bcd60e51b815260206004820152601e60248201527f44454641554c545f41444d494e5f524f4c4520697320726571756972656400006044820152606401610518565b6001600160a01b038116610e4c5760405162461bcd60e51b815260206004820181905260248201527f4465706f736974426f7820616464726573732068617320746f206265207365746044820152606401610518565b60cd54604080516001600160a01b03928316815291831660208301527fc968af77923193016f61d74ba6827296db5e1f37ec4fab3ad1ef20e193395e59910160405180910390a160cd80546001600160a01b0319166001600160a01b0392909216919091179055565b60cb546040516311be333d60e11b81523360048201526001600160a01b039091169063237c667a90602401600060405180830381600087803b158015610efa57600080fd5b505af1158015610f0e573d6000803e3d6000fd5b50505050610f706040518060400160405280600781526020016613585a5b9b995d60ca1b815250604051602001610f459190611d47565b60408051601f19818403018152919052805160209091012060cd546001600160a01b03163384611248565b50565b60006001600160e01b03198216637965db0b60e01b14806104de57506301ffc9a760e01b6001600160e01b03198316146104de565b600082815260656020526040902060010154610fc4813361132d565b6105a18383611391565b6000610ac8836001600160a01b038416611417565b6001600160a01b03811633146110535760405162461bcd60e51b815260206004820152602f60248201527f416363657373436f6e74726f6c3a2063616e206f6e6c792072656e6f756e636560448201526e103937b632b9903337b91039b2b63360891b6064820152608401610518565b61105d8282611466565b5050565b6000610ac8836001600160a01b0384166114cd565b600054610100900460ff168061108f575060005460ff16155b6110ab5760405162461bcd60e51b815260040161051890611e5f565b600054610100900460ff161580156110cd576000805461ffff19166101011790555b6110d56115c0565b6110dd6115c0565b6110e56115c0565b6110ed6115c0565b8015610f70576000805461ff001916905550565b610589828261162a565b60006040518060400160405280600781526020016613585a5b9b995d60ca1b81525060405160200161113d9190611d47565b6040516020818303038152906040528051906020012083148015610ac857505060cd546001600160a01b03908116911614919050565b604080516080810182526000606082018181528252602082018190529181019190915260016111a28484611634565b600e8111156111b3576111b361201f565b146112005760405162461bcd60e51b815260206004820181905260248201527f4d6573736167652074797065206973206e6f7420455448207472616e736665726044820152606401610518565b610ac882840184611c6b565b6000610ac8838361167c565b60006104de825490565b60008281526065602052604090206001015461123e813361132d565b6105a18383611466565b80156112b35760cf546040516338b5bd8d60e21b8152336004820152602481018390526001600160a01b039091169063e2d6f63490604401600060405180830381600087803b15801561129a57600080fd5b505af11580156112ae573d6000803e3d6000fd5b505050505b60006112bf83836116a6565b60c954604051634a24490160e11b81529192506001600160a01b0316906394489202906112f490889088908690600401611dd8565b600060405180830381600087803b15801561130e57600080fd5b505af1158015611322573d6000803e3d6000fd5b505050505050505050565b6113378282610acf565b61105d5761134f816001600160a01b031660146116fe565b61135a8360206116fe565b60405160200161136b929190611d63565b60408051601f198184030181529082905262461bcd60e51b825261051891600401611e0b565b61139b8282610acf565b61105d5760008281526065602090815260408083206001600160a01b03851684529091529020805460ff191660011790556113d33390565b6001600160a01b0316816001600160a01b0316837f2f8788117e7eff1d82e926ec794901d17c78024a50270940304540a733656f0d60405160405180910390a45050565b600081815260018301602052604081205461145e575081546001818101845560008481526020808220909301849055845484825282860190935260409020919091556104de565b5060006104de565b6114708282610acf565b1561105d5760008281526065602090815260408083206001600160a01b0385168085529252808320805460ff1916905551339285917ff6391f5c32d9c69d2a47ea670b442974b53935d1edc7fd64eb21e047a839171b9190a45050565b600081815260018301602052604081205480156115b65760006114f1600183611f89565b855490915060009061150590600190611f89565b905081811461156a5760008660000182815481106115255761152561204b565b90600052602060002001549050808760000184815481106115485761154861204b565b6000918252602080832090910192909255918252600188019052604090208390555b855486908061157b5761157b612035565b6001900381819060005260206000200160009055905585600101600086815260200190815260200160002060009055600193505050506104de565b60009150506104de565b600054610100900460ff16806115d9575060005460ff16155b6115f55760405162461bcd60e51b815260040161051890611e5f565b600054610100900460ff161580156110ed576000805461ffff19166101011790558015610f70576000805461ff001916905550565b61105d8282611391565b600080611643838501856119a1565b9050611650602082611fe7565b6116705761166861166384838188611f28565b611634565b9150506104de565b61166883850185611a92565b60008260000182815481106116935761169361204b565b9060005260206000200154905092915050565b60408051608081018252600160608083019182529082526001600160a01b038516602080840191909152828401859052925190926116e691839101611edc565b60405160208183030381529060405291505092915050565b6060600061170d836002611f6a565b611718906002611f52565b67ffffffffffffffff81111561173057611730612061565b6040519080825280601f01601f19166020018201604052801561175a576020820181803683370190505b509050600360fc1b816000815181106117755761177561204b565b60200101906001600160f81b031916908160001a905350600f60fb1b816001815181106117a4576117a461204b565b60200101906001600160f81b031916908160001a90535060006117c8846002611f6a565b6117d3906001611f52565b90505b600181111561184b576f181899199a1a9b1b9c1cb0b131b232b360811b85600f16601081106118075761180761204b565b1a60f81b82828151811061181d5761181d61204b565b60200101906001600160f81b031916908160001a90535060049490941c9361184481611fd0565b90506117d6565b508315610ac85760405162461bcd60e51b815260206004820181905260248201527f537472696e67733a20686578206c656e67746820696e73756666696369656e746044820152606401610518565b60008083601f8401126118ac57600080fd5b50813567ffffffffffffffff8111156118c457600080fd5b6020830191508360208285010111156118dc57600080fd5b9250929050565b8035600f81106118f257600080fd5b919050565b600082601f83011261190857600080fd5b813567ffffffffffffffff8082111561192357611923612061565b604051601f8301601f19908116603f0116810190828211818310171561194b5761194b612061565b8160405283815286602085880101111561196457600080fd5b836020870160208301376000602085830101528094505050505092915050565b60006020828403121561199657600080fd5b8135610ac881612077565b6000602082840312156119b357600080fd5b5035919050565b600080604083850312156119cd57600080fd5b8235915060208301356119df81612077565b809150509250929050565b60008060008060608587031215611a0057600080fd5b843593506020850135611a1281612077565b9250604085013567ffffffffffffffff811115611a2e57600080fd5b611a3a8782880161189a565b95989497509550505050565b60008060408385031215611a5957600080fd5b50508035926020909101359150565b600060208284031215611a7a57600080fd5b81356001600160e01b031981168114610ac857600080fd5b600060208284031215611aa457600080fd5b610ac8826118e3565b60008060208385031215611ac057600080fd5b823567ffffffffffffffff811115611ad757600080fd5b611ae38582860161189a565b90969095509350505050565b600080600060408486031215611b0457600080fd5b833567ffffffffffffffff811115611b1b57600080fd5b611b278682870161189a565b9094509250506020840135611b3b81612077565b809150509250925092565b600080600080600060a08688031215611b5e57600080fd5b853567ffffffffffffffff811115611b7557600080fd5b611b81888289016118f7565b9550506020860135611b9281612077565b93506040860135611ba281612077565b92506060860135611bb281612077565b91506080860135611bc281612077565b809150509295509295909350565b60008060008060008060c08789031215611be957600080fd5b863567ffffffffffffffff811115611c0057600080fd5b611c0c89828a016118f7565b9650506020870135611c1d81612077565b94506040870135611c2d81612077565b93506060870135611c3d81612077565b92506080870135611c4d81612077565b915060a0870135611c5d81612077565b809150509295509295509295565b60008183036060811215611c7e57600080fd5b6040516060810167ffffffffffffffff8282108183111715611ca257611ca2612061565b816040526020841215611cb457600080fd5b6080830193508184108185111715611cce57611cce612061565b5082604052611cdc856118e3565b8152815260208401359150611cf082612077565b81602082015260408401356040820152809250505092915050565b60008151808452611d23816020860160208601611fa0565b601f01601f19169290920160200192915050565b8183823760009101908152919050565b60008251611d59818460208701611fa0565b9190910192915050565b7f416363657373436f6e74726f6c3a206163636f756e7420000000000000000000815260008351611d9b816017850160208801611fa0565b7001034b99036b4b9b9b4b733903937b6329607d1b6017918401918201528351611dcc816028840160208801611fa0565b01602801949350505050565b8381526001600160a01b0383166020820152606060408201819052600090611e0290830184611d0b565b95945050505050565b602081526000610ac86020830184611d0b565b60208082526021908201527f4155544f4d415449435f4445504c4f595f524f4c4520697320726571756972656040820152601960fa1b606082015260800190565b6020808252602e908201527f496e697469616c697a61626c653a20636f6e747261637420697320616c72656160408201526d191e481a5b9a5d1a585b1a5e995960921b606082015260800190565b6020808252601590820152742737ba1030baba3437b934bd32b21031b0b63632b960591b604082015260600190565b8151516060820190600f8110611f0257634e487b7160e01b600052602160045260246000fd5b82526020838101516001600160a01b031690830152604092830151929091019190915290565b60008085851115611f3857600080fd5b83861115611f4557600080fd5b5050820193919092039150565b60008219821115611f6557611f65612009565b500190565b6000816000190483118215151615611f8457611f84612009565b500290565b600082821015611f9b57611f9b612009565b500390565b60005b83811015611fbb578181015183820152602001611fa3565b83811115611fca576000848401525b50505050565b600081611fdf57611fdf612009565b506000190190565b60008261200457634e487b7160e01b600052601260045260246000fd5b500690565b634e487b7160e01b600052601160045260246000fd5b634e487b7160e01b600052602160045260246000fd5b634e487b7160e01b600052603160045260246000fd5b634e487b7160e01b600052603260045260246000fd5b634e487b7160e01b600052604160045260246000fd5b6001600160a01b0381168114610f7057600080fdfe7164765a3c8bd2513bdfa0c90f1bee9606e920fbf2c9071f310263fbd818684ba2646970667358221220715ee841248d5d9cb0c2901e7e2cc4d9249e7e67f5a251cda25dd6180ba7d07964736f6c63430008060033",
  "linkReferences": {},
  "deployedLinkReferences": {}
}