{
  "_format": "hh-sol-artifact-1",
  "contractName": "CommunityLocker",
  "sourceName": "contracts/schain/CommunityLocker.sol",
  "abi": [
    {
      "anonymous": false,
      "inputs": [
        {
          "indexed": false,
          "internalType": "bytes32",
          "name": "schainHash",
          "type": "bytes32"
        },
        {
          "indexed": false,
          "internalType": "address",
          "name": "user",
          "type": "address"
        }
      ],
      "name": "ActivateUser",
      "type": "event"
    },
    {
      "anonymous": false,
      "inputs": [
        {
          "indexed": true,
          "internalType": "bytes32",
          "name": "constantHash",
          "type": "bytes32"
        },
        {
          "indexed": false,
          "internalType": "uint256",
          "name": "previousValue",
          "type": "uint256"
        },
        {
          "indexed": false,
          "internalType": "uint256",
          "name": "newValue",
          "type": "uint256"
        }
      ],
      "name": "ConstantUpdated",
      "type": "event"
    },
    {
      "anonymous": false,
      "inputs": [
        {
          "indexed": false,
          "internalType": "uint8",
          "name": "version",
          "type": "uint8"
        }
      ],
      "name": "Initialized",
      "type": "event"
    },
    {
      "anonymous": false,
      "inputs": [
        {
          "indexed": false,
          "internalType": "bytes32",
          "name": "schainHash",
          "type": "bytes32"
        },
        {
          "indexed": false,
          "internalType": "address",
          "name": "user",
          "type": "address"
        }
      ],
      "name": "LockUser",
      "type": "event"
    },
    {
      "anonymous": false,
      "inputs": [
        {
          "indexed": true,
          "internalType": "bytes32",
          "name": "role",
          "type": "bytes32"
        },
        {
          "indexed": true,
          "internalType": "bytes32",
          "name": "previousAdminRole",
          "type": "bytes32"
        },
        {
          "indexed": true,
          "internalType": "bytes32",
          "name": "newAdminRole",
          "type": "bytes32"
        }
      ],
      "name": "RoleAdminChanged",
      "type": "event"
    },
    {
      "anonymous": false,
      "inputs": [
        {
          "indexed": true,
          "internalType": "bytes32",
          "name": "role",
          "type": "bytes32"
        },
        {
          "indexed": true,
          "internalType": "address",
          "name": "account",
          "type": "address"
        },
        {
          "indexed": true,
          "internalType": "address",
          "name": "sender",
          "type": "address"
        }
      ],
      "name": "RoleGranted",
      "type": "event"
    },
    {
      "anonymous": false,
      "inputs": [
        {
          "indexed": true,
          "internalType": "bytes32",
          "name": "role",
          "type": "bytes32"
        },
        {
          "indexed": true,
          "internalType": "address",
          "name": "account",
          "type": "address"
        },
        {
          "indexed": true,
          "internalType": "address",
          "name": "sender",
          "type": "address"
        }
      ],
      "name": "RoleRevoked",
      "type": "event"
    },
    {
      "inputs": [],
      "name": "CONSTANT_SETTER_ROLE",
      "outputs": [
        {
          "internalType": "bytes32",
          "name": "",
          "type": "bytes32"
        }
      ],
      "stateMutability": "view",
      "type": "function"
    },
    {
      "inputs": [],
      "name": "DEFAULT_ADMIN_ROLE",
      "outputs": [
        {
          "internalType": "bytes32",
          "name": "",
          "type": "bytes32"
        }
      ],
      "stateMutability": "view",
      "type": "function"
    },
    {
      "inputs": [],
      "name": "MAINNET_HASH",
      "outputs": [
        {
          "internalType": "bytes32",
          "name": "",
          "type": "bytes32"
        }
      ],
      "stateMutability": "view",
      "type": "function"
    },
    {
      "inputs": [],
      "name": "MAINNET_NAME",
      "outputs": [
        {
          "internalType": "string",
          "name": "",
          "type": "string"
        }
      ],
      "stateMutability": "view",
      "type": "function"
    },
    {
      "inputs": [
        {
          "internalType": "address",
          "name": "",
          "type": "address"
        }
      ],
      "name": "activeUsers",
      "outputs": [
        {
          "internalType": "bool",
          "name": "",
          "type": "bool"
        }
      ],
      "stateMutability": "view",
      "type": "function"
    },
    {
      "inputs": [
        {
          "internalType": "address",
          "name": "receiver",
          "type": "address"
        }
      ],
      "name": "checkAllowedToSendMessage",
      "outputs": [],
      "stateMutability": "nonpayable",
      "type": "function"
    },
    {
      "inputs": [],
      "name": "communityPool",
      "outputs": [
        {
          "internalType": "address",
          "name": "",
          "type": "address"
        }
      ],
      "stateMutability": "view",
      "type": "function"
    },
    {
      "inputs": [],
      "name": "gasPriceTimestamp",
      "outputs": [
        {
          "internalType": "uint256",
          "name": "",
          "type": "uint256"
        }
      ],
      "stateMutability": "view",
      "type": "function"
    },
    {
      "inputs": [
        {
          "internalType": "bytes32",
          "name": "role",
          "type": "bytes32"
        }
      ],
      "name": "getRoleAdmin",
      "outputs": [
        {
          "internalType": "bytes32",
          "name": "",
          "type": "bytes32"
        }
      ],
      "stateMutability": "view",
      "type": "function"
    },
    {
      "inputs": [
        {
          "internalType": "bytes32",
          "name": "role",
          "type": "bytes32"
        },
        {
          "internalType": "uint256",
          "name": "index",
          "type": "uint256"
        }
      ],
      "name": "getRoleMember",
      "outputs": [
        {
          "internalType": "address",
          "name": "",
          "type": "address"
        }
      ],
      "stateMutability": "view",
      "type": "function"
    },
    {
      "inputs": [
        {
          "internalType": "bytes32",
          "name": "role",
          "type": "bytes32"
        }
      ],
      "name": "getRoleMemberCount",
      "outputs": [
        {
          "internalType": "uint256",
          "name": "",
          "type": "uint256"
        }
      ],
      "stateMutability": "view",
      "type": "function"
    },
    {
      "inputs": [
        {
          "internalType": "bytes32",
          "name": "role",
          "type": "bytes32"
        },
        {
          "internalType": "address",
          "name": "account",
          "type": "address"
        }
      ],
      "name": "grantRole",
      "outputs": [],
      "stateMutability": "nonpayable",
      "type": "function"
    },
    {
      "inputs": [
        {
          "internalType": "bytes32",
          "name": "role",
          "type": "bytes32"
        },
        {
          "internalType": "address",
          "name": "account",
          "type": "address"
        }
      ],
      "name": "hasRole",
      "outputs": [
        {
          "internalType": "bool",
          "name": "",
          "type": "bool"
        }
      ],
      "stateMutability": "view",
      "type": "function"
    },
    {
      "inputs": [
        {
          "internalType": "string",
          "name": "newSchainName",
          "type": "string"
        },
        {
          "internalType": "contract IMessageProxyForSchain",
          "name": "newMessageProxy",
          "type": "address"
        },
        {
          "internalType": "contract ITokenManagerLinker",
          "name": "newTokenManagerLinker",
          "type": "address"
        },
        {
          "internalType": "address",
          "name": "newCommunityPool",
          "type": "address"
        }
      ],
      "name": "initialize",
      "outputs": [],
      "stateMutability": "nonpayable",
      "type": "function"
    },
    {
      "inputs": [
        {
          "internalType": "address",
          "name": "",
          "type": "address"
        }
      ],
      "name": "lastMessageTimeStamp",
      "outputs": [
        {
          "internalType": "uint256",
          "name": "",
          "type": "uint256"
        }
      ],
      "stateMutability": "view",
      "type": "function"
    },
    {
      "inputs": [],
      "name": "mainnetGasPrice",
      "outputs": [
        {
          "internalType": "uint256",
          "name": "",
          "type": "uint256"
        }
      ],
      "stateMutability": "view",
      "type": "function"
    },
    {
      "inputs": [],
      "name": "messageProxy",
      "outputs": [
        {
          "internalType": "contract IMessageProxyForSchain",
          "name": "",
          "type": "address"
        }
      ],
      "stateMutability": "view",
      "type": "function"
    },
    {
      "inputs": [
        {
          "internalType": "bytes32",
          "name": "fromChainHash",
          "type": "bytes32"
        },
        {
          "internalType": "address",
          "name": "sender",
          "type": "address"
        },
        {
          "internalType": "bytes",
          "name": "data",
          "type": "bytes"
        }
      ],
      "name": "postMessage",
      "outputs": [],
      "stateMutability": "nonpayable",
      "type": "function"
    },
    {
      "inputs": [
        {
          "internalType": "bytes32",
          "name": "role",
          "type": "bytes32"
        },
        {
          "internalType": "address",
          "name": "account",
          "type": "address"
        }
      ],
      "name": "renounceRole",
      "outputs": [],
      "stateMutability": "nonpayable",
      "type": "function"
    },
    {
      "inputs": [
        {
          "internalType": "bytes32",
          "name": "role",
          "type": "bytes32"
        },
        {
          "internalType": "address",
          "name": "account",
          "type": "address"
        }
      ],
      "name": "revokeRole",
      "outputs": [],
      "stateMutability": "nonpayable",
      "type": "function"
    },
    {
      "inputs": [],
      "name": "schainHash",
      "outputs": [
        {
          "internalType": "bytes32",
          "name": "",
          "type": "bytes32"
        }
      ],
      "stateMutability": "view",
      "type": "function"
    },
    {
      "inputs": [
        {
          "internalType": "uint256",
          "name": "gasPrice",
          "type": "uint256"
        },
        {
          "internalType": "uint256",
          "name": "timestamp",
          "type": "uint256"
        },
        {
          "components": [
            {
              "internalType": "uint256[2]",
              "name": "blsSignature",
              "type": "uint256[2]"
            },
            {
              "internalType": "uint256",
              "name": "hashA",
              "type": "uint256"
            },
            {
              "internalType": "uint256",
              "name": "hashB",
              "type": "uint256"
            },
            {
              "internalType": "uint256",
              "name": "counter",
              "type": "uint256"
            }
          ],
          "internalType": "struct IMessageProxy.Signature",
          "name": "",
          "type": "tuple"
        }
      ],
      "name": "setGasPrice",
      "outputs": [],
      "stateMutability": "nonpayable",
      "type": "function"
    },
    {
      "inputs": [
        {
          "internalType": "uint256",
          "name": "newTimeLimitPerMessage",
          "type": "uint256"
        }
      ],
      "name": "setTimeLimitPerMessage",
      "outputs": [],
      "stateMutability": "nonpayable",
      "type": "function"
    },
    {
      "inputs": [
        {
          "internalType": "bytes4",
          "name": "interfaceId",
          "type": "bytes4"
        }
      ],
      "name": "supportsInterface",
      "outputs": [
        {
          "internalType": "bool",
          "name": "",
          "type": "bool"
        }
      ],
      "stateMutability": "view",
      "type": "function"
    },
    {
      "inputs": [],
      "name": "timeLimitPerMessage",
      "outputs": [
        {
          "internalType": "uint256",
          "name": "",
          "type": "uint256"
        }
      ],
      "stateMutability": "view",
      "type": "function"
    },
    {
      "inputs": [],
      "name": "tokenManagerLinker",
      "outputs": [
        {
          "internalType": "contract ITokenManagerLinker",
          "name": "",
          "type": "address"
        }
      ],
      "stateMutability": "view",
      "type": "function"
    }
  ],
  "bytecode": "0x608060405234801561001057600080fd5b50611bf6806100206000396000f3fe608060405234801561001057600080fd5b506004361061018e5760003560e01c80637304b44d116100de578063aebc4bc311610097578063d547741f11610071578063d547741f14610378578063eb0eb8ab1461038b578063f0cfb52e146103ae578063f34822b4146103ce57600080fd5b8063aebc4bc314610335578063bbc4e8c21461033e578063ca15c8731461036557600080fd5b80637304b44d146102d857806382fd8c96146102eb578063884cee5a146102f45780639010d07c1461030757806391d148541461031a578063a217fddf1461032d57600080fd5b80632dc151de1161014b5780633b690b6b116101255780633b690b6b1461027657806348ed32ef1461027f57806350f44280146102925780635573b8b6146102c557600080fd5b80632dc151de1461023d5780632f2ff15d1461025057806336568abe1461026357600080fd5b806301ffc9a71461019357806314d140b0146101bb578063237c667a146101e6578063248a9ca3146101fb57806328c5e1821461022c5780632d44892814610234575b600080fd5b6101a66101a13660046116a1565b6103e1565b60405190151581526020015b60405180910390f35b60cb546101ce906001600160a01b031681565b6040516001600160a01b0390911681526020016101b2565b6101f96101f4366004611573565b61040c565b005b61021e6102093660046115ad565b60009081526065602052604090206001015490565b6040519081526020016101b2565b61021e6105e9565b61021e60d15481565b60ca546101ce906001600160a01b031681565b6101f961025e3660046115c6565b610632565b6101f96102713660046115c6565b61065c565b61021e60cc5481565b6101f961028d3660046115ad565b6106da565b6102b86040518060400160405280600781526020016613585a5b9b995d60ca1b81525081565b6040516101b2919061199e565b60c9546101ce906001600160a01b031681565b6101f96102e6366004611857565b6107d5565b61021e60cd5481565b6101f96103023660046115f6565b610909565b6101ce61031536600461167f565b610c64565b6101a66103283660046115c6565b610c83565b61021e600081565b61021e60d05481565b61021e7f96e3fc3be15159903e053027cff8a23f39a990e0194abcd8ac1cf1b355b8b93c81565b61021e6103733660046115ad565b610cae565b6101f96103863660046115c6565b610cc5565b6101a6610399366004611573565b60ce6020526000908152604090205460ff1681565b61021e6103bc366004611573565b60cf6020526000908152604090205481565b6101f96103dc3660046116e6565b610cea565b60006001600160e01b03198216635a05180f60e01b1480610406575061040682610edd565b92915050565b60ca546040516374a9e4c960e11b81523360048201526001600160a01b039091169063e953c9929060240160206040518083038186803b15801561044f57600080fd5b505afa158015610463573d6000803e3d6000fd5b505050506040513d601f19601f820116820180604052508101906104879190611590565b6104e75760405162461bcd60e51b815260206004820152602660248201527f53656e646572206973206e6f74207265676973746572656420746f6b656e206d60448201526530b730b3b2b960d11b60648201526084015b60405180910390fd5b6001600160a01b038116600090815260ce602052604090205460ff1661054f5760405162461bcd60e51b815260206004820152601860248201527f526563697069656e74206d75737420626520616374697665000000000000000060448201526064016104de565b60cd546001600160a01b038216600090815260cf6020526040902054429161057691611a78565b106105cd5760405162461bcd60e51b815260206004820152602160248201527f547279696e6720746f2073656e64206d6573736167657320746f6f206f6674656044820152603760f91b60648201526084016104de565b6001600160a01b0316600090815260cf60205260409020429055565b6040518060400160405280600781526020016613585a5b9b995d60ca1b815250604051602001610619919061190d565b6040516020818303038152906040528051906020012081565b60008281526065602052604090206001015461064d81610f12565b6106578383610f1f565b505050565b6001600160a01b03811633146106cc5760405162461bcd60e51b815260206004820152602f60248201527f416363657373436f6e74726f6c3a2063616e206f6e6c792072656e6f756e636560448201526e103937b632b9903337b91039b2b63360891b60648201526084016104de565b6106d68282610f41565b5050565b6107047f96e3fc3be15159903e053027cff8a23f39a990e0194abcd8ac1cf1b355b8b93c33610c83565b61075f5760405162461bcd60e51b815260206004820152602660248201527f4e6f7420656e6f756768207065726d697373696f6e7320746f2073657420636f6044820152651b9cdd185b9d60d21b60648201526084016104de565b6040517254696d654c696d69745065724d65737361676560681b602082015260330160408051601f19818403018152828252805160209182012060cd548452908301849052917fd9f6bd2abae0f2a51b3f5ffb29e0e35ee9ad2e3921ede0d71bff21dc8609f6f1910160405180910390a260cd55565b60d15482116108325760405162461bcd60e51b815260206004820152602360248201527f4761732070726963652074696d657374616d7020616c726561647920757064616044820152621d195960ea1b60648201526084016104de565b428211156108905760405162461bcd60e51b815260206004820152602560248201527f54696d657374616d702073686f756c64206e6f7420626520696e207468652066604482015264757475726560d81b60648201526084016104de565b6040516e4d61696e6e6574476173507269636560881b6020820152602f0160408051601f19818403018152828252805160209182012060d0548452908301869052917fd9f6bd2abae0f2a51b3f5ffb29e0e35ee9ad2e3921ede0d71bff21dc8609f6f1910160405180910390a25060d09190915560d155565b60c9546001600160a01b031633146109635760405162461bcd60e51b815260206004820152601d60248201527f53656e646572206973206e6f742061206d6573736167652070726f787900000060448201526064016104de565b60cb546001600160a01b038481169116146109c05760405162461bcd60e51b815260206004820152601c60248201527f53656e646572206d75737420626520436f6d6d756e697479506f6f6c0000000060448201526064016104de565b6040518060400160405280600781526020016613585a5b9b995d60ca1b8152506040516020016109f0919061190d565b604051602081830303815290604052805190602001208414610a5e5760405162461bcd60e51b815260206004820152602160248201527f536f7572636520636861696e206e616d65206d757374206265204d61696e6e656044820152601d60fa1b60648201526084016104de565b6000610a6a8383610f63565b9050600781600e811115610a8057610a80611b45565b14610ae15760405162461bcd60e51b815260206004820152602b60248201527f546865206d6573736167652073686f756c6420636f6e7461696e20612073746160448201526a3a3ab99037b3103ab9b2b960a91b60648201526084016104de565b6000610aed8484610fab565b6040818101516020808401516001600160a01b0316600090815260ce9091529190912054919250151560ff90911615151415610b7a5760405162461bcd60e51b815260206004820152602660248201527f4163746976652075736572207374617475736573206d7573742062652064696660448201526519995c995b9d60d21b60648201526084016104de565b604081810180516020808501516001600160a01b0316600090815260ce90915292909220805460ff1916921515929092179091555115610c0a577fdacccea96400d48c51a00ff7af4d1c6b6ac4909bbff0fe495f0e0edc298c3dde60cc548260200151604051610bfd9291909182526001600160a01b0316602082015260400190565b60405180910390a1610c5c565b7f01d8973c54faac85b2cfd40f935f8da4261d9883283ad73ce0e10aa91fc37bdf60cc548260200151604051610c539291909182526001600160a01b0316602082015260400190565b60405180910390a15b505050505050565b6000828152609760205260408120610c7c9083611044565b9392505050565b60009182526065602090815260408084206001600160a01b0393909316845291905290205460ff1690565b600081815260976020526040812061040690611050565b600082815260656020526040902060010154610ce081610f12565b6106578383610f41565b600054610100900460ff1615808015610d0a5750600054600160ff909116105b80610d245750303b158015610d24575060005460ff166001145b610d875760405162461bcd60e51b815260206004820152602e60248201527f496e697469616c697a61626c653a20636f6e747261637420697320616c72656160448201526d191e481a5b9a5d1a585b1a5e995960921b60648201526084016104de565b6000805460ff191660011790558015610daa576000805461ff0019166101001790555b6001600160a01b038216610e005760405162461bcd60e51b815260206004820152601a60248201527f4e6f646520616464726573732068617320746f2062652073657400000000000060448201526064016104de565b610e0861105a565b610e136000336110c7565b60c980546001600160a01b038087166001600160a01b03199283161790925560ca805492861692909116919091179055604051610e5490869060200161190d565b60408051808303601f19018152919052805160209091012060cc5561012c60cd5560cb80546001600160a01b0319166001600160a01b0384161790558015610ed6576000805461ff0019169055604051600181527f7f26b83ff96e1f2b6a682f133852f6798a09c465da95921460cefb38474024989060200160405180910390a15b5050505050565b60006001600160e01b03198216637965db0b60e01b148061040657506301ffc9a760e01b6001600160e01b0319831614610406565b610f1c81336110d1565b50565b610f298282611135565b600082815260976020526040902061065790826111bb565b610f4b82826111d0565b60008281526097602052604090206106579082611237565b600080610f72838501856115ad565b9050610f7f602082611b0d565b610f9f57610f97610f9284838188611a4e565b610f63565b915050610406565b610f97838501856116cb565b60408051608081018252600060608201818152825260208201819052918101919091526007610fda8484610f63565b600e811115610feb57610feb611b45565b146110385760405162461bcd60e51b815260206004820152601f60248201527f4d6573736167652074797065206973206e6f742055736572205374617475730060448201526064016104de565b610c7c828401846117ad565b6000610c7c838361124c565b6000610406825490565b600054610100900460ff166110c55760405162461bcd60e51b815260206004820152602b60248201527f496e697469616c697a61626c653a20636f6e7472616374206973206e6f74206960448201526a6e697469616c697a696e6760a81b60648201526084016104de565b565b6106d68282610f1f565b6110db8282610c83565b6106d6576110f3816001600160a01b03166014611276565b6110fe836020611276565b60405160200161110f929190611929565b60408051601f198184030181529082905262461bcd60e51b82526104de9160040161199e565b61113f8282610c83565b6106d65760008281526065602090815260408083206001600160a01b03851684529091529020805460ff191660011790556111773390565b6001600160a01b0316816001600160a01b0316837f2f8788117e7eff1d82e926ec794901d17c78024a50270940304540a733656f0d60405160405180910390a45050565b6000610c7c836001600160a01b038416611412565b6111da8282610c83565b156106d65760008281526065602090815260408083206001600160a01b0385168085529252808320805460ff1916905551339285917ff6391f5c32d9c69d2a47ea670b442974b53935d1edc7fd64eb21e047a839171b9190a45050565b6000610c7c836001600160a01b038416611461565b600082600001828154811061126357611263611b71565b9060005260206000200154905092915050565b60606000611285836002611a90565b611290906002611a78565b67ffffffffffffffff8111156112a8576112a8611b87565b6040519080825280601f01601f1916602001820160405280156112d2576020820181803683370190505b509050600360fc1b816000815181106112ed576112ed611b71565b60200101906001600160f81b031916908160001a905350600f60fb1b8160018151811061131c5761131c611b71565b60200101906001600160f81b031916908160001a9053506000611340846002611a90565b61134b906001611a78565b90505b60018111156113c3576f181899199a1a9b1b9c1cb0b131b232b360811b85600f166010811061137f5761137f611b71565b1a60f81b82828151811061139557611395611b71565b60200101906001600160f81b031916908160001a90535060049490941c936113bc81611af6565b905061134e565b508315610c7c5760405162461bcd60e51b815260206004820181905260248201527f537472696e67733a20686578206c656e67746820696e73756666696369656e7460448201526064016104de565b600081815260018301602052604081205461145957508154600181810184556000848152602080822090930184905584548482528286019093526040902091909155610406565b506000610406565b6000818152600183016020526040812054801561154a576000611485600183611aaf565b855490915060009061149990600190611aaf565b90508181146114fe5760008660000182815481106114b9576114b9611b71565b90600052602060002001549050808760000184815481106114dc576114dc611b71565b6000918252602080832090910192909255918252600188019052604090208390555b855486908061150f5761150f611b5b565b600190038181906000526020600020016000905590558560010160008681526020019081526020016000206000905560019350505050610406565b6000915050610406565b803561155f81611b9d565b919050565b8035600f811061155f57600080fd5b60006020828403121561158557600080fd5b8135610c7c81611b9d565b6000602082840312156115a257600080fd5b8151610c7c81611bb2565b6000602082840312156115bf57600080fd5b5035919050565b600080604083850312156115d957600080fd5b8235915060208301356115eb81611b9d565b809150509250929050565b6000806000806060858703121561160c57600080fd5b84359350602085013561161e81611b9d565b9250604085013567ffffffffffffffff8082111561163b57600080fd5b818701915087601f83011261164f57600080fd5b81358181111561165e57600080fd5b88602082850101111561167057600080fd5b95989497505060200194505050565b6000806040838503121561169257600080fd5b50508035926020909101359150565b6000602082840312156116b357600080fd5b81356001600160e01b031981168114610c7c57600080fd5b6000602082840312156116dd57600080fd5b610c7c82611564565b600080600080608085870312156116fc57600080fd5b843567ffffffffffffffff8082111561171457600080fd5b818701915087601f83011261172857600080fd5b813560208282111561173c5761173c611b87565b61174e601f8301601f19168201611a1d565b9250818352898183860101111561176457600080fd5b81818501828501376000818385010152829750611782818a01611554565b96505050505061179460408601611554565b91506117a260608601611554565b905092959194509250565b600081830360608112156117c057600080fd5b6040516060810167ffffffffffffffff82821081831117156117e4576117e4611b87565b8160405260208412156117f657600080fd5b608083019350818410818511171561181057611810611b87565b508260405261181e85611564565b815281526020840135915061183282611b9d565b8160208201526040840135915061184882611bb2565b60408101919091529392505050565b600080600083850360e081121561186d57600080fd5b84359350602080860135935060a0603f198301121561188b57600080fd5b6118936119d1565b915086605f8701126118a457600080fd5b6118ac6119fa565b8060408801608089018a8111156118c257600080fd5b60005b60028110156118e2578235855293850193918501916001016118c5565b509185525035918301919091525060a0850135604082015260c0909401356060850152509093909250565b6000825161191f818460208701611ac6565b9190910192915050565b7f416363657373436f6e74726f6c3a206163636f756e7420000000000000000000815260008351611961816017850160208801611ac6565b7001034b99036b4b9b9b4b733903937b6329607d1b6017918401918201528351611992816028840160208801611ac6565b01602801949350505050565b60208152600082518060208401526119bd816040850160208701611ac6565b601f01601f19169190910160400192915050565b6040516080810167ffffffffffffffff811182821017156119f4576119f4611b87565b60405290565b6040805190810167ffffffffffffffff811182821017156119f4576119f4611b87565b604051601f8201601f1916810167ffffffffffffffff81118282101715611a4657611a46611b87565b604052919050565b60008085851115611a5e57600080fd5b83861115611a6b57600080fd5b5050820193919092039150565b60008219821115611a8b57611a8b611b2f565b500190565b6000816000190483118215151615611aaa57611aaa611b2f565b500290565b600082821015611ac157611ac1611b2f565b500390565b60005b83811015611ae1578181015183820152602001611ac9565b83811115611af0576000848401525b50505050565b600081611b0557611b05611b2f565b506000190190565b600082611b2a57634e487b7160e01b600052601260045260246000fd5b500690565b634e487b7160e01b600052601160045260246000fd5b634e487b7160e01b600052602160045260246000fd5b634e487b7160e01b600052603160045260246000fd5b634e487b7160e01b600052603260045260246000fd5b634e487b7160e01b600052604160045260246000fd5b6001600160a01b0381168114610f1c57600080fd5b8015158114610f1c57600080fdfea2646970667358221220f1aa435957b2ed3060da46c0f2a5755eb7bbd4577752616ef15c25d43d2684b064736f6c63430008060033",
  "linkReferences": {},
  "deployedLinkReferences": {}
}