{
  "_format": "hh-sol-artifact-1",
  "contractName": "MessageProxyForSchain",
  "sourceName": "contracts/schain/MessageProxyForSchain.sol",
  "abi": [
    {
      "anonymous": false,
      "inputs": [
        {
          "indexed": true,
          "internalType": "bytes32",
          "name": "chainHash",
          "type": "bytes32"
        },
        {
          "indexed": false,
          "internalType": "address",
          "name": "contractAddress",
          "type": "address"
        }
      ],
      "name": "ExtraContractRegistered",
      "type": "event"
    },
    {
      "anonymous": false,
      "inputs": [
        {
          "indexed": true,
          "internalType": "bytes32",
          "name": "chainHash",
          "type": "bytes32"
        },
        {
          "indexed": false,
          "internalType": "address",
          "name": "contractAddress",
          "type": "address"
        }
      ],
      "name": "ExtraContractRemoved",
      "type": "event"
    },
    {
      "anonymous": false,
      "inputs": [
        {
          "indexed": false,
          "internalType": "uint256",
          "name": "oldValue",
          "type": "uint256"
        },
        {
          "indexed": false,
          "internalType": "uint256",
          "name": "newValue",
          "type": "uint256"
        }
      ],
      "name": "GasLimitWasChanged",
      "type": "event"
    },
    {
      "anonymous": false,
      "inputs": [
        {
          "indexed": false,
          "internalType": "uint8",
          "name": "version",
          "type": "uint8"
        }
      ],
      "name": "Initialized",
      "type": "event"
    },
    {
      "anonymous": false,
      "inputs": [
        {
          "indexed": true,
          "internalType": "bytes32",
          "name": "dstChainHash",
          "type": "bytes32"
        },
        {
          "indexed": true,
          "internalType": "uint256",
          "name": "msgCounter",
          "type": "uint256"
        },
        {
          "indexed": true,
          "internalType": "address",
          "name": "srcContract",
          "type": "address"
        },
        {
          "indexed": false,
          "internalType": "address",
          "name": "dstContract",
          "type": "address"
        },
        {
          "indexed": false,
          "internalType": "bytes",
          "name": "data",
          "type": "bytes"
        }
      ],
      "name": "OutgoingMessage",
      "type": "event"
    },
    {
      "anonymous": false,
      "inputs": [
        {
          "indexed": true,
          "internalType": "uint256",
          "name": "msgCounter",
          "type": "uint256"
        },
        {
          "indexed": false,
          "internalType": "bytes",
          "name": "message",
          "type": "bytes"
        }
      ],
      "name": "PostMessageError",
      "type": "event"
    },
    {
      "anonymous": false,
      "inputs": [
        {
          "indexed": true,
          "internalType": "bytes32",
          "name": "role",
          "type": "bytes32"
        },
        {
          "indexed": true,
          "internalType": "bytes32",
          "name": "previousAdminRole",
          "type": "bytes32"
        },
        {
          "indexed": true,
          "internalType": "bytes32",
          "name": "newAdminRole",
          "type": "bytes32"
        }
      ],
      "name": "RoleAdminChanged",
      "type": "event"
    },
    {
      "anonymous": false,
      "inputs": [
        {
          "indexed": true,
          "internalType": "bytes32",
          "name": "role",
          "type": "bytes32"
        },
        {
          "indexed": true,
          "internalType": "address",
          "name": "account",
          "type": "address"
        },
        {
          "indexed": true,
          "internalType": "address",
          "name": "sender",
          "type": "address"
        }
      ],
      "name": "RoleGranted",
      "type": "event"
    },
    {
      "anonymous": false,
      "inputs": [
        {
          "indexed": true,
          "internalType": "bytes32",
          "name": "role",
          "type": "bytes32"
        },
        {
          "indexed": true,
          "internalType": "address",
          "name": "account",
          "type": "address"
        },
        {
          "indexed": true,
          "internalType": "address",
          "name": "sender",
          "type": "address"
        }
      ],
      "name": "RoleRevoked",
      "type": "event"
    },
    {
      "anonymous": false,
      "inputs": [
        {
          "indexed": false,
          "internalType": "string",
          "name": "oldVersion",
          "type": "string"
        },
        {
          "indexed": false,
          "internalType": "string",
          "name": "newVersion",
          "type": "string"
        }
      ],
      "name": "VersionUpdated",
      "type": "event"
    },
    {
      "inputs": [],
      "name": "CHAIN_CONNECTOR_ROLE",
      "outputs": [
        {
          "internalType": "bytes32",
          "name": "",
          "type": "bytes32"
        }
      ],
      "stateMutability": "view",
      "type": "function"
    },
    {
      "inputs": [],
      "name": "CONSTANT_SETTER_ROLE",
      "outputs": [
        {
          "internalType": "bytes32",
          "name": "",
          "type": "bytes32"
        }
      ],
      "stateMutability": "view",
      "type": "function"
    },
    {
      "inputs": [],
      "name": "DEFAULT_ADMIN_ROLE",
      "outputs": [
        {
          "internalType": "bytes32",
          "name": "",
          "type": "bytes32"
        }
      ],
      "stateMutability": "view",
      "type": "function"
    },
    {
      "inputs": [],
      "name": "ETHERBASE",
      "outputs": [
        {
          "internalType": "contract IEtherbaseUpgradeable",
          "name": "",
          "type": "address"
        }
      ],
      "stateMutability": "view",
      "type": "function"
    },
    {
      "inputs": [],
      "name": "EXTRA_CONTRACT_REGISTRAR_ROLE",
      "outputs": [
        {
          "internalType": "bytes32",
          "name": "",
          "type": "bytes32"
        }
      ],
      "stateMutability": "view",
      "type": "function"
    },
    {
      "inputs": [],
      "name": "MAINNET_HASH",
      "outputs": [
        {
          "internalType": "bytes32",
          "name": "",
          "type": "bytes32"
        }
      ],
      "stateMutability": "view",
      "type": "function"
    },
    {
      "inputs": [],
      "name": "MESSAGES_LENGTH",
      "outputs": [
        {
          "internalType": "uint256",
          "name": "",
          "type": "uint256"
        }
      ],
      "stateMutability": "view",
      "type": "function"
    },
    {
      "inputs": [],
      "name": "MINIMUM_BALANCE",
      "outputs": [
        {
          "internalType": "uint256",
          "name": "",
          "type": "uint256"
        }
      ],
      "stateMutability": "view",
      "type": "function"
    },
    {
      "inputs": [],
      "name": "REVERT_REASON_LENGTH",
      "outputs": [
        {
          "internalType": "uint256",
          "name": "",
          "type": "uint256"
        }
      ],
      "stateMutability": "view",
      "type": "function"
    },
    {
      "inputs": [
        {
          "internalType": "string",
          "name": "chainName",
          "type": "string"
        }
      ],
      "name": "addConnectedChain",
      "outputs": [],
      "stateMutability": "nonpayable",
      "type": "function"
    },
    {
      "inputs": [
        {
          "internalType": "bytes32",
          "name": "",
          "type": "bytes32"
        }
      ],
      "name": "connectedChains",
      "outputs": [
        {
          "internalType": "uint256",
          "name": "incomingMessageCounter",
          "type": "uint256"
        },
        {
          "internalType": "uint256",
          "name": "outgoingMessageCounter",
          "type": "uint256"
        },
        {
          "internalType": "bool",
          "name": "inited",
          "type": "bool"
        }
      ],
      "stateMutability": "view",
      "type": "function"
    },
    {
      "inputs": [],
      "name": "gasLimit",
      "outputs": [
        {
          "internalType": "uint256",
          "name": "",
          "type": "uint256"
        }
      ],
      "stateMutability": "view",
      "type": "function"
    },
    {
      "inputs": [
        {
          "internalType": "bytes32",
          "name": "schainHash",
          "type": "bytes32"
        }
      ],
      "name": "getContractRegisteredLength",
      "outputs": [
        {
          "internalType": "uint256",
          "name": "",
          "type": "uint256"
        }
      ],
      "stateMutability": "view",
      "type": "function"
    },
    {
      "inputs": [
        {
          "internalType": "bytes32",
          "name": "schainHash",
          "type": "bytes32"
        },
        {
          "internalType": "uint256",
          "name": "from",
          "type": "uint256"
        },
        {
          "internalType": "uint256",
          "name": "to",
          "type": "uint256"
        }
      ],
      "name": "getContractRegisteredRange",
      "outputs": [
        {
          "internalType": "address[]",
          "name": "contractsInRange",
          "type": "address[]"
        }
      ],
      "stateMutability": "view",
      "type": "function"
    },
    {
      "inputs": [
        {
          "internalType": "string",
          "name": "fromSchainName",
          "type": "string"
        }
      ],
      "name": "getIncomingMessagesCounter",
      "outputs": [
        {
          "internalType": "uint256",
          "name": "",
          "type": "uint256"
        }
      ],
      "stateMutability": "view",
      "type": "function"
    },
    {
      "inputs": [
        {
          "internalType": "string",
          "name": "targetSchainName",
          "type": "string"
        }
      ],
      "name": "getOutgoingMessagesCounter",
      "outputs": [
        {
          "internalType": "uint256",
          "name": "",
          "type": "uint256"
        }
      ],
      "stateMutability": "view",
      "type": "function"
    },
    {
      "inputs": [
        {
          "internalType": "bytes32",
          "name": "role",
          "type": "bytes32"
        }
      ],
      "name": "getRoleAdmin",
      "outputs": [
        {
          "internalType": "bytes32",
          "name": "",
          "type": "bytes32"
        }
      ],
      "stateMutability": "view",
      "type": "function"
    },
    {
      "inputs": [
        {
          "internalType": "bytes32",
          "name": "role",
          "type": "bytes32"
        },
        {
          "internalType": "uint256",
          "name": "index",
          "type": "uint256"
        }
      ],
      "name": "getRoleMember",
      "outputs": [
        {
          "internalType": "address",
          "name": "",
          "type": "address"
        }
      ],
      "stateMutability": "view",
      "type": "function"
    },
    {
      "inputs": [
        {
          "internalType": "bytes32",
          "name": "role",
          "type": "bytes32"
        }
      ],
      "name": "getRoleMemberCount",
      "outputs": [
        {
          "internalType": "uint256",
          "name": "",
          "type": "uint256"
        }
      ],
      "stateMutability": "view",
      "type": "function"
    },
    {
      "inputs": [
        {
          "internalType": "bytes32",
          "name": "role",
          "type": "bytes32"
        },
        {
          "internalType": "address",
          "name": "account",
          "type": "address"
        }
      ],
      "name": "grantRole",
      "outputs": [],
      "stateMutability": "nonpayable",
      "type": "function"
    },
    {
      "inputs": [
        {
          "internalType": "bytes32",
          "name": "role",
          "type": "bytes32"
        },
        {
          "internalType": "address",
          "name": "account",
          "type": "address"
        }
      ],
      "name": "hasRole",
      "outputs": [
        {
          "internalType": "bool",
          "name": "",
          "type": "bool"
        }
      ],
      "stateMutability": "view",
      "type": "function"
    },
    {
      "inputs": [
        {
          "internalType": "contract IKeyStorage",
          "name": "blsKeyStorage",
          "type": "address"
        },
        {
          "internalType": "string",
          "name": "schainName",
          "type": "string"
        }
      ],
      "name": "initialize",
      "outputs": [],
      "stateMutability": "nonpayable",
      "type": "function"
    },
    {
      "inputs": [
        {
          "internalType": "uint256",
          "name": "newGasLimit",
          "type": "uint256"
        }
      ],
      "name": "initializeMessageProxy",
      "outputs": [],
      "stateMutability": "nonpayable",
      "type": "function"
    },
    {
      "inputs": [
        {
          "internalType": "string",
          "name": "schainName",
          "type": "string"
        }
      ],
      "name": "isConnectedChain",
      "outputs": [
        {
          "internalType": "bool",
          "name": "",
          "type": "bool"
        }
      ],
      "stateMutability": "view",
      "type": "function"
    },
    {
      "inputs": [
        {
          "internalType": "bytes32",
          "name": "schainHash",
          "type": "bytes32"
        },
        {
          "internalType": "address",
          "name": "contractAddress",
          "type": "address"
        }
      ],
      "name": "isContractRegistered",
      "outputs": [
        {
          "internalType": "bool",
          "name": "",
          "type": "bool"
        }
      ],
      "stateMutability": "view",
      "type": "function"
    },
    {
      "inputs": [],
      "name": "keyStorage",
      "outputs": [
        {
          "internalType": "contract IKeyStorage",
          "name": "",
          "type": "address"
        }
      ],
      "stateMutability": "view",
      "type": "function"
    },
    {
      "inputs": [],
      "name": "messageInProgress",
      "outputs": [
        {
          "internalType": "bool",
          "name": "",
          "type": "bool"
        }
      ],
      "stateMutability": "view",
      "type": "function"
    },
    {
      "inputs": [
        {
          "internalType": "string",
          "name": "fromChainName",
          "type": "string"
        },
        {
          "internalType": "uint256",
          "name": "startingCounter",
          "type": "uint256"
        },
        {
          "components": [
            {
              "internalType": "address",
              "name": "sender",
              "type": "address"
            },
            {
              "internalType": "address",
              "name": "destinationContract",
              "type": "address"
            },
            {
              "internalType": "bytes",
              "name": "data",
              "type": "bytes"
            }
          ],
          "internalType": "struct IMessageProxy.Message[]",
          "name": "messages",
          "type": "tuple[]"
        },
        {
          "components": [
            {
              "internalType": "uint256[2]",
              "name": "blsSignature",
              "type": "uint256[2]"
            },
            {
              "internalType": "uint256",
              "name": "hashA",
              "type": "uint256"
            },
            {
              "internalType": "uint256",
              "name": "hashB",
              "type": "uint256"
            },
            {
              "internalType": "uint256",
              "name": "counter",
              "type": "uint256"
            }
          ],
          "internalType": "struct IMessageProxy.Signature",
          "name": "signature",
          "type": "tuple"
        }
      ],
      "name": "postIncomingMessages",
      "outputs": [],
      "stateMutability": "nonpayable",
      "type": "function"
    },
    {
      "inputs": [
        {
          "internalType": "bytes32",
          "name": "targetChainHash",
          "type": "bytes32"
        },
        {
          "internalType": "address",
          "name": "targetContract",
          "type": "address"
        },
        {
          "internalType": "bytes",
          "name": "data",
          "type": "bytes"
        }
      ],
      "name": "postOutgoingMessage",
      "outputs": [],
      "stateMutability": "nonpayable",
      "type": "function"
    },
    {
      "inputs": [
        {
          "internalType": "string",
          "name": "chainName",
          "type": "string"
        },
        {
          "internalType": "address",
          "name": "extraContract",
          "type": "address"
        }
      ],
      "name": "registerExtraContract",
      "outputs": [],
      "stateMutability": "nonpayable",
      "type": "function"
    },
    {
      "inputs": [
        {
          "internalType": "address",
          "name": "extraContract",
          "type": "address"
        }
      ],
      "name": "registerExtraContractForAll",
      "outputs": [],
      "stateMutability": "nonpayable",
      "type": "function"
    },
    {
      "inputs": [
        {
          "internalType": "string",
          "name": "chainName",
          "type": "string"
        }
      ],
      "name": "removeConnectedChain",
      "outputs": [],
      "stateMutability": "nonpayable",
      "type": "function"
    },
    {
      "inputs": [
        {
          "internalType": "string",
          "name": "chainName",
          "type": "string"
        },
        {
          "internalType": "address",
          "name": "extraContract",
          "type": "address"
        }
      ],
      "name": "removeExtraContract",
      "outputs": [],
      "stateMutability": "nonpayable",
      "type": "function"
    },
    {
      "inputs": [
        {
          "internalType": "address",
          "name": "extraContract",
          "type": "address"
        }
      ],
      "name": "removeExtraContractForAll",
      "outputs": [],
      "stateMutability": "nonpayable",
      "type": "function"
    },
    {
      "inputs": [
        {
          "internalType": "bytes32",
          "name": "role",
          "type": "bytes32"
        },
        {
          "internalType": "address",
          "name": "account",
          "type": "address"
        }
      ],
      "name": "renounceRole",
      "outputs": [],
      "stateMutability": "nonpayable",
      "type": "function"
    },
    {
      "inputs": [
        {
          "internalType": "bytes32",
          "name": "role",
          "type": "bytes32"
        },
        {
          "internalType": "address",
          "name": "account",
          "type": "address"
        }
      ],
      "name": "revokeRole",
      "outputs": [],
      "stateMutability": "nonpayable",
      "type": "function"
    },
    {
      "inputs": [],
      "name": "schainHash",
      "outputs": [
        {
          "internalType": "bytes32",
          "name": "",
          "type": "bytes32"
        }
      ],
      "stateMutability": "view",
      "type": "function"
    },
    {
      "inputs": [
        {
          "internalType": "uint256",
          "name": "newGasLimit",
          "type": "uint256"
        }
      ],
      "name": "setNewGasLimit",
      "outputs": [],
      "stateMutability": "nonpayable",
      "type": "function"
    },
    {
      "inputs": [
        {
          "internalType": "string",
          "name": "newVersion",
          "type": "string"
        }
      ],
      "name": "setVersion",
      "outputs": [],
      "stateMutability": "nonpayable",
      "type": "function"
    },
    {
      "inputs": [
        {
          "internalType": "bytes4",
          "name": "interfaceId",
          "type": "bytes4"
        }
      ],
      "name": "supportsInterface",
      "outputs": [
        {
          "internalType": "bool",
          "name": "",
          "type": "bool"
        }
      ],
      "stateMutability": "view",
      "type": "function"
    },
    {
      "inputs": [
        {
          "components": [
            {
              "internalType": "bytes32",
              "name": "dstChainHash",
              "type": "bytes32"
            },
            {
              "internalType": "uint256",
              "name": "msgCounter",
              "type": "uint256"
            },
            {
              "internalType": "address",
              "name": "srcContract",
              "type": "address"
            },
            {
              "internalType": "address",
              "name": "dstContract",
              "type": "address"
            },
            {
              "internalType": "bytes",
              "name": "data",
              "type": "bytes"
            }
          ],
          "internalType": "struct IMessageProxyForSchain.OutgoingMessageData",
          "name": "message",
          "type": "tuple"
        }
      ],
      "name": "verifyOutgoingMessageData",
      "outputs": [
        {
          "internalType": "bool",
          "name": "isValidMessage",
          "type": "bool"
        }
      ],
      "stateMutability": "view",
      "type": "function"
    },
    {
      "inputs": [
        {
          "internalType": "bytes32",
          "name": "hashedMessage",
          "type": "bytes32"
        },
        {
          "components": [
            {
              "internalType": "uint256[2]",
              "name": "blsSignature",
              "type": "uint256[2]"
            },
            {
              "internalType": "uint256",
              "name": "hashA",
              "type": "uint256"
            },
            {
              "internalType": "uint256",
              "name": "hashB",
              "type": "uint256"
            },
            {
              "internalType": "uint256",
              "name": "counter",
              "type": "uint256"
            }
          ],
          "internalType": "struct IMessageProxy.Signature",
          "name": "signature",
          "type": "tuple"
        }
      ],
      "name": "verifySignature",
      "outputs": [
        {
          "internalType": "bool",
          "name": "",
          "type": "bool"
        }
      ],
      "stateMutability": "view",
      "type": "function"
    },
    {
      "inputs": [],
      "name": "version",
      "outputs": [
        {
          "internalType": "string",
          "name": "",
          "type": "string"
        }
      ],
      "stateMutability": "view",
      "type": "function"
    }
  ],
  "bytecode": "0x608060405234801561001057600080fd5b50614127806100206000396000f3fe608060405234801561001057600080fd5b50600436106102695760003560e01c80636a156b9a11610151578063bbc4e8c2116100c3578063e6ab840311610087578063e6ab840314610585578063f2f63605146105d4578063f399e22e146105e7578063f68016b7146105fa578063f79f795414610603578063f8c88a161461061657600080fd5b8063bbc4e8c21461051d578063bdb40cb014610544578063ca15c8731461054c578063cab010c91461055f578063d547741f1461057257600080fd5b80639010d07c116101155780639010d07c146104b657806391d14854146104c957806394489202146104dc578063999ab9aa146104ef578063a217fddf14610502578063a8bb1b7d1461050a57600080fd5b80636a156b9a146104455780636e2f37b01461046a57806377fe0f311461047d578063788bc78c146104905780637aa38a7c146104a357600080fd5b80633b597ffe116101ea57806352dc24ee116101ae57806352dc24ee146103d557806353498cdd146103e857806354fd4d50146103f7578063603e5d131461040c578063654d88281461041f57806367ec60201461043257600080fd5b80633b597ffe1461037e5780633b690b6b146103915780633cdd2cc31461039a5780634d203859146103ad578063523c8ab6146103c057600080fd5b8063214883401161023157806321488340146102e1578063248a9ca31461030157806328c5e182146103245780632f2ff15d1461035657806336568abe1461036b57600080fd5b806301ffc9a71461026e5780630fc307a81461029657806313c52260146102b7578063198e687c146102cc5780631cf5379d146102d4575b600080fd5b61028161027c366004613615565b610629565b60405190151581526020015b60405180910390f35b6102a96102a43660046134e0565b610654565b60405190815260200161028d565b6102a96000805160206140b283398151915281565b6102a9604081565b60d3546102819060ff1681565b6102f46102ef3660046135e9565b61066b565b60405161028d9190613a6d565b6102a961030f3660046134e0565b60009081526065602052604090206001015490565b6102a96040516613585a5b9b995d60ca1b60208201526027016040516020818303038152906040528051906020012081565b610369610364366004613512565b6107aa565b005b610369610379366004613512565b6107d4565b61036961038c3660046134e0565b610852565b6102a960cd5481565b6103696103a8366004613789565b610918565b6103696103bb3660046134a1565b610a02565b6102a960008051602061407283398151915281565b6102816103e336600461359a565b610b3c565b6102a9670de0b6b3a764000081565b6103ff610b4f565b60405161028d9190613ae5565b61036961041a3660046136cf565b610bdd565b61028161042d366004613512565b610e80565b6102a961044036600461368e565b610e98565b61045262695d1f60891b81565b6040516001600160a01b03909116815260200161028d565b6103696104783660046134e0565b610f11565b6102a961048b36600461368e565b611045565b61036961049e36600461368e565b6110eb565b6102816104b1366004613846565b61118a565b6104526104c43660046135c7565b6111c4565b6102816104d7366004613512565b6111dc565b6103696104ea366004613542565b611207565b6102816104fd366004613789565b6112bd565b6102a9600081565b6103696105183660046134a1565b611306565b6102a97f96e3fc3be15159903e053027cff8a23f39a990e0194abcd8ac1cf1b355b8b93c81565b6102a9600a81565b6102a961055a3660046134e0565b611400565b61036961056d3660046137bd565b611417565b610369610580366004613512565b6114a2565b6105b76105933660046134e0565b60c96020526000908152604090208054600182015460029092015490919060ff1683565b60408051938452602084019290925215159082015260600161028d565b6103696105e236600461368e565b6114c7565b6103696105f536600461363f565b61154f565b6102a960cb5481565b60cc54610452906001600160a01b031681565b6103696106243660046137bd565b6116ec565b60006001600160e01b03198216635a05180f60e01b148061064e575061064e82611777565b92915050565b600081815260d16020526040812061064e906117ac565b606081831080156106865750600a6106838484613df7565b11155b80156106a85750600084815260d1602052604090206106a4906117ac565b8211155b6106ee5760405162461bcd60e51b815260206004820152601260248201527114985b99d9481a5cc81a5b98dbdc9c9958dd60721b60448201526064015b60405180910390fd5b6106f88383613df7565b6001600160401b0381111561070f5761070f613f81565b604051908082528060200260200182016040528015610738578160200160208202803683370190505b509050825b828110156107a257600085815260d16020526040902061075d90826117b6565b826107688684613df7565b8151811061077857610778613f6b565b6001600160a01b03909216602092830291909101909101528061079a81613efa565b91505061073d565b509392505050565b6000828152606560205260409020600101546107c5816117c2565b6107cf83836117cf565b505050565b6001600160a01b03811633146108445760405162461bcd60e51b815260206004820152602f60248201527f416363657373436f6e74726f6c3a2063616e206f6e6c792072656e6f756e636560448201526e103937b632b9903337b91039b2b63360891b60648201526084016106e5565b61084e82826117f1565b5050565b61087c7f96e3fc3be15159903e053027cff8a23f39a990e0194abcd8ac1cf1b355b8b93c336111dc565b6108d75760405162461bcd60e51b815260206004820152602660248201527f4e6f7420656e6f756768207065726d697373696f6e7320746f2073657420636f6044820152651b9cdd185b9d60d21b60648201526084016106e5565b60cb5460408051918252602082018390527f8abddb75fd50f7583079c0b550ec7a54fa3fd8d5dd1d2dfdc473f7ce27e3b9ac910160405180910390a160cb55565b6109306000805160206140b2833981519152336111dc565b61094c5760405162461bcd60e51b81526004016106e590613bac565b60008160405160200161095f91906139b8565b604051602081830303815290604052805190602001209050604051602001610994906613585a5b9b995d60ca1b815260070190565b604051602081830303815290604052805190602001208114156109f95760405162461bcd60e51b815260206004820152601960248201527f4d61696e6e65742063616e6e6f742062652072656d6f7665640000000000000060448201526064016106e5565b61084e82611813565b610a1a600080516020614072833981519152336111dc565b610a365760405162461bcd60e51b81526004016106e590613be1565b6001600160a01b0381163b610a8d5760405162461bcd60e51b815260206004820152601f60248201527f476976656e2061646472657373206973206e6f74206120636f6e74726163740060448201526064016106e5565b610aa98160d15b600080805260209190915260409020906118f6565b15610ac65760405162461bcd60e51b81526004016106e590613d0c565b6000805260d1602052610af87efa5413e7b01fc543d01f0911de573ace463b956369df4472f39030e8d98b7782611918565b506040516001600160a01b03821681526000907f03bcd152926369e3cf05cb7af471a15d680e8ec5d20b13705048d14e94679365906020015b60405180910390a250565b6000610b48838361192d565b9392505050565b60d28054610b5c90613e55565b80601f0160208091040260200160405190810160405280929190818152602001828054610b8890613e55565b8015610bd55780601f10610baa57610100808354040283529160200191610bd5565b820191906000526020600020905b815481529060010190602001808311610bb857829003601f168201915b505050505081565b60d35460ff1615610c295760405162461bcd60e51b81526020600482015260166024820152754d65737361676520697320696e2070726f677265737360501b60448201526064016106e5565b60d3805460ff19166001179055604051600090610c4c90889088906020016139a8565b60408051601f198184030181529181528151602092830120600081815260c990935291206002015490915060ff16610cc15760405162461bcd60e51b815260206004820152601860248201527710da185a5b881a5cc81b9bdd081a5b9a5d1a585b1a5e995960421b60448201526064016106e5565b600a831115610d065760405162461bcd60e51b8152602060048201526011602482015270546f6f206d616e79206d6573736167657360781b60448201526064016106e5565b610d1c610d168585888b8b6119da565b8361192d565b610d685760405162461bcd60e51b815260206004820152601960248201527f5369676e6174757265206973206e6f742076657269666965640000000000000060448201526064016106e5565b600081815260c960205260409020548514610deb5760405162461bcd60e51b815260206004820152603860248201527f5374617274696e6720636f756e746572206973206e6f74207175616c20746f2060448201527f696e636f6d696e67206d65737361676520636f756e746572000000000000000060648201526084016106e5565b600081815260c9602052604081208054859290610e09908490613dac565b90915550600090505b83811015610e6457610e5282868684818110610e3057610e30613f6b565b9050602002810190610e429190613d96565b610e4d896001613dac565b611b55565b80610e5c81613efa565b915050610e12565b50610e6d611d7a565b505060d3805460ff191690555050505050565b600082815260d160205260408120610b4890836118f6565b6000808383604051602001610eae9291906139a8565b60408051601f198184030181529181528151602092830120600081815260c990935291206002015490915060ff16610ef85760405162461bcd60e51b81526004016106e590613c78565b600090815260c960205260409020600101549392505050565b600054610100900460ff1615808015610f315750600054600160ff909116105b80610f4b5750303b158015610f4b575060005460ff166001145b610f675760405162461bcd60e51b81526004016106e590613c2a565b6000805460ff191660011790558015610f8a576000805461ff0019166101001790555b610f92611f6e565b610f9d600033611fdb565b610fb56000805160206140b283398151915233611fdb565b610fcd60008051602061407283398151915233611fdb565b610ff77f96e3fc3be15159903e053027cff8a23f39a990e0194abcd8ac1cf1b355b8b93c33611fdb565b60cb829055801561084e576000805461ff0019169055604051600181527f7f26b83ff96e1f2b6a682f133852f6798a09c465da95921460cefb38474024989060200160405180910390a15050565b600080838360405160200161105b9291906139a8565b60408051601f198184030181529181528151602092830120600081815260c990935291206002015490915060ff166110d55760405162461bcd60e51b815260206004820152601f60248201527f536f7572636520636861696e206973206e6f7420696e697469616c697a65640060448201526064016106e5565b600090815260c960205260409020549392505050565b6110f66000336111dc565b6111425760405162461bcd60e51b815260206004820152601e60248201527f44454641554c545f41444d494e5f524f4c45206973207265717569726564000060448201526064016106e5565b7f22efc5f993dce37856b77dd72d7d7661032380c9728c4133f3c071c591bc6ca760d2838360405161117693929190613af8565b60405180910390a16107cf60d28383613284565b8051600090815260ce602090815260408083208285015184529091528120546111b283611fe5565b8114156111be57600191505b50919050565b6000828152609760205260408120610b4890836117b6565b60009182526065602090815260408084206001600160a01b0393909316845291905290205460ff1690565b61121283838361205b565b60006040518060a00160405280858152602001600160c96000888152602001908152602001600020600101546112489190613df7565b81523360208201526001600160a01b0385166040820152606001839052805190915061127382611fe5565b600082815260ce6020908152604080832060d080845282852080548652918452918420949094558483529052815460019291906112b1908490613dac565b90915550505050505050565b600060c96000836040516020016112d491906139b8565b60408051601f198184030181529181528151602092830120835290820192909252016000206002015460ff1692915050565b61131e600080516020614072833981519152336111dc565b61133a5760405162461bcd60e51b81526004016106e590613be1565b6113458160d1610a94565b6113915760405162461bcd60e51b815260206004820181905260248201527f457874726120636f6e7472616374206973206e6f74207265676973746572656460448201526064016106e5565b6000805260d16020526113c37efa5413e7b01fc543d01f0911de573ace463b956369df4472f39030e8d98b7782612121565b506040516001600160a01b03821681526000907f4d393b64277bfc0b02e0459a74c316c7f22069352a678319fd8139ba4085e06190602001610b31565b600081815260976020526040812061064e906117ac565b61142f600080516020614072833981519152336111dc565b61144b5760405162461bcd60e51b81526004016106e590613be1565b60008260405160200161145e91906139b8565b60405160208183030381529060405280519060200120905060cd548114156114985760405162461bcd60e51b81526004016106e590613cbc565b6107cf8183612136565b6000828152606560205260409020600101546114bd816117c2565b6107cf83836117f1565b600082826040516020016114dc9291906139a8565b60405160208183030381529060405280519060200120905060cd548114156115465760405162461bcd60e51b815260206004820152601c60248201527f53636861696e2063616e6e6f7420636f6e6e65637420697473656c660000000060448201526064016106e5565b6107cf81612296565b600054610100900460ff161580801561156f5750600054600160ff909116105b806115895750303b158015611589575060005460ff166001145b6115a55760405162461bcd60e51b81526004016106e590613c2a565b6000805460ff1916600117905580156115c8576000805461ff0019166101001790555b6115d4622dc6c0610f11565b60cc80546001600160a01b0385166001600160a01b031990911617905560408051606081018252600080825260208083018290526001838501529251919260c99261162d91016613585a5b9b995d60ca1b815260070190565b60408051808303601f19018152918152815160209283012083528282019390935290820160002083518155838201516001820155928201516002909301805460ff19169315159390931790925551611687918491016139b8565b60408051601f19818403018152919052805160209091012060cd5580156107cf576000805461ff0019169055604051600181527f7f26b83ff96e1f2b6a682f133852f6798a09c465da95921460cefb38474024989060200160405180910390a1505050565b611704600080516020614072833981519152336111dc565b6117205760405162461bcd60e51b81526004016106e590613be1565b60008260405160200161173391906139b8565b60405160208183030381529060405280519060200120905060cd5481141561176d5760405162461bcd60e51b81526004016106e590613cbc565b6107cf818361237c565b60006001600160e01b03198216637965db0b60e01b148061064e57506301ffc9a760e01b6001600160e01b031983161461064e565b600061064e825490565b6000610b488383612427565b6117cc8133612451565b50565b6117d982826124b5565b60008281526097602052604090206107cf9082611918565b6117fb828261253b565b60008281526097602052604090206107cf9082612121565b61182b6000805160206140b2833981519152336111dc565b6118475760405162461bcd60e51b81526004016106e590613bac565b60008160405160200161185a91906139b8565b60408051601f198184030181529181528151602092830120600081815260c990935291206002015490915060ff166118cf5760405162461bcd60e51b815260206004820152601860248201527710da185a5b881a5cc81b9bdd081a5b9a5d1a585b1a5e995960421b60448201526064016106e5565b600090815260c9602052604081208181556001810191909155600201805460ff1916905550565b6001600160a01b03811660009081526001830160205260408120541515610b48565b6000610b48836001600160a01b0384166125a2565b604080518082018252823581526020808401359082015260cc548251632aa77bd360e11b81528351600094610b48949388936080808a013594938a01359360608b0135936001600160a01b03169263554ef7a6926004808301939192829003018186803b15801561199d57600080fd5b505afa1580156119b1573d6000803e3d6000fd5b505050506040513d601f19601f820116820180604052508101906119d59190613803565b6125f1565b60008083836040516020016119f09291906139a8565b60408051808303601f190181528282528051602091820120908301819052908201879052915060009060600160405160208183030381529060405280519060200120905060005b87811015611b495781898983818110611a5257611a52613f6b565b9050602002810190611a649190613d96565b611a729060208101906134a1565b8a8a84818110611a8457611a84613f6b565b9050602002810190611a969190613d96565b611aa79060408101906020016134a1565b6040805160208101949094526001600160a01b0392831690840152166060820152608001604051602081830303815290604052898983818110611aec57611aec613f6b565b9050602002810190611afe9190613d96565b611b0c906040810190613d50565b604051602001611b1e93929190613980565b6040516020818303038152906040528051906020012091508080611b4190613efa565b915050611a37565b50979650505050505050565b611b77611b6860408401602085016134a1565b6001600160a01b03163b151590565b611be557806000805160206140d2833981519152604051611bd89060208082526026908201527f44657374696e6174696f6e20636f6e7472616374206973206e6f74206120636f6040820152651b9d1c9858dd60d21b606082015260800190565b60405180910390a2505050565b611bf560408301602084016134a1565b6001600160a01b031663884cee5a60cb5485856000016020810190611c1a91906134a1565b611c276040880188613d50565b6040518663ffffffff1660e01b8152600401611c469493929190613aba565b600060405180830381600088803b158015611c6057600080fd5b5087f193505050508015611c72575060015b6107cf57611c7e613f97565b806308c379a01415611cd45750611c93613fb3565b80611c9e5750611d2f565b816000805160206140d2833981519152611cb98360406127bb565b604051611cc69190613ae5565b60405180910390a250505050565b634e487b711415611d2f57611ce761403c565b90611cf25750611d2f565b816000805160206140d283398151915282604051602001611d1591815260200190565b60408051601f1981840301815290829052611cc691613ae5565b3d808015611d59576040519150601f19603f3d011682016040523d82523d6000602084013e611d5e565b606091505b50816000805160206140d2833981519152611cb98360406127bb565b60003a5a611d889190613dd8565b611d93903331613dac565b905062695d1f60891b803b15801590611e9c5750806001600160a01b03166391d14854826001600160a01b031663bc2a1e8d6040518163ffffffff1660e01b815260040160206040518083038186803b158015611def57600080fd5b505afa158015611e03573d6000803e3d6000fd5b505050506040513d601f19601f82011682018060405250810190611e2791906134f9565b6040516001600160e01b031960e084901b168152600481019190915230602482015260440160206040518083038186803b158015611e6457600080fd5b505afa158015611e78573d6000803e3d6000fd5b505050506040513d601f19601f82011682018060405250810190611e9c91906134be565b8015611eaf5750670de0b6b3a764000082105b1561084e576000611ec883670de0b6b3a7640000613df7565b9050816001600160a01b031631811015611f425760405163204a3e9360e01b8152336004820152602481018290526001600160a01b0383169063204a3e93906044015b600060405180830381600087803b158015611f2557600080fd5b505af1158015611f39573d6000803e3d6000fd5b50505050505050565b604051630a79309b60e01b81523360048201526001600160a01b03831690630a79309b90602401611f0b565b600054610100900460ff16611fd95760405162461bcd60e51b815260206004820152602b60248201527f496e697469616c697a61626c653a20636f6e7472616374206973206e6f74206960448201526a6e697469616c697a696e6760a81b60648201526084016106e5565b565b61084e82826117cf565b6000808260000151836020015160001b846040015160601b6bffffffffffffffffffffffff1916856060015160601b6bffffffffffffffffffffffff1916866080015160405160200161203c959493929190613945565b60408051601f1981840301815291905280516020909101209392505050565b600083815260c9602052604090206002015460ff1661208c5760405162461bcd60e51b81526004016106e590613c78565b61209583612885565b336001600160a01b031660c9600085815260200190815260200160002060010154847f803d7f3ca0e5f93fcce39fa29812ed57a95a151594966e17125220132741c6b085856040516120e8929190613a49565b60405180910390a4600160c9600085815260200190815260200160002060010160008282546121179190613dac565b9091555050505050565b6000610b48836001600160a01b0384166128f6565b6001600160a01b0381163b61218d5760405162461bcd60e51b815260206004820152601f60248201527f476976656e2061646472657373206973206e6f74206120636f6e74726163740060448201526064016106e5565b6121a98160d15b600085815260209190915260409020906118f6565b156121c65760405162461bcd60e51b81526004016106e590613d0c565b6121d18160d1610a94565b1561223a5760405162461bcd60e51b815260206004820152603360248201527f457874726120636f6e747261637420697320616c7265616479207265676973746044820152726572656420666f7220616c6c20636861696e7360681b60648201526084016106e5565b600082815260d1602052604090206122529082611918565b506040516001600160a01b038216815282907f03bcd152926369e3cf05cb7af471a15d680e8ec5d20b13705048d14e94679365906020015b60405180910390a25050565b6122ae6000805160206140b2833981519152336111dc565b6122ca5760405162461bcd60e51b81526004016106e590613bac565b600081815260c9602052604090206002015460ff161561232c5760405162461bcd60e51b815260206004820152601a60248201527f436861696e20697320616c726561647920636f6e6e656374656400000000000060448201526064016106e5565b6040805160608101825260008082526020808301828152600184860181815296845260c9909252939091209151825591519181019190915590516002909101805460ff1916911515919091179055565b6123878160d1612194565b6123d35760405162461bcd60e51b815260206004820181905260248201527f457874726120636f6e7472616374206973206e6f74207265676973746572656460448201526064016106e5565b600082815260d1602052604090206123eb9082612121565b506040516001600160a01b038216815282907f4d393b64277bfc0b02e0459a74c316c7f22069352a678319fd8139ba4085e0619060200161228a565b600082600001828154811061243e5761243e613f6b565b9060005260206000200154905092915050565b61245b82826111dc565b61084e57612473816001600160a01b031660146129f0565b61247e8360206129f0565b60405160200161248f9291906139d4565b60408051601f198184030181529082905262461bcd60e51b82526106e591600401613ae5565b6124bf82826111dc565b61084e5760008281526065602090815260408083206001600160a01b03851684529091529020805460ff191660011790556124f73390565b6001600160a01b0316816001600160a01b0316837f2f8788117e7eff1d82e926ec794901d17c78024a50270940304540a733656f0d60405160405180910390a45050565b61254582826111dc565b1561084e5760008281526065602090815260408083206001600160a01b0385168085529252808320805460ff1916905551339285917ff6391f5c32d9c69d2a47ea670b442974b53935d1edc7fd64eb21e047a839171b9190a45050565b60008181526001830160205260408120546125e95750815460018181018455600084815260208082209093018490558454848252828601909352604090209190915561064e565b50600061064e565b60006125fc87612b8b565b6126415760405162461bcd60e51b815260206004820152601660248201527514da59db985d1d5c99481a5cc81b9bdd081d985b1a5960521b60448201526064016106e5565b61264d86868686612bc1565b612659575060006127b1565b60006126688860200151612caf565b9050612678886000015182612cd4565b6126b55760405162461bcd60e51b815260206004820152600e60248201526d5369676e206e6f7420696e20473160901b60448201526064016106e5565b6126bf8585612cd4565b6126fc5760405162461bcd60e51b815260206004820152600e60248201526d48617368206e6f7420696e20473160901b60448201526064016106e5565b6000612706612d0a565b905061271184612dca565b6127545760405162461bcd60e51b8152602060048201526014602482015273283ab13634b19025b2bc903737ba1034b710239960611b60448201526064016106e5565b6127ac8960000151838360000151602001518460000151600001518560200151602001518660200151600001518c8c8c60000151602001518d60000151600001518e60200151602001518f6020015160000151612dde565b925050505b9695505050505050565b60606000835183106127ce5783516127d0565b825b90506000816001600160401b038111156127ec576127ec613f81565b6040519080825280601f01601f191660200182016040528015612816576020820181803683370190505b50905060005b8281101561287c5785818151811061283657612836613f6b565b602001015160f81c60f81b82828151811061285357612853613f6b565b60200101906001600160f81b031916908160001a9053508061287481613efa565b91505061281c565b50949350505050565b612890600033610e80565b806128a057506128a08133610e80565b6117cc5760405162461bcd60e51b815260206004820152602160248201527f53656e64657220636f6e7472616374206973206e6f74207265676973746572656044820152601960fa1b60648201526084016106e5565b600081815260018301602052604081205480156129df57600061291a600183613df7565b855490915060009061292e90600190613df7565b905081811461299357600086600001828154811061294e5761294e613f6b565b906000526020600020015490508087600001848154811061297157612971613f6b565b6000918252602080832090910192909255918252600188019052604090208390555b85548690806129a4576129a4613f55565b60019003818190600052602060002001600090559055856001016000868152602001908152602001600020600090556001935050505061064e565b600091505061064e565b5092915050565b606060006129ff836002613dd8565b612a0a906002613dac565b6001600160401b03811115612a2157612a21613f81565b6040519080825280601f01601f191660200182016040528015612a4b576020820181803683370190505b509050600360fc1b81600081518110612a6657612a66613f6b565b60200101906001600160f81b031916908160001a905350600f60fb1b81600181518110612a9557612a95613f6b565b60200101906001600160f81b031916908160001a9053506000612ab9846002613dd8565b612ac4906001613dac565b90505b6001811115612b3c576f181899199a1a9b1b9c1cb0b131b232b360811b85600f1660108110612af857612af8613f6b565b1a60f81b828281518110612b0e57612b0e613f6b565b60200101906001600160f81b031916908160001a90535060049490941c93612b3581613e3e565b9050612ac7565b508315610b485760405162461bcd60e51b815260206004820181905260248201527f537472696e67733a20686578206c656e67746820696e73756666696369656e7460448201526064016106e5565b6000600080516020614092833981519152826000015110801561064e575050602001516000805160206140928339815191521190565b60006064841115612bd457506000612ca7565b6000612bee60008051602061409283398151915287613f15565b9050600080516020614092833981519152612c098683613dac565b612c139190613f15565b9050600060008051602061409283398151915260036000805160206140928339815191528460008051602061409283398151915286870909089050612c676002600080516020614092833981519152613dc4565b841080612c8557508060008051602061409283398151915285860914155b80612c905750848214155b15612ca057600092505050612ca7565b6001925050505b949350505050565b6000600080516020614092833981519152612cca8382613df7565b61064e9190613f15565b600060008051602061409283398151915280600381868188890909088180612cfe57612cfe613f3f565b84850914949350505050565b612d12613308565b50604080516080810182527f1800deef121f1e76426a00665e5c4479674322d4f75edadd46debd5cd992f6ed8183019081527f198e9393920d483a7260bfb731fb5d25f1aa493335a9e71297e485b7aef312c26060830152815281518083019092527f12c85ea5db8c6deb4aab71808dcb408fe3d1e7690c43d37b4ce6cc0166fa7daa82527f090689d0585ff075ec9e99ad690c3395bc4b313370b38ef355acdadcd122975b60208381019190915281019190915290565b600061064e82600001518360200151612eae565b600080612de961334c565b8e8152602081018e9052604081018d9052606081018c9052608081018b905260a081018a905260c0810189905260e081018890526101008101879052610120810186905261014081018590526101608101849052612e4561336b565b602081610180846008600019fa925082612e985760405162461bcd60e51b815260206004820152601460248201527314185a5c9a5b99c818da1958dac819985a5b195960621b60448201526064016106e5565b5115159f9e505050505050505050505050505050565b6000612eba8383612f82565b15612ec75750600161064e565b6000612ed283612fb5565b90506000612f65612f42604080518082018252600080825260209182015281518083019092527f2b149d40ceb8aaae81be18991be06ac3b5b4c5e559dbefa33267e6dc24a138e582527e9713b03af0fed4cd2cafadeed8fdf4a74fa084e52d1852e4a2bd0685c315d29082015290565b612f5f612f5888612f528a612fb5565b9061306b565b859061317e565b9061317e565b8051909150158015612f7957506020810151155b95945050505050565b8151600090158015612f9657506020830151155b8015612fa3575081516001145b8015610b485750506020015115919050565b60408051808201909152600080825260208201526000805160206140928339815191526000816020850151855109905060008280612ff557612ff5613f3f565b838061300357613003613f3f565b848061301157613011613f3f565b6020880151613021600188613df7565b09875108848061303357613033613f3f565b60208801518851080990506040518060400160405280828152602001848061305d5761305d613f3f565b848508905295945050505050565b6040805180820190915260008082526020820152600060008051602061409283398151915290506000604051806040016040528083806130ad576130ad613f3f565b8651885109815260200183806130c5576130c5613f3f565b86602001518860200151099052905081806130e2576130e2613f3f565b82806130f0576130f0613f3f565b6020830151613100600186613df7565b098251088352818061311457613114613f3f565b828061312257613122613f3f565b60208301518351086131349084613df7565b838061314257613142613f3f565b848061315057613150613f3f565b6020880151885108858061316657613166613f3f565b60208a01518a51080908602084015250909392505050565b60408051808201909152600080825260208201528151835160008051602061409283398151915291116131cf5780806131b9576131b9613f3f565b83516131c59083613df7565b8551088252613204565b8081806131de576131de613f3f565b85516131ea9084613df7565b8551086131f79083613df7565b6132019190613f15565b82525b826020015184602001511061324057808061322157613221613f3f565b60208401516132309083613df7565b85602001510860208301526129e9565b80818061324f5761324f613f3f565b602086015161325e9084613df7565b85602001510861326e9083613df7565b6132789190613f15565b60208301525092915050565b82805461329090613e55565b90600052602060002090601f0160209004810192826132b257600085556132f8565b82601f106132cb5782800160ff198235161785556132f8565b828001600101855582156132f8579182015b828111156132f85782358255916020019190600101906132dd565b50613304929150613389565b5090565b60408051608081018252600091810182815260608201929092529081908152602001613347604051806040016040528060008152602001600081525090565b905290565b604051806101800160405280600c906020820280368337509192915050565b60405180602001604052806001906020820280368337509192915050565b5b80821115613304576000815560010161338a565b600082601f8301126133af57600080fd5b81356001600160401b038111156133c8576133c8613f81565b6040516133df601f8301601f191660200182613ece565b8181528460208386010111156133f457600080fd5b816020850160208301376000918101602001919091529392505050565b60008083601f84011261342357600080fd5b5081356001600160401b0381111561343a57600080fd5b60208301915083602082850101111561345257600080fd5b9250929050565b60006040828403121561346b57600080fd5b60405161347781613e8a565b80915082518152602083015160208201525092915050565b600060a082840312156111be57600080fd5b6000602082840312156134b357600080fd5b8135610b488161405c565b6000602082840312156134d057600080fd5b81518015158114610b4857600080fd5b6000602082840312156134f257600080fd5b5035919050565b60006020828403121561350b57600080fd5b5051919050565b6000806040838503121561352557600080fd5b8235915060208301356135378161405c565b809150509250929050565b60008060006060848603121561355757600080fd5b8335925060208401356135698161405c565b915060408401356001600160401b0381111561358457600080fd5b6135908682870161339e565b9150509250925092565b60008060c083850312156135ad57600080fd5b823591506135be846020850161348f565b90509250929050565b600080604083850312156135da57600080fd5b50508035926020909101359150565b6000806000606084860312156135fe57600080fd5b505081359360208301359350604090920135919050565b60006020828403121561362757600080fd5b81356001600160e01b031981168114610b4857600080fd5b6000806040838503121561365257600080fd5b823561365d8161405c565b915060208301356001600160401b0381111561367857600080fd5b6136848582860161339e565b9150509250929050565b600080602083850312156136a157600080fd5b82356001600160401b038111156136b757600080fd5b6136c385828601613411565b90969095509350505050565b60008060008060008061010087890312156136e957600080fd5b86356001600160401b038082111561370057600080fd5b61370c8a838b01613411565b909850965060208901359550604089013591508082111561372c57600080fd5b818901915089601f83011261374057600080fd5b81358181111561374f57600080fd5b8a60208260051b850101111561376457600080fd5b60208301955080945050505061377d886060890161348f565b90509295509295509295565b60006020828403121561379b57600080fd5b81356001600160401b038111156137b157600080fd5b612ca78482850161339e565b600080604083850312156137d057600080fd5b82356001600160401b038111156137e657600080fd5b6137f28582860161339e565b92505060208301356135378161405c565b60006080828403121561381557600080fd5b60405161382181613e8a565b61382b8484613459565b815261383a8460408501613459565b60208201529392505050565b60006020828403121561385857600080fd5b81356001600160401b038082111561386f57600080fd5b9083019060a0828603121561388357600080fd5b60405161388f81613eaf565b823581526020830135602082015260408301356138ab8161405c565b604082015260608301356138be8161405c565b60608201526080830135828111156138d557600080fd5b6138e18782860161339e565b60808301525095945050505050565b81835281816020850137506000828201602090810191909152601f909101601f19169091010190565b60008151808452613931816020860160208601613e0e565b601f01601f19169290920160200192915050565b8581528460208201528360408201528260608201526000825161396f816080850160208701613e0e565b919091016080019695505050505050565b60008451613992818460208901613e0e565b8201838582376000930192835250909392505050565b8183823760009101908152919050565b600082516139ca818460208701613e0e565b9190910192915050565b7f416363657373436f6e74726f6c3a206163636f756e7420000000000000000000815260008351613a0c816017850160208801613e0e565b7001034b99036b4b9b9b4b733903937b6329607d1b6017918401918201528351613a3d816028840160208801613e0e565b01602801949350505050565b6001600160a01b0383168152604060208201819052600090612ca790830184613919565b6020808252825182820181905260009190848201906040850190845b81811015613aae5783516001600160a01b031683529284019291840191600101613a89565b50909695505050505050565b8481526001600160a01b03841660208201526060604082018190526000906127b190830184866138f0565b602081526000610b486020830184613919565b60408152600080855481600182811c915080831680613b1857607f831692505b6020808410821415613b3857634e487b7160e01b86526022600452602486fd5b6040880184905260608801828015613b575760018114613b6857613b93565b60ff19871682528282019750613b93565b60008d81526020902060005b87811015613b8d57815484820152908601908401613b74565b83019850505b50508786038189015250505050506127b18185876138f0565b6020808252818101527f434841494e5f434f4e4e4543544f525f524f4c45206973207265717569726564604082015260600190565b60208082526029908201527f45585452415f434f4e54524143545f5245474953545241525f524f4c45206973604082015268081c995c5d5a5c995960ba1b606082015260800190565b6020808252602e908201527f496e697469616c697a61626c653a20636f6e747261637420697320616c72656160408201526d191e481a5b9a5d1a585b1a5e995960921b606082015260800190565b60208082526024908201527f44657374696e6174696f6e20636861696e206973206e6f7420696e697469616c6040820152631a5e995960e21b606082015260800190565b60208082526030908201527f44657374696e6174696f6e20636861696e20686173682063616e6e6f7420626560408201526f1032b8bab0b6103a379034ba39b2b63360811b606082015260800190565b60208082526024908201527f457874726120636f6e747261637420697320616c726561647920726567697374604082015263195c995960e21b606082015260800190565b6000808335601e19843603018112613d6757600080fd5b8301803591506001600160401b03821115613d8157600080fd5b60200191503681900382131561345257600080fd5b60008235605e198336030181126139ca57600080fd5b60008219821115613dbf57613dbf613f29565b500190565b600082613dd357613dd3613f3f565b500490565b6000816000190483118215151615613df257613df2613f29565b500290565b600082821015613e0957613e09613f29565b500390565b60005b83811015613e29578181015183820152602001613e11565b83811115613e38576000848401525b50505050565b600081613e4d57613e4d613f29565b506000190190565b600181811c90821680613e6957607f821691505b602082108114156111be57634e487b7160e01b600052602260045260246000fd5b604081018181106001600160401b0382111715613ea957613ea9613f81565b60405250565b60a081018181106001600160401b0382111715613ea957613ea9613f81565b601f8201601f191681016001600160401b0381118282101715613ef357613ef3613f81565b6040525050565b6000600019821415613f0e57613f0e613f29565b5060010190565b600082613f2457613f24613f3f565b500690565b634e487b7160e01b600052601160045260246000fd5b634e487b7160e01b600052601260045260246000fd5b634e487b7160e01b600052603160045260246000fd5b634e487b7160e01b600052603260045260246000fd5b634e487b7160e01b600052604160045260246000fd5b600060033d1115613fb05760046000803e5060005160e01c5b90565b600060443d1015613fc15790565b6040516003193d81016004833e81513d6001600160401b038160248401118184111715613ff057505050505090565b82850191508151818111156140085750505050505090565b843d87010160208285010111156140225750505050505090565b61403160208286010187613ece565b509095945050505050565b60008060233d1115614058576020600460003e50506000516001905b9091565b6001600160a01b03811681146117cc57600080fdfe6155b5aac15ce9aa193c0527a6f43be0a36a7e2e7496c2b615c0e5f92284277330644e72e131a029b85045b68181585d97816a916871ca8d3c208c16d87cfd472785f35fe7d8743aa971942d8474737bb31895d396eff2cc688a481e0221e1914b7d3908626050c0d998d657e4e6f31cb43ed736bf2b9a1a0192494537ca0e59a2646970667358221220f0ad3df42f745a77ed65b0a19306899999e8a53b088ba3a8e5c93e490aa88c0064736f6c63430008060033",
  "linkReferences": {},
  "deployedLinkReferences": {}
}