{
  "_format": "hh-sol-artifact-1",
  "contractName": "TokenManagerERC1155",
  "sourceName": "contracts/schain/TokenManagers/TokenManagerERC1155.sol",
  "abi": [
    {
      "anonymous": false,
      "inputs": [
        {
          "indexed": false,
          "internalType": "address",
          "name": "oldValue",
          "type": "address"
        },
        {
          "indexed": false,
          "internalType": "address",
          "name": "newValue",
          "type": "address"
        }
      ],
      "name": "DepositBoxWasChanged",
      "type": "event"
    },
    {
      "anonymous": false,
      "inputs": [
        {
          "indexed": true,
          "internalType": "bytes32",
          "name": "chainHash",
          "type": "bytes32"
        },
        {
          "indexed": true,
          "internalType": "address",
          "name": "erc1155OnMainnet",
          "type": "address"
        },
        {
          "indexed": true,
          "internalType": "address",
          "name": "erc1155OnSchain",
          "type": "address"
        }
      ],
      "name": "ERC1155TokenAdded",
      "type": "event"
    },
    {
      "anonymous": false,
      "inputs": [
        {
          "indexed": true,
          "internalType": "bytes32",
          "name": "chainHash",
          "type": "bytes32"
        },
        {
          "indexed": true,
          "internalType": "address",
          "name": "erc1155OnMainnet",
          "type": "address"
        },
        {
          "indexed": true,
          "internalType": "address",
          "name": "erc1155OnSchain",
          "type": "address"
        }
      ],
      "name": "ERC1155TokenCreated",
      "type": "event"
    },
    {
      "anonymous": false,
      "inputs": [
        {
          "indexed": true,
          "internalType": "bytes32",
          "name": "chainHash",
          "type": "bytes32"
        },
        {
          "indexed": true,
          "internalType": "address",
          "name": "contractOnMainnet",
          "type": "address"
        },
        {
          "indexed": false,
          "internalType": "uint256[]",
          "name": "ids",
          "type": "uint256[]"
        },
        {
          "indexed": false,
          "internalType": "uint256[]",
          "name": "amounts",
          "type": "uint256[]"
        }
      ],
      "name": "ERC1155TokenReady",
      "type": "event"
    },
    {
      "anonymous": false,
      "inputs": [
        {
          "indexed": true,
          "internalType": "bytes32",
          "name": "chainHash",
          "type": "bytes32"
        },
        {
          "indexed": true,
          "internalType": "address",
          "name": "erc1155OnMainnet",
          "type": "address"
        },
        {
          "indexed": true,
          "internalType": "address",
          "name": "erc1155OnSchain",
          "type": "address"
        },
        {
          "indexed": false,
          "internalType": "uint256[]",
          "name": "ids",
          "type": "uint256[]"
        },
        {
          "indexed": false,
          "internalType": "uint256[]",
          "name": "amounts",
          "type": "uint256[]"
        }
      ],
      "name": "ERC1155TokenReceived",
      "type": "event"
    },
    {
      "anonymous": false,
      "inputs": [
        {
          "indexed": false,
          "internalType": "uint8",
          "name": "version",
          "type": "uint8"
        }
      ],
      "name": "Initialized",
      "type": "event"
    },
    {
      "anonymous": false,
      "inputs": [
        {
          "indexed": true,
          "internalType": "bytes32",
          "name": "role",
          "type": "bytes32"
        },
        {
          "indexed": true,
          "internalType": "bytes32",
          "name": "previousAdminRole",
          "type": "bytes32"
        },
        {
          "indexed": true,
          "internalType": "bytes32",
          "name": "newAdminRole",
          "type": "bytes32"
        }
      ],
      "name": "RoleAdminChanged",
      "type": "event"
    },
    {
      "anonymous": false,
      "inputs": [
        {
          "indexed": true,
          "internalType": "bytes32",
          "name": "role",
          "type": "bytes32"
        },
        {
          "indexed": true,
          "internalType": "address",
          "name": "account",
          "type": "address"
        },
        {
          "indexed": true,
          "internalType": "address",
          "name": "sender",
          "type": "address"
        }
      ],
      "name": "RoleGranted",
      "type": "event"
    },
    {
      "anonymous": false,
      "inputs": [
        {
          "indexed": true,
          "internalType": "bytes32",
          "name": "role",
          "type": "bytes32"
        },
        {
          "indexed": true,
          "internalType": "address",
          "name": "account",
          "type": "address"
        },
        {
          "indexed": true,
          "internalType": "address",
          "name": "sender",
          "type": "address"
        }
      ],
      "name": "RoleRevoked",
      "type": "event"
    },
    {
      "inputs": [],
      "name": "AUTOMATIC_DEPLOY_ROLE",
      "outputs": [
        {
          "internalType": "bytes32",
          "name": "",
          "type": "bytes32"
        }
      ],
      "stateMutability": "view",
      "type": "function"
    },
    {
      "inputs": [],
      "name": "DEFAULT_ADMIN_ROLE",
      "outputs": [
        {
          "internalType": "bytes32",
          "name": "",
          "type": "bytes32"
        }
      ],
      "stateMutability": "view",
      "type": "function"
    },
    {
      "inputs": [],
      "name": "MAINNET_HASH",
      "outputs": [
        {
          "internalType": "bytes32",
          "name": "",
          "type": "bytes32"
        }
      ],
      "stateMutability": "view",
      "type": "function"
    },
    {
      "inputs": [],
      "name": "MAINNET_NAME",
      "outputs": [
        {
          "internalType": "string",
          "name": "",
          "type": "string"
        }
      ],
      "stateMutability": "view",
      "type": "function"
    },
    {
      "inputs": [],
      "name": "TOKEN_REGISTRAR_ROLE",
      "outputs": [
        {
          "internalType": "bytes32",
          "name": "",
          "type": "bytes32"
        }
      ],
      "stateMutability": "view",
      "type": "function"
    },
    {
      "inputs": [
        {
          "internalType": "string",
          "name": "targetChainName",
          "type": "string"
        },
        {
          "internalType": "address",
          "name": "erc1155OnMainnet",
          "type": "address"
        },
        {
          "internalType": "address",
          "name": "erc1155OnSchain",
          "type": "address"
        }
      ],
      "name": "addERC1155TokenByOwner",
      "outputs": [],
      "stateMutability": "nonpayable",
      "type": "function"
    },
    {
      "inputs": [
        {
          "internalType": "string",
          "name": "schainName",
          "type": "string"
        },
        {
          "internalType": "address",
          "name": "newTokenManager",
          "type": "address"
        }
      ],
      "name": "addTokenManager",
      "outputs": [],
      "stateMutability": "nonpayable",
      "type": "function"
    },
    {
      "inputs": [
        {
          "internalType": "contract ERC1155OnChain",
          "name": "",
          "type": "address"
        }
      ],
      "name": "addedClones",
      "outputs": [
        {
          "internalType": "bool",
          "name": "",
          "type": "bool"
        }
      ],
      "stateMutability": "view",
      "type": "function"
    },
    {
      "inputs": [],
      "name": "automaticDeploy",
      "outputs": [
        {
          "internalType": "bool",
          "name": "",
          "type": "bool"
        }
      ],
      "stateMutability": "view",
      "type": "function"
    },
    {
      "inputs": [
        {
          "internalType": "address",
          "name": "newDepositBox",
          "type": "address"
        }
      ],
      "name": "changeDepositBoxAddress",
      "outputs": [],
      "stateMutability": "nonpayable",
      "type": "function"
    },
    {
      "inputs": [
        {
          "internalType": "bytes32",
          "name": "",
          "type": "bytes32"
        },
        {
          "internalType": "address",
          "name": "",
          "type": "address"
        }
      ],
      "name": "clonesErc1155",
      "outputs": [
        {
          "internalType": "contract ERC1155OnChain",
          "name": "",
          "type": "address"
        }
      ],
      "stateMutability": "view",
      "type": "function"
    },
    {
      "inputs": [],
      "name": "communityLocker",
      "outputs": [
        {
          "internalType": "contract ICommunityLocker",
          "name": "",
          "type": "address"
        }
      ],
      "stateMutability": "view",
      "type": "function"
    },
    {
      "inputs": [],
      "name": "depositBox",
      "outputs": [
        {
          "internalType": "address",
          "name": "",
          "type": "address"
        }
      ],
      "stateMutability": "view",
      "type": "function"
    },
    {
      "inputs": [
        {
          "internalType": "address",
          "name": "",
          "type": "address"
        }
      ],
      "name": "deprecatedClonesErc1155",
      "outputs": [
        {
          "internalType": "contract ERC1155OnChain",
          "name": "",
          "type": "address"
        }
      ],
      "stateMutability": "view",
      "type": "function"
    },
    {
      "inputs": [],
      "name": "disableAutomaticDeploy",
      "outputs": [],
      "stateMutability": "nonpayable",
      "type": "function"
    },
    {
      "inputs": [],
      "name": "enableAutomaticDeploy",
      "outputs": [],
      "stateMutability": "nonpayable",
      "type": "function"
    },
    {
      "inputs": [
        {
          "internalType": "address",
          "name": "contractOnMainnet",
          "type": "address"
        },
        {
          "internalType": "uint256",
          "name": "id",
          "type": "uint256"
        },
        {
          "internalType": "uint256",
          "name": "amount",
          "type": "uint256"
        }
      ],
      "name": "exitToMainERC1155",
      "outputs": [],
      "stateMutability": "nonpayable",
      "type": "function"
    },
    {
      "inputs": [
        {
          "internalType": "address",
          "name": "contractOnMainnet",
          "type": "address"
        },
        {
          "internalType": "uint256[]",
          "name": "ids",
          "type": "uint256[]"
        },
        {
          "internalType": "uint256[]",
          "name": "amounts",
          "type": "uint256[]"
        }
      ],
      "name": "exitToMainERC1155Batch",
      "outputs": [],
      "stateMutability": "nonpayable",
      "type": "function"
    },
    {
      "inputs": [
        {
          "internalType": "bytes32",
          "name": "role",
          "type": "bytes32"
        }
      ],
      "name": "getRoleAdmin",
      "outputs": [
        {
          "internalType": "bytes32",
          "name": "",
          "type": "bytes32"
        }
      ],
      "stateMutability": "view",
      "type": "function"
    },
    {
      "inputs": [
        {
          "internalType": "bytes32",
          "name": "role",
          "type": "bytes32"
        },
        {
          "internalType": "uint256",
          "name": "index",
          "type": "uint256"
        }
      ],
      "name": "getRoleMember",
      "outputs": [
        {
          "internalType": "address",
          "name": "",
          "type": "address"
        }
      ],
      "stateMutability": "view",
      "type": "function"
    },
    {
      "inputs": [
        {
          "internalType": "bytes32",
          "name": "role",
          "type": "bytes32"
        }
      ],
      "name": "getRoleMemberCount",
      "outputs": [
        {
          "internalType": "uint256",
          "name": "",
          "type": "uint256"
        }
      ],
      "stateMutability": "view",
      "type": "function"
    },
    {
      "inputs": [
        {
          "internalType": "bytes32",
          "name": "role",
          "type": "bytes32"
        },
        {
          "internalType": "address",
          "name": "account",
          "type": "address"
        }
      ],
      "name": "grantRole",
      "outputs": [],
      "stateMutability": "nonpayable",
      "type": "function"
    },
    {
      "inputs": [
        {
          "internalType": "bytes32",
          "name": "role",
          "type": "bytes32"
        },
        {
          "internalType": "address",
          "name": "account",
          "type": "address"
        }
      ],
      "name": "hasRole",
      "outputs": [
        {
          "internalType": "bool",
          "name": "",
          "type": "bool"
        }
      ],
      "stateMutability": "view",
      "type": "function"
    },
    {
      "inputs": [
        {
          "internalType": "string",
          "name": "schainName",
          "type": "string"
        }
      ],
      "name": "hasTokenManager",
      "outputs": [
        {
          "internalType": "bool",
          "name": "",
          "type": "bool"
        }
      ],
      "stateMutability": "view",
      "type": "function"
    },
    {
      "inputs": [
        {
          "internalType": "string",
          "name": "newChainName",
          "type": "string"
        },
        {
          "internalType": "contract IMessageProxyForSchain",
          "name": "newMessageProxy",
          "type": "address"
        },
        {
          "internalType": "contract ITokenManagerLinker",
          "name": "newIMALinker",
          "type": "address"
        },
        {
          "internalType": "contract ICommunityLocker",
          "name": "newCommunityLocker",
          "type": "address"
        },
        {
          "internalType": "address",
          "name": "newDepositBox",
          "type": "address"
        }
      ],
      "name": "initialize",
      "outputs": [],
      "stateMutability": "nonpayable",
      "type": "function"
    },
    {
      "inputs": [
        {
          "internalType": "string",
          "name": "newSchainName",
          "type": "string"
        },
        {
          "internalType": "contract IMessageProxyForSchain",
          "name": "newMessageProxy",
          "type": "address"
        },
        {
          "internalType": "contract ITokenManagerLinker",
          "name": "newIMALinker",
          "type": "address"
        },
        {
          "internalType": "contract ICommunityLocker",
          "name": "newCommunityLocker",
          "type": "address"
        },
        {
          "internalType": "address",
          "name": "newDepositBox",
          "type": "address"
        }
      ],
      "name": "initializeTokenManager",
      "outputs": [],
      "stateMutability": "nonpayable",
      "type": "function"
    },
    {
      "inputs": [],
      "name": "messageProxy",
      "outputs": [
        {
          "internalType": "contract IMessageProxyForSchain",
          "name": "",
          "type": "address"
        }
      ],
      "stateMutability": "view",
      "type": "function"
    },
    {
      "inputs": [
        {
          "internalType": "address",
          "name": "operator",
          "type": "address"
        },
        {
          "internalType": "address",
          "name": "",
          "type": "address"
        },
        {
          "internalType": "uint256[]",
          "name": "",
          "type": "uint256[]"
        },
        {
          "internalType": "uint256[]",
          "name": "",
          "type": "uint256[]"
        },
        {
          "internalType": "bytes",
          "name": "",
          "type": "bytes"
        }
      ],
      "name": "onERC1155BatchReceived",
      "outputs": [
        {
          "internalType": "bytes4",
          "name": "",
          "type": "bytes4"
        }
      ],
      "stateMutability": "view",
      "type": "function"
    },
    {
      "inputs": [
        {
          "internalType": "address",
          "name": "operator",
          "type": "address"
        },
        {
          "internalType": "address",
          "name": "",
          "type": "address"
        },
        {
          "internalType": "uint256",
          "name": "",
          "type": "uint256"
        },
        {
          "internalType": "uint256",
          "name": "",
          "type": "uint256"
        },
        {
          "internalType": "bytes",
          "name": "",
          "type": "bytes"
        }
      ],
      "name": "onERC1155Received",
      "outputs": [
        {
          "internalType": "bytes4",
          "name": "",
          "type": "bytes4"
        }
      ],
      "stateMutability": "view",
      "type": "function"
    },
    {
      "inputs": [
        {
          "internalType": "bytes32",
          "name": "fromChainHash",
          "type": "bytes32"
        },
        {
          "internalType": "address",
          "name": "sender",
          "type": "address"
        },
        {
          "internalType": "bytes",
          "name": "data",
          "type": "bytes"
        }
      ],
      "name": "postMessage",
      "outputs": [],
      "stateMutability": "nonpayable",
      "type": "function"
    },
    {
      "inputs": [
        {
          "internalType": "string",
          "name": "schainName",
          "type": "string"
        }
      ],
      "name": "removeTokenManager",
      "outputs": [],
      "stateMutability": "nonpayable",
      "type": "function"
    },
    {
      "inputs": [
        {
          "internalType": "bytes32",
          "name": "role",
          "type": "bytes32"
        },
        {
          "internalType": "address",
          "name": "account",
          "type": "address"
        }
      ],
      "name": "renounceRole",
      "outputs": [],
      "stateMutability": "nonpayable",
      "type": "function"
    },
    {
      "inputs": [
        {
          "internalType": "bytes32",
          "name": "role",
          "type": "bytes32"
        },
        {
          "internalType": "address",
          "name": "account",
          "type": "address"
        }
      ],
      "name": "revokeRole",
      "outputs": [],
      "stateMutability": "nonpayable",
      "type": "function"
    },
    {
      "inputs": [],
      "name": "schainHash",
      "outputs": [
        {
          "internalType": "bytes32",
          "name": "",
          "type": "bytes32"
        }
      ],
      "stateMutability": "view",
      "type": "function"
    },
    {
      "inputs": [
        {
          "internalType": "bytes4",
          "name": "interfaceId",
          "type": "bytes4"
        }
      ],
      "name": "supportsInterface",
      "outputs": [
        {
          "internalType": "bool",
          "name": "",
          "type": "bool"
        }
      ],
      "stateMutability": "view",
      "type": "function"
    },
    {
      "inputs": [],
      "name": "tokenManagerLinker",
      "outputs": [
        {
          "internalType": "contract ITokenManagerLinker",
          "name": "",
          "type": "address"
        }
      ],
      "stateMutability": "view",
      "type": "function"
    },
    {
      "inputs": [
        {
          "internalType": "bytes32",
          "name": "",
          "type": "bytes32"
        }
      ],
      "name": "tokenManagers",
      "outputs": [
        {
          "internalType": "address",
          "name": "",
          "type": "address"
        }
      ],
      "stateMutability": "view",
      "type": "function"
    },
    {
      "inputs": [
        {
          "internalType": "string",
          "name": "targetSchainName",
          "type": "string"
        },
        {
          "internalType": "address",
          "name": "contractOnMainnet",
          "type": "address"
        },
        {
          "internalType": "uint256",
          "name": "id",
          "type": "uint256"
        },
        {
          "internalType": "uint256",
          "name": "amount",
          "type": "uint256"
        }
      ],
      "name": "transferToSchainERC1155",
      "outputs": [],
      "stateMutability": "nonpayable",
      "type": "function"
    },
    {
      "inputs": [
        {
          "internalType": "string",
          "name": "targetSchainName",
          "type": "string"
        },
        {
          "internalType": "address",
          "name": "contractOnMainnet",
          "type": "address"
        },
        {
          "internalType": "uint256[]",
          "name": "ids",
          "type": "uint256[]"
        },
        {
          "internalType": "uint256[]",
          "name": "amounts",
          "type": "uint256[]"
        }
      ],
      "name": "transferToSchainERC1155Batch",
      "outputs": [],
      "stateMutability": "nonpayable",
      "type": "function"
    },
    {
      "inputs": [
        {
          "internalType": "bytes32",
          "name": "",
          "type": "bytes32"
        },
        {
          "internalType": "address",
          "name": "",
          "type": "address"
        },
        {
          "internalType": "uint256",
          "name": "",
          "type": "uint256"
        }
      ],
      "name": "transferredAmount",
      "outputs": [
        {
          "internalType": "uint256",
          "name": "",
          "type": "uint256"
        }
      ],
      "stateMutability": "view",
      "type": "function"
    }
  ],
  "bytecode": "0x608060405234801561001057600080fd5b5061821580620000216000396000f3fe60806040523480156200001157600080fd5b5060043610620002795760003560e01c80636d6c68e61162000155578063c5d7666411620000c7578063dec2deb61162000086578063dec2deb6146200064e578063e3e50fa41462000663578063edcc12b5146200068f578063f23a6e6114620006a6578063f5b52e1f14620006bd57600080fd5b8063c5d7666414620005ca578063ca15c87314620005e1578063cb703bff14620005f8578063cc5b715b146200060f578063d547741f146200063757600080fd5b8063a217fddf1162000114578063a217fddf1462000549578063aebaaca91462000552578063b9581c501462000578578063bc197c811462000582578063c0e312dc14620005b357600080fd5b80636d6c68e614620004d95780638369091714620004ed578063884cee5a14620005045780639010d07c146200051b57806391d14854146200053257600080fd5b80632f2ff15d11620001ef57806350f4428011620001ae57806350f44280146200044d5780635573b8b6146200048357806357157cd914620004975780636ce681d214620004ae5780636d61128614620004c557600080fd5b80632f2ff15d14620003e757806336568abe14620003fe57806339927cf914620004155780633b690b6b146200042c5780633fa194ce146200043657600080fd5b806315ecfe5e116200023c57806315ecfe5e1462000355578063248a9ca3146200038c57806328c5e18214620003b25780632d32926214620003bc5780632dc151de14620003d357600080fd5b806301ffc9a7146200027e578063029996b814620002aa5780630b885ac314620002b65780630f1a8f7414620002cd5780631420de3f1462000312575b600080fd5b620002956200028f36600462004549565b620006d4565b60405190151581526020015b60405180910390f35b620002b462000702565b005b620002b4620002c736600462004848565b6200075a565b620002f9620002de3660046200443d565b60ce602052600090815260409020546001600160a01b031681565b6040516001600160a01b039091168152602001620002a1565b6200034662000323366004620044eb565b60d260209081526000938452604080852082529284528284209052825290205481565b604051908152602001620002a1565b620002f96200036636600462004457565b60d16020908152600092835260408084209091529082529020546001600160a01b031681565b620003466200039d3660046200443d565b60009081526065602052604090206001015490565b6200034662000839565b620002b4620003cd3660046200475d565b62000884565b60ca54620002f9906001600160a01b031681565b620002b4620003f836600462004457565b62000a3d565b620002b46200040f36600462004457565b62000a6b565b620002956200042636600462004593565b62000aed565b6200034660cc5481565b62000346600080516020620081c083398151915281565b620004746040518060400160405280600781526020016613585a5b9b995d60ca1b81525081565b604051620002a1919062004eb2565b60c954620002f9906001600160a01b031681565b620002b4620004a8366004620046a3565b62000b4a565b620002b4620004bf36600462004848565b62000d07565b60cd54620002f9906001600160a01b031681565b60cb54620002f9906001600160a01b031681565b620002b4620004fe36600462004356565b62000f2a565b620002b4620005153660046200448a565b62000ff6565b620002f96200052c36600462004526565b620011b8565b620002956200054336600462004457565b620011d9565b62000346600081565b6200029562000563366004620041e7565b60d06020526000908152604090205460ff1681565b620002b462001204565b620005996200059336600462004207565b6200124d565b6040516001600160e01b03199091168152602001620002a1565b620002b4620005c436600462004593565b620012d7565b620002b4620005db36600462004634565b620013f5565b62000346620005f23660046200443d565b6200171e565b620002b462000609366004620045d8565b62001737565b620003467ffda70c2cc66a36c14884ee85424961f51b1d92b4494751699b6d105b3bcbcba881565b620002b46200064836600462004457565b6200188f565b60cd546200029590600160a01b900460ff1681565b620002f962000674366004620041e7565b60cf602052600090815260409020546001600160a01b031681565b620002b4620006a0366004620041e7565b620018b8565b62000599620006b7366004620042d3565b620019d4565b620002b4620006ce366004620043e1565b62001a5c565b60006001600160e01b0319821663112fc36360e01b1480620006fc5750620006fc8262001b1f565b92915050565b6200071d600080516020620081c083398151915233620011d9565b620007455760405162461bcd60e51b81526004016200073c9062004f4e565b60405180910390fd5b60cd805460ff60a01b1916600160a01b179055565b600054610100900460ff16158080156200077b5750600054600160ff909116105b80620007975750303b15801562000797575060005460ff166001145b620007b65760405162461bcd60e51b81526004016200073c9062004f8f565b6000805460ff191660011790558015620007da576000805461ff0019166101001790555b620007e9868686868662000d07565b801562000831576000805461ff0019169055604051600181527f7f26b83ff96e1f2b6a682f133852f6798a09c465da95921460cefb3847402498906020015b60405180910390a15b505050505050565b6040518060400160405280600781526020016613585a5b9b995d60ca1b8152506040516020016200086b919062004bc9565b6040516020818303038152906040528051906020012081565b84848080601f0160208091040260200160405190810160405280939291908181526020018383808284376000920182905250604051339450909250620008d09150849060200162004bc9565b60408051601f1981840301815282825280516020918201208383018352600784526613585a5b9b995d60ca1b8483015291519193506200091292910162004bc9565b604051602081830303815290604052805190602001208114156200094a5760405162461bcd60e51b81526004016200073c9062004efe565b6001600160a01b038216620009a25760405162461bcd60e51b815260206004820152601a60248201527f496e636f7272656374207265636569766572206164647265737300000000000060448201526064016200073c565b600081815260ce60205260409020546001600160a01b0316620009d95760405162461bcd60e51b81526004016200073c9062004ec7565b60008888604051602001620009f092919062004bb9565b60408051601f198184030181529181528151602092830120600081815260ce90935291205490915062000a329082906001600160a01b031689338a8a62001b47565b505050505050505050565b60008281526065602052604090206001015462000a5a8162001ed7565b62000a66838362001ee6565b505050565b6001600160a01b038116331462000add5760405162461bcd60e51b815260206004820152602f60248201527f416363657373436f6e74726f6c3a2063616e206f6e6c792072656e6f756e636560448201526e103937b632b9903337b91039b2b63360891b60648201526084016200073c565b62000ae9828262001f0c565b5050565b6000806001600160a01b031660ce6000858560405160200162000b1292919062004bb9565b60408051808303601f19018152918152815160209283012083529082019290925201600020546001600160a01b031614159392505050565b86868080601f016020809104026020016040519081016040528093929190818152602001838380828437600092018290525060405133945090925062000b969150849060200162004bc9565b60408051601f1981840301815282825280516020918201208383018352600784526613585a5b9b995d60ca1b84830152915191935062000bd892910162004bc9565b6040516020818303038152906040528051906020012081141562000c105760405162461bcd60e51b81526004016200073c9062004efe565b6001600160a01b03821662000c685760405162461bcd60e51b815260206004820152601a60248201527f496e636f7272656374207265636569766572206164647265737300000000000060448201526064016200073c565b600081815260ce60205260409020546001600160a01b031662000c9f5760405162461bcd60e51b81526004016200073c9062004ec7565b60008a8a60405160200162000cb692919062004bb9565b60408051601f198184030181529181528151602092830120600081815260ce90935291205490915062000cfa9082906001600160a01b03168b338c8c8c8c62001f32565b5050505050505050505050565b600054610100900460ff161580801562000d285750600054600160ff909116105b8062000d445750303b15801562000d44575060005460ff166001145b62000d635760405162461bcd60e51b81526004016200073c9062004f8f565b6000805460ff19166001179055801562000d87576000805461ff0019166101001790555b6001600160a01b03821662000ddf5760405162461bcd60e51b815260206004820181905260248201527f4465706f736974426f7820616464726573732068617320746f2062652073657460448201526064016200073c565b62000de96200237d565b62000df6600033620023ec565b62000e11600080516020620081c083398151915233620023ec565b62000e3d7ffda70c2cc66a36c14884ee85424961f51b1d92b4494751699b6d105b3bcbcba833620023ec565b8560405160200162000e50919062004bc9565b60408051601f19818403018152828252805160209182012060cc5560c980546001600160a01b038a81166001600160a01b03199283161790925560ca80548a841690831617905560cb805489841690831617905560cd8054928816929091168217905560008452908301527fc968af77923193016f61d74ba6827296db5e1f37ec4fab3ad1ef20e193395e59910160405180910390a1801562000831576000805461ff0019169055604051600181527f7f26b83ff96e1f2b6a682f133852f6798a09c465da95921460cefb38474024989060200162000828565b60cb546040516311be333d60e11b81523360048201526001600160a01b039091169063237c667a90602401600060405180830381600087803b15801562000f7057600080fd5b505af115801562000f85573d6000803e3d6000fd5b5050505062000fef6040518060400160405280600781526020016613585a5b9b995d60ca1b81525060405160200162000fbf919062004bc9565b60408051601f19818403018152919052805160209091012060cd546001600160a01b031687338888888862001f32565b5050505050565b60c9546001600160a01b03163314620010525760405162461bcd60e51b815260206004820152601c60248201527f53656e646572206973206e6f742061204d65737361676550726f78790000000060448201526064016200073c565b838360cc5482141580156200106e57506200106e8282620023f8565b620010bc5760405162461bcd60e51b815260206004820152601b60248201527f526563656976657220636861696e20697320696e636f7272656374000000000060448201526064016200073c565b6000620010ca858562002483565b90506000600982600e811115620010e557620010e562005306565b1480620011065750600a82600e81111562001104576200110462005306565b145b15620011215762001119888787620024d7565b9050620011ae565b600b82600e81111562001138576200113862005306565b1480620011595750600c82600e81111562001157576200115762005306565b145b156200116c576200111988878762002983565b60405162461bcd60e51b815260206004820152601660248201527526b2b9b9b0b3b2aa3cb8329034b9903ab735b737bbb760511b60448201526064016200073c565b5050505050505050565b6000828152609760205260408120620011d2908362002dca565b9392505050565b60009182526065602090815260408084206001600160a01b0393909316845291905290205460ff1690565b6200121f600080516020620081c083398151915233620011d9565b6200123e5760405162461bcd60e51b81526004016200073c9062004f4e565b60cd805460ff60a01b19169055565b60006001600160a01b0389163014620012a95760405162461bcd60e51b815260206004820152601d60248201527f5265766572742045524331313535206261746368207472616e7366657200000060448201526064016200073c565b507fbc197c819b3e337a6f9652dd10becd7eef83032af3b9d958d3d42f669414662198975050505050505050565b60ca546001600160a01b0316331480620012f95750620012f9600033620011d9565b6200133f5760405162461bcd60e51b81526020600482015260156024820152742737ba1030baba3437b934bd32b21031b0b63632b960591b60448201526064016200073c565b600082826040516020016200135692919062004bb9565b60408051601f198184030181529181528151602092830120600081815260ce9093529120549091506001600160a01b0316620013d55760405162461bcd60e51b815260206004820152601860248201527f546f6b656e204d616e61676572206973206e6f7420736574000000000000000060448201526064016200073c565b600090815260ce6020526040902080546001600160a01b03191690555050565b620014217ffda70c2cc66a36c14884ee85424961f51b1d92b4494751699b6d105b3bcbcba833620011d9565b6200146f5760405162461bcd60e51b815260206004820181905260248201527f544f4b454e5f5245474953545241525f524f4c4520697320726571756972656460448201526064016200073c565b60c954604051634ccd5cd560e11b81526001600160a01b039091169063999ab9aa90620014a3908790879060040162004e83565b60206040518083038186803b158015620014bc57600080fd5b505afa158015620014d1573d6000803e3d6000fd5b505050506040513d601f19601f82011682018060405250810190620014f7919062004419565b6200153e5760405162461bcd60e51b815260206004820152601660248201527510da185a5b881a5cc81b9bdd0818dbdb9b9958dd195960521b60448201526064016200073c565b6001600160a01b0381163b620015975760405162461bcd60e51b815260206004820152601f60248201527f476976656e2061646472657373206973206e6f74206120636f6e74726163740060448201526064016200073c565b60008484604051602001620015ae92919062004bb9565b60408051601f198184030181529181528151602092830120600081815260d184528281206001600160a01b038881168352945291909120549092501615620016325760405162461bcd60e51b8152602060048201526016602482015275436f756c64206e6f742072656c696e6b20636c6f6e6560501b60448201526064016200073c565b6001600160a01b038216600090815260d0602052604090205460ff16156200169d5760405162461bcd60e51b815260206004820152601760248201527f436c6f6e652077617320616c726561647920616464656400000000000000000060448201526064016200073c565b600081815260d1602090815260408083206001600160a01b0387811680865291845282852080546001600160a01b031916918816918217905580855260d0909352818420805460ff1916600117905590519192909184917ff86f4b9b158b421a62f31d8b430c86afba56c6bb611fb82bc115dd030903d36a91a45050505050565b6000818152609760205260408120620006fc9062002dd8565b60ca546001600160a01b031633148062001759575062001759600033620011d9565b6200179f5760405162461bcd60e51b81526020600482015260156024820152742737ba1030baba3437b934bd32b21031b0b63632b960591b60448201526064016200073c565b60008383604051602001620017b692919062004bb9565b60408051601f198184030181529181528151602092830120600081815260ce9093529120549091506001600160a01b031615620018365760405162461bcd60e51b815260206004820152601c60248201527f546f6b656e204d616e6167657220697320616c7265616479207365740000000060448201526064016200073c565b6001600160a01b0382166200185f5760405162461bcd60e51b81526004016200073c9062004ec7565b600090815260ce6020526040902080546001600160a01b0319166001600160a01b03929092169190911790555050565b600082815260656020526040902060010154620018ac8162001ed7565b62000a66838362001f0c565b620018c5600033620011d9565b620019135760405162461bcd60e51b815260206004820152601e60248201527f44454641554c545f41444d494e5f524f4c45206973207265717569726564000060448201526064016200073c565b6001600160a01b0381166200196b5760405162461bcd60e51b815260206004820181905260248201527f4465706f736974426f7820616464726573732068617320746f2062652073657460448201526064016200073c565b60cd54604080516001600160a01b03928316815291831660208301527fc968af77923193016f61d74ba6827296db5e1f37ec4fab3ad1ef20e193395e59910160405180910390a160cd80546001600160a01b0319166001600160a01b0392909216919091179055565b60006001600160a01b038716301462001a305760405162461bcd60e51b815260206004820152601760248201527f5265766572742045524331313535207472616e7366657200000000000000000060448201526064016200073c565b507ff23a6e612e1ff4830e658fe43f4e3cb4a5f8170bd5d9e69fb5d7a7fa9e4fdf979695505050505050565b60cb546040516311be333d60e11b81523360048201526001600160a01b039091169063237c667a90602401600060405180830381600087803b15801562001aa257600080fd5b505af115801562001ab7573d6000803e3d6000fd5b5050505062000a666040518060400160405280600781526020016613585a5b9b995d60ca1b81525060405160200162001af1919062004bc9565b60408051601f19818403018152919052805160209091012060cd546001600160a01b03168533868662001b47565b60006001600160e01b03198216630271189760e51b1480620006fc5750620006fc8262002de3565b600086815260d1602090815260408083206001600160a01b0380891685529252822054168062001bb557506001600160a01b038516600090815260d06020526040902054859060ff161562001bb05760405162461bcd60e51b81526004016200073c9062005030565b600191505b6001600160a01b0381163b62001c095760405162461bcd60e51b81526020600482015260186024820152772737903a37b5b2b71031b637b7329037b71039b1b430b4b760411b60448201526064016200073c565b60405163e985e9c560e01b81523360048201523060248201526001600160a01b0382169063e985e9c59060440160206040518083038186803b15801562001c4f57600080fd5b505afa15801562001c64573d6000803e3d6000fd5b505050506040513d601f19601f8201168201806040525081019062001c8a919062004419565b62001cd45760405162461bcd60e51b81526020600482015260196024820152782737ba1030b63637bbb2b21022a92198989a9a902a37b5b2b760391b60448201526064016200073c565b600062001ce48787878762002e0b565b9050821562001df8576040518060400160405280600781526020016613585a5b9b995d60ca1b81525060405160200162001d1f919062004bc9565b6040516020818303038152906040528051906020012089141562001d575760405162461bcd60e51b81526004016200073c9062004fdd565b62001d66898333888862002e74565b905062001d8a898362001d798862002f3c565b62001d848862002f3c565b62002f86565b604051637921219560e11b81526001600160a01b0383169063f242432a9062001dbe90339030908a908a9060040162004d22565b600060405180830381600087803b15801562001dd957600080fd5b505af115801562001dee573d6000803e3d6000fd5b5050505062001e62565b604051637a94c56560e11b815233600482015260248101869052604481018590526001600160a01b0383169063f5298aca90606401600060405180830381600087803b15801562001e4857600080fd5b505af115801562001e5d573d6000803e3d6000fd5b505050505b60c954604051634a24490160e11b81526001600160a01b039091169063944892029062001e98908c908c90869060040162004e57565b600060405180830381600087803b15801562001eb357600080fd5b505af115801562001ec8573d6000803e3d6000fd5b50505050505050505050505050565b62001ee3813362003092565b50565b62001ef2828262003101565b600082815260976020526040902062000a6690826200318b565b62001f188282620031a2565b600082815260976020526040902062000a6690826200320c565b600088815260d1602090815260408083206001600160a01b03808b1685529252822054168062001fa057506001600160a01b038716600090815260d06020526040902054879060ff161562001f9b5760405162461bcd60e51b81526004016200073c9062005030565b600191505b6001600160a01b0381163b62001ff45760405162461bcd60e51b81526020600482015260186024820152772737903a37b5b2b71031b637b7329037b71039b1b430b4b760411b60448201526064016200073c565b60405163e985e9c560e01b81523360048201523060248201526001600160a01b0382169063e985e9c59060440160206040518083038186803b1580156200203a57600080fd5b505afa1580156200204f573d6000803e3d6000fd5b505050506040513d601f19601f8201168201806040525081019062002075919062004419565b620020bf5760405162461bcd60e51b81526020600482015260196024820152782737ba1030b63637bbb2b21022a92198989a9a902a37b5b2b760391b60448201526064016200073c565b600062002132898989898080602002602001604051908101604052809392919081815260200183836020028082843760009201919091525050604080516020808d0282810182019093528c82529093508c92508b9182918501908490808284376000920191909152506200322392505050565b905082156200229b576040518060400160405280600781526020016613585a5b9b995d60ca1b8152506040516020016200216d919062004bc9565b604051602081830303815290604052805190602001208b1415620021a55760405162461bcd60e51b81526004016200073c9062004fdd565b620021b68b83338a8a8a8a62003272565b9050620022298b8389898080602002602001604051908101604052809392919081815260200183836020028082843760009201919091525050604080516020808d0282810182019093528c82529093508c92508b91829185019084908082843760009201919091525062002f8692505050565b604051631759616b60e11b81526001600160a01b03831690632eb2c2d6906200226190339030908c908c908c908c9060040162004c60565b600060405180830381600087803b1580156200227c57600080fd5b505af115801562002291573d6000803e3d6000fd5b5050505062002306565b604051631ac8311560e21b81526001600160a01b03831690636b20c45490620022d19033908b908b908b908b9060040162004d5a565b600060405180830381600087803b158015620022ec57600080fd5b505af115801562002301573d6000803e3d6000fd5b505050505b60c954604051634a24490160e11b81526001600160a01b03909116906394489202906200233c908e908e90869060040162004e57565b600060405180830381600087803b1580156200235757600080fd5b505af11580156200236c573d6000803e3d6000fd5b505050505050505050505050505050565b600054610100900460ff16620023ea5760405162461bcd60e51b815260206004820152602b60248201527f496e697469616c697a61626c653a20636f6e7472616374206973206e6f74206960448201526a6e697469616c697a696e6760a81b60648201526084016200073c565b565b62000ae9828262001ee6565b60006040518060400160405280600781526020016613585a5b9b995d60ca1b8152506040516020016200242c919062004bc9565b6040516020818303038152906040528051906020012083146200246c57600083815260ce60205260409020546001600160a01b03838116911614620011d2565b5060cd546001600160a01b03908116911614919050565b60008062002494838501856200443d565b9050620024a3602082620052cd565b620024c957620024c0620024ba84838188620051df565b62002483565b915050620006fc565b620024c08385018562004575565b600080620024e6848462002483565b9050600080808080600986600e81111562002505576200250562005306565b14156200258b5760006200251a8a8a620033f4565b90508060400151955080602001519450806060015193508060800151925060d160008c81526020019081526020016000206000866001600160a01b03166001600160a01b0316815260200190815260200160002060009054906101000a90046001600160a01b031691505062002749565b6000620025998a8a620034b0565b9050806000015160400151955080600001516020015194508060000151606001519350806000015160800151925060d160008c81526020019081526020016000206000866001600160a01b03166001600160a01b0316815260200190815260200160002060009054906101000a90046001600160a01b0316915060006001600160a01b0316826001600160a01b03161415620027475760cd54600160a01b900460ff166200268a5760405162461bcd60e51b815260206004820152601c60248201527f4175746f6d61746963206465706c6f792069732064697361626c65640000000060448201526064016200073c565b6020810151516040516200269e9062003e09565b620026aa919062004eb2565b604051809103906000f080158015620026c7573d6000803e3d6000fd5b5060008c815260d1602090815260408083206001600160a01b038a811680865291845282852080546001600160a01b031916918716918217905580855260d0909352818420805460ff191660011790559051939550909290918e917fae5aabebaedd1b95e68d95d1bc05734a63a8e451f94b37864515b78c532247d99190a45b505b600986600e81111562002760576200276062005306565b148015620027b557506040518060400160405280600781526020016613585a5b9b995d60ca1b8152506040516020016200279b919062004bc9565b604051602081830303815290604052805190602001208a14155b8015620027d7575060008a815260d360205260409020620027d7908562003552565b1562002897576001600160a01b0384163b620028075760405162461bcd60e51b81526004016200073c9062005030565b620028298a85620028188662002f3c565b620028238662002f3c565b62003575565b604051637921219560e11b81526001600160a01b0385169063f242432a906200285d90309089908890889060040162004d22565b600060405180830381600087803b1580156200287857600080fd5b505af11580156200288d573d6000803e3d6000fd5b5050505062002911565b60405163731133e960e01b81526001600160a01b0386811660048301526024820185905260448201849052608060648301526000608483015282169063731133e99060a401600060405180830381600087803b158015620028f757600080fd5b505af11580156200290c573d6000803e3d6000fd5b505050505b806001600160a01b0316846001600160a01b03168b7f2349a6dafaf84dd371a44cd78bd587d9e750c3dfa1137d21f34f00e0d4babcb2620029528762002f3c565b6200295d8762002f3c565b6040516200296d92919062004e2e565b60405180910390a4509298975050505050505050565b60008062002992848462002483565b905060008060608082600b86600e811115620029b257620029b262005306565b141562002a38576000620029c78a8a62003681565b90508060400151955080602001519450806060015193508060800151925060d160008c81526020019081526020016000206000866001600160a01b03166001600160a01b0316815260200190815260200160002060009054906101000a90046001600160a01b031691505062002be1565b600062002a468a8a62003742565b9050806000015160400151955080600001516020015194508060000151606001519350806000015160800151925060d160008c81526020019081526020016000206000866001600160a01b03166001600160a01b0316815260200190815260200160002060009054906101000a90046001600160a01b0316915060006001600160a01b0316826001600160a01b0316141562002bdf5760cd54600160a01b900460ff1662002b375760405162461bcd60e51b815260206004820152601c60248201527f4175746f6d61746963206465706c6f792069732064697361626c65640000000060448201526064016200073c565b60208101515160405162002b4b9062003e09565b62002b57919062004eb2565b604051809103906000f08015801562002b74573d6000803e3d6000fd5b5060008c815260d1602090815260408083206001600160a01b038a81168086529190935281842080546001600160a01b03191693861693841790559051939550909290918e917fae5aabebaedd1b95e68d95d1bc05734a63a8e451f94b37864515b78c532247d99190a45b505b600b86600e81111562002bf85762002bf862005306565b14801562002c4d57506040518060400160405280600781526020016613585a5b9b995d60ca1b81525060405160200162002c33919062004bc9565b604051602081830303815290604052805190602001208a14155b801562002c6f575060008a815260d36020526040902062002c6f908562003552565b1562002d1b576001600160a01b0384163b62002c9f5760405162461bcd60e51b81526004016200073c9062005030565b62002cad8a85858562003575565b604051631759616b60e11b81526001600160a01b03851690632eb2c2d69062002ce190309089908890889060040162004cc3565b600060405180830381600087803b15801562002cfc57600080fd5b505af115801562002d11573d6000803e3d6000fd5b5050505062002d82565b604051630fbfeffd60e11b81526001600160a01b03821690631f7fdffa9062002d4d9088908790879060040162004da2565b600060405180830381600087803b15801562002d6857600080fd5b505af115801562002d7d573d6000803e3d6000fd5b505050505b806001600160a01b0316846001600160a01b03168b7f2349a6dafaf84dd371a44cd78bd587d9e750c3dfa1137d21f34f00e0d4babcb286866040516200296d92919062004e2e565b6000620011d28383620037e9565b6000620006fc825490565b60006001600160e01b03198216635a05180f60e01b1480620006fc5750620006fc8262003816565b6040805160c081018252600960a0820190815281526001600160a01b0380871660208084019190915290861682840152606080830186905260808301859052925162002e5a91839101620050fd565b604051602081830303815290604052915050949350505050565b600085815260d3602052604081206060919062002e92908762003552565b90508062002ec75762002ea687876200384d565b62002ebf8686868662002eb98b62003966565b62003a07565b915062002ed8565b62002ed58686868662002e0b565b91505b856001600160a01b0316877f601046fc8dbb772c2b88d30850532ffec5253f2e73c855af1c5f318a7a4562b062002f0f8762002f3c565b62002f1a8762002f3c565b60405162002f2a92919062004e2e565b60405180910390a35095945050505050565b60408051600180825281830190925260609160208083019080368337019050509050818160008151811062002f755762002f7562005332565b602002602001018181525050919050565b805182511462002fd95760405162461bcd60e51b815260206004820152601a60248201527f496e636f7272656374206c656e677468206f662061727261797300000000000060448201526064016200073c565b60005b825181101562000fef5781818151811062002ffb5762002ffb62005332565b602002602001015160d260008781526020019081526020016000206000866001600160a01b03166001600160a01b03168152602001908152602001600020600085848151811062003050576200305062005332565b6020026020010151815260200190815260200160002060008282546200307791906200520b565b909155508190506200308981620052af565b91505062002fdc565b6200309e8282620011d9565b62000ae957620030b9816001600160a01b0316601462003a8e565b620030c683602062003a8e565b604051602001620030d992919062004be7565b60408051601f198184030181529082905262461bcd60e51b82526200073c9160040162004eb2565b6200310d8282620011d9565b62000ae95760008281526065602090815260408083206001600160a01b03851684529091529020805460ff19166001179055620031473390565b6001600160a01b0316816001600160a01b0316837f2f8788117e7eff1d82e926ec794901d17c78024a50270940304540a733656f0d60405160405180910390a45050565b6000620011d2836001600160a01b03841662003c47565b620031ae8282620011d9565b1562000ae95760008281526065602090815260408083206001600160a01b0385168085529252808320805460ff1916905551339285917ff6391f5c32d9c69d2a47ea670b442974b53935d1edc7fd64eb21e047a839171b9190a45050565b6000620011d2836001600160a01b03841662003c99565b6040805160c081018252600b60a0820190815281526001600160a01b0380871660208084019190915290861682840152606080830186905260808301859052925162002e5a91839101620050e8565b600087815260d3602052604081206060919062003290908962003552565b9050806200332a57620032a489896200384d565b62003322888888888080602002602001604051908101604052809392919081815260200183836020028082843760009201919091525050604080516020808c0282810182019093528b82529093508b92508a9182918501908490808284376000920191909152506200331c92508f9150620039669050565b62003d9d565b91506200339e565b6200339b888888888080602002602001604051908101604052809392919081815260200183836020028082843760009201919091525050604080516020808c0282810182019093528b82529093508b92508a9182918501908490808284376000920191909152506200322392505050565b91505b876001600160a01b0316897f601046fc8dbb772c2b88d30850532ffec5253f2e73c855af1c5f318a7a4562b088888888604051620033e0949392919062004df8565b60405180910390a350979650505050505050565b6040805160c081018252600060a08201818152825260208201819052918101829052606081018290526080810191909152600962003433848462002483565b600e81111562003447576200344762005306565b14620034a25760405162461bcd60e51b8152602060048201526024808201527f4d6573736167652074797065206973206e6f742045524331313535207472616e60448201526339b332b960e11b60648201526084016200073c565b620011d28284018462004a23565b620034ba62003e17565b600a620034c8848462002483565b600e811115620034dc57620034dc62005306565b14620035445760405162461bcd60e51b815260206004820152603060248201527f4d6573736167652074797065206973206e6f742045524331313535416e64546f60448201526f35b2b724b73337903a3930b739b332b960811b60648201526084016200073c565b620011d282840184620048dd565b6001600160a01b03811660009081526001830160205260408120541515620011d2565b8051825114620035c85760405162461bcd60e51b815260206004820152601a60248201527f496e636f7272656374206c656e677468206f662061727261797300000000000060448201526064016200073c565b60005b825181101562000fef57818181518110620035ea57620035ea62005332565b602002602001015160d260008781526020019081526020016000206000866001600160a01b03166001600160a01b0316815260200190815260200160002060008584815181106200363f576200363f62005332565b60200260200101518152602001908152602001600020600082825462003666919062005248565b909155508190506200367881620052af565b915050620035cb565b6040805160c081018252600060a082018181528252602082018190529181019190915260608082018190526080820152600b620036bf848462002483565b600e811115620036d357620036d362005306565b14620037345760405162461bcd60e51b815260206004820152602960248201527f4d6573736167652074797065206973206e6f7420455243313135354261746368604482015268103a3930b739b332b960b91b60648201526084016200073c565b620011d282840184620049e3565b6200374c62003e70565b600c6200375a848462002483565b600e8111156200376e576200376e62005306565b14620037db5760405162461bcd60e51b815260206004820152603560248201527f4d6573736167652074797065206973206e6f742045524331313535426174636860448201527420b7322a37b5b2b724b73337903a3930b739b332b960591b60648201526084016200073c565b620011d28284018462004965565b600082600001828154811062003803576200380362005332565b9060005260206000200154905092915050565b60006001600160e01b03198216637965db0b60e01b1480620006fc57506301ffc9a760e01b6001600160e01b0319831614620006fc565b6001600160a01b0381163b620038a65760405162461bcd60e51b815260206004820152601f60248201527f476976656e2061646472657373206973206e6f74206120636f6e74726163740060448201526064016200073c565b600082815260d360205260409020620038c0908262003552565b156200390f5760405162461bcd60e51b815260206004820152601f60248201527f4552433131353520546f6b656e2077617320616c72656164792061646465640060448201526064016200073c565b600082815260d3602052604090206200392990826200318b565b506040516000906001600160a01b0383169084907ff86f4b9b158b421a62f31d8b430c86afba56c6bb611fb82bc115dd030903d36a908490a45050565b6040805160208101909152606081526040805160208101918290526303a24d0760e21b90915260006024820152806001600160a01b038416630e89341c6044830160006040518083038186803b158015620039c057600080fd5b505afa158015620039d5573d6000803e3d6000fd5b505050506040513d6000823e601f3d908101601f19168201604052620039ff9190810190620047c9565b905292915050565b604080516101008101825260609160009190819081018060e0830180600a81525081526020018a6001600160a01b03168152602001896001600160a01b031681526020018881526020018781525081526020018481525090508060405160200162003a73919062005067565b60405160208183030381529060405291505095945050505050565b6060600062003a9f83600262005226565b62003aac9060026200520b565b6001600160401b0381111562003ac65762003ac662005348565b6040519080825280601f01601f19166020018201604052801562003af1576020820181803683370190505b509050600360fc1b8160008151811062003b0f5762003b0f62005332565b60200101906001600160f81b031916908160001a905350600f60fb1b8160018151811062003b415762003b4162005332565b60200101906001600160f81b031916908160001a905350600062003b6784600262005226565b62003b749060016200520b565b90505b600181111562003bf6576f181899199a1a9b1b9c1cb0b131b232b360811b85600f166010811062003bac5762003bac62005332565b1a60f81b82828151811062003bc55762003bc562005332565b60200101906001600160f81b031916908160001a90535060049490941c9362003bee8162005295565b905062003b77565b508315620011d25760405162461bcd60e51b815260206004820181905260248201527f537472696e67733a20686578206c656e67746820696e73756666696369656e7460448201526064016200073c565b600081815260018301602052604081205462003c9057508154600181810184556000848152602080822090930184905584548482528286019093526040902091909155620006fc565b506000620006fc565b6000818152600183016020526040812054801562003d9257600062003cc060018362005248565b855490915060009062003cd69060019062005248565b905081811462003d4257600086600001828154811062003cfa5762003cfa62005332565b906000526020600020015490508087600001848154811062003d205762003d2062005332565b6000918252602080832090910192909255918252600188019052604090208390555b855486908062003d565762003d566200531c565b600190038181906000526020600020016000905590558560010160008681526020019081526020016000206000905560019350505050620006fc565b6000915050620006fc565b604080516101008101825260609160009190819081018060e0830180600c81525081526020018a6001600160a01b03168152602001896001600160a01b031681526020018881526020018781525081526020018481525090508060405160200162003a739190620050a3565b612e4b806200537583390190565b6040805161010081018252600060e08201818152928201928352606082018190526080820181905260a0820181905260c08201529081905b815260200162003e6b6040518060200160405280606081525090565b905290565b6040805161010081018252600060e082018181529282019283526060808301829052608083019190915260a0820181905260c082015290819062003e4f565b60008083601f84011262003ec257600080fd5b5081356001600160401b0381111562003eda57600080fd5b6020830191508360208260051b850101111562003ef657600080fd5b9250929050565b600082601f83011262003f0f57600080fd5b813560206001600160401b0382111562003f2d5762003f2d62005348565b8160051b62003f3e82820162005182565b83815282810190868401838801850189101562003f5a57600080fd5b600093505b8584101562003f7f57803583526001939093019291840191840162003f5f565b50979650505050505050565b60008083601f84011262003f9e57600080fd5b5081356001600160401b0381111562003fb657600080fd5b60208301915083602082850101111562003ef657600080fd5b8035600f811062003fdf57600080fd5b919050565b600082601f83011262003ff657600080fd5b81356200400d6200400782620051b5565b62005182565b8181528460208386010111156200402357600080fd5b816020850160208301376000918101602001919091529392505050565b6000602082840312156200405357600080fd5b6200405d6200510d565b90506200406a8262003fcf565b815292915050565b6000602082840312156200408557600080fd5b6200408f6200510d565b905081356001600160401b03811115620040a857600080fd5b620040b68482850162003fe4565b82525092915050565b600060a08284031215620040d257600080fd5b620040dc62005138565b9050620040ea838362004040565b81526020820135620040fc816200535e565b6020820152604082013562004111816200535e565b604082015260608201356001600160401b03808211156200413157600080fd5b6200413f8583860162003efd565b606084015260808401359150808211156200415957600080fd5b50620041688482850162003efd565b60808301525092915050565b600060a082840312156200418757600080fd5b6200419162005138565b90506200419f838362004040565b81526020820135620041b1816200535e565b60208201526040820135620041c6816200535e565b80604083015250606082013560608201526080820135608082015292915050565b600060208284031215620041fa57600080fd5b8135620011d2816200535e565b60008060008060008060008060a0898b0312156200422457600080fd5b883562004231816200535e565b9750602089013562004243816200535e565b965060408901356001600160401b03808211156200426057600080fd5b6200426e8c838d0162003eaf565b909850965060608b01359150808211156200428857600080fd5b620042968c838d0162003eaf565b909650945060808b0135915080821115620042b057600080fd5b50620042bf8b828c0162003f8b565b999c989b5096995094979396929594505050565b60008060008060008060a08789031215620042ed57600080fd5b8635620042fa816200535e565b955060208701356200430c816200535e565b9450604087013593506060870135925060808701356001600160401b038111156200433657600080fd5b6200434489828a0162003f8b565b979a9699509497509295939492505050565b6000806000806000606086880312156200436f57600080fd5b85356200437c816200535e565b945060208601356001600160401b03808211156200439957600080fd5b620043a789838a0162003eaf565b90965094506040880135915080821115620043c157600080fd5b50620043d08882890162003eaf565b969995985093965092949392505050565b600080600060608486031215620043f757600080fd5b833562004404816200535e565b95602085013595506040909401359392505050565b6000602082840312156200442c57600080fd5b81518015158114620011d257600080fd5b6000602082840312156200445057600080fd5b5035919050565b600080604083850312156200446b57600080fd5b8235915060208301356200447f816200535e565b809150509250929050565b60008060008060608587031215620044a157600080fd5b843593506020850135620044b5816200535e565b925060408501356001600160401b03811115620044d157600080fd5b620044df8782880162003f8b565b95989497509550505050565b6000806000606084860312156200450157600080fd5b83359250602084013562004515816200535e565b929592945050506040919091013590565b600080604083850312156200453a57600080fd5b50508035926020909101359150565b6000602082840312156200455c57600080fd5b81356001600160e01b031981168114620011d257600080fd5b6000602082840312156200458857600080fd5b620011d28262003fcf565b60008060208385031215620045a757600080fd5b82356001600160401b03811115620045be57600080fd5b620045cc8582860162003f8b565b90969095509350505050565b600080600060408486031215620045ee57600080fd5b83356001600160401b038111156200460557600080fd5b620046138682870162003f8b565b909450925050602084013562004629816200535e565b809150509250925092565b600080600080606085870312156200464b57600080fd5b84356001600160401b038111156200466257600080fd5b620046708782880162003f8b565b909550935050602085013562004686816200535e565b9150604085013562004698816200535e565b939692955090935050565b60008060008060008060006080888a031215620046bf57600080fd5b87356001600160401b0380821115620046d757600080fd5b620046e58b838c0162003f8b565b909950975060208a01359150620046fc826200535e565b909550604089013590808211156200471357600080fd5b620047218b838c0162003eaf565b909650945060608a01359150808211156200473b57600080fd5b506200474a8a828b0162003eaf565b989b979a50959850939692959293505050565b6000806000806000608086880312156200477657600080fd5b85356001600160401b038111156200478d57600080fd5b6200479b8882890162003f8b565b9096509450506020860135620047b1816200535e565b94979396509394604081013594506060013592915050565b600060208284031215620047dc57600080fd5b81516001600160401b03811115620047f357600080fd5b8201601f810184136200480557600080fd5b8051620048166200400782620051b5565b8181528560208385010111156200482c57600080fd5b6200483f82602083016020860162005262565b95945050505050565b600080600080600060a086880312156200486157600080fd5b85356001600160401b038111156200487857600080fd5b620048868882890162003fe4565b955050602086013562004899816200535e565b93506040860135620048ab816200535e565b92506060860135620048bd816200535e565b91506080860135620048cf816200535e565b809150509295509295909350565b600060208284031215620048f057600080fd5b81356001600160401b03808211156200490857600080fd5b9083019060c082860312156200491d57600080fd5b620049276200515d565b62004933868462004174565b815260a0830135828111156200494857600080fd5b620049568782860162004072565b60208301525095945050505050565b6000602082840312156200497857600080fd5b81356001600160401b03808211156200499057600080fd5b9083019060408286031215620049a557600080fd5b620049af6200515d565b823582811115620049bf57600080fd5b620049cd87828601620040bf565b8252506020830135828111156200494857600080fd5b600060208284031215620049f657600080fd5b81356001600160401b0381111562004a0d57600080fd5b62004a1b84828501620040bf565b949350505050565b600060a0828403121562004a3657600080fd5b620011d2838362004174565b81835260006001600160fb1b0383111562004a5c57600080fd5b8260051b8083602087013760009401602001938452509192915050565b600081518084526020808501945080840160005b8381101562004aab5781518752958201959082019060010162004a8d565b509495945050505050565b6000815180845262004ad081602086016020860162005262565b601f01601f19169290920160200192915050565b8051600f811062004b0557634e487b7160e01b600052602160045260246000fd5b90915250565b62004b1882825162004ae4565b6000602082015160018060a01b0380821660208601528060408501511660408601525050606082015160a0606085015262004b5760a085018262004a79565b9050608083015184820360808601526200483f828262004a79565b62004b7f82825162004ae4565b6020818101516001600160a01b03908116918401919091526040808301519091169083015260608082015190830152608090810151910152565b8183823760009101908152919050565b6000825162004bdd81846020870162005262565b9190910192915050565b7f416363657373436f6e74726f6c3a206163636f756e742000000000000000000081526000835162004c2181601785016020880162005262565b7001034b99036b4b9b9b4b733903937b6329607d1b601791840191820152835162004c5481602884016020880162005262565b01602801949350505050565b6001600160a01b0387811682528616602082015260a06040820181905260009062004c8f908301868862004a42565b828103606084015262004ca481858762004a42565b8381036080909401939093525050600081526020019695505050505050565b6001600160a01b0385811682528416602082015260a06040820181905260009062004cf19083018562004a79565b828103606084015262004d05818562004a79565b838103608090940193909352505060008152602001949350505050565b6001600160a01b0394851681529290931660208301526040820152606081019190915260a06080820181905260009082015260c00190565b6001600160a01b038616815260606020820181905260009062004d81908301868862004a42565b828103604084015262004d9681858762004a42565b98975050505050505050565b6001600160a01b038416815260806020820181905260009062004dc89083018562004a79565b828103604084015262004ddc818562004a79565b8381036060909401939093525050600081526020019392505050565b60408152600062004e0e60408301868862004a42565b828103602084015262004e2381858762004a42565b979650505050505050565b60408152600062004e43604083018562004a79565b82810360208401526200483f818562004a79565b8381526001600160a01b03831660208201526060604082018190526000906200483f9083018462004ab6565b60208152816020820152818360408301376000818301604090810191909152601f909201601f19160101919050565b602081526000620011d2602083018462004ab6565b6020808252601f908201527f496e636f727265637420546f6b656e204d616e61676572206164647265737300604082015260600190565b60208082526030908201527f546869732066756e6374696f6e206973206e6f7420666f72207472616e73666560408201526f1c9c9a5b99c81d1bc813585a5b9b995d60821b606082015260800190565b60208082526021908201527f4155544f4d415449435f4445504c4f595f524f4c4520697320726571756972656040820152601960fa1b606082015260800190565b6020808252602e908201527f496e697469616c697a61626c653a20636f6e747261637420697320616c72656160408201526d191e481a5b9a5d1a585b1a5e995960921b606082015260800190565b60208082526033908201527f4d61696e20636861696e20746f6b656e20636f756c64206e6f74206265207472604082015272185b9cd9995c9959081d1bc813585a5b9b995d606a1b606082015260800190565b6020808252601a908201527f496e636f7272656374206d61696e20636861696e20746f6b656e000000000000604082015260600190565b602081526200507b60208201835162004b72565b6000602083015160c08084015280519050602060e084015262004a1b61010084018262004ab6565b602081526000825160406020840152620050c1606084018262004b0b565b602085810151858303601f19016040870152518183529192506200483f9083018262004ab6565b602081526000620011d2602083018462004b0b565b60a08101620006fc828462004b72565b604051602081016001600160401b038111828210171562005132576200513262005348565b60405290565b60405160a081016001600160401b038111828210171562005132576200513262005348565b604080519081016001600160401b038111828210171562005132576200513262005348565b604051601f8201601f191681016001600160401b0381118282101715620051ad57620051ad62005348565b604052919050565b60006001600160401b03821115620051d157620051d162005348565b50601f01601f191660200190565b60008085851115620051f057600080fd5b83861115620051fe57600080fd5b5050820193919092039150565b60008219821115620052215762005221620052f0565b500190565b6000816000190483118215151615620052435762005243620052f0565b500290565b6000828210156200525d576200525d620052f0565b500390565b60005b838110156200527f57818101518382015260200162005265565b838111156200528f576000848401525b50505050565b600081620052a757620052a7620052f0565b506000190190565b6000600019821415620052c657620052c6620052f0565b5060010190565b600082620052eb57634e487b7160e01b600052601260045260246000fd5b500690565b634e487b7160e01b600052601160045260246000fd5b634e487b7160e01b600052602160045260246000fd5b634e487b7160e01b600052603160045260246000fd5b634e487b7160e01b600052603260045260246000fd5b634e487b7160e01b600052604160045260246000fd5b6001600160a01b038116811462001ee357600080fdfe60806040523480156200001157600080fd5b5060405162002e4b38038062002e4b833981016040819052620000349162000584565b600054610100900460ff1615808015620000555750600054600160ff909116105b806200008557506200007230620001d760201b620009131760201c565b15801562000085575060005460ff166001145b620000ee5760405162461bcd60e51b815260206004820152602e60248201527f496e697469616c697a61626c653a20636f6e747261637420697320616c72656160448201526d191e481a5b9a5d1a585b1a5e995960921b60648201526084015b60405180910390fd5b6000805460ff19166001179055801562000112576000805461ff0019166101001790555b62000127620001e660201b620009221760201c565b6200013d826200024460201b6200094b1760201c565b62000152620001e660201b620009221760201c565b6200016d60008051602062002e2b83398151915280620002ae565b6200018860008051602062002e2b83398151915233620002f9565b8015620001cf576000805461ff0019169055604051600181527f7f26b83ff96e1f2b6a682f133852f6798a09c465da95921460cefb38474024989060200160405180910390a15b5050620006b3565b6001600160a01b03163b151590565b600054610100900460ff16620002425760405162461bcd60e51b815260206004820152602b602482015260008051602062002e0b83398151915260448201526a6e697469616c697a696e6760a81b6064820152608401620000e5565b565b600054610100900460ff16620002a05760405162461bcd60e51b815260206004820152602b602482015260008051602062002e0b83398151915260448201526a6e697469616c697a696e6760a81b6064820152608401620000e5565b620002ab8162000309565b50565b600082815260656020526040808220600101805490849055905190918391839186917fbd79b86ffe0ab8e8776151514217cd7cacd52c909f66475c3af44e129f0b00ff9190a4505050565b62000305828262000370565b5050565b600054610100900460ff16620003655760405162461bcd60e51b815260206004820152602b602482015260008051602062002e0b83398151915260448201526a6e697469616c697a696e6760a81b6064820152608401620000e5565b620002ab81620003b3565b620003878282620003c860201b6200097e1760201c565b6000828152609760209081526040909120620003ae91839062000a046200046c821b17901c565b505050565b8051620003059060cb906020840190620004de565b60008281526065602090815260408083206001600160a01b038516845290915290205460ff16620003055760008281526065602090815260408083206001600160a01b03851684529091529020805460ff19166001179055620004283390565b6001600160a01b0316816001600160a01b0316837f2f8788117e7eff1d82e926ec794901d17c78024a50270940304540a733656f0d60405160405180910390a45050565b600062000483836001600160a01b0384166200048c565b90505b92915050565b6000818152600183016020526040812054620004d55750815460018181018455600084815260208082209093018490558454848252828601909352604090209190915562000486565b50600062000486565b828054620004ec9062000660565b90600052602060002090601f0160209004810192826200051057600085556200055b565b82601f106200052b57805160ff19168380011785556200055b565b828001600101855582156200055b579182015b828111156200055b5782518255916020019190600101906200053e565b50620005699291506200056d565b5090565b5b808211156200056957600081556001016200056e565b600060208083850312156200059857600080fd5b82516001600160401b0380821115620005b057600080fd5b818501915085601f830112620005c557600080fd5b815181811115620005da57620005da6200069d565b604051601f8201601f19908116603f011681019083821181831017156200060557620006056200069d565b8160405282815288868487010111156200061e57600080fd5b600093505b8284101562000642578484018601518185018701529285019262000623565b82841115620006545760008684830101525b98975050505050505050565b600181811c908216806200067557607f821691505b602082108114156200069757634e487b7160e01b600052602260045260246000fd5b50919050565b634e487b7160e01b600052604160045260246000fd5b61274880620006c36000396000f3fe608060405234801561001057600080fd5b50600436106101365760003560e01c8063731133e9116100b8578063ca15c8731161007c578063ca15c873146102b4578063d5391393146102c7578063d547741f146102ee578063e985e9c514610301578063f242432a1461033d578063f5298aca1461035057600080fd5b8063731133e9146102485780639010d07c1461025b57806391d1485414610286578063a217fddf14610299578063a22cb465146102a157600080fd5b80632eb2c2d6116100ff5780632eb2c2d6146101dc5780632f2ff15d146101ef57806336568abe146102025780634e1273f4146102155780636b20c4541461023557600080fd5b8062fdd58e1461013b57806301ffc9a7146101615780630e89341c146101845780631f7fdffa146101a4578063248a9ca3146101b9575b600080fd5b61014e610149366004611e57565b610363565b6040519081526020015b60405180910390f35b61017461016f366004612038565b6103fe565b6040519015158152602001610158565b610197610192366004611fda565b610409565b6040516101589190612232565b6101b76101b2366004611d82565b61049d565b005b61014e6101c7366004611fda565b60009081526065602052604090206001015490565b6101b76101ea366004611bff565b61051e565b6101b76101fd366004611ff3565b61056a565b6101b7610210366004611ff3565b610594565b610228610223366004611f09565b610612565b60405161015891906121f1565b6101b7610243366004611d0e565b61073c565b6101b7610256366004611eb4565b61077f565b61026e610269366004612016565b6107fa565b6040516001600160a01b039091168152602001610158565b610174610294366004611ff3565b610819565b61014e600081565b6101b76102af366004611e1b565b610844565b61014e6102c2366004611fda565b61084f565b61014e7f9f2df0fed2c77648de5860a4cc508cd0818c85b8b8a1ab4ceeef8d981c8956a681565b6101b76102fc366004611ff3565b610866565b61017461030f366004611bcc565b6001600160a01b03918216600090815260ca6020908152604080832093909416825291909152205460ff1690565b6101b761034b366004611ca9565b61088b565b6101b761035e366004611e81565b6108d0565b60006001600160a01b0383166103d35760405162461bcd60e51b815260206004820152602a60248201527f455243313135353a2061646472657373207a65726f206973206e6f742061207660448201526930b634b21037bbb732b960b11b60648201526084015b60405180910390fd5b50600081815260c9602090815260408083206001600160a01b03861684529091529020545b92915050565b60006103f882610a19565b606060cb80546104189061257b565b80601f01602080910402602001604051908101604052809291908181526020018280546104449061257b565b80156104915780601f1061046657610100808354040283529160200191610491565b820191906000526020600020905b81548152906001019060200180831161047457829003601f168201915b50505050509050919050565b6104c77f9f2df0fed2c77648de5860a4cc508cd0818c85b8b8a1ab4ceeef8d981c8956a633610819565b61050c5760405162461bcd60e51b815260206004820152601660248201527529b2b73232b91034b9903737ba10309026b4b73a32b960511b60448201526064016103ca565b61051884848484610a59565b50505050565b6001600160a01b03851633148061053a575061053a853361030f565b6105565760405162461bcd60e51b81526004016103ca90612245565b6105638585858585610ba5565b5050505050565b60008281526065602052604090206001015461058581610d44565b61058f8383610d4e565b505050565b6001600160a01b03811633146106045760405162461bcd60e51b815260206004820152602f60248201527f416363657373436f6e74726f6c3a2063616e206f6e6c792072656e6f756e636560448201526e103937b632b9903337b91039b2b63360891b60648201526084016103ca565b61060e8282610d70565b5050565b606081518351146106775760405162461bcd60e51b815260206004820152602960248201527f455243313135353a206163636f756e747320616e6420696473206c656e677468604482015268040dad2e6dac2e8c6d60bb1b60648201526084016103ca565b6000835167ffffffffffffffff81111561069357610693612640565b6040519080825280602002602001820160405280156106bc578160200160208202803683370190505b50905060005b8451811015610734576107078582815181106106e0576106e061262a565b60200260200101518583815181106106fa576106fa61262a565b6020026020010151610363565b8282815181106107195761071961262a565b602090810291909101015261072d816125e3565b90506106c2565b509392505050565b6001600160a01b0383163314806107585750610758833361030f565b6107745760405162461bcd60e51b81526004016103ca90612245565b61058f838383610d92565b6107a97f9f2df0fed2c77648de5860a4cc508cd0818c85b8b8a1ab4ceeef8d981c8956a633610819565b6107ee5760405162461bcd60e51b815260206004820152601660248201527529b2b73232b91034b9903737ba10309026b4b73a32b960511b60448201526064016103ca565b61051884848484610f1f565b60008281526097602052604081206108129083610ffb565b9392505050565b60009182526065602090815260408084206001600160a01b0393909316845291905290205460ff1690565b61060e338383611007565b60008181526097602052604081206103f8906110e8565b60008281526065602052604090206001015461088181610d44565b61058f8383610d70565b6001600160a01b0385163314806108a757506108a7853361030f565b6108c35760405162461bcd60e51b81526004016103ca90612245565b61056385858585856110f2565b6001600160a01b0383163314806108ec57506108ec833361030f565b6109085760405162461bcd60e51b81526004016103ca90612245565b61058f838383611220565b6001600160a01b03163b151590565b600054610100900460ff166109495760405162461bcd60e51b81526004016103ca906123f2565b565b600054610100900460ff166109725760405162461bcd60e51b81526004016103ca906123f2565b61097b81611327565b50565b6109888282610819565b61060e5760008281526065602090815260408083206001600160a01b03851684529091529020805460ff191660011790556109c03390565b6001600160a01b0316816001600160a01b0316837f2f8788117e7eff1d82e926ec794901d17c78024a50270940304540a733656f0d60405160405180910390a45050565b6000610812836001600160a01b038416611357565b60006001600160e01b03198216636cdb3d1360e11b1480610a4a57506001600160e01b031982166303a24d0760e21b145b806103f857506103f8826113a6565b6001600160a01b038416610a7f5760405162461bcd60e51b81526004016103ca90612485565b8151835114610aa05760405162461bcd60e51b81526004016103ca9061243d565b3360005b8451811015610b3d57838181518110610abf57610abf61262a565b602002602001015160c96000878481518110610add57610add61262a565b602002602001015181526020019081526020016000206000886001600160a01b03166001600160a01b031681526020019081526020016000206000828254610b2591906124ea565b90915550819050610b35816125e3565b915050610aa4565b50846001600160a01b031660006001600160a01b0316826001600160a01b03167f4a39dc06d4c0dbc64b70af90fd698a233a518aa5d07e595d983b8c0526c8f7fb8787604051610b8e929190612204565b60405180910390a4610563816000878787876113cb565b8151835114610bc65760405162461bcd60e51b81526004016103ca9061243d565b6001600160a01b038416610bec5760405162461bcd60e51b81526004016103ca90612320565b3360005b8451811015610cd6576000858281518110610c0d57610c0d61262a565b602002602001015190506000858381518110610c2b57610c2b61262a565b602090810291909101810151600084815260c9835260408082206001600160a01b038e168352909352919091205490915081811015610c7c5760405162461bcd60e51b81526004016103ca906123a8565b600083815260c9602090815260408083206001600160a01b038e8116855292528083208585039055908b16825281208054849290610cbb9084906124ea565b9250508190555050505080610ccf906125e3565b9050610bf0565b50846001600160a01b0316866001600160a01b0316826001600160a01b03167f4a39dc06d4c0dbc64b70af90fd698a233a518aa5d07e595d983b8c0526c8f7fb8787604051610d26929190612204565b60405180910390a4610d3c8187878787876113cb565b505050505050565b61097b8133611536565b610d58828261097e565b600082815260976020526040902061058f9082610a04565b610d7a828261159a565b600082815260976020526040902061058f9082611601565b6001600160a01b038316610db85760405162461bcd60e51b81526004016103ca90612365565b8051825114610dd95760405162461bcd60e51b81526004016103ca9061243d565b604080516020810190915260009081905233905b8351811015610eb2576000848281518110610e0a57610e0a61262a565b602002602001015190506000848381518110610e2857610e2861262a565b602090810291909101810151600084815260c9835260408082206001600160a01b038c168352909352919091205490915081811015610e795760405162461bcd60e51b81526004016103ca906122dc565b600092835260c9602090815260408085206001600160a01b038b1686529091529092209103905580610eaa816125e3565b915050610ded565b5060006001600160a01b0316846001600160a01b0316826001600160a01b03167f4a39dc06d4c0dbc64b70af90fd698a233a518aa5d07e595d983b8c0526c8f7fb8686604051610f03929190612204565b60405180910390a4604080516020810190915260009052610518565b6001600160a01b038416610f455760405162461bcd60e51b81526004016103ca90612485565b336000610f5185611616565b90506000610f5e85611616565b9050600086815260c9602090815260408083206001600160a01b038b16845290915281208054879290610f929084906124ea565b909155505060408051878152602081018790526001600160a01b03808a1692600092918716917fc3d58168c5ae7397731d063d5bbf3d657854427343f4c083240f7aacaa2d0f62910160405180910390a4610ff283600089898989611661565b50505050505050565b6000610812838361172b565b816001600160a01b0316836001600160a01b0316141561107b5760405162461bcd60e51b815260206004820152602960248201527f455243313135353a2073657474696e6720617070726f76616c20737461747573604482015268103337b91039b2b63360b91b60648201526084016103ca565b6001600160a01b03838116600081815260ca6020908152604080832094871680845294825291829020805460ff191686151590811790915591519182527f17307eab39ab6107e8899845ad3d59bd9653f200f220920489ca2b5937696c31910160405180910390a3505050565b60006103f8825490565b6001600160a01b0384166111185760405162461bcd60e51b81526004016103ca90612320565b33600061112485611616565b9050600061113185611616565b9050600086815260c9602090815260408083206001600160a01b038c168452909152902054858110156111765760405162461bcd60e51b81526004016103ca906123a8565b600087815260c9602090815260408083206001600160a01b038d8116855292528083208985039055908a168252812080548892906111b59084906124ea565b909155505060408051888152602081018890526001600160a01b03808b16928c821692918816917fc3d58168c5ae7397731d063d5bbf3d657854427343f4c083240f7aacaa2d0f62910160405180910390a4611215848a8a8a8a8a611661565b505050505050505050565b6001600160a01b0383166112465760405162461bcd60e51b81526004016103ca90612365565b33600061125284611616565b9050600061125f84611616565b604080516020808201835260009182905288825260c981528282206001600160a01b038b16835290522054909150848110156112ad5760405162461bcd60e51b81526004016103ca906122dc565b600086815260c9602090815260408083206001600160a01b038b81168086529184528285208a8703905582518b81529384018a90529092908816917fc3d58168c5ae7397731d063d5bbf3d657854427343f4c083240f7aacaa2d0f62910160405180910390a4604080516020810190915260009052610ff2565b600054610100900460ff1661134e5760405162461bcd60e51b81526004016103ca906123f2565b61097b81611755565b600081815260018301602052604081205461139e575081546001818101845560008481526020808220909301849055845484825282860190935260409020919091556103f8565b5060006103f8565b60006001600160e01b03198216635a05180f60e01b14806103f857506103f882611768565b6001600160a01b0384163b15610d3c5760405163bc197c8160e01b81526001600160a01b0385169063bc197c819061140f908990899088908890889060040161214e565b602060405180830381600087803b15801561142957600080fd5b505af1925050508015611459575060408051601f3d908101601f1916820190925261145691810190612055565b60015b61150657611465612656565b806308c379a0141561149f575061147a612672565b8061148557506114a1565b8060405162461bcd60e51b81526004016103ca9190612232565b505b60405162461bcd60e51b815260206004820152603460248201527f455243313135353a207472616e7366657220746f206e6f6e20455243313135356044820152732932b1b2b4bb32b91034b6b83632b6b2b73a32b960611b60648201526084016103ca565b6001600160e01b0319811663bc197c8160e01b14610ff25760405162461bcd60e51b81526004016103ca90612294565b6115408282610819565b61060e57611558816001600160a01b0316601461179d565b61156383602061179d565b6040516020016115749291906120d9565b60408051601f198184030181529082905262461bcd60e51b82526103ca91600401612232565b6115a48282610819565b1561060e5760008281526065602090815260408083206001600160a01b0385168085529252808320805460ff1916905551339285917ff6391f5c32d9c69d2a47ea670b442974b53935d1edc7fd64eb21e047a839171b9190a45050565b6000610812836001600160a01b038416611939565b604080516001808252818301909252606091600091906020808301908036833701905050905082816000815181106116505761165061262a565b602090810291909101015292915050565b6001600160a01b0384163b15610d3c5760405163f23a6e6160e01b81526001600160a01b0385169063f23a6e61906116a590899089908890889088906004016121ac565b602060405180830381600087803b1580156116bf57600080fd5b505af19250505080156116ef575060408051601f3d908101601f191682019092526116ec91810190612055565b60015b6116fb57611465612656565b6001600160e01b0319811663f23a6e6160e01b14610ff25760405162461bcd60e51b81526004016103ca90612294565b60008260000182815481106117425761174261262a565b9060005260206000200154905092915050565b805161060e9060cb906020840190611a2c565b60006001600160e01b03198216637965db0b60e01b14806103f857506301ffc9a760e01b6001600160e01b03198316146103f8565b606060006117ac836002612502565b6117b79060026124ea565b67ffffffffffffffff8111156117cf576117cf612640565b6040519080825280601f01601f1916602001820160405280156117f9576020820181803683370190505b509050600360fc1b816000815181106118145761181461262a565b60200101906001600160f81b031916908160001a905350600f60fb1b816001815181106118435761184361262a565b60200101906001600160f81b031916908160001a9053506000611867846002612502565b6118729060016124ea565b90505b60018111156118ea576f181899199a1a9b1b9c1cb0b131b232b360811b85600f16601081106118a6576118a661262a565b1a60f81b8282815181106118bc576118bc61262a565b60200101906001600160f81b031916908160001a90535060049490941c936118e381612564565b9050611875565b5083156108125760405162461bcd60e51b815260206004820181905260248201527f537472696e67733a20686578206c656e67746820696e73756666696369656e7460448201526064016103ca565b60008181526001830160205260408120548015611a2257600061195d600183612521565b855490915060009061197190600190612521565b90508181146119d65760008660000182815481106119915761199161262a565b90600052602060002001549050808760000184815481106119b4576119b461262a565b6000918252602080832090910192909255918252600188019052604090208390555b85548690806119e7576119e7612614565b6001900381819060005260206000200160009055905585600101600086815260200190815260200160002060009055600193505050506103f8565b60009150506103f8565b828054611a389061257b565b90600052602060002090601f016020900481019282611a5a5760008555611aa0565b82601f10611a7357805160ff1916838001178555611aa0565b82800160010185558215611aa0579182015b82811115611aa0578251825591602001919060010190611a85565b50611aac929150611ab0565b5090565b5b80821115611aac5760008155600101611ab1565b80356001600160a01b0381168114611adc57600080fd5b919050565b600082601f830112611af257600080fd5b81356020611aff826124c6565b604051611b0c82826125b6565b8381528281019150858301600585901b87018401881015611b2c57600080fd5b60005b85811015611b4b57813584529284019290840190600101611b2f565b5090979650505050505050565b600082601f830112611b6957600080fd5b813567ffffffffffffffff811115611b8357611b83612640565b604051611b9a601f8301601f1916602001826125b6565b818152846020838601011115611baf57600080fd5b816020850160208301376000918101602001919091529392505050565b60008060408385031215611bdf57600080fd5b611be883611ac5565b9150611bf660208401611ac5565b90509250929050565b600080600080600060a08688031215611c1757600080fd5b611c2086611ac5565b9450611c2e60208701611ac5565b9350604086013567ffffffffffffffff80821115611c4b57600080fd5b611c5789838a01611ae1565b94506060880135915080821115611c6d57600080fd5b611c7989838a01611ae1565b93506080880135915080821115611c8f57600080fd5b50611c9c88828901611b58565b9150509295509295909350565b600080600080600060a08688031215611cc157600080fd5b611cca86611ac5565b9450611cd860208701611ac5565b93506040860135925060608601359150608086013567ffffffffffffffff811115611d0257600080fd5b611c9c88828901611b58565b600080600060608486031215611d2357600080fd5b611d2c84611ac5565b9250602084013567ffffffffffffffff80821115611d4957600080fd5b611d5587838801611ae1565b93506040860135915080821115611d6b57600080fd5b50611d7886828701611ae1565b9150509250925092565b60008060008060808587031215611d9857600080fd5b611da185611ac5565b9350602085013567ffffffffffffffff80821115611dbe57600080fd5b611dca88838901611ae1565b94506040870135915080821115611de057600080fd5b611dec88838901611ae1565b93506060870135915080821115611e0257600080fd5b50611e0f87828801611b58565b91505092959194509250565b60008060408385031215611e2e57600080fd5b611e3783611ac5565b915060208301358015158114611e4c57600080fd5b809150509250929050565b60008060408385031215611e6a57600080fd5b611e7383611ac5565b946020939093013593505050565b600080600060608486031215611e9657600080fd5b611e9f84611ac5565b95602085013595506040909401359392505050565b60008060008060808587031215611eca57600080fd5b611ed385611ac5565b93506020850135925060408501359150606085013567ffffffffffffffff811115611efd57600080fd5b611e0f87828801611b58565b60008060408385031215611f1c57600080fd5b823567ffffffffffffffff80821115611f3457600080fd5b818501915085601f830112611f4857600080fd5b81356020611f55826124c6565b604051611f6282826125b6565b8381528281019150858301600585901b870184018b1015611f8257600080fd5b600096505b84871015611fac57611f9881611ac5565b835260019690960195918301918301611f87565b5096505086013592505080821115611fc357600080fd5b50611fd085828601611ae1565b9150509250929050565b600060208284031215611fec57600080fd5b5035919050565b6000806040838503121561200657600080fd5b82359150611bf660208401611ac5565b6000806040838503121561202957600080fd5b50508035926020909101359150565b60006020828403121561204a57600080fd5b8135610812816126fc565b60006020828403121561206757600080fd5b8151610812816126fc565b600081518084526020808501945080840160005b838110156120a257815187529582019590820190600101612086565b509495945050505050565b600081518084526120c5816020860160208601612538565b601f01601f19169290920160200192915050565b7f416363657373436f6e74726f6c3a206163636f756e7420000000000000000000815260008351612111816017850160208801612538565b7001034b99036b4b9b9b4b733903937b6329607d1b6017918401918201528351612142816028840160208801612538565b01602801949350505050565b6001600160a01b0386811682528516602082015260a06040820181905260009061217a90830186612072565b828103606084015261218c8186612072565b905082810360808401526121a081856120ad565b98975050505050505050565b6001600160a01b03868116825285166020820152604081018490526060810183905260a0608082018190526000906121e6908301846120ad565b979650505050505050565b6020815260006108126020830184612072565b6040815260006122176040830185612072565b82810360208401526122298185612072565b95945050505050565b60208152600061081260208301846120ad565b6020808252602f908201527f455243313135353a2063616c6c6572206973206e6f7420746f6b656e206f776e60408201526e195c881b9bdc88185c1c1c9bdd9959608a1b606082015260800190565b60208082526028908201527f455243313135353a204552433131353552656365697665722072656a656374656040820152676420746f6b656e7360c01b606082015260800190565b60208082526024908201527f455243313135353a206275726e20616d6f756e7420657863656564732062616c604082015263616e636560e01b606082015260800190565b60208082526025908201527f455243313135353a207472616e7366657220746f20746865207a65726f206164604082015264647265737360d81b606082015260800190565b60208082526023908201527f455243313135353a206275726e2066726f6d20746865207a65726f206164647260408201526265737360e81b606082015260800190565b6020808252602a908201527f455243313135353a20696e73756666696369656e742062616c616e636520666f60408201526939103a3930b739b332b960b11b606082015260800190565b6020808252602b908201527f496e697469616c697a61626c653a20636f6e7472616374206973206e6f74206960408201526a6e697469616c697a696e6760a81b606082015260800190565b60208082526028908201527f455243313135353a2069647320616e6420616d6f756e7473206c656e677468206040820152670dad2e6dac2e8c6d60c31b606082015260800190565b60208082526021908201527f455243313135353a206d696e7420746f20746865207a65726f206164647265736040820152607360f81b606082015260800190565b600067ffffffffffffffff8211156124e0576124e0612640565b5060051b60200190565b600082198211156124fd576124fd6125fe565b500190565b600081600019048311821515161561251c5761251c6125fe565b500290565b600082821015612533576125336125fe565b500390565b60005b8381101561255357818101518382015260200161253b565b838111156105185750506000910152565b600081612573576125736125fe565b506000190190565b600181811c9082168061258f57607f821691505b602082108114156125b057634e487b7160e01b600052602260045260246000fd5b50919050565b601f8201601f1916810167ffffffffffffffff811182821017156125dc576125dc612640565b6040525050565b60006000198214156125f7576125f76125fe565b5060010190565b634e487b7160e01b600052601160045260246000fd5b634e487b7160e01b600052603160045260246000fd5b634e487b7160e01b600052603260045260246000fd5b634e487b7160e01b600052604160045260246000fd5b600060033d111561266f5760046000803e5060005160e01c5b90565b600060443d10156126805790565b6040516003193d81016004833e81513d67ffffffffffffffff81602484011181841117156126b057505050505090565b82850191508151818111156126c85750505050505090565b843d87010160208285010111156126e25750505050505090565b6126f1602082860101876125b6565b509095945050505050565b6001600160e01b03198116811461097b57600080fdfea26469706673582212204ee6932d7e8a0e96b8e54bd3483758ac4045b74912e695155ff8a4e9e6c7253064736f6c63430008060033496e697469616c697a61626c653a20636f6e7472616374206973206e6f7420699f2df0fed2c77648de5860a4cc508cd0818c85b8b8a1ab4ceeef8d981c8956a67164765a3c8bd2513bdfa0c90f1bee9606e920fbf2c9071f310263fbd818684ba2646970667358221220f1ee151e8d4d8cb6ebe7e59ece32264fa8804268351795befbc114b123dab87564736f6c63430008060033",
  "linkReferences": {},
  "deployedLinkReferences": {}
}