{
  "_format": "hh-sol-artifact-1",
  "contractName": "TokenManagerERC721WithMetadata",
  "sourceName": "contracts/schain/TokenManagers/TokenManagerERC721WithMetadata.sol",
  "abi": [
    {
      "anonymous": false,
      "inputs": [
        {
          "indexed": false,
          "internalType": "address",
          "name": "oldValue",
          "type": "address"
        },
        {
          "indexed": false,
          "internalType": "address",
          "name": "newValue",
          "type": "address"
        }
      ],
      "name": "DepositBoxWasChanged",
      "type": "event"
    },
    {
      "anonymous": false,
      "inputs": [
        {
          "indexed": true,
          "internalType": "bytes32",
          "name": "chainHash",
          "type": "bytes32"
        },
        {
          "indexed": true,
          "internalType": "address",
          "name": "erc721OnMainChain",
          "type": "address"
        },
        {
          "indexed": true,
          "internalType": "address",
          "name": "erc721OnSchain",
          "type": "address"
        }
      ],
      "name": "ERC721TokenAdded",
      "type": "event"
    },
    {
      "anonymous": false,
      "inputs": [
        {
          "indexed": true,
          "internalType": "bytes32",
          "name": "chainHash",
          "type": "bytes32"
        },
        {
          "indexed": true,
          "internalType": "address",
          "name": "erc721OnMainChain",
          "type": "address"
        },
        {
          "indexed": true,
          "internalType": "address",
          "name": "erc721OnSchain",
          "type": "address"
        }
      ],
      "name": "ERC721TokenCreated",
      "type": "event"
    },
    {
      "anonymous": false,
      "inputs": [
        {
          "indexed": true,
          "internalType": "bytes32",
          "name": "chainHash",
          "type": "bytes32"
        },
        {
          "indexed": true,
          "internalType": "address",
          "name": "contractOnMainnet",
          "type": "address"
        },
        {
          "indexed": false,
          "internalType": "uint256",
          "name": "tokenId",
          "type": "uint256"
        }
      ],
      "name": "ERC721TokenReady",
      "type": "event"
    },
    {
      "anonymous": false,
      "inputs": [
        {
          "indexed": true,
          "internalType": "bytes32",
          "name": "chainHash",
          "type": "bytes32"
        },
        {
          "indexed": true,
          "internalType": "address",
          "name": "erc721OnMainChain",
          "type": "address"
        },
        {
          "indexed": true,
          "internalType": "address",
          "name": "erc721OnSchain",
          "type": "address"
        },
        {
          "indexed": false,
          "internalType": "uint256",
          "name": "tokenId",
          "type": "uint256"
        }
      ],
      "name": "ERC721TokenReceived",
      "type": "event"
    },
    {
      "anonymous": false,
      "inputs": [
        {
          "indexed": false,
          "internalType": "uint8",
          "name": "version",
          "type": "uint8"
        }
      ],
      "name": "Initialized",
      "type": "event"
    },
    {
      "anonymous": false,
      "inputs": [
        {
          "indexed": true,
          "internalType": "bytes32",
          "name": "role",
          "type": "bytes32"
        },
        {
          "indexed": true,
          "internalType": "bytes32",
          "name": "previousAdminRole",
          "type": "bytes32"
        },
        {
          "indexed": true,
          "internalType": "bytes32",
          "name": "newAdminRole",
          "type": "bytes32"
        }
      ],
      "name": "RoleAdminChanged",
      "type": "event"
    },
    {
      "anonymous": false,
      "inputs": [
        {
          "indexed": true,
          "internalType": "bytes32",
          "name": "role",
          "type": "bytes32"
        },
        {
          "indexed": true,
          "internalType": "address",
          "name": "account",
          "type": "address"
        },
        {
          "indexed": true,
          "internalType": "address",
          "name": "sender",
          "type": "address"
        }
      ],
      "name": "RoleGranted",
      "type": "event"
    },
    {
      "anonymous": false,
      "inputs": [
        {
          "indexed": true,
          "internalType": "bytes32",
          "name": "role",
          "type": "bytes32"
        },
        {
          "indexed": true,
          "internalType": "address",
          "name": "account",
          "type": "address"
        },
        {
          "indexed": true,
          "internalType": "address",
          "name": "sender",
          "type": "address"
        }
      ],
      "name": "RoleRevoked",
      "type": "event"
    },
    {
      "inputs": [],
      "name": "AUTOMATIC_DEPLOY_ROLE",
      "outputs": [
        {
          "internalType": "bytes32",
          "name": "",
          "type": "bytes32"
        }
      ],
      "stateMutability": "view",
      "type": "function"
    },
    {
      "inputs": [],
      "name": "DEFAULT_ADMIN_ROLE",
      "outputs": [
        {
          "internalType": "bytes32",
          "name": "",
          "type": "bytes32"
        }
      ],
      "stateMutability": "view",
      "type": "function"
    },
    {
      "inputs": [],
      "name": "MAINNET_HASH",
      "outputs": [
        {
          "internalType": "bytes32",
          "name": "",
          "type": "bytes32"
        }
      ],
      "stateMutability": "view",
      "type": "function"
    },
    {
      "inputs": [],
      "name": "MAINNET_NAME",
      "outputs": [
        {
          "internalType": "string",
          "name": "",
          "type": "string"
        }
      ],
      "stateMutability": "view",
      "type": "function"
    },
    {
      "inputs": [],
      "name": "TOKEN_REGISTRAR_ROLE",
      "outputs": [
        {
          "internalType": "bytes32",
          "name": "",
          "type": "bytes32"
        }
      ],
      "stateMutability": "view",
      "type": "function"
    },
    {
      "inputs": [
        {
          "internalType": "string",
          "name": "targetChainName",
          "type": "string"
        },
        {
          "internalType": "address",
          "name": "erc721OnMainChain",
          "type": "address"
        },
        {
          "internalType": "address",
          "name": "erc721OnSchain",
          "type": "address"
        }
      ],
      "name": "addERC721TokenByOwner",
      "outputs": [],
      "stateMutability": "nonpayable",
      "type": "function"
    },
    {
      "inputs": [
        {
          "internalType": "string",
          "name": "schainName",
          "type": "string"
        },
        {
          "internalType": "address",
          "name": "newTokenManager",
          "type": "address"
        }
      ],
      "name": "addTokenManager",
      "outputs": [],
      "stateMutability": "nonpayable",
      "type": "function"
    },
    {
      "inputs": [
        {
          "internalType": "contract ERC721OnChain",
          "name": "",
          "type": "address"
        }
      ],
      "name": "addedClones",
      "outputs": [
        {
          "internalType": "bool",
          "name": "",
          "type": "bool"
        }
      ],
      "stateMutability": "view",
      "type": "function"
    },
    {
      "inputs": [],
      "name": "automaticDeploy",
      "outputs": [
        {
          "internalType": "bool",
          "name": "",
          "type": "bool"
        }
      ],
      "stateMutability": "view",
      "type": "function"
    },
    {
      "inputs": [
        {
          "internalType": "address",
          "name": "newDepositBox",
          "type": "address"
        }
      ],
      "name": "changeDepositBoxAddress",
      "outputs": [],
      "stateMutability": "nonpayable",
      "type": "function"
    },
    {
      "inputs": [
        {
          "internalType": "bytes32",
          "name": "",
          "type": "bytes32"
        },
        {
          "internalType": "address",
          "name": "",
          "type": "address"
        }
      ],
      "name": "clonesErc721",
      "outputs": [
        {
          "internalType": "contract ERC721OnChain",
          "name": "",
          "type": "address"
        }
      ],
      "stateMutability": "view",
      "type": "function"
    },
    {
      "inputs": [],
      "name": "communityLocker",
      "outputs": [
        {
          "internalType": "contract ICommunityLocker",
          "name": "",
          "type": "address"
        }
      ],
      "stateMutability": "view",
      "type": "function"
    },
    {
      "inputs": [],
      "name": "depositBox",
      "outputs": [
        {
          "internalType": "address",
          "name": "",
          "type": "address"
        }
      ],
      "stateMutability": "view",
      "type": "function"
    },
    {
      "inputs": [
        {
          "internalType": "address",
          "name": "",
          "type": "address"
        }
      ],
      "name": "deprecatedClonesErc721",
      "outputs": [
        {
          "internalType": "contract ERC721OnChain",
          "name": "",
          "type": "address"
        }
      ],
      "stateMutability": "view",
      "type": "function"
    },
    {
      "inputs": [],
      "name": "disableAutomaticDeploy",
      "outputs": [],
      "stateMutability": "nonpayable",
      "type": "function"
    },
    {
      "inputs": [],
      "name": "enableAutomaticDeploy",
      "outputs": [],
      "stateMutability": "nonpayable",
      "type": "function"
    },
    {
      "inputs": [
        {
          "internalType": "address",
          "name": "contractOnMainnet",
          "type": "address"
        },
        {
          "internalType": "uint256",
          "name": "tokenId",
          "type": "uint256"
        }
      ],
      "name": "exitToMainERC721",
      "outputs": [],
      "stateMutability": "nonpayable",
      "type": "function"
    },
    {
      "inputs": [
        {
          "internalType": "bytes32",
          "name": "role",
          "type": "bytes32"
        }
      ],
      "name": "getRoleAdmin",
      "outputs": [
        {
          "internalType": "bytes32",
          "name": "",
          "type": "bytes32"
        }
      ],
      "stateMutability": "view",
      "type": "function"
    },
    {
      "inputs": [
        {
          "internalType": "bytes32",
          "name": "role",
          "type": "bytes32"
        },
        {
          "internalType": "uint256",
          "name": "index",
          "type": "uint256"
        }
      ],
      "name": "getRoleMember",
      "outputs": [
        {
          "internalType": "address",
          "name": "",
          "type": "address"
        }
      ],
      "stateMutability": "view",
      "type": "function"
    },
    {
      "inputs": [
        {
          "internalType": "bytes32",
          "name": "role",
          "type": "bytes32"
        }
      ],
      "name": "getRoleMemberCount",
      "outputs": [
        {
          "internalType": "uint256",
          "name": "",
          "type": "uint256"
        }
      ],
      "stateMutability": "view",
      "type": "function"
    },
    {
      "inputs": [
        {
          "internalType": "bytes32",
          "name": "role",
          "type": "bytes32"
        },
        {
          "internalType": "address",
          "name": "account",
          "type": "address"
        }
      ],
      "name": "grantRole",
      "outputs": [],
      "stateMutability": "nonpayable",
      "type": "function"
    },
    {
      "inputs": [
        {
          "internalType": "bytes32",
          "name": "role",
          "type": "bytes32"
        },
        {
          "internalType": "address",
          "name": "account",
          "type": "address"
        }
      ],
      "name": "hasRole",
      "outputs": [
        {
          "internalType": "bool",
          "name": "",
          "type": "bool"
        }
      ],
      "stateMutability": "view",
      "type": "function"
    },
    {
      "inputs": [
        {
          "internalType": "string",
          "name": "schainName",
          "type": "string"
        }
      ],
      "name": "hasTokenManager",
      "outputs": [
        {
          "internalType": "bool",
          "name": "",
          "type": "bool"
        }
      ],
      "stateMutability": "view",
      "type": "function"
    },
    {
      "inputs": [
        {
          "internalType": "string",
          "name": "newChainName",
          "type": "string"
        },
        {
          "internalType": "contract IMessageProxyForSchain",
          "name": "newMessageProxy",
          "type": "address"
        },
        {
          "internalType": "contract ITokenManagerLinker",
          "name": "newIMALinker",
          "type": "address"
        },
        {
          "internalType": "contract ICommunityLocker",
          "name": "newCommunityLocker",
          "type": "address"
        },
        {
          "internalType": "address",
          "name": "newDepositBox",
          "type": "address"
        }
      ],
      "name": "initialize",
      "outputs": [],
      "stateMutability": "nonpayable",
      "type": "function"
    },
    {
      "inputs": [
        {
          "internalType": "string",
          "name": "newSchainName",
          "type": "string"
        },
        {
          "internalType": "contract IMessageProxyForSchain",
          "name": "newMessageProxy",
          "type": "address"
        },
        {
          "internalType": "contract ITokenManagerLinker",
          "name": "newIMALinker",
          "type": "address"
        },
        {
          "internalType": "contract ICommunityLocker",
          "name": "newCommunityLocker",
          "type": "address"
        },
        {
          "internalType": "address",
          "name": "newDepositBox",
          "type": "address"
        }
      ],
      "name": "initializeTokenManager",
      "outputs": [],
      "stateMutability": "nonpayable",
      "type": "function"
    },
    {
      "inputs": [],
      "name": "messageProxy",
      "outputs": [
        {
          "internalType": "contract IMessageProxyForSchain",
          "name": "",
          "type": "address"
        }
      ],
      "stateMutability": "view",
      "type": "function"
    },
    {
      "inputs": [
        {
          "internalType": "bytes32",
          "name": "fromChainHash",
          "type": "bytes32"
        },
        {
          "internalType": "address",
          "name": "sender",
          "type": "address"
        },
        {
          "internalType": "bytes",
          "name": "data",
          "type": "bytes"
        }
      ],
      "name": "postMessage",
      "outputs": [],
      "stateMutability": "nonpayable",
      "type": "function"
    },
    {
      "inputs": [
        {
          "internalType": "string",
          "name": "schainName",
          "type": "string"
        }
      ],
      "name": "removeTokenManager",
      "outputs": [],
      "stateMutability": "nonpayable",
      "type": "function"
    },
    {
      "inputs": [
        {
          "internalType": "bytes32",
          "name": "role",
          "type": "bytes32"
        },
        {
          "internalType": "address",
          "name": "account",
          "type": "address"
        }
      ],
      "name": "renounceRole",
      "outputs": [],
      "stateMutability": "nonpayable",
      "type": "function"
    },
    {
      "inputs": [
        {
          "internalType": "bytes32",
          "name": "role",
          "type": "bytes32"
        },
        {
          "internalType": "address",
          "name": "account",
          "type": "address"
        }
      ],
      "name": "revokeRole",
      "outputs": [],
      "stateMutability": "nonpayable",
      "type": "function"
    },
    {
      "inputs": [],
      "name": "schainHash",
      "outputs": [
        {
          "internalType": "bytes32",
          "name": "",
          "type": "bytes32"
        }
      ],
      "stateMutability": "view",
      "type": "function"
    },
    {
      "inputs": [
        {
          "internalType": "bytes4",
          "name": "interfaceId",
          "type": "bytes4"
        }
      ],
      "name": "supportsInterface",
      "outputs": [
        {
          "internalType": "bool",
          "name": "",
          "type": "bool"
        }
      ],
      "stateMutability": "view",
      "type": "function"
    },
    {
      "inputs": [],
      "name": "tokenManagerLinker",
      "outputs": [
        {
          "internalType": "contract ITokenManagerLinker",
          "name": "",
          "type": "address"
        }
      ],
      "stateMutability": "view",
      "type": "function"
    },
    {
      "inputs": [
        {
          "internalType": "bytes32",
          "name": "",
          "type": "bytes32"
        }
      ],
      "name": "tokenManagers",
      "outputs": [
        {
          "internalType": "address",
          "name": "",
          "type": "address"
        }
      ],
      "stateMutability": "view",
      "type": "function"
    },
    {
      "inputs": [
        {
          "internalType": "string",
          "name": "targetSchainName",
          "type": "string"
        },
        {
          "internalType": "address",
          "name": "contractOnMainnet",
          "type": "address"
        },
        {
          "internalType": "uint256",
          "name": "tokenId",
          "type": "uint256"
        }
      ],
      "name": "transferToSchainERC721",
      "outputs": [],
      "stateMutability": "nonpayable",
      "type": "function"
    },
    {
      "inputs": [
        {
          "internalType": "address",
          "name": "",
          "type": "address"
        },
        {
          "internalType": "uint256",
          "name": "",
          "type": "uint256"
        }
      ],
      "name": "transferredAmount",
      "outputs": [
        {
          "internalType": "bytes32",
          "name": "",
          "type": "bytes32"
        }
      ],
      "stateMutability": "view",
      "type": "function"
    }
  ],
  "bytecode": "0x608060405234801561001057600080fd5b506165d2806100206000396000f3fe60806040523480156200001157600080fd5b5060043610620002495760003560e01c80636d611286116200013d578063b9581c5011620000bb578063cb703bff1162000086578063cb703bff14620005a6578063cc5b715b14620005bd578063d547741f14620005e5578063dec2deb614620005fc578063edcc12b5146200061157600080fd5b8063b9581c501462000537578063c0e312dc1462000541578063ca15c8731462000558578063ca99be02146200056f57600080fd5b80639010d07c11620001085780639010d07c14620004ae57806391d1485414620004c5578063a217fddf14620004dc578063aebaaca914620004e5578063b4a0522b146200050b57600080fd5b80636d61128614620004585780636d6c68e6146200046c5780636e81ae281462000480578063884cee5a146200049757600080fd5b80632f2ff15d11620001cb5780633fa194ce11620001965780633fa194ce14620003c957806350f4428014620003e05780635573b8b61462000416578063680ae2fe146200042a5780636ce681d2146200044157600080fd5b80632f2ff15d146200037a57806336568abe146200039157806339927cf914620003a85780633b690b6b14620003bf57600080fd5b80630f1a8f7411620002185780630f1a8f7414620002da5780631e0594e3146200031f578063248a9ca3146200033657806328c5e182146200035c5780632dc151de146200036657600080fd5b806301ffc9a7146200024e578063029996b8146200027a5780630b6c672314620002865780630b885ac314620002c3575b600080fd5b620002656200025f366004620032d1565b62000628565b60405190151581526020015b60405180910390f35b6200028462000656565b005b620002b462000297366004620031ad565b60d260209081526000928352604080842090915290825290205481565b60405190815260200162000271565b62000284620002d43660046200350c565b620006ae565b62000306620002eb36600462003200565b60ce602052600090815260409020546001600160a01b031681565b6040516001600160a01b03909116815260200162000271565b62000284620003303660046200342b565b620006c4565b620002b46200034736600462003200565b60009081526065602052604090206001015490565b620002b4620008f2565b60ca5462000306906001600160a01b031681565b620002846200038b3660046200321a565b6200093d565b62000284620003a23660046200321a565b6200096b565b62000265620003b93660046200331b565b620009ed565b620002b460cc5481565b620002b46000805160206200657d83398151915281565b620004076040518060400160405280600781526020016613585a5b9b995d60ca1b81525081565b6040516200027191906200387b565b60c95462000306906001600160a01b031681565b620002846200043b366004620033bc565b62000a4a565b62000284620004523660046200350c565b62000d73565b60cd5462000306906001600160a01b031681565b60cb5462000306906001600160a01b031681565b6200028462000491366004620031ad565b62000fe7565b62000284620004a83660046200324d565b620010a9565b62000306620004bf366004620032ae565b62001216565b62000265620004d63660046200321a565b62001237565b620002b4600081565b62000265620004f63660046200316d565b60d06020526000908152604090205460ff1681565b620003066200051c3660046200316d565b60cf602052600090815260409020546001600160a01b031681565b6200028462001262565b62000284620005523660046200331b565b620012ab565b620002b46200056936600462003200565b620013c9565b62000306620005803660046200321a565b60d16020908152600092835260408084209091529082529020546001600160a01b031681565b62000284620005b736600462003360565b620013e2565b620002b47ffda70c2cc66a36c14884ee85424961f51b1d92b4494751699b6d105b3bcbcba881565b62000284620005f63660046200321a565b62001569565b60cd546200026590600160a01b900460ff1681565b62000284620006223660046200316d565b62001592565b60006001600160e01b03198216635a05180f60e01b14806200065057506200065082620016ae565b92915050565b620006716000805160206200657d8339815191523362001237565b620006995760405162461bcd60e51b81526004016200069090620038b9565b60405180910390fd5b60cd805460ff60a01b1916600160a01b179055565b620006bd858585858562000d73565b5050505050565b83838080601f0160208091040260200160405190810160405280939291908181526020018383808284376000920182905250604051339450909250620007109150849060200162003789565b60408051601f1981840301815282825280516020918201208383018352600784526613585a5b9b995d60ca1b8483015291519193506200075292910162003789565b60405160208183030381529060405280519060200120811415620007d25760405162461bcd60e51b815260206004820152603060248201527f546869732066756e6374696f6e206973206e6f7420666f72207472616e73666560448201526f1c9c9a5b99c81d1bc813585a5b9b995d60821b606482015260840162000690565b6001600160a01b0382166200082a5760405162461bcd60e51b815260206004820152601a60248201527f496e636f72726563742072656365697665722061646472657373000000000000604482015260640162000690565b600081815260ce60205260409020546001600160a01b0316620008905760405162461bcd60e51b815260206004820152601f60248201527f496e636f727265637420546f6b656e204d616e61676572206164647265737300604482015260640162000690565b60008787604051602001620008a792919062003779565b60408051601f198184030181529181528151602092830120600081815260ce909352912054909150620008e89082906001600160a01b0316883389620016e5565b5050505050505050565b6040518060400160405280600781526020016613585a5b9b995d60ca1b81525060405160200162000924919062003789565b6040516020818303038152906040528051906020012081565b6000828152606560205260409020600101546200095a8162001b4e565b62000966838362001b5d565b505050565b6001600160a01b0381163314620009dd5760405162461bcd60e51b815260206004820152602f60248201527f416363657373436f6e74726f6c3a2063616e206f6e6c792072656e6f756e636560448201526e103937b632b9903337b91039b2b63360891b606482015260840162000690565b620009e9828262001b83565b5050565b6000806001600160a01b031660ce6000858560405160200162000a1292919062003779565b60408051808303601f19018152918152815160209283012083529082019290925201600020546001600160a01b031614159392505050565b62000a767ffda70c2cc66a36c14884ee85424961f51b1d92b4494751699b6d105b3bcbcba83362001237565b62000ac45760405162461bcd60e51b815260206004820181905260248201527f544f4b454e5f5245474953545241525f524f4c45206973207265717569726564604482015260640162000690565b60c954604051634ccd5cd560e11b81526001600160a01b039091169063999ab9aa9062000af890879087906004016200384c565b60206040518083038186803b15801562000b1157600080fd5b505afa15801562000b26573d6000803e3d6000fd5b505050506040513d601f19601f8201168201806040525081019062000b4c9190620031dc565b62000b935760405162461bcd60e51b815260206004820152601660248201527510da185a5b881a5cc81b9bdd0818dbdb9b9958dd195960521b604482015260640162000690565b6001600160a01b0381163b62000bec5760405162461bcd60e51b815260206004820152601f60248201527f476976656e2061646472657373206973206e6f74206120636f6e747261637400604482015260640162000690565b6000848460405160200162000c0392919062003779565b60408051601f198184030181529181528151602092830120600081815260d184528281206001600160a01b03888116835294529190912054909250161562000c875760405162461bcd60e51b8152602060048201526016602482015275436f756c64206e6f742072656c696e6b20636c6f6e6560501b604482015260640162000690565b6001600160a01b038216600090815260d0602052604090205460ff161562000cf25760405162461bcd60e51b815260206004820152601760248201527f436c6f6e652077617320616c7265616479206164646564000000000000000000604482015260640162000690565b600081815260d1602090815260408083206001600160a01b0387811680865291845282852080546001600160a01b031916918816918217905580855260d0909352818420805460ff1916600117905590519192909184917f11bec40858c3e219ac2d82dd307a6989e3ea72d1c463dfce7376c149d5ccf30c91a45050505050565b600054610100900460ff161580801562000d945750600054600160ff909116105b8062000db05750303b15801562000db0575060005460ff166001145b62000e155760405162461bcd60e51b815260206004820152602e60248201527f496e697469616c697a61626c653a20636f6e747261637420697320616c72656160448201526d191e481a5b9a5d1a585b1a5e995960921b606482015260840162000690565b6000805460ff19166001179055801562000e39576000805461ff0019166101001790555b6001600160a01b03821662000e915760405162461bcd60e51b815260206004820181905260248201527f4465706f736974426f7820616464726573732068617320746f20626520736574604482015260640162000690565b62000e9b62001ba9565b62000ea860003362001c18565b62000ec36000805160206200657d8339815191523362001c18565b62000eef7ffda70c2cc66a36c14884ee85424961f51b1d92b4494751699b6d105b3bcbcba83362001c18565b8560405160200162000f02919062003789565b60408051601f19818403018152828252805160209182012060cc5560c980546001600160a01b038a81166001600160a01b03199283161790925560ca80548a841690831617905560cb805489841690831617905560cd8054928816929091168217905560008452908301527fc968af77923193016f61d74ba6827296db5e1f37ec4fab3ad1ef20e193395e59910160405180910390a1801562000fdf576000805461ff0019169055604051600181527f7f26b83ff96e1f2b6a682f133852f6798a09c465da95921460cefb38474024989060200160405180910390a15b505050505050565b60cb546040516311be333d60e11b81523360048201526001600160a01b039091169063237c667a90602401600060405180830381600087803b1580156200102d57600080fd5b505af115801562001042573d6000803e3d6000fd5b50505050620009e96040518060400160405280600781526020016613585a5b9b995d60ca1b8152506040516020016200107c919062003789565b60408051601f19818403018152919052805160209091012060cd546001600160a01b0316843385620016e5565b60c9546001600160a01b03163314620011055760405162461bcd60e51b815260206004820152601c60248201527f53656e646572206973206e6f742061204d65737361676550726f787900000000604482015260640162000690565b838360cc54821415801562001121575062001121828262001c24565b6200116f5760405162461bcd60e51b815260206004820152601b60248201527f526563656976657220636861696e20697320696e636f72726563740000000000604482015260640162000690565b60006200117d858562001caf565b90506000600e82600e81111562001198576200119862003b72565b1480620011b95750600d82600e811115620011b757620011b762003b72565b145b15620011d457620011cc88878762001d03565b9050620008e8565b60405162461bcd60e51b815260206004820152601660248201527526b2b9b9b0b3b2aa3cb8329034b9903ab735b737bbb760511b604482015260640162000690565b600082815260976020526040812062001230908362002303565b9392505050565b60009182526065602090815260408084206001600160a01b0393909316845291905290205460ff1690565b6200127d6000805160206200657d8339815191523362001237565b6200129c5760405162461bcd60e51b81526004016200069090620038b9565b60cd805460ff60a01b19169055565b60ca546001600160a01b0316331480620012cd5750620012cd60003362001237565b620013135760405162461bcd60e51b81526020600482015260156024820152742737ba1030baba3437b934bd32b21031b0b63632b960591b604482015260640162000690565b600082826040516020016200132a92919062003779565b60408051601f198184030181529181528151602092830120600081815260ce9093529120549091506001600160a01b0316620013a95760405162461bcd60e51b815260206004820152601860248201527f546f6b656e204d616e61676572206973206e6f74207365740000000000000000604482015260640162000690565b600090815260ce6020526040902080546001600160a01b03191690555050565b6000818152609760205260408120620006509062002311565b60ca546001600160a01b03163314806200140457506200140460003362001237565b6200144a5760405162461bcd60e51b81526020600482015260156024820152742737ba1030baba3437b934bd32b21031b0b63632b960591b604482015260640162000690565b600083836040516020016200146192919062003779565b60408051601f198184030181529181528151602092830120600081815260ce9093529120549091506001600160a01b031615620014e15760405162461bcd60e51b815260206004820152601c60248201527f546f6b656e204d616e6167657220697320616c72656164792073657400000000604482015260640162000690565b6001600160a01b038216620015395760405162461bcd60e51b815260206004820152601f60248201527f496e636f727265637420546f6b656e204d616e61676572206164647265737300604482015260640162000690565b600090815260ce6020526040902080546001600160a01b0319166001600160a01b03929092169190911790555050565b600082815260656020526040902060010154620015868162001b4e565b62000966838362001b83565b6200159f60003362001237565b620015ed5760405162461bcd60e51b815260206004820152601e60248201527f44454641554c545f41444d494e5f524f4c452069732072657175697265640000604482015260640162000690565b6001600160a01b038116620016455760405162461bcd60e51b815260206004820181905260248201527f4465706f736974426f7820616464726573732068617320746f20626520736574604482015260640162000690565b60cd54604080516001600160a01b03928316815291831660208301527fc968af77923193016f61d74ba6827296db5e1f37ec4fab3ad1ef20e193395e59910160405180910390a160cd80546001600160a01b0319166001600160a01b0392909216919091179055565b60006001600160e01b03198216637965db0b60e01b14806200065057506301ffc9a760e01b6001600160e01b031983161462000650565b600085815260d1602090815260408083206001600160a01b038088168552925282205416806200178257506001600160a01b038416600090815260d06020526040902054849060ff16156200177d5760405162461bcd60e51b815260206004820152601a60248201527f496e636f7272656374206d61696e20636861696e20746f6b656e000000000000604482015260640162000690565b600191505b6001600160a01b0381163b620017db5760405162461bcd60e51b815260206004820152601860248201527f4e6f20746f6b656e20636c6f6e65206f6e2073636861696e0000000000000000604482015260640162000690565b60405163020604bf60e21b81526004810184905230906001600160a01b0383169063081812fc9060240160206040518083038186803b1580156200181e57600080fd5b505afa15801562001833573d6000803e3d6000fd5b505050506040513d601f19601f820116820180604052508101906200185991906200318d565b6001600160a01b031614620018b15760405162461bcd60e51b815260206004820152601860248201527f4e6f7420616c6c6f7765642045524337323120546f6b656e0000000000000000604482015260640162000690565b6000620018cc868686620018c686896200231c565b6200239f565b9050821562001a15576040518060400160405280600781526020016613585a5b9b995d60ca1b81525060405160200162001907919062003789565b604051602081830303815290604052805190602001208814156200198a5760405162461bcd60e51b815260206004820152603360248201527f4d61696e20636861696e20746f6b656e20636f756c64206e6f74206265207472604482015272185b9cd9995c9959081d1bc813585a5b9b995d606a1b606482015260840162000690565b620019988883338762002412565b9050620019a7888386620024c6565b6040516323b872dd60e01b8152336004820152306024820152604481018590526001600160a01b038316906323b872dd90606401600060405180830381600087803b158015620019f657600080fd5b505af115801562001a0b573d6000803e3d6000fd5b5050505062001ada565b6040516323b872dd60e01b8152336004820152306024820152604481018590526001600160a01b038316906323b872dd90606401600060405180830381600087803b15801562001a6457600080fd5b505af115801562001a79573d6000803e3d6000fd5b5050604051630852cd8d60e31b8152600481018790526001600160a01b03851692506342966c689150602401600060405180830381600087803b15801562001ac057600080fd5b505af115801562001ad5573d6000803e3d6000fd5b505050505b60c954604051634a24490160e11b81526001600160a01b039091169063944892029062001b10908b908b90869060040162003820565b600060405180830381600087803b15801562001b2b57600080fd5b505af115801562001b40573d6000803e3d6000fd5b505050505050505050505050565b62001b5a81336200256e565b50565b62001b698282620025dd565b600082815260976020526040902062000966908262002667565b62001b8f82826200267e565b6000828152609760205260409020620009669082620026e8565b600054610100900460ff1662001c165760405162461bcd60e51b815260206004820152602b60248201527f496e697469616c697a61626c653a20636f6e7472616374206973206e6f74206960448201526a6e697469616c697a696e6760a81b606482015260840162000690565b565b620009e9828262001b5d565b60006040518060400160405280600781526020016613585a5b9b995d60ca1b81525060405160200162001c58919062003789565b60405160208183030381529060405280519060200120831462001c9857600083815260ce60205260409020546001600160a01b0383811691161462001230565b5060cd546001600160a01b03908116911614919050565b60008062001cc08385018562003200565b905062001ccf60208262003b39565b62001cf55762001cec62001ce68483818862003a69565b62001caf565b91505062000650565b62001cec83850185620032fd565b60008062001d12848462001caf565b905060008080606081600d86600e81111562001d325762001d3262003b72565b141562001dc457600062001d478a8a620026ff565b90508060000151604001519550806000015160200151945080600001516060015193508060200151925060d160008c81526020019081526020016000206000866001600160a01b03166001600160a01b0316815260200190815260200160002060009054906101000a90046001600160a01b031691505062001f94565b600062001dd28a8a620027ca565b9050806000015160000151604001519550806000015160000151602001519450806000015160000151606001519350806000015160200151925060d160008c81526020019081526020016000206000866001600160a01b03166001600160a01b0316815260200190815260200160002060009054906101000a90046001600160a01b0316915060006001600160a01b0316826001600160a01b0316141562001f925760cd54600160a01b900460ff1662001ecf5760405162461bcd60e51b815260206004820152601c60248201527f4175746f6d61746963206465706c6f792069732064697361626c656400000000604482015260640162000690565b602080820151805191015160405162001ee89062002f64565b62001ef592919062003890565b604051809103906000f08015801562001f12573d6000803e3d6000fd5b5060008c815260d1602090815260408083206001600160a01b038a811680865291845282852080546001600160a01b031916918716918217905580855260d0909352818420805460ff191660011790559051939550909290918e917f3db9e29b45c5fe72aaa0bdc4514d68a645660185a44637e9bc6f0b805ea770459190a45b505b600d86600e81111562001fab5762001fab62003b72565b1480156200200057506040518060400160405280600781526020016613585a5b9b995d60ca1b81525060405160200162001fe6919062003789565b604051602081830303815290604052805190602001208a14155b8015620020145750620020148a856200286f565b15620021ba576001600160a01b0384163b620020735760405162461bcd60e51b815260206004820152601a60248201527f496e636f7272656374206d61696e20636861696e20746f6b656e000000000000604482015260640162000690565b6040516331a9108f60e11b81526004810184905230906001600160a01b03861690636352211e9060240160206040518083038186803b158015620020b657600080fd5b505afa158015620020cb573d6000803e3d6000fd5b505050506040513d601f19601f82011682018060405250810190620020f191906200318d565b6001600160a01b0316146200213d5760405162461bcd60e51b8152602060048201526011602482015270125b98dbdc9c9958dd081d1bdad95b9259607a1b604482015260640162000690565b6200214a8a8585620028a6565b6040516323b872dd60e01b81523060048201526001600160a01b038681166024830152604482018590528516906323b872dd90606401600060405180830381600087803b1580156200219b57600080fd5b505af1158015620021b0573d6000803e3d6000fd5b50505050620022a6565b6040516340c10f1960e01b81526001600160a01b038681166004830152602482018590528216906340c10f1990604401600060405180830381600087803b1580156200220557600080fd5b505af11580156200221a573d6000803e3d6000fd5b5050604051630588253160e21b81526001600160a01b038416925063162094c491506200224e90869086906004016200397c565b602060405180830381600087803b1580156200226957600080fd5b505af11580156200227e573d6000803e3d6000fd5b505050506040513d601f19601f82011682018060405250810190620022a49190620031dc565b505b806001600160a01b0316846001600160a01b03168b7f2735a548eee1cda16c2df4c1a546c0376f3b3bb2ceca4966ef9d251fcbdd3c4586604051620022ed91815260200190565b60405180910390a4509298975050505050505050565b600062001230838362002954565b600062000650825490565b60405163c87b56dd60e01b8152600481018290526060906001600160a01b0384169063c87b56dd9060240160006040518083038186803b1580156200236057600080fd5b505afa15801562002375573d6000803e3d6000fd5b505050506040513d6000823e601f3d908101601f191682016040526200123091908101906200348d565b6040805160e081018252600d60c082019081528183019081526001600160a01b03808816606080850191909152908716608084015260a08301869052908252602080830185905292519092620023f891839101620038fa565b604051602081830303815290604052915050949350505050565b606060006200242286866200286f565b905080620024625762002436868662002981565b6200245a8585856200244989886200231c565b620024548a62002ab7565b62002bd5565b915062002478565b62002475858585620018c689886200231c565b91505b846001600160a01b0316867fd0fe87fb12c7aa2b7f679256044123cb20de43059fb2ddbb4cc6556f217f29dc85604051620024b591815260200190565b60405180910390a350949350505050565b6001600160a01b038216600090815260d26020908152604080832084845290915290205415620025485760405162461bcd60e51b815260206004820152602660248201527f546f6b656e2077617320616c7265616479207472616e7366657272656420746f6044820152651031b430b4b760d11b606482015260840162000690565b6001600160a01b03909116600090815260d2602090815260408083209383529290522055565b6200257a828262001237565b620009e95762002595816001600160a01b0316601462002c55565b620025a283602062002c55565b604051602001620025b5929190620037a7565b60408051601f198184030181529082905262461bcd60e51b825262000690916004016200387b565b620025e9828262001237565b620009e95760008281526065602090815260408083206001600160a01b03851684529091529020805460ff19166001179055620026233390565b6001600160a01b0316816001600160a01b0316837f2f8788117e7eff1d82e926ec794901d17c78024a50270940304540a733656f0d60405160405180910390a45050565b600062001230836001600160a01b03841662002e0e565b6200268a828262001237565b15620009e95760008281526065602090815260408083206001600160a01b0385168085529252808320805460ff1916905551339285917ff6391f5c32d9c69d2a47ea670b442974b53935d1edc7fd64eb21e047a839171b9190a45050565b600062001230836001600160a01b03841662002e60565b6200273f6040805160e081018252600060c08201818152928201928352606082018190526080820181905260a08201529081908152602001606081525090565b600d6200274d848462001caf565b600e81111562002761576200276162003b72565b14620027bc5760405162461bcd60e51b815260206004820152602360248201527f4d6573736167652074797065206973206e6f7420455243373231207472616e736044820152623332b960e91b606482015260840162000690565b6200123082840184620035a1565b620027d462002f72565b600e620027e2848462001caf565b600e811115620027f657620027f662003b72565b14620028615760405162461bcd60e51b815260206004820152603360248201527f4d6573736167652074797065206973206e6f7420455243373231207472616e73604482015272666572207769746820746f6b656e20696e666f60681b606482015260840162000690565b6200123082840184620035e1565b600082815260d3602052604081206200123090836001600160a01b0381166000908152600183016020526040812054151562001230565b6001600160a01b038216600090815260d26020908152604080832084845290915290205483146200292b5760405162461bcd60e51b815260206004820152602860248201527f546f6b656e2077617320616c7265616479207472616e7366657272656420667260448201526737b69031b430b4b760c11b606482015260840162000690565b6001600160a01b03909116600090815260d2602090815260408083209383529290529081205550565b60008260000182815481106200296e576200296e62003b9e565b9060005260206000200154905092915050565b6001600160a01b0381163b620029da5760405162461bcd60e51b815260206004820152601f60248201527f476976656e2061646472657373206973206e6f74206120636f6e747261637400604482015260640162000690565b600082815260d36020526040902062002a1190826001600160a01b0381166000908152600183016020526040812054151562001230565b1562002a605760405162461bcd60e51b815260206004820152601e60248201527f45524337323120546f6b656e2077617320616c72656164792061646465640000604482015260640162000690565b600082815260d36020526040902062002a7a908262002667565b506040516000906001600160a01b0383169084907f11bec40858c3e219ac2d82dd307a6989e3ea72d1c463dfce7376c149d5ccf30c908490a45050565b60408051808201909152606080825260208201526040518060400160405280836001600160a01b03166306fdde036040518163ffffffff1660e01b815260040160006040518083038186803b15801562002b1057600080fd5b505afa15801562002b25573d6000803e3d6000fd5b505050506040513d6000823e601f3d908101601f1916820160405262002b4f91908101906200348d565b8152602001836001600160a01b03166395d89b416040518163ffffffff1660e01b815260040160006040518083038186803b15801562002b8e57600080fd5b505afa15801562002ba3573d6000803e3d6000fd5b505050506040513d6000823e601f3d908101601f1916820160405262002bcd91908101906200348d565b905292915050565b6040805161012081018252600e6101008201908152608082019081526001600160a01b0380891660a0840152871660c083015260e08201869052818301908152606080830186905290825260208083018590529251909262002c3a918391016200390f565b60405160208183030381529060405291505095945050505050565b6060600062002c6683600262003ab0565b62002c7390600262003a95565b6001600160401b0381111562002c8d5762002c8d62003bb4565b6040519080825280601f01601f19166020018201604052801562002cb8576020820181803683370190505b509050600360fc1b8160008151811062002cd65762002cd662003b9e565b60200101906001600160f81b031916908160001a905350600f60fb1b8160018151811062002d085762002d0862003b9e565b60200101906001600160f81b031916908160001a905350600062002d2e84600262003ab0565b62002d3b90600162003a95565b90505b600181111562002dbd576f181899199a1a9b1b9c1cb0b131b232b360811b85600f166010811062002d735762002d7362003b9e565b1a60f81b82828151811062002d8c5762002d8c62003b9e565b60200101906001600160f81b031916908160001a90535060049490941c9362002db58162003b1f565b905062002d3e565b508315620012305760405162461bcd60e51b815260206004820181905260248201527f537472696e67733a20686578206c656e67746820696e73756666696369656e74604482015260640162000690565b600081815260018301602052604081205462002e575750815460018181018455600084815260208082209093018490558454848252828601909352604090209190915562000650565b50600062000650565b6000818152600183016020526040812054801562002f5957600062002e8760018362003ad2565b855490915060009062002e9d9060019062003ad2565b905081811462002f0957600086600001828154811062002ec15762002ec162003b9e565b906000526020600020015490508087600001848154811062002ee75762002ee762003b9e565b6000918252602080832090910192909255918252600188019052604090208390555b855486908062002f1d5762002f1d62003b88565b60019003818190600052602060002001600090559055856001016000868152602001908152602001600020600090556001935050505062000650565b600091505062000650565b61299c8062003be183390190565b6040805161012081018252600061010082018181526080830190815260a0830182905260c0830182905260e0830191909152918101918252606080820152908190815260200162002fd6604051806040016040528060608152602001606081525090565b905290565b60008083601f84011262002fee57600080fd5b5081356001600160401b038111156200300657600080fd5b6020830191508360208285010111156200301f57600080fd5b9250929050565b8035600f81106200303657600080fd5b919050565b600082601f8301126200304d57600080fd5b8135620030646200305e8262003a3f565b62003a0c565b8181528460208386010111156200307a57600080fd5b816020850160208301376000918101602001919091529392505050565b600081830360a0811215620030ab57600080fd5b620030b562003997565b91506080811215620030c657600080fd5b620030d0620039c2565b6020821215620030df57600080fd5b620030e9620039e7565b9150620030f68462003026565b82529081526020830135906200310c8262003bca565b81602082015260408401359150620031248262003bca565b81604082015260608401356060820152808352505060808201356001600160401b038111156200315357600080fd5b62003161848285016200303b565b60208301525092915050565b6000602082840312156200318057600080fd5b8135620012308162003bca565b600060208284031215620031a057600080fd5b8151620012308162003bca565b60008060408385031215620031c157600080fd5b8235620031ce8162003bca565b946020939093013593505050565b600060208284031215620031ef57600080fd5b815180151581146200123057600080fd5b6000602082840312156200321357600080fd5b5035919050565b600080604083850312156200322e57600080fd5b823591506020830135620032428162003bca565b809150509250929050565b600080600080606085870312156200326457600080fd5b843593506020850135620032788162003bca565b925060408501356001600160401b038111156200329457600080fd5b620032a28782880162002fdb565b95989497509550505050565b60008060408385031215620032c257600080fd5b50508035926020909101359150565b600060208284031215620032e457600080fd5b81356001600160e01b0319811681146200123057600080fd5b6000602082840312156200331057600080fd5b620012308262003026565b600080602083850312156200332f57600080fd5b82356001600160401b038111156200334657600080fd5b620033548582860162002fdb565b90969095509350505050565b6000806000604084860312156200337657600080fd5b83356001600160401b038111156200338d57600080fd5b6200339b8682870162002fdb565b9094509250506020840135620033b18162003bca565b809150509250925092565b60008060008060608587031215620033d357600080fd5b84356001600160401b03811115620033ea57600080fd5b620033f88782880162002fdb565b90955093505060208501356200340e8162003bca565b91506040850135620034208162003bca565b939692955090935050565b600080600080606085870312156200344257600080fd5b84356001600160401b038111156200345957600080fd5b620034678782880162002fdb565b90955093505060208501356200347d8162003bca565b9396929550929360400135925050565b600060208284031215620034a057600080fd5b81516001600160401b03811115620034b757600080fd5b8201601f81018413620034c957600080fd5b8051620034da6200305e8262003a3f565b818152856020838501011115620034f057600080fd5b6200350382602083016020860162003aec565b95945050505050565b600080600080600060a086880312156200352557600080fd5b85356001600160401b038111156200353c57600080fd5b6200354a888289016200303b565b95505060208601356200355d8162003bca565b935060408601356200356f8162003bca565b92506060860135620035818162003bca565b91506080860135620035938162003bca565b809150509295509295909350565b600060208284031215620035b457600080fd5b81356001600160401b03811115620035cb57600080fd5b620035d98482850162003097565b949350505050565b600060208284031215620035f457600080fd5b81356001600160401b03808211156200360c57600080fd5b90830190604082860312156200362157600080fd5b6200362b62003997565b8235828111156200363b57600080fd5b620036498782860162003097565b8252506020830135828111156200365f57600080fd5b9290920191604083870312156200367557600080fd5b6200367f62003997565b8335838111156200368f57600080fd5b6200369d888287016200303b565b825250602084013583811115620036b357600080fd5b620036c1888287016200303b565b6020830152508060208301525080935050505092915050565b60008151808452620036f481602086016020860162003aec565b601f01601f19169290920160200192915050565b60008151805151600f81106200372e57634e487b7160e01b600052602160045260246000fd5b84526020818101516001600160a01b0390811682870152604080840151909116908601526060918201519185019190915282015160a060808501819052620035d990850182620036da565b8183823760009101908152919050565b600082516200379d81846020870162003aec565b9190910192915050565b7f416363657373436f6e74726f6c3a206163636f756e7420000000000000000000815260008351620037e181601785016020880162003aec565b7001034b99036b4b9b9b4b733903937b6329607d1b60179184019182015283516200381481602884016020880162003aec565b01602801949350505050565b8381526001600160a01b03831660208201526060604082018190526000906200350390830184620036da565b60208152816020820152818360408301376000818301604090810191909152601f909201601f19160101919050565b602081526000620012306020830184620036da565b604081526000620038a56040830185620036da565b8281036020840152620035038185620036da565b60208082526021908201527f4155544f4d415449435f4445504c4f595f524f4c4520697320726571756972656040820152601960fa1b606082015260800190565b60208152600062001230602083018462003708565b6020815260008251604060208401526200392d606084018262003708565b90506020840151601f19848303016040850152805160408352620039556040840182620036da565b9050602082015191508281036020840152620039728183620036da565b9695505050505050565b828152604060208201526000620035d96040830184620036da565b604080519081016001600160401b0381118282101715620039bc57620039bc62003bb4565b60405290565b604051608081016001600160401b0381118282101715620039bc57620039bc62003bb4565b604051602081016001600160401b0381118282101715620039bc57620039bc62003bb4565b604051601f8201601f191681016001600160401b038111828210171562003a375762003a3762003bb4565b604052919050565b60006001600160401b0382111562003a5b5762003a5b62003bb4565b50601f01601f191660200190565b6000808585111562003a7a57600080fd5b8386111562003a8857600080fd5b5050820193919092039150565b6000821982111562003aab5762003aab62003b5c565b500190565b600081600019048311821515161562003acd5762003acd62003b5c565b500290565b60008282101562003ae75762003ae762003b5c565b500390565b60005b8381101562003b0957818101518382015260200162003aef565b8381111562003b19576000848401525b50505050565b60008162003b315762003b3162003b5c565b506000190190565b60008262003b5757634e487b7160e01b600052601260045260246000fd5b500690565b634e487b7160e01b600052601160045260246000fd5b634e487b7160e01b600052602160045260246000fd5b634e487b7160e01b600052603160045260246000fd5b634e487b7160e01b600052603260045260246000fd5b634e487b7160e01b600052604160045260246000fd5b6001600160a01b038116811462001b5a57600080fdfe60806040523480156200001157600080fd5b506040516200299c3803806200299c833981016040819052620000349162000646565b600054610100900460ff1615808015620000555750600054600160ff909116105b806200008557506200007230620001d960201b62000a3d1760201c565b15801562000085575060005460ff166001145b620000ee5760405162461bcd60e51b815260206004820152602e60248201527f496e697469616c697a61626c653a20636f6e747261637420697320616c72656160448201526d191e481a5b9a5d1a585b1a5e995960921b60648201526084015b60405180910390fd5b6000805460ff19166001179055801562000112576000805461ff0019166101001790555b62000127620001e860201b62000a4c1760201c565b6200013e83836200024660201b62000a751760201c565b62000153620001e860201b62000a4c1760201c565b6200016e6000805160206200297c83398151915280620002b2565b620001896000805160206200297c83398151915233620002fd565b8015620001d0576000805461ff0019169055604051600181527f7f26b83ff96e1f2b6a682f133852f6798a09c465da95921460cefb38474024989060200160405180910390a15b50505062000703565b6001600160a01b03163b151590565b600054610100900460ff16620002445760405162461bcd60e51b815260206004820152602b60248201526000805160206200295c83398151915260448201526a6e697469616c697a696e6760a81b6064820152608401620000e5565b565b600054610100900460ff16620002a25760405162461bcd60e51b815260206004820152602b60248201526000805160206200295c83398151915260448201526a6e697469616c697a696e6760a81b6064820152608401620000e5565b620002ae828262000309565b5050565b600082815260656020526040808220600101805490849055905190918391839186917fbd79b86ffe0ab8e8776151514217cd7cacd52c909f66475c3af44e129f0b00ff9190a4505050565b620002ae828262000395565b600054610100900460ff16620003655760405162461bcd60e51b815260206004820152602b60248201526000805160206200295c83398151915260448201526a6e697469616c697a696e6760a81b6064820152608401620000e5565b81516200037a9060c9906020850190620004e9565b508051620003909060ca906020840190620004e9565b505050565b620003ac8282620003d360201b62000aa61760201c565b60008281526097602090815260409091206200039091839062000b2c62000477821b17901c565b60008281526065602090815260408083206001600160a01b038516845290915290205460ff16620002ae5760008281526065602090815260408083206001600160a01b03851684529091529020805460ff19166001179055620004333390565b6001600160a01b0316816001600160a01b0316837f2f8788117e7eff1d82e926ec794901d17c78024a50270940304540a733656f0d60405160405180910390a45050565b60006200048e836001600160a01b03841662000497565b90505b92915050565b6000818152600183016020526040812054620004e05750815460018181018455600084815260208082209093018490558454848252828601909352604090209190915562000491565b50600062000491565b828054620004f790620006b0565b90600052602060002090601f0160209004810192826200051b576000855562000566565b82601f106200053657805160ff191683800117855562000566565b8280016001018555821562000566579182015b828111156200056657825182559160200191906001019062000549565b506200057492915062000578565b5090565b5b8082111562000574576000815560010162000579565b600082601f830112620005a157600080fd5b81516001600160401b0380821115620005be57620005be620006ed565b604051601f8301601f19908116603f01168101908282118183101715620005e957620005e9620006ed565b816040528381526020925086838588010111156200060657600080fd5b600091505b838210156200062a57858201830151818301840152908201906200060b565b838211156200063c5760008385830101525b9695505050505050565b600080604083850312156200065a57600080fd5b82516001600160401b03808211156200067257600080fd5b62000680868387016200058f565b935060208501519150808211156200069757600080fd5b50620006a6858286016200058f565b9150509250929050565b600181811c90821680620006c557607f821691505b60208210811415620006e757634e487b7160e01b600052602260045260246000fd5b50919050565b634e487b7160e01b600052604160045260246000fd5b61224980620007136000396000f3fe608060405234801561001057600080fd5b50600436106101735760003560e01c80636352211e116100de578063a22cb46511610097578063ca15c87311610071578063ca15c87314610340578063d539139314610353578063d547741f1461037a578063e985e9c51461038d57600080fd5b8063a22cb46514610307578063b88d4fde1461031a578063c87b56dd1461032d57600080fd5b80636352211e146102ab57806370a08231146102be5780639010d07c146102d157806391d14854146102e457806395d89b41146102f7578063a217fddf146102ff57600080fd5b8063248a9ca311610130578063248a9ca31461021b5780632f2ff15d1461024c57806336568abe1461025f57806340c10f191461027257806342842e0e1461028557806342966c681461029857600080fd5b806301ffc9a71461017857806306fdde03146101a0578063081812fc146101b5578063095ea7b3146101e0578063162094c4146101f557806323b872dd14610208575b600080fd5b61018b610186366004611dbf565b6103c9565b60405190151581526020015b60405180910390f35b6101a86103da565b6040516101979190611f82565b6101c86101c3366004611d61565b61046c565b6040516001600160a01b039091168152602001610197565b6101f36101ee366004611d37565b610493565b005b61018b610203366004611df9565b6105ae565b6101f3610216366004611be3565b6106da565b61023e610229366004611d61565b60009081526065602052604090206001015490565b604051908152602001610197565b6101f361025a366004611d7a565b61070c565b6101f361026d366004611d7a565b610731565b6101f3610280366004611d37565b6107af565b6101f3610293366004611be3565b610828565b6101f36102a6366004611d61565b610843565b6101c86102b9366004611d61565b610874565b61023e6102cc366004611b95565b6108d4565b6101c86102df366004611d9d565b61095a565b61018b6102f2366004611d7a565b610979565b6101a86109a4565b61023e600081565b6101f3610315366004611cfb565b6109b3565b6101f3610328366004611c1f565b6109be565b6101a861033b366004611d61565b6109f6565b61023e61034e366004611d61565b610a01565b61023e7f9f2df0fed2c77648de5860a4cc508cd0818c85b8b8a1ab4ceeef8d981c8956a681565b6101f3610388366004611d7a565b610a18565b61018b61039b366004611bb0565b6001600160a01b03918216600090815260ce6020908152604080832093909416825291909152205460ff1690565b60006103d482610b41565b92915050565b606060c980546103e990612125565b80601f016020809104026020016040519081016040528092919081815260200182805461041590612125565b80156104625780601f1061043757610100808354040283529160200191610462565b820191906000526020600020905b81548152906001019060200180831161044557829003601f168201915b5050505050905090565b600061047782610b81565b50600090815260cd60205260409020546001600160a01b031690565b600061049e82610874565b9050806001600160a01b0316836001600160a01b031614156105115760405162461bcd60e51b815260206004820152602160248201527f4552433732313a20617070726f76616c20746f2063757272656e74206f776e656044820152603960f91b60648201526084015b60405180910390fd5b336001600160a01b038216148061052d575061052d813361039b565b61059f5760405162461bcd60e51b815260206004820152603e60248201527f4552433732313a20617070726f76652063616c6c6572206973206e6f7420746f60448201527f6b656e206f776e6572206e6f7220617070726f76656420666f7220616c6c00006064820152608401610508565b6105a98383610be0565b505050565b600083815260cb60205260408120546001600160a01b031661060a5760405162461bcd60e51b8152602060048201526015602482015274546f6b656e20646f6573206e6f742065786973747360581b6044820152606401610508565b6106143385610c4e565b8061064457506106447f9f2df0fed2c77648de5860a4cc508cd0818c85b8b8a1ab4ceeef8d981c8956a633610979565b6106905760405162461bcd60e51b815260206004820152601c60248201527f53656e6465722063616e206e6f742073657420746f6b656e20555249000000006044820152606401610508565b6106d08484848080601f016020809104026020016040519081016040528093929190818152602001838380828437600092019190915250610ccd92505050565b5060019392505050565b6106e5335b82610c4e565b6107015760405162461bcd60e51b815260040161050890612032565b6105a9838383610d68565b60008281526065602052604090206001015461072781610f04565b6105a98383610f0e565b6001600160a01b03811633146107a15760405162461bcd60e51b815260206004820152602f60248201527f416363657373436f6e74726f6c3a2063616e206f6e6c792072656e6f756e636560448201526e103937b632b9903337b91039b2b63360891b6064820152608401610508565b6107ab8282610f30565b5050565b6107d97f9f2df0fed2c77648de5860a4cc508cd0818c85b8b8a1ab4ceeef8d981c8956a633610979565b61081e5760405162461bcd60e51b815260206004820152601660248201527529b2b73232b91034b9903737ba10309026b4b73a32b960511b6044820152606401610508565b6107ab8282610f52565b6105a9838383604051806020016040528060008152506109be565b61084c336106df565b6108685760405162461bcd60e51b815260040161050890612032565b61087181611094565b50565b600081815260cb60205260408120546001600160a01b0316806103d45760405162461bcd60e51b8152602060048201526018602482015277115490cdcc8c4e881a5b9d985b1a59081d1bdad95b88125160421b6044820152606401610508565b60006001600160a01b03821661093e5760405162461bcd60e51b815260206004820152602960248201527f4552433732313a2061646472657373207a65726f206973206e6f7420612076616044820152683634b21037bbb732b960b91b6064820152608401610508565b506001600160a01b0316600090815260cc602052604090205490565b6000828152609760205260408120610972908361109d565b9392505050565b60009182526065602090815260408084206001600160a01b0393909316845291905290205460ff1690565b606060ca80546103e990612125565b6107ab3383836110a9565b6109c83383610c4e565b6109e45760405162461bcd60e51b815260040161050890612032565b6109f084848484611178565b50505050565b60606103d4826111ab565b60008181526097602052604081206103d4906112b5565b600082815260656020526040902060010154610a3381610f04565b6105a98383610f30565b6001600160a01b03163b151590565b600054610100900460ff16610a735760405162461bcd60e51b815260040161050890611fe7565b565b600054610100900460ff16610a9c5760405162461bcd60e51b815260040161050890611fe7565b6107ab82826112bf565b610ab08282610979565b6107ab5760008281526065602090815260408083206001600160a01b03851684529091529020805460ff19166001179055610ae83390565b6001600160a01b0316816001600160a01b0316837f2f8788117e7eff1d82e926ec794901d17c78024a50270940304540a733656f0d60405160405180910390a45050565b6000610972836001600160a01b03841661130d565b60006001600160e01b031982166380ac58cd60e01b1480610b7257506001600160e01b03198216635b5e139f60e01b145b806103d457506103d48261135c565b600081815260cb60205260409020546001600160a01b03166108715760405162461bcd60e51b8152602060048201526018602482015277115490cdcc8c4e881a5b9d985b1a59081d1bdad95b88125160421b6044820152606401610508565b600081815260cd6020526040902080546001600160a01b0319166001600160a01b0384169081179091558190610c1582610874565b6001600160a01b03167f8c5be1e5ebec7d5bd14f71427d1e84f3dd0314c0f7b2291e5b200ac8c7c3b92560405160405180910390a45050565b600080610c5a83610874565b9050806001600160a01b0316846001600160a01b03161480610ca157506001600160a01b03808216600090815260ce602090815260408083209388168352929052205460ff165b80610cc55750836001600160a01b0316610cba8461046c565b6001600160a01b0316145b949350505050565b600082815260cb60205260409020546001600160a01b0316610d485760405162461bcd60e51b815260206004820152602e60248201527f45524337323155524953746f726167653a2055524920736574206f66206e6f6e60448201526d32bc34b9ba32b73a103a37b5b2b760911b6064820152608401610508565b600082815261012d6020908152604090912082516105a992840190611aaa565b826001600160a01b0316610d7b82610874565b6001600160a01b031614610ddf5760405162461bcd60e51b815260206004820152602560248201527f4552433732313a207472616e736665722066726f6d20696e636f72726563742060448201526437bbb732b960d91b6064820152608401610508565b6001600160a01b038216610e415760405162461bcd60e51b8152602060048201526024808201527f4552433732313a207472616e7366657220746f20746865207a65726f206164646044820152637265737360e01b6064820152608401610508565b610e4c600082610be0565b6001600160a01b038316600090815260cc60205260408120805460019290610e759084906120cb565b90915550506001600160a01b038216600090815260cc60205260408120805460019290610ea3908490612080565b9091555050600081815260cb602052604080822080546001600160a01b0319166001600160a01b0386811691821790925591518493918716917fddf252ad1be2c89b69c2b068fc378daa952ba7f163c4a11628f55a4df523b3ef91a4505050565b6108718133611381565b610f188282610aa6565b60008281526097602052604090206105a99082610b2c565b610f3a82826113e5565b60008281526097602052604090206105a9908261144c565b6001600160a01b038216610fa85760405162461bcd60e51b815260206004820181905260248201527f4552433732313a206d696e7420746f20746865207a65726f20616464726573736044820152606401610508565b600081815260cb60205260409020546001600160a01b03161561100d5760405162461bcd60e51b815260206004820152601c60248201527f4552433732313a20746f6b656e20616c7265616479206d696e746564000000006044820152606401610508565b6001600160a01b038216600090815260cc60205260408120805460019290611036908490612080565b9091555050600081815260cb602052604080822080546001600160a01b0319166001600160a01b03861690811790915590518392907fddf252ad1be2c89b69c2b068fc378daa952ba7f163c4a11628f55a4df523b3ef908290a45050565b61087181611461565b600061097283836114a3565b816001600160a01b0316836001600160a01b0316141561110b5760405162461bcd60e51b815260206004820152601960248201527f4552433732313a20617070726f766520746f2063616c6c6572000000000000006044820152606401610508565b6001600160a01b03838116600081815260ce6020908152604080832094871680845294825291829020805460ff191686151590811790915591519182527f17307eab39ab6107e8899845ad3d59bd9653f200f220920489ca2b5937696c31910160405180910390a3505050565b611183848484610d68565b61118f848484846114cd565b6109f05760405162461bcd60e51b815260040161050890611f95565b60606111b682610b81565b600082815261012d6020526040812080546111d090612125565b80601f01602080910402602001604051908101604052809291908181526020018280546111fc90612125565b80156112495780601f1061121e57610100808354040283529160200191611249565b820191906000526020600020905b81548152906001019060200180831161122c57829003601f168201915b50505050509050600061126760408051602081019091526000815290565b905080516000141561127a575092915050565b8151156112ac578082604051602001611294929190611ea1565b60405160208183030381529060405292505050919050565b610cc5846115da565b60006103d4825490565b600054610100900460ff166112e65760405162461bcd60e51b815260040161050890611fe7565b81516112f99060c9906020850190611aaa565b5080516105a99060ca906020840190611aaa565b6000818152600183016020526040812054611354575081546001818101845560008481526020808220909301849055845484825282860190935260409020919091556103d4565b5060006103d4565b60006001600160e01b03198216635a05180f60e01b14806103d457506103d48261164d565b61138b8282610979565b6107ab576113a3816001600160a01b03166014611682565b6113ae836020611682565b6040516020016113bf929190611ed0565b60408051601f198184030181529082905262461bcd60e51b825261050891600401611f82565b6113ef8282610979565b156107ab5760008281526065602090815260408083206001600160a01b0385168085529252808320805460ff1916905551339285917ff6391f5c32d9c69d2a47ea670b442974b53935d1edc7fd64eb21e047a839171b9190a45050565b6000610972836001600160a01b03841661181e565b61146a81611911565b600081815261012d60205260409020805461148490612125565b15905061087157600081815261012d6020526040812061087191611b2e565b60008260000182815481106114ba576114ba6121d1565b9060005260206000200154905092915050565b60006001600160a01b0384163b156115cf57604051630a85bd0160e11b81526001600160a01b0385169063150b7a0290611511903390899088908890600401611f45565b602060405180830381600087803b15801561152b57600080fd5b505af192505050801561155b575060408051601f3d908101601f1916820190925261155891810190611ddc565b60015b6115b5573d808015611589576040519150601f19603f3d011682016040523d82523d6000602084013e61158e565b606091505b5080516115ad5760405162461bcd60e51b815260040161050890611f95565b805181602001fd5b6001600160e01b031916630a85bd0160e11b149050610cc5565b506001949350505050565b60606115e582610b81565b60006115fc60408051602081019091526000815290565b9050600081511161161c5760405180602001604052806000815250610972565b80611626846119ac565b604051602001611637929190611ea1565b6040516020818303038152906040529392505050565b60006001600160e01b03198216637965db0b60e01b14806103d457506301ffc9a760e01b6001600160e01b03198316146103d4565b606060006116918360026120ac565b61169c906002612080565b67ffffffffffffffff8111156116b4576116b46121e7565b6040519080825280601f01601f1916602001820160405280156116de576020820181803683370190505b509050600360fc1b816000815181106116f9576116f96121d1565b60200101906001600160f81b031916908160001a905350600f60fb1b81600181518110611728576117286121d1565b60200101906001600160f81b031916908160001a905350600061174c8460026120ac565b611757906001612080565b90505b60018111156117cf576f181899199a1a9b1b9c1cb0b131b232b360811b85600f166010811061178b5761178b6121d1565b1a60f81b8282815181106117a1576117a16121d1565b60200101906001600160f81b031916908160001a90535060049490941c936117c88161210e565b905061175a565b5083156109725760405162461bcd60e51b815260206004820181905260248201527f537472696e67733a20686578206c656e67746820696e73756666696369656e746044820152606401610508565b600081815260018301602052604081205480156119075760006118426001836120cb565b8554909150600090611856906001906120cb565b90508181146118bb576000866000018281548110611876576118766121d1565b9060005260206000200154905080876000018481548110611899576118996121d1565b6000918252602080832090910192909255918252600188019052604090208390555b85548690806118cc576118cc6121bb565b6001900381819060005260206000200160009055905585600101600086815260200190815260200160002060009055600193505050506103d4565b60009150506103d4565b600061191c82610874565b9050611929600083610be0565b6001600160a01b038116600090815260cc602052604081208054600192906119529084906120cb565b9091555050600082815260cb602052604080822080546001600160a01b0319169055518391906001600160a01b038416907fddf252ad1be2c89b69c2b068fc378daa952ba7f163c4a11628f55a4df523b3ef908390a45050565b6060816119d05750506040805180820190915260018152600360fc1b602082015290565b8160005b81156119fa57806119e481612160565b91506119f39050600a83612098565b91506119d4565b60008167ffffffffffffffff811115611a1557611a156121e7565b6040519080825280601f01601f191660200182016040528015611a3f576020820181803683370190505b5090505b8415610cc557611a546001836120cb565b9150611a61600a8661217b565b611a6c906030612080565b60f81b818381518110611a8157611a816121d1565b60200101906001600160f81b031916908160001a905350611aa3600a86612098565b9450611a43565b828054611ab690612125565b90600052602060002090601f016020900481019282611ad85760008555611b1e565b82601f10611af157805160ff1916838001178555611b1e565b82800160010185558215611b1e579182015b82811115611b1e578251825591602001919060010190611b03565b50611b2a929150611b64565b5090565b508054611b3a90612125565b6000825580601f10611b4a575050565b601f01602090049060005260206000209081019061087191905b5b80821115611b2a5760008155600101611b65565b80356001600160a01b0381168114611b9057600080fd5b919050565b600060208284031215611ba757600080fd5b61097282611b79565b60008060408385031215611bc357600080fd5b611bcc83611b79565b9150611bda60208401611b79565b90509250929050565b600080600060608486031215611bf857600080fd5b611c0184611b79565b9250611c0f60208501611b79565b9150604084013590509250925092565b60008060008060808587031215611c3557600080fd5b611c3e85611b79565b9350611c4c60208601611b79565b925060408501359150606085013567ffffffffffffffff80821115611c7057600080fd5b818701915087601f830112611c8457600080fd5b813581811115611c9657611c966121e7565b604051601f8201601f19908116603f01168101908382118183101715611cbe57611cbe6121e7565b816040528281528a6020848701011115611cd757600080fd5b82602086016020830137600060208483010152809550505050505092959194509250565b60008060408385031215611d0e57600080fd5b611d1783611b79565b915060208301358015158114611d2c57600080fd5b809150509250929050565b60008060408385031215611d4a57600080fd5b611d5383611b79565b946020939093013593505050565b600060208284031215611d7357600080fd5b5035919050565b60008060408385031215611d8d57600080fd5b82359150611bda60208401611b79565b60008060408385031215611db057600080fd5b50508035926020909101359150565b600060208284031215611dd157600080fd5b8135610972816121fd565b600060208284031215611dee57600080fd5b8151610972816121fd565b600080600060408486031215611e0e57600080fd5b83359250602084013567ffffffffffffffff80821115611e2d57600080fd5b818601915086601f830112611e4157600080fd5b813581811115611e5057600080fd5b876020828501011115611e6257600080fd5b6020830194508093505050509250925092565b60008151808452611e8d8160208601602086016120e2565b601f01601f19169290920160200192915050565b60008351611eb38184602088016120e2565b835190830190611ec78183602088016120e2565b01949350505050565b7f416363657373436f6e74726f6c3a206163636f756e7420000000000000000000815260008351611f088160178501602088016120e2565b7001034b99036b4b9b9b4b733903937b6329607d1b6017918401918201528351611f398160288401602088016120e2565b01602801949350505050565b6001600160a01b0385811682528416602082015260408101839052608060608201819052600090611f7890830184611e75565b9695505050505050565b6020815260006109726020830184611e75565b60208082526032908201527f4552433732313a207472616e7366657220746f206e6f6e20455243373231526560408201527131b2b4bb32b91034b6b83632b6b2b73a32b960711b606082015260800190565b6020808252602b908201527f496e697469616c697a61626c653a20636f6e7472616374206973206e6f74206960408201526a6e697469616c697a696e6760a81b606082015260800190565b6020808252602e908201527f4552433732313a2063616c6c6572206973206e6f7420746f6b656e206f776e6560408201526d1c881b9bdc88185c1c1c9bdd995960921b606082015260800190565b600082198211156120935761209361218f565b500190565b6000826120a7576120a76121a5565b500490565b60008160001904831182151516156120c6576120c661218f565b500290565b6000828210156120dd576120dd61218f565b500390565b60005b838110156120fd5781810151838201526020016120e5565b838111156109f05750506000910152565b60008161211d5761211d61218f565b506000190190565b600181811c9082168061213957607f821691505b6020821081141561215a57634e487b7160e01b600052602260045260246000fd5b50919050565b60006000198214156121745761217461218f565b5060010190565b60008261218a5761218a6121a5565b500690565b634e487b7160e01b600052601160045260246000fd5b634e487b7160e01b600052601260045260246000fd5b634e487b7160e01b600052603160045260246000fd5b634e487b7160e01b600052603260045260246000fd5b634e487b7160e01b600052604160045260246000fd5b6001600160e01b03198116811461087157600080fdfea26469706673582212202d61094d3c5e9c5015969777f51519f77e9d11bcee85b4ef067fd239b16a26bf64736f6c63430008060033496e697469616c697a61626c653a20636f6e7472616374206973206e6f7420699f2df0fed2c77648de5860a4cc508cd0818c85b8b8a1ab4ceeef8d981c8956a67164765a3c8bd2513bdfa0c90f1bee9606e920fbf2c9071f310263fbd818684ba264697066735822122006f5c8486f2fd49767e819836d170dcbc9f32d9b73eeb463707cda3d91611fbd64736f6c63430008060033",
  "linkReferences": {},
  "deployedLinkReferences": {}
}