{
  "_format": "hh-sol-artifact-1",
  "contractName": "EthErc20",
  "sourceName": "contracts/schain/tokens/EthErc20.sol",
  "abi": [
    {
      "anonymous": false,
      "inputs": [
        {
          "indexed": true,
          "internalType": "address",
          "name": "owner",
          "type": "address"
        },
        {
          "indexed": true,
          "internalType": "address",
          "name": "spender",
          "type": "address"
        },
        {
          "indexed": false,
          "internalType": "uint256",
          "name": "value",
          "type": "uint256"
        }
      ],
      "name": "Approval",
      "type": "event"
    },
    {
      "anonymous": false,
      "inputs": [
        {
          "indexed": true,
          "internalType": "bytes32",
          "name": "role",
          "type": "bytes32"
        },
        {
          "indexed": true,
          "internalType": "bytes32",
          "name": "previousAdminRole",
          "type": "bytes32"
        },
        {
          "indexed": true,
          "internalType": "bytes32",
          "name": "newAdminRole",
          "type": "bytes32"
        }
      ],
      "name": "RoleAdminChanged",
      "type": "event"
    },
    {
      "anonymous": false,
      "inputs": [
        {
          "indexed": true,
          "internalType": "bytes32",
          "name": "role",
          "type": "bytes32"
        },
        {
          "indexed": true,
          "internalType": "address",
          "name": "account",
          "type": "address"
        },
        {
          "indexed": true,
          "internalType": "address",
          "name": "sender",
          "type": "address"
        }
      ],
      "name": "RoleGranted",
      "type": "event"
    },
    {
      "anonymous": false,
      "inputs": [
        {
          "indexed": true,
          "internalType": "bytes32",
          "name": "role",
          "type": "bytes32"
        },
        {
          "indexed": true,
          "internalType": "address",
          "name": "account",
          "type": "address"
        },
        {
          "indexed": true,
          "internalType": "address",
          "name": "sender",
          "type": "address"
        }
      ],
      "name": "RoleRevoked",
      "type": "event"
    },
    {
      "anonymous": false,
      "inputs": [
        {
          "indexed": true,
          "internalType": "address",
          "name": "from",
          "type": "address"
        },
        {
          "indexed": true,
          "internalType": "address",
          "name": "to",
          "type": "address"
        },
        {
          "indexed": false,
          "internalType": "uint256",
          "name": "value",
          "type": "uint256"
        }
      ],
      "name": "Transfer",
      "type": "event"
    },
    {
      "inputs": [],
      "name": "BURNER_ROLE",
      "outputs": [
        {
          "internalType": "bytes32",
          "name": "",
          "type": "bytes32"
        }
      ],
      "stateMutability": "view",
      "type": "function"
    },
    {
      "inputs": [],
      "name": "DEFAULT_ADMIN_ROLE",
      "outputs": [
        {
          "internalType": "bytes32",
          "name": "",
          "type": "bytes32"
        }
      ],
      "stateMutability": "view",
      "type": "function"
    },
    {
      "inputs": [],
      "name": "MINTER_ROLE",
      "outputs": [
        {
          "internalType": "bytes32",
          "name": "",
          "type": "bytes32"
        }
      ],
      "stateMutability": "view",
      "type": "function"
    },
    {
      "inputs": [
        {
          "internalType": "address",
          "name": "owner",
          "type": "address"
        },
        {
          "internalType": "address",
          "name": "spender",
          "type": "address"
        }
      ],
      "name": "allowance",
      "outputs": [
        {
          "internalType": "uint256",
          "name": "",
          "type": "uint256"
        }
      ],
      "stateMutability": "view",
      "type": "function"
    },
    {
      "inputs": [
        {
          "internalType": "address",
          "name": "spender",
          "type": "address"
        },
        {
          "internalType": "uint256",
          "name": "amount",
          "type": "uint256"
        }
      ],
      "name": "approve",
      "outputs": [
        {
          "internalType": "bool",
          "name": "",
          "type": "bool"
        }
      ],
      "stateMutability": "nonpayable",
      "type": "function"
    },
    {
      "inputs": [
        {
          "internalType": "address",
          "name": "account",
          "type": "address"
        }
      ],
      "name": "balanceOf",
      "outputs": [
        {
          "internalType": "uint256",
          "name": "",
          "type": "uint256"
        }
      ],
      "stateMutability": "view",
      "type": "function"
    },
    {
      "inputs": [
        {
          "internalType": "uint256",
          "name": "amount",
          "type": "uint256"
        }
      ],
      "name": "burn",
      "outputs": [],
      "stateMutability": "nonpayable",
      "type": "function"
    },
    {
      "inputs": [
        {
          "internalType": "address",
          "name": "account",
          "type": "address"
        },
        {
          "internalType": "uint256",
          "name": "amount",
          "type": "uint256"
        }
      ],
      "name": "burnFrom",
      "outputs": [],
      "stateMutability": "nonpayable",
      "type": "function"
    },
    {
      "inputs": [],
      "name": "decimals",
      "outputs": [
        {
          "internalType": "uint8",
          "name": "",
          "type": "uint8"
        }
      ],
      "stateMutability": "view",
      "type": "function"
    },
    {
      "inputs": [
        {
          "internalType": "address",
          "name": "spender",
          "type": "address"
        },
        {
          "internalType": "uint256",
          "name": "subtractedValue",
          "type": "uint256"
        }
      ],
      "name": "decreaseAllowance",
      "outputs": [
        {
          "internalType": "bool",
          "name": "",
          "type": "bool"
        }
      ],
      "stateMutability": "nonpayable",
      "type": "function"
    },
    {
      "inputs": [
        {
          "internalType": "address",
          "name": "account",
          "type": "address"
        },
        {
          "internalType": "uint256",
          "name": "amount",
          "type": "uint256"
        }
      ],
      "name": "forceBurn",
      "outputs": [],
      "stateMutability": "nonpayable",
      "type": "function"
    },
    {
      "inputs": [
        {
          "internalType": "bytes32",
          "name": "role",
          "type": "bytes32"
        }
      ],
      "name": "getRoleAdmin",
      "outputs": [
        {
          "internalType": "bytes32",
          "name": "",
          "type": "bytes32"
        }
      ],
      "stateMutability": "view",
      "type": "function"
    },
    {
      "inputs": [
        {
          "internalType": "bytes32",
          "name": "role",
          "type": "bytes32"
        },
        {
          "internalType": "uint256",
          "name": "index",
          "type": "uint256"
        }
      ],
      "name": "getRoleMember",
      "outputs": [
        {
          "internalType": "address",
          "name": "",
          "type": "address"
        }
      ],
      "stateMutability": "view",
      "type": "function"
    },
    {
      "inputs": [
        {
          "internalType": "bytes32",
          "name": "role",
          "type": "bytes32"
        }
      ],
      "name": "getRoleMemberCount",
      "outputs": [
        {
          "internalType": "uint256",
          "name": "",
          "type": "uint256"
        }
      ],
      "stateMutability": "view",
      "type": "function"
    },
    {
      "inputs": [
        {
          "internalType": "bytes32",
          "name": "role",
          "type": "bytes32"
        },
        {
          "internalType": "address",
          "name": "account",
          "type": "address"
        }
      ],
      "name": "grantRole",
      "outputs": [],
      "stateMutability": "nonpayable",
      "type": "function"
    },
    {
      "inputs": [
        {
          "internalType": "bytes32",
          "name": "role",
          "type": "bytes32"
        },
        {
          "internalType": "address",
          "name": "account",
          "type": "address"
        }
      ],
      "name": "hasRole",
      "outputs": [
        {
          "internalType": "bool",
          "name": "",
          "type": "bool"
        }
      ],
      "stateMutability": "view",
      "type": "function"
    },
    {
      "inputs": [
        {
          "internalType": "address",
          "name": "spender",
          "type": "address"
        },
        {
          "internalType": "uint256",
          "name": "addedValue",
          "type": "uint256"
        }
      ],
      "name": "increaseAllowance",
      "outputs": [
        {
          "internalType": "bool",
          "name": "",
          "type": "bool"
        }
      ],
      "stateMutability": "nonpayable",
      "type": "function"
    },
    {
      "inputs": [
        {
          "internalType": "address",
          "name": "tokenManagerEthAddress",
          "type": "address"
        }
      ],
      "name": "initialize",
      "outputs": [],
      "stateMutability": "nonpayable",
      "type": "function"
    },
    {
      "inputs": [
        {
          "internalType": "address",
          "name": "account",
          "type": "address"
        },
        {
          "internalType": "uint256",
          "name": "amount",
          "type": "uint256"
        }
      ],
      "name": "mint",
      "outputs": [],
      "stateMutability": "nonpayable",
      "type": "function"
    },
    {
      "inputs": [],
      "name": "name",
      "outputs": [
        {
          "internalType": "string",
          "name": "",
          "type": "string"
        }
      ],
      "stateMutability": "view",
      "type": "function"
    },
    {
      "inputs": [
        {
          "internalType": "bytes32",
          "name": "role",
          "type": "bytes32"
        },
        {
          "internalType": "address",
          "name": "account",
          "type": "address"
        }
      ],
      "name": "renounceRole",
      "outputs": [],
      "stateMutability": "nonpayable",
      "type": "function"
    },
    {
      "inputs": [
        {
          "internalType": "bytes32",
          "name": "role",
          "type": "bytes32"
        },
        {
          "internalType": "address",
          "name": "account",
          "type": "address"
        }
      ],
      "name": "revokeRole",
      "outputs": [],
      "stateMutability": "nonpayable",
      "type": "function"
    },
    {
      "inputs": [
        {
          "internalType": "bytes4",
          "name": "interfaceId",
          "type": "bytes4"
        }
      ],
      "name": "supportsInterface",
      "outputs": [
        {
          "internalType": "bool",
          "name": "",
          "type": "bool"
        }
      ],
      "stateMutability": "view",
      "type": "function"
    },
    {
      "inputs": [],
      "name": "symbol",
      "outputs": [
        {
          "internalType": "string",
          "name": "",
          "type": "string"
        }
      ],
      "stateMutability": "view",
      "type": "function"
    },
    {
      "inputs": [],
      "name": "totalSupply",
      "outputs": [
        {
          "internalType": "uint256",
          "name": "",
          "type": "uint256"
        }
      ],
      "stateMutability": "view",
      "type": "function"
    },
    {
      "inputs": [
        {
          "internalType": "address",
          "name": "recipient",
          "type": "address"
        },
        {
          "internalType": "uint256",
          "name": "amount",
          "type": "uint256"
        }
      ],
      "name": "transfer",
      "outputs": [
        {
          "internalType": "bool",
          "name": "",
          "type": "bool"
        }
      ],
      "stateMutability": "nonpayable",
      "type": "function"
    },
    {
      "inputs": [
        {
          "internalType": "address",
          "name": "sender",
          "type": "address"
        },
        {
          "internalType": "address",
          "name": "recipient",
          "type": "address"
        },
        {
          "internalType": "uint256",
          "name": "amount",
          "type": "uint256"
        }
      ],
      "name": "transferFrom",
      "outputs": [
        {
          "internalType": "bool",
          "name": "",
          "type": "bool"
        }
      ],
      "stateMutability": "nonpayable",
      "type": "function"
    }
  ],
  "bytecode": "0x608060405234801561001057600080fd5b50611b8d806100206000396000f3fe608060405234801561001057600080fd5b50600436106101a95760003560e01c806370a08231116100f9578063a9059cbb11610097578063d539139311610071578063d5391393146103b3578063d547741f146103da578063dd62ed3e146103ed578063e2d6f6341461042657600080fd5b8063a9059cbb1461037a578063c4d66de81461038d578063ca15c873146103a057600080fd5b806391d14854116100d357806391d148541461034457806395d89b4114610357578063a217fddf1461035f578063a457c2d71461036757600080fd5b806370a08231146102dd57806379cc6790146103065780639010d07c1461031957600080fd5b8063282c51f31161016657806336568abe1161014057806336568abe1461029157806339509351146102a457806340c10f19146102b757806342966c68146102ca57600080fd5b8063282c51f3146102465780632f2ff15d1461026d578063313ce5671461028257600080fd5b806301ffc9a7146101ae57806306fdde03146101d6578063095ea7b3146101eb57806318160ddd146101fe57806323b872dd14610210578063248a9ca314610223575b600080fd5b6101c16101bc366004611913565b610439565b60405190151581526020015b60405180910390f35b6101de610464565b6040516101cd91906119b2565b6101c16101f936600461188b565b6104f6565b60cb545b6040519081526020016101cd565b6101c161021e36600461184f565b61050c565b6102026102313660046118b5565b60009081526065602052604090206001015490565b6102027f3c11d16cbaffd01df69ce1c404f6340ee057498f5f00246190ea54220576a84881565b61028061027b3660046118ce565b6105bb565b005b604051601281526020016101cd565b61028061029f3660046118ce565b6105e2565b6101c16102b236600461188b565b610604565b6102806102c536600461188b565b610640565b6102806102d83660046118b5565b6106c4565b6102026102eb366004611801565b6001600160a01b0316600090815260c9602052604090205490565b61028061031436600461188b565b6106d1565b61032c6103273660046118f1565b610752565b6040516001600160a01b0390911681526020016101cd565b6101c16103523660046118ce565b610771565b6101de61079c565b610202600081565b6101c161037536600461188b565b6107ab565b6101c161038836600461188b565b610844565b61028061039b366004611801565b610851565b6102026103ae3660046118b5565b61097b565b6102027f9f2df0fed2c77648de5860a4cc508cd0818c85b8b8a1ab4ceeef8d981c8956a681565b6102806103e83660046118ce565b610992565b6102026103fb36600461181c565b6001600160a01b03918216600090815260ca6020908152604080832093909416825291909152205490565b61028061043436600461188b565b61099c565b60006001600160e01b03198216635a05180f60e01b148061045e575061045e82610a1c565b92915050565b606060cc805461047390611ac4565b80601f016020809104026020016040519081016040528092919081815260200182805461049f90611ac4565b80156104ec5780601f106104c1576101008083540402835291602001916104ec565b820191906000526020600020905b8154815290600101906020018083116104cf57829003601f168201915b5050505050905090565b6000610503338484610a51565b50600192915050565b6000610519848484610b75565b6001600160a01b038416600090815260ca60209081526040808320338452909152902054828110156105a35760405162461bcd60e51b815260206004820152602860248201527f45524332303a207472616e7366657220616d6f756e74206578636565647320616044820152676c6c6f77616e636560c01b60648201526084015b60405180910390fd5b6105b08533858403610a51565b506001949350505050565b6105c58282610d45565b60008281526097602052604090206105dd9082610d6b565b505050565b6105ec8282610d80565b60008281526097602052604090206105dd9082610dfa565b33600081815260ca602090815260408083206001600160a01b0387168452909152812054909161050391859061063b908690611a33565b610a51565b61066a7f9f2df0fed2c77648de5860a4cc508cd0818c85b8b8a1ab4ceeef8d981c8956a633610771565b6106b65760405162461bcd60e51b815260206004820152601760248201527f4d494e54455220726f6c65206973207265717569726564000000000000000000604482015260640161059a565b6106c08282610e0f565b5050565b6106ce3382610eee565b50565b60006106dd83336103fb565b90508181101561073b5760405162461bcd60e51b8152602060048201526024808201527f45524332303a206275726e20616d6f756e74206578636565647320616c6c6f77604482015263616e636560e01b606482015260840161059a565b6107488333848403610a51565b6105dd8383610eee565b600082815260976020526040812061076a908361103c565b9392505050565b60009182526065602090815260408084206001600160a01b0393909316845291905290205460ff1690565b606060cd805461047390611ac4565b33600090815260ca602090815260408083206001600160a01b03861684529091528120548281101561082d5760405162461bcd60e51b815260206004820152602560248201527f45524332303a2064656372656173656420616c6c6f77616e63652062656c6f77604482015264207a65726f60d81b606482015260840161059a565b61083a3385858403610a51565b5060019392505050565b6000610503338484610b75565b600054610100900460ff168061086a575060005460ff16155b6108865760405162461bcd60e51b815260040161059a906119e5565b600054610100900460ff161580156108a8576000805461ffff19166101011790555b6108b0611048565b6108ff60405180604001604052806011815260200170455243323020457468657220436c6f6e6560781b815250604051806040016040528060048152602001634554484360e01b8152506110d3565b610907611152565b6109126000336111b0565b61093c7f9f2df0fed2c77648de5860a4cc508cd0818c85b8b8a1ab4ceeef8d981c8956a6836111b0565b6109667f3c11d16cbaffd01df69ce1c404f6340ee057498f5f00246190ea54220576a848836111b0565b80156106c0576000805461ff00191690555050565b600081815260976020526040812061045e906111ba565b6105ec82826111c4565b6109c67f3c11d16cbaffd01df69ce1c404f6340ee057498f5f00246190ea54220576a84833610771565b610a125760405162461bcd60e51b815260206004820152601760248201527f4255524e455220726f6c65206973207265717569726564000000000000000000604482015260640161059a565b6106c08282610eee565b60006001600160e01b03198216637965db0b60e01b148061045e57506301ffc9a760e01b6001600160e01b031983161461045e565b6001600160a01b038316610ab35760405162461bcd60e51b8152602060048201526024808201527f45524332303a20617070726f76652066726f6d20746865207a65726f206164646044820152637265737360e01b606482015260840161059a565b6001600160a01b038216610b145760405162461bcd60e51b815260206004820152602260248201527f45524332303a20617070726f766520746f20746865207a65726f206164647265604482015261737360f01b606482015260840161059a565b6001600160a01b03838116600081815260ca602090815260408083209487168084529482529182902085905590518481527f8c5be1e5ebec7d5bd14f71427d1e84f3dd0314c0f7b2291e5b200ac8c7c3b925910160405180910390a3505050565b6001600160a01b038316610bd95760405162461bcd60e51b815260206004820152602560248201527f45524332303a207472616e736665722066726f6d20746865207a65726f206164604482015264647265737360d81b606482015260840161059a565b6001600160a01b038216610c3b5760405162461bcd60e51b815260206004820152602360248201527f45524332303a207472616e7366657220746f20746865207a65726f206164647260448201526265737360e81b606482015260840161059a565b6001600160a01b038316600090815260c9602052604090205481811015610cb35760405162461bcd60e51b815260206004820152602660248201527f45524332303a207472616e7366657220616d6f756e7420657863656564732062604482015265616c616e636560d01b606482015260840161059a565b6001600160a01b03808516600090815260c96020526040808220858503905591851681529081208054849290610cea908490611a33565b92505081905550826001600160a01b0316846001600160a01b03167fddf252ad1be2c89b69c2b068fc378daa952ba7f163c4a11628f55a4df523b3ef84604051610d3691815260200190565b60405180910390a35b50505050565b600082815260656020526040902060010154610d6181336111ea565b6105dd838361124e565b600061076a836001600160a01b0384166112d4565b6001600160a01b0381163314610df05760405162461bcd60e51b815260206004820152602f60248201527f416363657373436f6e74726f6c3a2063616e206f6e6c792072656e6f756e636560448201526e103937b632b9903337b91039b2b63360891b606482015260840161059a565b6106c08282611323565b600061076a836001600160a01b03841661138a565b6001600160a01b038216610e655760405162461bcd60e51b815260206004820152601f60248201527f45524332303a206d696e7420746f20746865207a65726f206164647265737300604482015260640161059a565b8060cb6000828254610e779190611a33565b90915550506001600160a01b038216600090815260c9602052604081208054839290610ea4908490611a33565b90915550506040518181526001600160a01b038316906000907fddf252ad1be2c89b69c2b068fc378daa952ba7f163c4a11628f55a4df523b3ef9060200160405180910390a35050565b6001600160a01b038216610f4e5760405162461bcd60e51b815260206004820152602160248201527f45524332303a206275726e2066726f6d20746865207a65726f206164647265736044820152607360f81b606482015260840161059a565b6001600160a01b038216600090815260c9602052604090205481811015610fc25760405162461bcd60e51b815260206004820152602260248201527f45524332303a206275726e20616d6f756e7420657863656564732062616c616e604482015261636560f01b606482015260840161059a565b6001600160a01b038316600090815260c960205260408120838303905560cb8054849290610ff1908490611a6a565b90915550506040518281526000906001600160a01b038516907fddf252ad1be2c89b69c2b068fc378daa952ba7f163c4a11628f55a4df523b3ef9060200160405180910390a3505050565b600061076a838361147d565b600054610100900460ff1680611061575060005460ff16155b61107d5760405162461bcd60e51b815260040161059a906119e5565b600054610100900460ff1615801561109f576000805461ffff19166101011790555b6110a76114a7565b6110af6114a7565b6110b76114a7565b6110bf6114a7565b80156106ce576000805461ff001916905550565b600054610100900460ff16806110ec575060005460ff16155b6111085760405162461bcd60e51b815260040161059a906119e5565b600054610100900460ff1615801561112a576000805461ffff19166101011790555b6111326114a7565b61113c8383611511565b80156105dd576000805461ff0019169055505050565b600054610100900460ff168061116b575060005460ff16155b6111875760405162461bcd60e51b815260040161059a906119e5565b600054610100900460ff161580156110af576000805461ffff19166101011790556110b76114a7565b6105c582826115a6565b600061045e825490565b6000828152606560205260409020600101546111e081336111ea565b6105dd8383611323565b6111f48282610771565b6106c05761120c816001600160a01b031660146115b0565b6112178360206115b0565b60405160200161122892919061193d565b60408051601f198184030181529082905262461bcd60e51b825261059a916004016119b2565b6112588282610771565b6106c05760008281526065602090815260408083206001600160a01b03851684529091529020805460ff191660011790556112903390565b6001600160a01b0316816001600160a01b0316837f2f8788117e7eff1d82e926ec794901d17c78024a50270940304540a733656f0d60405160405180910390a45050565b600081815260018301602052604081205461131b5750815460018181018455600084815260208082209093018490558454848252828601909352604090209190915561045e565b50600061045e565b61132d8282610771565b156106c05760008281526065602090815260408083206001600160a01b0385168085529252808320805460ff1916905551339285917ff6391f5c32d9c69d2a47ea670b442974b53935d1edc7fd64eb21e047a839171b9190a45050565b600081815260018301602052604081205480156114735760006113ae600183611a6a565b85549091506000906113c290600190611a6a565b90508181146114275760008660000182815481106113e2576113e2611b2b565b906000526020600020015490508087600001848154811061140557611405611b2b565b6000918252602080832090910192909255918252600188019052604090208390555b855486908061143857611438611b15565b60019003818190600052602060002001600090559055856001016000868152602001908152602001600020600090556001935050505061045e565b600091505061045e565b600082600001828154811061149457611494611b2b565b9060005260206000200154905092915050565b600054610100900460ff16806114c0575060005460ff16155b6114dc5760405162461bcd60e51b815260040161059a906119e5565b600054610100900460ff161580156110bf576000805461ffff191661010117905580156106ce576000805461ff001916905550565b600054610100900460ff168061152a575060005460ff16155b6115465760405162461bcd60e51b815260040161059a906119e5565b600054610100900460ff16158015611568576000805461ffff19166101011790555b825161157b9060cc90602086019061174c565b50815161158f9060cd90602085019061174c565b5080156105dd576000805461ff0019169055505050565b6106c0828261124e565b606060006115bf836002611a4b565b6115ca906002611a33565b67ffffffffffffffff8111156115e2576115e2611b41565b6040519080825280601f01601f19166020018201604052801561160c576020820181803683370190505b509050600360fc1b8160008151811061162757611627611b2b565b60200101906001600160f81b031916908160001a905350600f60fb1b8160018151811061165657611656611b2b565b60200101906001600160f81b031916908160001a905350600061167a846002611a4b565b611685906001611a33565b90505b60018111156116fd576f181899199a1a9b1b9c1cb0b131b232b360811b85600f16601081106116b9576116b9611b2b565b1a60f81b8282815181106116cf576116cf611b2b565b60200101906001600160f81b031916908160001a90535060049490941c936116f681611aad565b9050611688565b50831561076a5760405162461bcd60e51b815260206004820181905260248201527f537472696e67733a20686578206c656e67746820696e73756666696369656e74604482015260640161059a565b82805461175890611ac4565b90600052602060002090601f01602090048101928261177a57600085556117c0565b82601f1061179357805160ff19168380011785556117c0565b828001600101855582156117c0579182015b828111156117c05782518255916020019190600101906117a5565b506117cc9291506117d0565b5090565b5b808211156117cc57600081556001016117d1565b80356001600160a01b03811681146117fc57600080fd5b919050565b60006020828403121561181357600080fd5b61076a826117e5565b6000806040838503121561182f57600080fd5b611838836117e5565b9150611846602084016117e5565b90509250929050565b60008060006060848603121561186457600080fd5b61186d846117e5565b925061187b602085016117e5565b9150604084013590509250925092565b6000806040838503121561189e57600080fd5b6118a7836117e5565b946020939093013593505050565b6000602082840312156118c757600080fd5b5035919050565b600080604083850312156118e157600080fd5b82359150611846602084016117e5565b6000806040838503121561190457600080fd5b50508035926020909101359150565b60006020828403121561192557600080fd5b81356001600160e01b03198116811461076a57600080fd5b7f416363657373436f6e74726f6c3a206163636f756e7420000000000000000000815260008351611975816017850160208801611a81565b7001034b99036b4b9b9b4b733903937b6329607d1b60179184019182015283516119a6816028840160208801611a81565b01602801949350505050565b60208152600082518060208401526119d1816040850160208701611a81565b601f01601f19169190910160400192915050565b6020808252602e908201527f496e697469616c697a61626c653a20636f6e747261637420697320616c72656160408201526d191e481a5b9a5d1a585b1a5e995960921b606082015260800190565b60008219821115611a4657611a46611aff565b500190565b6000816000190483118215151615611a6557611a65611aff565b500290565b600082821015611a7c57611a7c611aff565b500390565b60005b83811015611a9c578181015183820152602001611a84565b83811115610d3f5750506000910152565b600081611abc57611abc611aff565b506000190190565b600181811c90821680611ad857607f821691505b60208210811415611af957634e487b7160e01b600052602260045260246000fd5b50919050565b634e487b7160e01b600052601160045260246000fd5b634e487b7160e01b600052603160045260246000fd5b634e487b7160e01b600052603260045260246000fd5b634e487b7160e01b600052604160045260246000fdfea26469706673582212203d6cf7b31a7bb44cf80ef4fcd52d8c94f18d15e14008c867d716bf98f9522b9e64736f6c63430008060033",
  "linkReferences": {},
  "deployedLinkReferences": {}
}