{
  "_format": "hh-sol-artifact-1",
  "contractName": "KeyStorage",
  "sourceName": "contracts/schain/KeyStorage.sol",
  "abi": [
    {
      "anonymous": false,
      "inputs": [
        {
          "indexed": true,
          "internalType": "bytes32",
          "name": "role",
          "type": "bytes32"
        },
        {
          "indexed": true,
          "internalType": "bytes32",
          "name": "previousAdminRole",
          "type": "bytes32"
        },
        {
          "indexed": true,
          "internalType": "bytes32",
          "name": "newAdminRole",
          "type": "bytes32"
        }
      ],
      "name": "RoleAdminChanged",
      "type": "event"
    },
    {
      "anonymous": false,
      "inputs": [
        {
          "indexed": true,
          "internalType": "bytes32",
          "name": "role",
          "type": "bytes32"
        },
        {
          "indexed": true,
          "internalType": "address",
          "name": "account",
          "type": "address"
        },
        {
          "indexed": true,
          "internalType": "address",
          "name": "sender",
          "type": "address"
        }
      ],
      "name": "RoleGranted",
      "type": "event"
    },
    {
      "anonymous": false,
      "inputs": [
        {
          "indexed": true,
          "internalType": "bytes32",
          "name": "role",
          "type": "bytes32"
        },
        {
          "indexed": true,
          "internalType": "address",
          "name": "account",
          "type": "address"
        },
        {
          "indexed": true,
          "internalType": "address",
          "name": "sender",
          "type": "address"
        }
      ],
      "name": "RoleRevoked",
      "type": "event"
    },
    {
      "inputs": [],
      "name": "DEFAULT_ADMIN_ROLE",
      "outputs": [
        {
          "internalType": "bytes32",
          "name": "",
          "type": "bytes32"
        }
      ],
      "stateMutability": "view",
      "type": "function"
    },
    {
      "inputs": [],
      "name": "FN_NUM_GET_CONFIG_VARIABLE_UINT256",
      "outputs": [
        {
          "internalType": "uint256",
          "name": "",
          "type": "uint256"
        }
      ],
      "stateMutability": "view",
      "type": "function"
    },
    {
      "inputs": [],
      "name": "FN_NUM_GET_CURRENT_BLS_PUBLIC_KEY",
      "outputs": [
        {
          "internalType": "uint256",
          "name": "",
          "type": "uint256"
        }
      ],
      "stateMutability": "view",
      "type": "function"
    },
    {
      "inputs": [],
      "name": "FREE_MEM_PTR",
      "outputs": [
        {
          "internalType": "uint256",
          "name": "",
          "type": "uint256"
        }
      ],
      "stateMutability": "view",
      "type": "function"
    },
    {
      "inputs": [],
      "name": "getBlsCommonPublicKey",
      "outputs": [
        {
          "components": [
            {
              "components": [
                {
                  "internalType": "uint256",
                  "name": "a",
                  "type": "uint256"
                },
                {
                  "internalType": "uint256",
                  "name": "b",
                  "type": "uint256"
                }
              ],
              "internalType": "struct IFieldOperations.Fp2Point",
              "name": "x",
              "type": "tuple"
            },
            {
              "components": [
                {
                  "internalType": "uint256",
                  "name": "a",
                  "type": "uint256"
                },
                {
                  "internalType": "uint256",
                  "name": "b",
                  "type": "uint256"
                }
              ],
              "internalType": "struct IFieldOperations.Fp2Point",
              "name": "y",
              "type": "tuple"
            }
          ],
          "internalType": "struct IFieldOperations.G2Point",
          "name": "",
          "type": "tuple"
        }
      ],
      "stateMutability": "view",
      "type": "function"
    },
    {
      "inputs": [
        {
          "internalType": "bytes32",
          "name": "role",
          "type": "bytes32"
        }
      ],
      "name": "getRoleAdmin",
      "outputs": [
        {
          "internalType": "bytes32",
          "name": "",
          "type": "bytes32"
        }
      ],
      "stateMutability": "view",
      "type": "function"
    },
    {
      "inputs": [
        {
          "internalType": "bytes32",
          "name": "role",
          "type": "bytes32"
        },
        {
          "internalType": "uint256",
          "name": "index",
          "type": "uint256"
        }
      ],
      "name": "getRoleMember",
      "outputs": [
        {
          "internalType": "address",
          "name": "",
          "type": "address"
        }
      ],
      "stateMutability": "view",
      "type": "function"
    },
    {
      "inputs": [
        {
          "internalType": "bytes32",
          "name": "role",
          "type": "bytes32"
        }
      ],
      "name": "getRoleMemberCount",
      "outputs": [
        {
          "internalType": "uint256",
          "name": "",
          "type": "uint256"
        }
      ],
      "stateMutability": "view",
      "type": "function"
    },
    {
      "inputs": [
        {
          "internalType": "bytes32",
          "name": "role",
          "type": "bytes32"
        },
        {
          "internalType": "address",
          "name": "account",
          "type": "address"
        }
      ],
      "name": "grantRole",
      "outputs": [],
      "stateMutability": "nonpayable",
      "type": "function"
    },
    {
      "inputs": [
        {
          "internalType": "bytes32",
          "name": "role",
          "type": "bytes32"
        },
        {
          "internalType": "address",
          "name": "account",
          "type": "address"
        }
      ],
      "name": "hasRole",
      "outputs": [
        {
          "internalType": "bool",
          "name": "",
          "type": "bool"
        }
      ],
      "stateMutability": "view",
      "type": "function"
    },
    {
      "inputs": [],
      "name": "initialize",
      "outputs": [],
      "stateMutability": "nonpayable",
      "type": "function"
    },
    {
      "inputs": [
        {
          "internalType": "bytes32",
          "name": "role",
          "type": "bytes32"
        },
        {
          "internalType": "address",
          "name": "account",
          "type": "address"
        }
      ],
      "name": "renounceRole",
      "outputs": [],
      "stateMutability": "nonpayable",
      "type": "function"
    },
    {
      "inputs": [
        {
          "internalType": "bytes32",
          "name": "role",
          "type": "bytes32"
        },
        {
          "internalType": "address",
          "name": "account",
          "type": "address"
        }
      ],
      "name": "revokeRole",
      "outputs": [],
      "stateMutability": "nonpayable",
      "type": "function"
    },
    {
      "inputs": [
        {
          "internalType": "bytes4",
          "name": "interfaceId",
          "type": "bytes4"
        }
      ],
      "name": "supportsInterface",
      "outputs": [
        {
          "internalType": "bool",
          "name": "",
          "type": "bool"
        }
      ],
      "stateMutability": "view",
      "type": "function"
    }
  ],
  "bytecode": "0x608060405234801561001057600080fd5b50610e0e806100206000396000f3fe608060405234801561001057600080fd5b50600436106100ea5760003560e01c80639010d07c1161008c578063ab2a585311610066578063ab2a5853146101db578063ca15c873146101e3578063d547741f146101f6578063ecfc7efe1461020957600080fd5b80639010d07c1461019557806391d14854146101c0578063a217fddf146101d357600080fd5b806336568abe116100c857806336568abe1461015d578063554ef7a614610170578063573c8aba146101855780638129fc1c1461018d57600080fd5b806301ffc9a7146100ef578063248a9ca3146101175780632f2ff15d14610148575b600080fd5b6101026100fd366004610b9c565b610211565b60405190151581526020015b60405180910390f35b61013a610125366004610b25565b60009081526065602052604090206001015490565b60405190815260200161010e565b61015b610156366004610b3e565b61023c565b005b61015b61016b366004610b3e565b610263565b610178610285565b60405161010e9190610cbc565b61013a604081565b61015b61029a565b6101a86101a3366004610b7a565b610322565b6040516001600160a01b03909116815260200161010e565b6101026101ce366004610b3e565b610341565b61013a600081565b61013a601381565b61013a6101f1366004610b25565b61036c565b61015b610204366004610b3e565b610383565b61013a601981565b60006001600160e01b03198216635a05180f60e01b148061023657506102368261038d565b92915050565b61024682826103c2565b600082815260976020526040902061025e90826103e8565b505050565b61026d82826103fd565b600082815260976020526040902061025e908261047b565b61028d610ae1565b610295610490565b905090565b600054610100900460ff16806102b3575060005460ff16155b6102d85760405162461bcd60e51b81526004016102cf90610c6e565b60405180910390fd5b600054610100900460ff161580156102fa576000805461ffff19166101011790555b610302610550565b61030d6000336105c7565b801561031f576000805461ff00191690555b50565b600082815260976020526040812061033a90836105d1565b9392505050565b60009182526065602090815260408084206001600160a01b0393909316845291905290205460ff1690565b6000818152609760205260408120610236906105dd565b61026d82826105e7565b60006001600160e01b03198216637965db0b60e01b148061023657506301ffc9a760e01b6001600160e01b0319831614610236565b6000828152606560205260409020600101546103de813361060d565b61025e8383610671565b600061033a836001600160a01b0384166106f7565b6001600160a01b038116331461046d5760405162461bcd60e51b815260206004820152602f60248201527f416363657373436f6e74726f6c3a2063616e206f6e6c792072656e6f756e636560448201526e103937b632b9903337b91039b2b63360891b60648201526084016102cf565b6104778282610746565b5050565b600061033a836001600160a01b0384166107ad565b610498610ae1565b600060409050600080600080600085516080816000836019600019fa815160208084015160408501516060909501518c518490528c5183018290528c83018051879052519092018290529298509096509094509092509050846105475760405162461bcd60e51b815260206004820152602160248201527f4765742063757272656e7420424c53207075626c6963206b6579206661696c656044820152601960fa1b60648201526084016102cf565b50505050505090565b600054610100900460ff1680610569575060005460ff16155b6105855760405162461bcd60e51b81526004016102cf90610c6e565b600054610100900460ff161580156105a7576000805461ffff19166101011790555b6105af6108a7565b6105b76108a7565b6105bf6108a7565b61030d6108a7565b6102468282610911565b600061033a838361091b565b6000610236825490565b600082815260656020526040902060010154610603813361060d565b61025e8383610746565b6106178282610341565b6104775761062f816001600160a01b03166014610945565b61063a836020610945565b60405160200161064b929190610bc6565b60408051601f198184030181529082905262461bcd60e51b82526102cf91600401610c3b565b61067b8282610341565b6104775760008281526065602090815260408083206001600160a01b03851684529091529020805460ff191660011790556106b33390565b6001600160a01b0316816001600160a01b0316837f2f8788117e7eff1d82e926ec794901d17c78024a50270940304540a733656f0d60405160405180910390a45050565b600081815260018301602052604081205461073e57508154600181810184556000848152602080822090930184905584548482528286019093526040902091909155610236565b506000610236565b6107508282610341565b156104775760008281526065602090815260408083206001600160a01b0385168085529252808320805460ff1916905551339285917ff6391f5c32d9c69d2a47ea670b442974b53935d1edc7fd64eb21e047a839171b9190a45050565b600081815260018301602052604081205480156108965760006107d1600183610d22565b85549091506000906107e590600190610d22565b905081811461084a57600086600001828154811061080557610805610dac565b906000526020600020015490508087600001848154811061082857610828610dac565b6000918252602080832090910192909255918252600188019052604090208390555b855486908061085b5761085b610d96565b600190038181906000526020600020016000905590558560010160008681526020019081526020016000206000905560019350505050610236565b6000915050610236565b5092915050565b600054610100900460ff16806108c0575060005460ff16155b6108dc5760405162461bcd60e51b81526004016102cf90610c6e565b600054610100900460ff1615801561030d576000805461ffff1916610101179055801561031f576000805461ff001916905550565b6104778282610671565b600082600001828154811061093257610932610dac565b9060005260206000200154905092915050565b60606000610954836002610d03565b61095f906002610ceb565b67ffffffffffffffff81111561097757610977610dc2565b6040519080825280601f01601f1916602001820160405280156109a1576020820181803683370190505b509050600360fc1b816000815181106109bc576109bc610dac565b60200101906001600160f81b031916908160001a905350600f60fb1b816001815181106109eb576109eb610dac565b60200101906001600160f81b031916908160001a9053506000610a0f846002610d03565b610a1a906001610ceb565b90505b6001811115610a92576f181899199a1a9b1b9c1cb0b131b232b360811b85600f1660108110610a4e57610a4e610dac565b1a60f81b828281518110610a6457610a64610dac565b60200101906001600160f81b031916908160001a90535060049490941c93610a8b81610d69565b9050610a1d565b50831561033a5760405162461bcd60e51b815260206004820181905260248201527f537472696e67733a20686578206c656e67746820696e73756666696369656e7460448201526064016102cf565b60408051608081018252600091810182815260608201929092529081908152602001610b20604051806040016040528060008152602001600081525090565b905290565b600060208284031215610b3757600080fd5b5035919050565b60008060408385031215610b5157600080fd5b8235915060208301356001600160a01b0381168114610b6f57600080fd5b809150509250929050565b60008060408385031215610b8d57600080fd5b50508035926020909101359150565b600060208284031215610bae57600080fd5b81356001600160e01b03198116811461033a57600080fd5b7f416363657373436f6e74726f6c3a206163636f756e7420000000000000000000815260008351610bfe816017850160208801610d39565b7001034b99036b4b9b9b4b733903937b6329607d1b6017918401918201528351610c2f816028840160208801610d39565b01602801949350505050565b6020815260008251806020840152610c5a816040850160208701610d39565b601f01601f19169190910160400192915050565b6020808252602e908201527f496e697469616c697a61626c653a20636f6e747261637420697320616c72656160408201526d191e481a5b9a5d1a585b1a5e995960921b606082015260800190565b8151805182526020908101519082015260808101602083810151805160408501529081015160608401526108a0565b60008219821115610cfe57610cfe610d80565b500190565b6000816000190483118215151615610d1d57610d1d610d80565b500290565b600082821015610d3457610d34610d80565b500390565b60005b83811015610d54578181015183820152602001610d3c565b83811115610d63576000848401525b50505050565b600081610d7857610d78610d80565b506000190190565b634e487b7160e01b600052601160045260246000fd5b634e487b7160e01b600052603160045260246000fd5b634e487b7160e01b600052603260045260246000fd5b634e487b7160e01b600052604160045260246000fdfea2646970667358221220a28373cc9237b5a7b4b929b5e0279dedf7a3bd170744605eaa4118d408f3a72a64736f6c63430008060033",
  "linkReferences": {},
  "deployedLinkReferences": {}
}