{
  "_format": "hh-sol-artifact-1",
  "contractName": "TokenManagerLinker",
  "sourceName": "contracts/schain/TokenManagerLinker.sol",
  "abi": [
    {
      "anonymous": false,
      "inputs": [
        {
          "indexed": true,
          "internalType": "bytes32",
          "name": "role",
          "type": "bytes32"
        },
        {
          "indexed": true,
          "internalType": "bytes32",
          "name": "previousAdminRole",
          "type": "bytes32"
        },
        {
          "indexed": true,
          "internalType": "bytes32",
          "name": "newAdminRole",
          "type": "bytes32"
        }
      ],
      "name": "RoleAdminChanged",
      "type": "event"
    },
    {
      "anonymous": false,
      "inputs": [
        {
          "indexed": true,
          "internalType": "bytes32",
          "name": "role",
          "type": "bytes32"
        },
        {
          "indexed": true,
          "internalType": "address",
          "name": "account",
          "type": "address"
        },
        {
          "indexed": true,
          "internalType": "address",
          "name": "sender",
          "type": "address"
        }
      ],
      "name": "RoleGranted",
      "type": "event"
    },
    {
      "anonymous": false,
      "inputs": [
        {
          "indexed": true,
          "internalType": "bytes32",
          "name": "role",
          "type": "bytes32"
        },
        {
          "indexed": true,
          "internalType": "address",
          "name": "account",
          "type": "address"
        },
        {
          "indexed": true,
          "internalType": "address",
          "name": "sender",
          "type": "address"
        }
      ],
      "name": "RoleRevoked",
      "type": "event"
    },
    {
      "inputs": [],
      "name": "DEFAULT_ADMIN_ROLE",
      "outputs": [
        {
          "internalType": "bytes32",
          "name": "",
          "type": "bytes32"
        }
      ],
      "stateMutability": "view",
      "type": "function"
    },
    {
      "inputs": [],
      "name": "MAINNET_HASH",
      "outputs": [
        {
          "internalType": "bytes32",
          "name": "",
          "type": "bytes32"
        }
      ],
      "stateMutability": "view",
      "type": "function"
    },
    {
      "inputs": [],
      "name": "MAINNET_NAME",
      "outputs": [
        {
          "internalType": "string",
          "name": "",
          "type": "string"
        }
      ],
      "stateMutability": "view",
      "type": "function"
    },
    {
      "inputs": [],
      "name": "REGISTRAR_ROLE",
      "outputs": [
        {
          "internalType": "bytes32",
          "name": "",
          "type": "bytes32"
        }
      ],
      "stateMutability": "view",
      "type": "function"
    },
    {
      "inputs": [
        {
          "internalType": "string",
          "name": "schainName",
          "type": "string"
        }
      ],
      "name": "connectSchain",
      "outputs": [],
      "stateMutability": "nonpayable",
      "type": "function"
    },
    {
      "inputs": [
        {
          "internalType": "string",
          "name": "schainName",
          "type": "string"
        }
      ],
      "name": "disconnectSchain",
      "outputs": [],
      "stateMutability": "nonpayable",
      "type": "function"
    },
    {
      "inputs": [
        {
          "internalType": "bytes32",
          "name": "role",
          "type": "bytes32"
        }
      ],
      "name": "getRoleAdmin",
      "outputs": [
        {
          "internalType": "bytes32",
          "name": "",
          "type": "bytes32"
        }
      ],
      "stateMutability": "view",
      "type": "function"
    },
    {
      "inputs": [
        {
          "internalType": "bytes32",
          "name": "role",
          "type": "bytes32"
        },
        {
          "internalType": "uint256",
          "name": "index",
          "type": "uint256"
        }
      ],
      "name": "getRoleMember",
      "outputs": [
        {
          "internalType": "address",
          "name": "",
          "type": "address"
        }
      ],
      "stateMutability": "view",
      "type": "function"
    },
    {
      "inputs": [
        {
          "internalType": "bytes32",
          "name": "role",
          "type": "bytes32"
        }
      ],
      "name": "getRoleMemberCount",
      "outputs": [
        {
          "internalType": "uint256",
          "name": "",
          "type": "uint256"
        }
      ],
      "stateMutability": "view",
      "type": "function"
    },
    {
      "inputs": [
        {
          "internalType": "bytes32",
          "name": "role",
          "type": "bytes32"
        },
        {
          "internalType": "address",
          "name": "account",
          "type": "address"
        }
      ],
      "name": "grantRole",
      "outputs": [],
      "stateMutability": "nonpayable",
      "type": "function"
    },
    {
      "inputs": [
        {
          "internalType": "bytes32",
          "name": "role",
          "type": "bytes32"
        },
        {
          "internalType": "address",
          "name": "account",
          "type": "address"
        }
      ],
      "name": "hasRole",
      "outputs": [
        {
          "internalType": "bool",
          "name": "",
          "type": "bool"
        }
      ],
      "stateMutability": "view",
      "type": "function"
    },
    {
      "inputs": [
        {
          "internalType": "string",
          "name": "schainName",
          "type": "string"
        }
      ],
      "name": "hasSchain",
      "outputs": [
        {
          "internalType": "bool",
          "name": "connected",
          "type": "bool"
        }
      ],
      "stateMutability": "view",
      "type": "function"
    },
    {
      "inputs": [
        {
          "internalType": "contract ITokenManager",
          "name": "tokenManager",
          "type": "address"
        }
      ],
      "name": "hasTokenManager",
      "outputs": [
        {
          "internalType": "bool",
          "name": "",
          "type": "bool"
        }
      ],
      "stateMutability": "view",
      "type": "function"
    },
    {
      "inputs": [
        {
          "internalType": "contract IMessageProxyForSchain",
          "name": "newMessageProxyAddress",
          "type": "address"
        },
        {
          "internalType": "address",
          "name": "linker",
          "type": "address"
        }
      ],
      "name": "initialize",
      "outputs": [],
      "stateMutability": "nonpayable",
      "type": "function"
    },
    {
      "inputs": [],
      "name": "linkerAddress",
      "outputs": [
        {
          "internalType": "address",
          "name": "",
          "type": "address"
        }
      ],
      "stateMutability": "view",
      "type": "function"
    },
    {
      "inputs": [],
      "name": "messageProxy",
      "outputs": [
        {
          "internalType": "contract IMessageProxyForSchain",
          "name": "",
          "type": "address"
        }
      ],
      "stateMutability": "view",
      "type": "function"
    },
    {
      "inputs": [
        {
          "internalType": "contract ITokenManager",
          "name": "newTokenManager",
          "type": "address"
        }
      ],
      "name": "registerTokenManager",
      "outputs": [],
      "stateMutability": "nonpayable",
      "type": "function"
    },
    {
      "inputs": [
        {
          "internalType": "contract ITokenManager",
          "name": "tokenManagerAddress",
          "type": "address"
        }
      ],
      "name": "removeTokenManager",
      "outputs": [],
      "stateMutability": "nonpayable",
      "type": "function"
    },
    {
      "inputs": [
        {
          "internalType": "bytes32",
          "name": "role",
          "type": "bytes32"
        },
        {
          "internalType": "address",
          "name": "account",
          "type": "address"
        }
      ],
      "name": "renounceRole",
      "outputs": [],
      "stateMutability": "nonpayable",
      "type": "function"
    },
    {
      "inputs": [
        {
          "internalType": "bytes32",
          "name": "role",
          "type": "bytes32"
        },
        {
          "internalType": "address",
          "name": "account",
          "type": "address"
        }
      ],
      "name": "revokeRole",
      "outputs": [],
      "stateMutability": "nonpayable",
      "type": "function"
    },
    {
      "inputs": [
        {
          "internalType": "bytes4",
          "name": "interfaceId",
          "type": "bytes4"
        }
      ],
      "name": "supportsInterface",
      "outputs": [
        {
          "internalType": "bool",
          "name": "",
          "type": "bool"
        }
      ],
      "stateMutability": "view",
      "type": "function"
    },
    {
      "inputs": [
        {
          "internalType": "uint256",
          "name": "",
          "type": "uint256"
        }
      ],
      "name": "tokenManagers",
      "outputs": [
        {
          "internalType": "contract ITokenManager",
          "name": "",
          "type": "address"
        }
      ],
      "stateMutability": "view",
      "type": "function"
    }
  ],
  "bytecode": "0x608060405234801561001057600080fd5b50611769806100206000396000f3fe608060405234801561001057600080fd5b50600436106101425760003560e01c80635573b8b6116100b8578063a217fddf1161007c578063a217fddf146102d9578063b9727f96146102e1578063ca15c873146102f4578063d547741f14610307578063e953c9921461031a578063f68e95531461032d57600080fd5b80635573b8b61461027a57806364a5142f1461028d5780639010d07c146102a057806391d14854146102b3578063990c85e6146102c657600080fd5b8063291f60d31161010a578063291f60d3146101d05780632f2ff15d146101e357806336568abe146101f657806341ecadf914610209578063485cc9551461023457806350f442801461024757600080fd5b806301ffc9a714610147578063041f4c9b1461016f578063173df64b14610182578063248a9ca31461019757806328c5e182146101c8575b600080fd5b61015a61015536600461135d565b610342565b60405190151581526020015b60405180910390f35b61015a61017d3660046113d2565b61036d565b6101956101903660046113d2565b6104cb565b005b6101ba6101a53660046112f2565b60009081526065602052604090206001015490565b604051908152602001610166565b6101ba610613565b6101956101de3660046113b5565b61065c565b6101956101f136600461130b565b6106e2565b61019561020436600461130b565b610709565b61021c6102173660046112f2565b61072b565b6040516001600160a01b039091168152602001610166565b610195610242366004611387565b610755565b61026d6040518060400160405280600781526020016613585a5b9b995d60ca1b81525081565b604051610166919061153e565b60c95461021c906001600160a01b031681565b60ca5461021c906001600160a01b031681565b61021c6102ae36600461133b565b61087d565b61015a6102c136600461130b565b61089c565b6101956102d43660046113d2565b6108c7565b6101ba600081565b6101956102ef3660046113b5565b610a42565b6101ba6103023660046112f2565b610b9e565b61019561031536600461130b565b610bb5565b61015a6103283660046113b5565b610bbf565b6101ba60008051602061171483398151915281565b60006001600160e01b03198216635a05180f60e01b1480610367575061036782610c2e565b92915050565b60cb5460019060005b8181101561043857828015610424575060cb8181548110610399576103996116d2565b6000918252602090912001546040516339927cf960e01b81526001600160a01b03909116906339927cf9906103d490889088906004016114fe565b60206040518083038186803b1580156103ec57600080fd5b505afa158015610400573d6000803e3d6000fd5b505050506040513d601f19601f8201168201806040525081019061042491906112d0565b9250806104308161168b565b915050610376565b508180156104c3575060c954604051634ccd5cd560e11b81526001600160a01b039091169063999ab9aa9061047390879087906004016114fe565b60206040518083038186803b15801561048b57600080fd5b505afa15801561049f573d6000803e3d6000fd5b505050506040513d601f19601f820116820180604052508101906104c391906112d0565b949350505050565b6104e36000805160206117148339815191523361089c565b6105085760405162461bcd60e51b81526004016104ff90611571565b60405180910390fd5b60cb5460005b818110156105a95760cb8181548110610529576105296116d2565b600091825260209091200154604051633038c4b760e21b81526001600160a01b039091169063c0e312dc9061056490879087906004016114fe565b600060405180830381600087803b15801561057e57600080fd5b505af1158015610592573d6000803e3d6000fd5b5050505080806105a19061168b565b91505061050e565b5060c954604051633cdd2cc360e01b81526001600160a01b0390911690633cdd2cc3906105dc90869086906004016114fe565b600060405180830381600087803b1580156105f657600080fd5b505af115801561060a573d6000803e3d6000fd5b50505050505050565b6040518060400160405280600781526020016613585a5b9b995d60ca1b815250604051602001610643919061146d565b6040516020818303038152906040528051906020012081565b6106746000805160206117148339815191523361089c565b6106905760405162461bcd60e51b81526004016104ff90611571565b60cb80546001810182556000919091527fa7ce836d032b2bf62b7e2097a8e0a6d8aeb35405ad15271e96d3b0188a1d06fb0180546001600160a01b0319166001600160a01b0392909216919091179055565b6106ec8282610c63565b60008281526097602052604090206107049082610c89565b505050565b6107138282610c9e565b60008281526097602052604090206107049082610d1c565b60cb818154811061073b57600080fd5b6000918252602090912001546001600160a01b0316905081565b600054610100900460ff168061076e575060005460ff16155b61078a5760405162461bcd60e51b81526004016104ff906115a8565b600054610100900460ff161580156107ac576000805461ffff19166101011790555b6001600160a01b0382166108025760405162461bcd60e51b815260206004820152601c60248201527f4c696e6b657220616464726573732068617320746f206265207365740000000060448201526064016104ff565b61080a610d31565b610815600033610dbd565b61082d60008051602061171483398151915233610dbd565b60c980546001600160a01b038086166001600160a01b03199283161790925560ca80549285169290911691909117905560cc805460ff191690558015610704576000805461ff0019169055505050565b60008281526097602052604081206108959083610dc7565b9392505050565b60009182526065602090815260408084206001600160a01b0393909316845291905290205460ff1690565b6108df6000805160206117148339815191523361089c565b6108fb5760405162461bcd60e51b81526004016104ff90611571565b60005b60cb548110156109d95760cb818154811061091b5761091b6116d2565b9060005260206000200160009054906101000a90046001600160a01b03166001600160a01b031663cb703bff848460cb858154811061095c5761095c6116d2565b6000918252602090912001546040516001600160e01b031960e086901b1681526109949392916001600160a01b031690600401611512565b600060405180830381600087803b1580156109ae57600080fd5b505af11580156109c2573d6000803e3d6000fd5b5050505080806109d19061168b565b9150506108fe565b5060c95460405163f2f6360560e01b81526001600160a01b039091169063f2f6360590610a0c90859085906004016114fe565b600060405180830381600087803b158015610a2657600080fd5b505af1158015610a3a573d6000803e3d6000fd5b505050505050565b610a5a6000805160206117148339815191523361089c565b610a765760405162461bcd60e51b81526004016104ff90611571565b60cb546000905b80821015610ad457826001600160a01b031660cb8381548110610aa257610aa26116d2565b6000918252602090912001546001600160a01b03161415610ac257610ad4565b81610acc8161168b565b925050610a7d565b8082101561070457610ae760018261162d565b821015610b665760cb610afb60018361162d565b81548110610b0b57610b0b6116d2565b60009182526020909120015460cb80546001600160a01b039092169184908110610b3757610b376116d2565b9060005260206000200160006101000a8154816001600160a01b0302191690836001600160a01b031602179055505b60cb805480610b7757610b776116bc565b600082815260209020810160001990810180546001600160a01b0319169055019055505050565b600081815260976020526040812061036790610dd3565b6107138282610ddd565b60cb5460009081905b80821015610c2457836001600160a01b031660cb8381548110610bed57610bed6116d2565b6000918252602090912001546001600160a01b03161415610c12575060019392505050565b81610c1c8161168b565b925050610bc8565b5060009392505050565b60006001600160e01b03198216637965db0b60e01b148061036757506301ffc9a760e01b6001600160e01b0319831614610367565b600082815260656020526040902060010154610c7f8133610e03565b6107048383610e67565b6000610895836001600160a01b038416610eed565b6001600160a01b0381163314610d0e5760405162461bcd60e51b815260206004820152602f60248201527f416363657373436f6e74726f6c3a2063616e206f6e6c792072656e6f756e636560448201526e103937b632b9903337b91039b2b63360891b60648201526084016104ff565b610d188282610f3c565b5050565b6000610895836001600160a01b038416610fa3565b600054610100900460ff1680610d4a575060005460ff16155b610d665760405162461bcd60e51b81526004016104ff906115a8565b600054610100900460ff16158015610d88576000805461ffff19166101011790555b610d90611096565b610d98611096565b610da0611096565b610da8611096565b8015610dba576000805461ff00191690555b50565b6106ec8282611100565b6000610895838361110a565b6000610367825490565b600082815260656020526040902060010154610df98133610e03565b6107048383610f3c565b610e0d828261089c565b610d1857610e25816001600160a01b03166014611134565b610e30836020611134565b604051602001610e41929190611489565b60408051601f198184030181529082905262461bcd60e51b82526104ff9160040161153e565b610e71828261089c565b610d185760008281526065602090815260408083206001600160a01b03851684529091529020805460ff19166001179055610ea93390565b6001600160a01b0316816001600160a01b0316837f2f8788117e7eff1d82e926ec794901d17c78024a50270940304540a733656f0d60405160405180910390a45050565b6000818152600183016020526040812054610f3457508154600181810184556000848152602080822090930184905584548482528286019093526040902091909155610367565b506000610367565b610f46828261089c565b15610d185760008281526065602090815260408083206001600160a01b0385168085529252808320805460ff1916905551339285917ff6391f5c32d9c69d2a47ea670b442974b53935d1edc7fd64eb21e047a839171b9190a45050565b6000818152600183016020526040812054801561108c576000610fc760018361162d565b8554909150600090610fdb9060019061162d565b9050818114611040576000866000018281548110610ffb57610ffb6116d2565b906000526020600020015490508087600001848154811061101e5761101e6116d2565b6000918252602080832090910192909255918252600188019052604090208390555b8554869080611051576110516116bc565b600190038181906000526020600020016000905590558560010160008681526020019081526020016000206000905560019350505050610367565b6000915050610367565b600054610100900460ff16806110af575060005460ff16155b6110cb5760405162461bcd60e51b81526004016104ff906115a8565b600054610100900460ff16158015610da8576000805461ffff19166101011790558015610dba576000805461ff001916905550565b610d188282610e67565b6000826000018281548110611121576111216116d2565b9060005260206000200154905092915050565b6060600061114383600261160e565b61114e9060026115f6565b67ffffffffffffffff811115611166576111666116e8565b6040519080825280601f01601f191660200182016040528015611190576020820181803683370190505b509050600360fc1b816000815181106111ab576111ab6116d2565b60200101906001600160f81b031916908160001a905350600f60fb1b816001815181106111da576111da6116d2565b60200101906001600160f81b031916908160001a90535060006111fe84600261160e565b6112099060016115f6565b90505b6001811115611281576f181899199a1a9b1b9c1cb0b131b232b360811b85600f166010811061123d5761123d6116d2565b1a60f81b828281518110611253576112536116d2565b60200101906001600160f81b031916908160001a90535060049490941c9361127a81611674565b905061120c565b5083156108955760405162461bcd60e51b815260206004820181905260248201527f537472696e67733a20686578206c656e67746820696e73756666696369656e7460448201526064016104ff565b6000602082840312156112e257600080fd5b8151801515811461089557600080fd5b60006020828403121561130457600080fd5b5035919050565b6000806040838503121561131e57600080fd5b823591506020830135611330816116fe565b809150509250929050565b6000806040838503121561134e57600080fd5b50508035926020909101359150565b60006020828403121561136f57600080fd5b81356001600160e01b03198116811461089557600080fd5b6000806040838503121561139a57600080fd5b82356113a5816116fe565b91506020830135611330816116fe565b6000602082840312156113c757600080fd5b8135610895816116fe565b600080602083850312156113e557600080fd5b823567ffffffffffffffff808211156113fd57600080fd5b818501915085601f83011261141157600080fd5b81358181111561142057600080fd5b86602082850101111561143257600080fd5b60209290920196919550909350505050565b81835281816020850137506000828201602090810191909152601f909101601f19169091010190565b6000825161147f818460208701611644565b9190910192915050565b7f416363657373436f6e74726f6c3a206163636f756e74200000000000000000008152600083516114c1816017850160208801611644565b7001034b99036b4b9b9b4b733903937b6329607d1b60179184019182015283516114f2816028840160208801611644565b01602801949350505050565b6020815260006104c3602083018486611444565b604081526000611526604083018587611444565b905060018060a01b0383166020830152949350505050565b602081526000825180602084015261155d816040850160208701611644565b601f01601f19169190910160400192915050565b6020808252601a908201527f5245474953545241525f524f4c45206973207265717569726564000000000000604082015260600190565b6020808252602e908201527f496e697469616c697a61626c653a20636f6e747261637420697320616c72656160408201526d191e481a5b9a5d1a585b1a5e995960921b606082015260800190565b60008219821115611609576116096116a6565b500190565b6000816000190483118215151615611628576116286116a6565b500290565b60008282101561163f5761163f6116a6565b500390565b60005b8381101561165f578181015183820152602001611647565b8381111561166e576000848401525b50505050565b600081611683576116836116a6565b506000190190565b600060001982141561169f5761169f6116a6565b5060010190565b634e487b7160e01b600052601160045260246000fd5b634e487b7160e01b600052603160045260246000fd5b634e487b7160e01b600052603260045260246000fd5b634e487b7160e01b600052604160045260246000fd5b6001600160a01b0381168114610dba57600080fdfeedcc084d3dcd65a1f7f23c65c46722faca6953d28e43150a467cf43e5c309238a26469706673582212207254dbe2575a50d8880799662967c58529c7974cf60ef41ab920bebd140ce4e264736f6c63430008060033",
  "linkReferences": {},
  "deployedLinkReferences": {}
}